:100000000C9400070C941D070C941D070C94EA3304
:100010000C941D070C941D070C941D070C941D07D0
:100020000C941D070C941D070C9411190C94991D28
:100030000C94F42A0C941D070C941D070C941D07B6
:100040000C941D070C941D070C941D070C941D07A0
:100050000C941D070C94EA190C941D070C941D07B1
:100060000C941D070C941D070C941D070C941D0780
:100070000C941D070C941D070C941D070C941D0770
:100080000C941D070C941D070C941D070C941D0760
:100090000C941D070C941D070C941D070C941D0750
:1000A0000C941D070C941D070C941D0705010902F3
:1000B000A10185020901A1000509190129081500FE
:1000C0002501950875018102050109300931158165
:1000D000257F95027508810609381581257F9501D0
:1000E00075088106050C0A38021581257F95017572
:1000F000088106C0C005010980A101850319012AF4
:10010000B700150126B700950175108100C0050CD8
:100110000901A101850419012AA002150126A002E6
:10012000950175108100C00660FF0961A101096297
:10013000150026FF00952075088102096315002629
:10014000FF00952075089102C005010906A101056F
:100150000719E029E7150025019508750181029529
:1001600001750881010507190029FF150026FF0008
:100170009506750881000508190129059505750181
:100180009102950175039101C0000000000000007C
:10019000000000000000000000000000000000005F
:1001A000000000000000000000000000007E0F00C2
:1001B000D4FFFFFFC700000078000000000000002F
:1001C000002A2B28000000000000000000000000B2
:1001D0000000000029000000002C1E3420212224F1
:1001E000342627252E362D3738271E1F202122237F
:1001F0002425263333362E37381F04050607080911
:100200000A0B0C0D0E0F10111213141516171819D6
:100210001A1B1C1D2F3130232D3504050607080934
:100220000A0B0C0D0E0F10111213141516171819B6
:100230001A1B1C1D2F3130354C00DA0281FFD9F119
:10024000DB20A4A62EAF00A0C000A1C800AED580C0
:10025000A81FD300408D1420002D2D2D2D2D000A18
:1002600000204D78002053636C20005249474854C9
:10027000000A00204D78002053636C200053435245
:100280003A5F005343523A40002D2D2D2D2D5450EE
:100290004D4F444C45465420004341503A5F004383
:1002A00041503A40004E554D3A5F004E554D3A4050
:1002B000002D2D2D2D2D53544154532D2D2D2D2DED
:1002C000002055444620002041444A200020524945
:1002D000532000204C575220002044454620002D3A
:1002E0002D2D2D2D4C4159455200000000000000DD
:1002F000000000000000000080C0E0E0F0F0F0F03E
:10030000F0F0F0F0F0F0F0F0F0F0F0F0F0F0F0F0ED
:10031000F0F0F0E0C00000000080E0E0F0F0F0F06D
:10032000F0F0F0F0F0F0F0F0F0F0F0F0F0F0F0F0CD
:10033000F0F0F0F0F0F0F0F0F0F0F0F0F0F0F0F0BD
:10034000F0F0F0F0F0F0F0F0F0F0F0F0F0F0F0F0AD
:10035000F0F0F0F0F0F0F0F0F0F0F0F0F0F0F0E0AD
:10036000C0000000000000000000000000000000CD
:10037000000000000000007FFFFFFFFFFFFFFFFF06
:10038000FFFFFFFFFFFFFFFFFFFFFFFFFFFFFFFF7D
:10039000FFFFFFFFFF00000000FFFFFFFFFFFFFF69
:1003A000FFFF87070303030303030303030303039D
:1003B0000303030303030303030303030303038789
:1003C000FFFFFFFFFFFFFFFFFFFFFFFFFFFFFFFF3D
:1003D000FFFFFFFFFFFFFFFFFFFFFF7F3F1F0F0735
:1003E000010000000000000000000000000000000C
:1003F00000000000000000000001010303030303EC
:10040000030303030303030303030303030303FFC0
:10041000FFFFFFFFFF00000000FFFFFFFFFFFFFFE8
:10042000FFFFFFFFFFFFFFFFFFFFFFFFFFFFFFFFDC
:10043000FFFFFFFFFFFFFFFFFFFFFFFFFFFFFFFFCC
:10044000FFFFFFFFFFFFFFFFFFFFFFFFFFFFFFFFBC
:10045000FFFF7F3F3F1F0F07030100000000000068
:10046000000000000000000000000000000000008C
:10047000000000000000000000000000000000007C
:100480000000000000000000000000000000000765
:100490000F0F0F0F0700000000030F0F0F0F0F0FBC
:1004A0000F0F0F0F0F0F0F0F0F0F0F0F0F0F0F0F5C
:1004B0000F0F0F0F0F0F0F0F0F0F0F0F0F0F0F0F4C
:1004C0000F0F0F0F0F0F0F0F070707030303010194
:1004D000000000000000000000000000000000001C
:1004E0000000000000000000000000010101010107
:1004F00001010101020202020202020202030303DD
:1005000003030303030404040404040405050505AC
:10051000050606060606070707070708080808096C
:100520000909090A0A0A0B0B0B0C0C0C0D0D0D0E18
:100530000E0E0F0F0F1010111111121213131414AD
:10054000151516161717181819191A1A1B1B1C1D22
:100550001D1E1E1F2020212222232424252626277B
:100560002829292A2B2C2D2D2E2F303132323334AD
:1005700035363738393A3B3C3D3E3F4041424344B3
:1005800045464748494A4C4D4E4F50515354555695
:1005900058595A5B5D5E5F616264656668696B6C41
:1005A0006D6F7072737577787A7B7D7E80828385BC
:1005B00087888A8C8E8F91939596989A9C9EA0A2FC
:1005C000A3A5A7A9ABADAFB1B3B5B7BABCBEC0C206
:1005D000C4C6C9CBCDCFD1D4D6D8DBDDDFE2E4E7CA
:1005E000E9EBEEF0F3F5F8FAFDFF00AF00AE2900FD
:1005F0001E001F002000210022002F0035001400E3
:100600001A000800150017002D002B00040016002A
:10061000070009000A004C00E1001D001B00060055
:10062000190005002C00E000E300E2003504815FC2
:100630002C004C0046002700260025002400230043
:1006400030003100130012000C0018001C002E00B6
:10065000340033000F000E000D000B002A00E500EF
:100660003800370036001000110028004F005200FB
:1006700051005000825F28002A0044003A003B00ED
:100680003C003D003E002F0235021E021F022002E8
:10069000210222022D022B001E001F00200021003B
:1006A00022004C00E1002300240025002600270042
:1006B0002C00E000E300E2003504815F2C004C00D8
:1006C000450043004200410040003F00300231023B
:1006D000270226022502240223022E0234023302BC
:1006E0000F000E000D000B002A00E5003802370253
:1006F00036021000110028004D004B004E004A0049
:10070000825F28002A0044003A003B003C003D0084
:100710003E002F0235021E021F0220022102220289
:100720002D022B001E001F002000210022004C0083
:10073000E100230024002500260027002C00E00013
:10074000E300E2003504815F2C004C0045004300CB
:100750004200410040003F003002310227022602E1
:100760002502240223022E02340233020F000E005F
:100770000D000B002A00E500380237023602100097
:1007800011002800845F855F4E004A00825F2800C8
:100790002A00010001000100010001000100010028
:1007A0000100005CC25CC35CC65CC55C010001006A
:1007B0000100BF5CC15CBE5CBD5C010001000100CA
:1007C0000100010001000100010001000100010021
:1007D0000100010001000100010001000100010011
:1007E00001000100010001000100C95CCA5CC75C96
:1007F000C85C0100010001000100010001000100CE
:1008000001000100010001000100010001000100E0
:1008100001000100010001000100010001000902C6
:100820005B00030100A0FA090400000103010100BC
:100830000921110100012240000705810308000180
:100840000904010002030000000921110100012236
:100850002200070582032000010705030320000191
:100860000904020001030000000921110100012216
:100870007B00070584032000011201000200000034
:10088000081DFE60600001010200011403450072B2
:100890000067006F006B006E006900660065000075
:1008A00000180354006F0075006300680073006552
:1008B000006E0073006F007200000004030904075B
:1008C000087F0807003E5B4F5B3E003E6B4F6B3E70
:1008D000001C3E7C3E1C00183C7E3C18001C577DD2
:1008E000571C001C5E7F5E1C0000183C180000FFB7
:1008F000E7C3E7FF00001824180000FFE7DBE7FF6D
:100900000030483A060E00262979292600407F0546
:10091000050700407F05253F005A3CE73C5A007F11
:100920003E1C1C0800081C1C3E7F0014227F221461
:10093000005F5F005F5F0006097F017F000066893E
:10094000956A0060606060600094A2FFA294000855
:10095000047E04080010207E20100008082A1C08CD
:1009600000081C2A0808001E10101010000C1E0C95
:100970001E0C0030383E383000060E3E0E060000D9
:10098000000000000000005F0000000007000700FA
:1009900000147F147F1400242A7F2A1200231308D6
:1009A000646200364956205000000807030000002A
:1009B0001C224100000041221C00002A1C7F1C2A2E
:1009C0000008083E08080000807030000008080891
:1009D0000808000000606000002010080402003ECB
:1009E0005149453E0000427F400000724949494656
:1009F000002141494D33001814127F10002745454E
:100A00004539003C4A494931004121110907003666
:100A10004949493600464949291E00000014000092
:100A20000000403400000000081422410014141497
:100A30001414000041221408000201590906003E66
:100A4000415D594E007C1211127C007F49494936A4
:100A5000003E41414122007F4141413E007F4949E2
:100A60004941007F09090901003E41415173007F5E
:100A70000808087F0000417F4100002040413F01FD
:100A8000007F08142241007F40404040007F021C4C
:100A9000027F007F0408107F003E4141413E007FFD
:100AA00009090906003E4151215E007F09192946C6
:100AB0000026494949320003017F0103003F4040BD
:100AC000403F001F2040201F003F4038403F006350
:100AD00014081463000304780403006159494D436A
:100AE00000007F4141410002040810200000414104
:100AF000417F0004020102040040404040400000E9
:100B000003070800002054547840007F28444438EC
:100B100000384444442800384444287F0038545462
:100B200054180000087E09020018A4A49C78007FD5
:100B3000080404780000447D4000002040403D004F
:100B4000007F102844000000417F4000007C0478B2
:100B50000478007C0804047800384444443800FCDD
:100B6000182424180018242418FC007C0804040805
:100B70000048545454240004043F4424003C4040A2
:100B8000207C001C2040201C003C4030403C0044A5
:100B900028102844004C9090907C004464544C44AD
:100BA00000000836410000000077000000004136D8
:100BB0000800000201020402003C2623263C00003B
:100BC0000000000000404040F0F8F8FF38FFF8F85F
:100BD0003FF8F8FF38FFF8F8F04040400000000010
:100BE000000080C0C0C0800000C0C0800000008045
:100BF000C0C000C0C0000080C0C00000000000C035
:100C0000C0C0C0C000C0C000000000000000000064
:100C100000000000000000000000000000000000D4
:100C200000000000000000000000000000000000C4
:100C30000000000000000000000000000000C0F004
:100C4000F8FC3E1E06010000007F4141417F007F0D
:100C50004141417F000080C0E07E5B4F5BFEC000F1
:100C600000C000DCD7DEDEDED7DC00C00000000004
:100C70000000000000000000000000000000000074
:100C80000000000000494949FFFFFFFFE0DFBFBF50
:100C900000BFBFDFE0FFFFFFFF4949490000000040
:100CA000001F3F6060E0BF1F007F7F071E381E07E8
:100CB0007F7F007F7F0E1F3B716000000000007F80
:100CC0007F0C0C0C007E7E007F7E0303007F7E0382
:100CD000037E7E03037F7E000F3E703C063C703E29
:100CE0000F00327B49493F7E007F7E0303001E3F99
:100CF00069696F2600000000000000000000030F7B
:100D00001F3F3C7870600000007F4141417F007FC1
:100D10004141417F00307B7F7830202030787F3B1D
:100D20000003000F7F0F0F0F7F0F00030000000074
:100D300000000000000000000000000000000000B3
:100D40000000000000010101070F0F7F0F7F0F0F50
:100D50007E0F0F7F0F7F0F0F0701010100000000C2
:100D60000000000000000101000000000000000081
:100D70000000000000000000000000000000000073
:100D80000000000000000000000000000000000063
:100D90000000000000000000000000000000000053
:100DA0000000000000000000000000000000000043
:100DB0000000000000000000000000000000000033
:100DC0000000000000000000000000000000000023
:100DD0000000000000000000000000000000000013
:100DE0000000000000000000000000000000000003
:100DF00000000000000000000000000000000000F3
:100E000011241FBECFEFDAE0DEBFCDBF11E0A0E0BE
:100E1000B1E0E2ECFDE602C005900D92A23DB10703
:100E2000D9F726E0A2EDB1E001C01D92AC31B207C6
:100E3000E1F70E941B2B0C94AD360C940000E8EDFA
:100E4000F0E080818E7F80831092E2001092DA00C1
:100E50001092E100A0EEB0E08C9181608C938081D3
:100E60008F77808319BCA7EDB0E08C918E7F8C9337
:100E700080818F7E80831092F60308952091E40094
:100E80003091E50095E6A9012091EC00822F817058
:100E900020FF06C08091E80080FF06C080E0089532
:100EA0002091E80022FD1AC080910304882389F074
:100EB000853089F08091EB0085FD0FC02091E40022
:100EC0003091E50042175307F9F29150E1F684E0C2
:100ED000089582E0089583E0089581E00895EF92F7
:100EE000FF920F931F93CF937C018B010E943E07CB
:100EF000C82F811117C08091E80085FD0BC080913B
:100F0000E8008E778093E8000E943E07882399F3DB
:100F1000C82F08C0F70181917F018093F100015033
:100F2000110949F78C2FCF911F910F91FF90EF90EE
:100F300008958091050487FF13C08091E80082FF27
:100F400006C08091E8008B778093E80004C0809110
:100F500003048111F2CF0895809103048823D9F30B
:100F60008091E80080FFF8CF8091E8008E77ECCF89
:100F7000982F9093E900242F762F50E0891731F0B5
:100F80007091EC002091ED005091F00021FD07C020
:100F90009F5F973071F78093E90081E00895309169
:100FA000EB003E7F3093EB003091ED003D7F3093BE
:100FB000ED003091EB0031603093EB007093EC006A
:100FC0002093ED005093F0002091EE0027FDE0CF3C
:100FD00080E00895B0E0A0E0E0EFF7E00C94243565
:100FE000C8EDD0E088818F7E8883E7EDF0E08081D6
:100FF0008160808384E082BF81E08093F6038881F2
:101000008E7F888302EE10E0F80110821092DA00E1
:1010100081EEC82ED12CF601108288818F778883CB
:1010200088818068888388818F7D888319BC10922D
:10103000030410920404109202041092010490EE32
:10104000E92EF12CF70180818B7F8083888181607C
:10105000888342E060E080E00E94B807F60180816A
:101060008E7F8083F80180818160808380818860A9
:101070008083F70180818E7F80838881806188836F
:10108000CDB7DEB7E8E00C944035FC0180910B044D
:1010900090910C0486179707A0F06115710529F44B
:1010A0009091E8009E779093E80090E061157105BB
:1010B00051F4911108C08091E80082FF34C080E0B3
:1010C0000895BC01F2CF809103048823C1F18530DB
:1010D000C1F18091E80083FD30C08091E80082FD7D
:1010E000EACF8091E80080FFE1CF8091F30020916A
:1010F000F200382F6115710519F02830310558F0CC
:1011000091E02830310509F090E02091E8002E7739
:101110002093E800CBCF81918093F1006150710959
:101120002F5F3F4FE7CF80910304882341F0853044
:1011300041F08091E80083FFBECF81E0089582E016
:10114000089583E0089508958091F803089587E74E
:1011500097E7909301088093000888E19AE00FB622
:10116000F894A895809360000FBE90936000FFCF25
:101170002FB7F8946091EF037091F0038091F10321
:101180009091F2032FBF08952091EC033091ED036D
:101190002817390771F09093ED038093EC03E091E9
:1011A000EA03F091EB03309721F00084F185E02D04
:1011B000099508952091E8033091E903281739072C
:1011C00071F09093E9038093E803E091EA03F091D2
:1011D000EB03309721F00680F781E02D0995089503
:1011E000E091EA03F091EB03309739F022E0DC0163
:1011F0002C930480F581E02D09950895FC01680F7A
:10120000791F8FEF91E32191822728E030E087FF5B
:1012100009C0880F892721503109C9F7E617F70758
:1012200091F70895880FF7CFFA01811101C0FB01F2
:10123000099508958091DC03982F9E7F71F4809129
:10124000DC03817082608093DC038091DF03893747
:1012500018F088E78093DF030895843080F7F5CF96
:101260004091EC02803F59F48091ED0287FF0DC060
:101270001092ED0241110BC01092E40208C0813FB0
:1012800081F48091ED0218169CF3442381F0809143
:10129000EE029091EF02892B09F05AC01092E302FE
:1012A0000895823F49F447FFF0CF1092EC028091FD
:1012B000ED028111ECCFE0CF833F19F41416ACF3AB
:1012C000E4CF9091EE02893F29F41916F4F61092BA
:1012D000EE02DBCF8A3F19F497FFD7CFF8CF90917A
:1012E000EF028B3F29F497FFD0CF1092EF02CDCFC2
:1012F0008C3F19F41916CCF3C8CF9CE0980F9530A9
:1013000090F4845F990B21E030E0B90102C0660FD0
:10131000771F8A95E2F7CB0180959091EB028923A4
:101320008093EB02B2CF8D3F31F48091E5028E7F46
:101330008093E502AACF8E3F21F48091E5028D7F54
:10134000F7CF8F3F09F0A1CF8091E5028B7FF0CFDF
:1013500008958091E50280FD16C081FD16C082FDD2
:1013600016C08091E3028823A1F0883280F428E03F
:10137000829FC001112468E270E00E946B35862FC5
:10138000672B39F0089582E0089584E0089588E09D
:10139000089581E008958091E50280FD14C081FDEB
:1013A00014C082FD16C08091E402882381F08E3142
:1013B00080F420E5829FC00111246EE170E00E945C
:1013C0006B35862F089584E1089588E2089588E0BA
:1013D000089580E50895803F31F40E94CB098195FE
:1013E0008093ED020895813F19F40E94CB09F8CF54
:1013F000823F31F40E94CB0981958093EC020895DD
:10140000833F19F40E94CB09F8CF893F29F40E9449
:10141000A9098093EE0208958A3F21F40E94A90948
:101420008195F7CF8B3F31F40E94A9098195809374
:10143000EF0208958C3F19F40E94A909F8CF9CE0AF
:10144000980F953070F4845F990B21E030E001C073
:10145000220F8A95EAF78091EB02822B8093EB02B0
:1014600008958D3F31F48091E50281608093E5021B
:1014700008958E3F21F48091E5028260F7CF8F3F7F
:10148000B9F78091E5028460F1CF80E00895F89487
:10149000E82FE295EF70F0E031A1282F2F7081E066
:1014A00090E001C0880F2A95EAF7982F9095932332
:1014B00091A392A1892B82A37894089590919E0282
:1014C00092FF06C0282F28712830F9F4877F8460A6
:1014D00093FF06C0282F28712831F1F4877E84619C
:1014E00020919F0220FF06C0382F38713830D9F480
:1014F000877F816021FF06C0282F28712831D1F411
:10150000877E816194FD877E0895282F2471243081
:10151000F9F68B7F8860DCCF282F2471243101F706
:101520008B7E8861DDCF382F3171313019F78E7F96
:101530008860E0CF282F2171213121F78E7E8861CC
:10154000E1CFCF93DF93EC0182389105B1F108F040
:1015500040C08133910509F49DC048F58932910559
:1015600009F48DC08A9709F49CC0C11521E5D20702
:1015700008F0C3C0C11530E5D30708F01EC1C83E4E
:10158000D10508F0A3C0C13ED10588F5C83AD10500
:1015900008F08EC0C53AD10508F007C1C130D105A9
:1015A00031F1209721F1C430D10508F545C08533CC
:1015B000910509F45FC0C997C1F680919E028370BE
:1015C00009F043C180919F0283FF11C0C9E2D0E0BE
:1015D0000EC0833E910599F170F4803E910501F1B2
:1015E000823E910511F680919E0282FD21C0CE01BE
:1015F000DF91CF910895863E910561F1873E910577
:1016000071F1843E910509F0B0CF80919F0281FF76
:10161000EECF80919E02C7EED0E084FD0DC0E7CFF3
:1016200080919E0280FD33C090919F0290FFDFCF9A
:10163000C3EED0E084FFDBCFD0E0C0E0D8CF809114
:101640009E0282FDFFC090919F0290FDFEC084FF2C
:10165000CECFF2CF80919E0283FDDDCFC8CF8091A7
:101660009E0283FDF5C090919F0291FFF0CFC4EEE2
:10167000D0E0BDCF80919E0285FFB9CFA7CF8091EA
:101680009E0285FDE8C080919F0283FFB0CFC9E331
:10169000D0E0ADCF80919E0286FFA9CFCAE2D0E014
:1016A000A6CF80919E0286FFA2CFC1E3D0E09FCF5C
:1016B000CF3BD10508F6C85AD0E0CC0FDD1FCF587C
:1016C000DE4F0990D881C02DD46491CFC11540E27E
:1016D000D40758F4C11581E0D80708F088CFC03F7F
:1016E000D10508F4A9CFD06582CFC11520E4D20777
:1016F00008F4A2CFDF70D06A7ACFC11535E5D307E1
:1017000018F5C11544E5D40708F084C0C11583E578
:10171000D80708F06BC0C11522E5D20708F461C0F4
:10172000CE018370992721E030E002C0220F331FE1
:101730008A95E2F7C695C69580E2C89FE00111241C
:10174000C22BD32BDC6853CFC11539E5D307A8F4DE
:10175000C11548E5D40708F062C0C11586E5D80771
:1017600008F06ACF8C2F0E945E0AC82FD0E0DC2FD1
:10177000CC27CC27DF71D0623ACFC1152AE5D2073A
:1017800008F452C0CE0190568115904208F054CF13
:101790008D2F8F710E945E0A90E0982F88278827EE
:1017A0009F719C012C2BE901E6CFC55AD0E0C259AC
:1017B000DE4FC881D0E0D0641ACFCE018370992764
:1017C00021E030E002C0220F331F8A95E2F7C69570
:1017D000C69540E2C49FE0011124C22BD32BDD68E3
:1017E00006CFDC2FCC27C16FD06A01CFCE0183702A
:1017F000992721E030E002C0220F331F8A95E2F7DB
:10180000C695C69540E2C49FE0011124C22BD32B9C
:10181000DA68EDCEDC2FCC27C46FD06AE8CEDC2F9F
:10182000CC27C06FD06AE3CE8C2F8F700E945E0AE7
:1018300034E0D695C7953A95E1F7CF709C2FEC012F
:10184000D069D5CEC2EED0E0D2CEC0EED0E0CFCEC1
:10185000C6EED0E0CCCEC5E3D0E0C9CE80913D024B
:10186000811110923D020895809590913C02982339
:1018700090933C020895E6EDF1E09191891303C045
:10188000DF0111971C9291E0EC3DF907B1F7089543
:10189000A6EDB1E0EFEF90E02D91821751F0EF3F10
:1018A00019F4211101C0E92F9F5F9630A9F7EF3F8E
:1018B00009F408950E2E000CFF0BEC52FE4F8283AC
:1018C00008958091310290910002981301C008950B
:1018D0008F5F8770FACF292F9A3078F5873068F5B7
:1018E00090E037E0239F800D911D1124682F6770D1
:1018F00023E0969587952A95E1F7FC01EE0FFF1FEF
:10190000E80FF91FE152FE4F50E040E080E02191E6
:1019100030E0062E02C0369527950A94E2F7217032
:101920003327042E01C0220F0A94EAF7822B4F5F5F
:101930005F4F4330510559F7089580E00895292FEE
:101940009A3098F5873088F590E037E0239F800D36
:10195000911D1124282F277041E001C0440F2A95C2
:10196000EAF723E0969587952A95E1F7FC01EE0FBB
:10197000FF1FE80FF91FE152FE4F30E020E070E05A
:101980005191DF011197CB01022E02C096958795E8
:101990000A94E2F7817081958527842385278C93AB
:1019A0002F5F3F4F2330310559F70895982F9295B7
:1019B0009F7011F0892F94E0282F2695269511F01D
:1019C0009E5F822F869509F09F5F892F0895CF93A0
:1019D000DF93C091DC01C80F41F41092DC0160E09C
:1019E00070E0CB01DF91CF9108958C2F69E10E94C7
:1019F0005D35D92F682F880F770B880B990B0E94C4
:101A00004936D093DC01C85EC13360F31092DD012A
:101A1000E9CFCF93DF93C091DD01C80F41F410925D
:101A2000DD0160E070E0CB01DF91CF9108958C2F54
:101A30006FE00E945D35D92F682F880F770B880BD8
:101A4000990B0E944936D093DD01C25FCD3160F31E
:101A50001092DC01E9CFAEE1B0E0E1E3FDE00C94EF
:101A600022354B8B5C8B462F8F8B988FE98EFA8EAD
:101A70000B8F1C8FE22E2D8FF32E3E8F842FD72EAF
:101A80009091B302992309F456C00E94090D0E9457
:101A90001136C62E8D2D81950E94E70C0E941136BD
:101AA000D62EB12CA12C8091AE02882309F478C0E7
:101AB000802F0E94090D0E941136F62E812F8195EC
:101AC0000E94E70C0E941136E62E60E000E0AD8A2D
:101AD000BE8ADF8AC88E86E0FE017396DE01179605
:101AE00001900D928A95E1F74C895A8D802F002E36
:101AF000000C990B8A0D911DA7FC9A9580382FEF49
:101B000092070CF481C0803891050CF07FC0982FAB
:101B1000062E000C770B6B0D711DB7FC7A956038A3
:101B20008FEF78070CF474C0862F603871050CF4C1
:101B300070C08FE76EC0A091540191E0940F933074
:101B400018F1242F440F330B0A2E000CBB0B0E94FC
:101B50008C350E9449360E941136A62EA091530161
:101B600081E08D0D8330B0F02D2DDD0C330B0A2E6E
:101B7000000CBB0B0E948C350E944936DF88C88C54
:101B80000E941136B62E8FCF642F440F770B880B2F
:101B9000990BDFCF6D2DDD0C770B880B990BECCFFC
:101BA000A091520181E0800F833008F1202F000FB7
:101BB000330B0A2E000CBB0B0E948C350E94493659
:101BC0000E941136062FA091510181E0810F8330D0
:101BD000A0F0212F012E000C330B0A2E000CBB0BA2
:101BE0000E948C350E9449360E94113670CF602FBA
:101BF000000F770B880B990BE1CF612F012E000CA2
:101C0000770B880B990BEECF90E882CF9FE780CFC0
:101C100080E86F2D0F2C000C770B6C0D711DC7FC2D
:101C20007A9560382FEF7207B4F160387105ACF522
:101C30002E2D0E2C000C330B2D0D311DD7FC3A959B
:101C400020387FEF37075CF12038310554F5452BFC
:101C5000488799878A872B876C8786E0FE013796AD
:101C6000DE01119601900D928A95E1F786E0FE0162
:101C70003196DE011D9601900D928A95E1F72D8532
:101C80003E854F85588969897A8980E090E06E9613
:101C9000EAE00C943E3560E8CBCF6FE7C9CF20E88F
:101CA000D6CF2FE7D4CFCF93DF93C0911A06D09130
:101CB0001B068A30C1F420911104CE018451944056
:101CC000622F70E00E940635281B822F66E00E947A
:101CD0005135C82FC15018F4DF91CF91089580E29B
:101CE0000E94530EF7CF8D30E9F4C451D4402091B7
:101CF0001104622F70E0CE010E940635281B822F4E
:101D00009E01280F311D2115324018F080E0D0E0EF
:101D1000C0E0C80FD11DCC5EDB4FD0931B06C09333
:101D20001A06DACF96E0FE01A4E1B6E001900D922A
:101D30009A95E1F7803E08F458C086E0FE011192C2
:101D40008A95E9F7C0911A06D0911B0646E050E04B
:101D5000BE0184E196E00E94B3359E0124513440D7
:101D6000892B41F1C90145E0969587954A95E1F7A0
:101D700041E050E0BA0102C0660F771F8A95E2F792
:101D8000CB016091120470911304862B972BB9013B
:101D90006B5F7F4FE5E076956795EA95E1F702C0C6
:101DA000440F551F6A95E2F7842B952B90931304EB
:101DB000809312042A5F3F4F40911104642F70E01A
:101DC000C9010E940635481B463010F4240F311D0E
:101DD000211572E0370710F030E020E02C5E3B4F19
:101DE00030931B0620931A0677CFF6E08F9FB00141
:101DF00011246154774F46E050E0CE010E94AA358D
:101E0000A1CFCF93DF93EC01FE018491811103C038
:101E1000DF91CF9108950E94530E2196F5CF8091C6
:101E20003C0290913B02892B8093D40190913D021A
:101E3000992391F0892B8093D40120E086ED91E0E5
:101E4000FC013191CF0131112F5FF1E08C3D9F07F3
:101E5000B9F721110E942E0C48E050E063E372E0D4
:101E600084ED91E00E94B335892BA9F088E0E4ED80
:101E7000F1E0A3E3B2E001900D928A95E1F7E091E1
:101E8000EA03F091EB03309731F00280F381E02D0B
:101E900084ED91E009950895882321F00E94340C87
:101EA0000E940F0F0895882339F090913C02982BDF
:101EB00090933C020E940F0F0895B0E0A0E0E3E68B
:101EC000FFE00C9424356C017B0164E670E088E748
:101ED0000E946432EC0197FD12C010E000E0F601B0
:101EE000E00FF11F849164E670E00E94D032EC01B3
:101EF000892B29F40F5F1F4F0E151F0581F70E94D4
:101F00004633CE01CDB7DEB7E8E00C944035809182
:101F1000E5039091E603911103C091E089270895AC
:101F2000882369F062E070E08CEE95E00E945D0F1E
:101F3000892B19F08091E50308951092E5038091B3
:101F4000E503EBCFCF93C091E5038091E6038823AF
:101F5000D1F00E94B808605A75418F4F9F4F60932F
:101F6000E1037093E2038093E3039093E403C111D0
:101F700008C062E070E08AEE95E00E945D0F892B58
:101F800029F0C091E5038C2FCF91089581E08093D3
:101F9000E503F7CF8093F3037093F5036093F403A5
:101FA000809103048430F9F48093E9008FEF9091DD
:101FB000E800815095FD06C095ED9A95F1F7000077
:101FC0008111F5CF8091E80085FF0DC050E040E021
:101FD00063E070E083EF93E00E946F078091E80078
:101FE0008E778093E8000895BC0184E00E94CA0FB8
:101FF0000895BC0183E00E94CA0F08959C0184E00B
:102000008093E9009FEF8091E800915085FD06C024
:1020100085ED8A95F1F700009111F5CF8091E800E8
:1020200085FF0CC050E040E066E070E0C9010E940E
:102030006F078091E8008E778093E8000895CF9332
:10204000DF93EC0181E08093E9008FEF9091E8004D
:10205000815095FD06C095ED9A95F1F7000081112C
:10206000F5CF8091E80085FF14C050E040E068E0C3
:1020700070E0CE010E946F078091E8008E77809318
:10208000E80088E0FE01A9EFB3E001900D928A9587
:10209000E1F7DF91CF910895609169018091DC03B0
:1020A00080FF20C08091680143E0849FC00111241B
:1020B000865F9C4F539A2BB1277F3BB138605FB747
:1020C000F894FC01649FE00DF11D1124BF01681715
:1020D0007907D1F45FBF8FE594E00197F1F700C075
:1020E0000000089580916A0190916B0123E0829F26
:1020F000F0011124E65FFC4F8917A0F611821082CF
:1021000012828F5F3396F8CFFC014191CF01E8E056
:102110003BB9000000C047FF2BB9440F000000C0CE
:1021200000C000C02BB900C0EA9591F7D0CFECED0C
:10213000F3E080818E7F8083E7E0F3E0828181603D
:1021400082832FEF80E792E0215080409040E1F7BA
:1021500000C000000E944C100895B0E0A0E0E3EB46
:10216000F0E10C9422357C015B016A0180918D02C3
:1021700001E010E08A3010F40AE010E0C1E0D0E0A5
:10218000B501C701F6010995811104C021960C170C
:102190001D072CF4CDB7DEB7EAE00C943E35CC9F9A
:1021A0009001CD9F300D300D112490E080E045E38B
:1021B0004A95F1F70000019682179307C1F7E0CF27
:1021C00080914C02811119C088EC90E02091E300CD
:1021D00027FD10C0EFE3FCE93197F1F700C00000E4
:1021E0000197A1F782E080934C020E941F07109292
:1021F000030403C081E080934C0281E090914C0283
:10220000913011F080E0089508950E94E01081114E
:1022100003C08091E7030895E091EA03F091EB0396
:10222000309729F00190F081E02D0995089580E024
:102230000895A0E3B0E0EFE1F1E10C9426350E94AF
:10224000E010882309F40CC140910303509104036A
:1022500060910503709106032FB7F8948091EF0306
:102260009091F003A091F103B091F2032FBF841B72
:10227000950BA60BB70B0A97A105B10508F4F0C0A2
:102280000E94B808609303037093040380930503CE
:1022900090930603509102035093FD024091FC027B
:1022A0006091FE027091FF02809100039091010302
:1022B0000E9418132093FC023093FD024093FE020B
:1022C0005093FF0260930003709301033093020365
:1022D0000E94E010882309F4C7C086E0ECEFF2E02A
:1022E000DE01179601900D928A95E1F78091FF0229
:1022F00081959091FE02919599878A8786E0FE01EB
:102300003796DE01959601900D928A95E1F786E069
:10231000FE01B596DE01119601900D928A95E1F7C6
:1023200086E0FE013196ACEFB2E001900D928A9505
:10233000E1F786E0E6EFF2E0DE01179601900D92FC
:102340008A95E1F78091F90281959091F802919533
:1023500099878A8786E0FE013796DE019B96019079
:102360000D928A95E1F786E0FE01BB96DE0111969B
:1023700001900D928A95E1F786E0FE013196A6EF75
:10238000B2E001900D928A95E1F70E94E010882357
:1023900009F4B4C086E0ECEFF2E0DE015396019060
:1023A0000D928A95E1F786E0E6EFF2E0DE011796FE
:1023B00001900D928A95E1F7EF80F88409851A85DE
:1023C0002B853C854B895C896D897E898F89988DA9
:1023D0000E942B0D2D873E874F87588B698B7A8BF8
:1023E00086E0FE013D96DE01119601900D928A95E0
:1023F000E1F786E0FE013196ACEFB2E001900D927C
:102400008A95E1F786E0EAEEF2E0DE0111960190AE
:102410000D928A95E1F78091FD029A81892B809334
:10242000FD0246E050E060EF72E08CEF92E00E9427
:10243000B335892B21F08CEF92E00E94F0081092C6
:10244000FE021092FF02109200031092010386E038
:10245000ECEFF2E0A0EFB2E001900D928A95E1F787
:10246000E096E6E00C94423586E0ECEFF2E0DE0127
:10247000179601900D928A95E1F78091FF02819560
:102480009091FE02919599878A8786E0FE013796A2
:10249000DE01599601900D928A95E1F786E0FE01E2
:1024A0007996DE01119601900D928A95E1F786E00A
:1024B000FE013196ACEFB2E001900D928A95E1F702
:1024C00086E0E6EFF2E0DE01179601900D928A9524
:1024D000E1F78091F90281959091F80291959987A1
:1024E0008A8786E0FE013796DE015F9601900D92A5
:1024F0008A95E1F786E0FE017F9638CF86E0E6EF29
:10250000F2E0DE01539601900D928A95E1F786E0A4
:10251000ECEFF2E0DE011D9601900D928A95E1F755
:10252000ED84FE840F85188929893A894B895C8955
:102530006D897E898F89988D0E942B0D2F83388716
:1025400049875A876B877C8786E0FE0137964BCF99
:102550001092B90088E98093B8002FE78FEA92E0E3
:10256000215080409040E1F700C00000089594EAB7
:102570009093BC009AE69A95F1F700C09091B9004B
:10258000987F983039F09091B900987F903111F090
:1025900081E008958093BB0084E88093BC0083EEC3
:1025A00092E00197F1F700C000008091B900887FA8
:1025B000883129F08091B900887F803449F780E024
:1025C0000895EF92FF920F931F93CF93DF93C82F3D
:1025D0008CE60E94B7128BEBE82EF12CF701C0833A
:1025E000CCEBD0E004E8088383EE92E00197F1F7AA
:1025F00000C000008091B90014E918839AE69A950A
:10260000F1F700C08DE60E94B7120883E3EEF2E016
:102610003197F1F700C00000F70180811883FAE6D6
:10262000FA95F1F700C0CDB7DEB7E6E00C9442357D
:10263000ACE0B0E0EEE1F3E10C9427354F8358872E
:102640008B879C87162F072F83E00E94E112F82EBC
:1026500084E00E94E112482F33E08F2D632F0E9407
:102660005D35282F842F632F0E945D35211104C012
:10267000811102C0802F212F29878A8786E0FE01E1
:102680003796DE01119601900D928A95E1F7298126
:102690003A814B815C816D817E8180E090E02C9657
:1026A000E5E00C944335CF93DF93C7E5D2E060E0DB
:1026B000CE010E94DD352196C11584E0D807B9F717
:1026C000DF91CF9108951F93CF93DF93122F843022
:1026D000E0F46A30D0F44730C0F4C42FD0E0CC0F1F
:1026E000DD1F9EE0699FC00DD11D11249CE8899FCC
:1026F000C00DD11D1124632FCE0187960E94DD35B8
:10270000612FCE0188960E94DD35DF91CF911F9118
:102710000895AF92BF92CF92DF92EF92FF921F93F4
:10272000CF93DF938EEEC82E85E0D82ED0E07601D1
:10273000C0E014C0F50125913491412F6C2F8D2FED
:102740000E94631382E0A80EB11C1F5F173091F73F
:102750008EE0E80EF11CCF5FCA3019F0570110E08F
:10276000E9CFDF5F8CE8C80ED11CD43001F7DF91D0
:10277000CF911F91FF90EF90DF90CF90BF90AF90DF
:102780000895CF93C82F6FEF811162E283E290E04A
:102790000E94DD356FEFC11161E184E290E00E949B
:1027A000DD356FEFC11162E085E290E00E94DD351A
:1027B000CF91089580E00E94C11360E086E290E02E
:1027C0000E94DD350E9489130E94531381E00E940C
:1027D000C11308950F931F93CF93DF93843030F587
:1027E0006A3020F5473010F5C42FD0E0CC0FDD1F44
:1027F0002EE0629FC00DD11D11243CE8839FC00DC7
:10280000D11D1124CE0187960E94C935082F10E0F2
:10281000102F0027CE0188960E94C9359801282BD9
:10282000C901DF91CF911F910F91089590E080E051
:10283000F8CF462F843040F47A3030F4673020F4FB
:10284000672F0E94EA13089590E080E00895CF92E8
:10285000DF92FF920F931F93CF93DF936C01009150
:10286000100480917C02082BC7E0D0E010E0FC2E21
:10287000C8010C2E02C0959587950A94E2F780FD59
:102880000CC02197A0F7F12C8F2DDF91CF911F91D4
:102890000F91FF90DF90CF900895B6018C2F0E948A
:1028A00019140E94A10A019761F3EECFCF93DF9331
:1028B000EC010E942714BE010E9419140E94A10A73
:1028C000DF91CF910895FC0183819481892B29F0B8
:1028D0008081918189238F3F51F480E00895843F66
:1028E000E1F717C0883EA8F0813FB9F712C0808198
:1028F00091810E94561492959F70963099F358F4E6
:10290000925F9F70923048F7803F19F040F7883E01
:1029100020F781E008959A5FF4CF83E290E00E946F
:10292000C935823289F484E290E00E94C935813150
:1029300059F485E290E00E94C93591E0823009F0B7
:1029400090E0892F8170089580E0FCCFCF9384E0E0
:1029500090E00E94C935C82F82E290E00E94C935FC
:10296000982F8C2FCF910895CF92DF92EF92FF9204
:102970006B017C010E941A09B701A60188E090E072
:102980000E94EF35FF90EF90DF90CF900895B0E078
:10299000A0E0EDECF4E10C942035182FC62FD42FD5
:1029A000822E0091DC0300FF4CC0E02FE695F0E0A2
:1029B000EF53FE4F808180930703802F8E7F8230FC
:1029C000E9F4E42F493708F0E8E7F0E0E651FB4F7F
:1029D000C1113CC02491F22FE22F00FF0FC0809163
:1029E0006A0190916B0133E0839FD0011124A65FAF
:1029F000BC4F891708F49FC00E944C108091DD03E2
:102A0000811308C08091DE038C1304C08091DF0322
:102A10008D1729F080910903826080930903109338
:102A2000DD03C093DE03D093DF03882051F0609173
:102A3000DC037091DD038091DE039091DF030E943F
:102A4000B414CDB7DEB7ECE00C943C35EC2EF12C91
:102A5000E4919E2ECE2ED12C26E0129FC00111248F
:102A60002FEF30E0B9010E940635812F90E0880FEA
:102A7000991FF5E5F69FA001F79F500D1124841BC7
:102A8000950BB82EBB0CB80EA9014E195F094C9DD1
:102A9000C0014D9D900D5C9D900D1124F92FCB9D93
:102AA000A0011124452F5527D901A41BB50BAC9DBE
:102AB000A001AD9D500DBC9D500D1124D901AB1945
:102AC000B1095D01AE9CD001AF9CB00DBE9CB00DB4
:102AD0001124AB2FBB272A1B3B0B2C9DD0012D9D16
:102AE000B00D3C9DB00D11242B2F62307105A1F06B
:102AF00050F46115710509F470CF6130710581F0F2
:102B0000292FF52F6ACF6430710569F080F06630A7
:102B1000710509F462CFF4CF2E2FE92FFB2F5DCF83
:102B20002E2FE52F5ACF292FFE2FEB2F56CFE92F2F
:102B3000F92D252F52CF1196EC9311972C931296C5
:102B4000FC9312978F5F139654CFECEDF3E0438123
:102B500021E1421B08F440E021E0628181810E9472
:102B6000C7140895ECEDF3E0438121E1420F08F42E
:102B70004FEF21E0628181810E94C7140895ECED3E
:102B8000F3E0628121E1621B08F460E021E043810F
:102B900081810E94C7140895ECEDF3E0628121E188
:102BA000620F08F46FEF21E0438181810E94C71416
:102BB0000895ECEDF3E0818121E04381628188504A
:102BC0000E94C7140895ECEDF3E0818121E0438178
:102BD0006281885F0E94C71408958091E003882372
:102BE00019F081508093E0036091DC037091DD0364
:102BF0008091DE039091DF030E94B41408958091C8
:102C0000E003833018F48F5F8093E0036091DC036E
:102C10007091DD038091DE039091DF030E94B41474
:102C200008958091DC0380FF1EC0817082608093D4
:102C3000DC0380910903816080930903662351F0CE
:102C40006091DC037091DD038091DE039091DF03DE
:102C50000E94B41420E04091DF036091DE03809174
:102C6000DD030E94C71408958091DC03869581508E
:102C700009F481E061E00E941116089561E081E0AD
:102C80000E9411160895ECEDF3E083E08083118239
:102C90008FEF828388E783831482A7E0B3E01296E4
:102CA0008C911297836012968C93608171818281DE
:102CB00093810E94B41408951092AF021092B00252
:102CC0001092B1021092B20283E190E00E94D135DD
:102CD0006093AF027093B0028093B1029093B202FE
:102CE00080E0663018F01092AF0281E0763078F024
:102CF0001092B0024091AF025091B0026091B102C7
:102D00007091B20283E190E00E94EF3502C0811120
:102D1000F1CF089568EE7EEF90E080E00E94FB35F1
:102D200060E082E090E00E94DD3560E083E090E0CA
:102D30000E94DD3510927C0260E084E090E00E9409
:102D4000DD3564E082E290E00E94DD3560E085E000
:102D500090E00E94DD3560E086E090E00E94DD3585
:102D60006FEF87E090E00E94DD3540E050E0BA016F
:102D700088E090E00E94EF3560E08DE090E00E94F6
:102D8000DD3540E050E0BA0188E190E00E94EF3587
:102D900060E087E190E00E94DD3540E050E0BA015C
:102DA0008CE190E00E94EF3570E060E080E290E01E
:102DB0000E94FB3540E050E0BA0188E190E00E94BB
:102DC000EF3580E00E94C1130E94DA1340E050E02A
:102DD000BA018FE090E00E94EF350E945C160895E2
:102DE000B0E0A0E0E6EFF6E10C9425357901C82FBC
:102DF000880FDD0B41155105A9F0FE0193E0EE0FA0
:102E0000FF1F9A95E1F7E050FF4F81819281835B2C
:102E10009D4F208130E04217530708F49A01A90121
:102E20000E94C035CE010E949034D82E8823D1F064
:102E300001151105B9F083E0CC0FDD1F8A95E1F78C
:102E4000FE01E050FF4F438150E00417150708F4DE
:102E5000A801C050DF4F6C817D81635B7D4FC7014E
:102E60000E94C0358D2DCDB7DEB7E7E00C9441351B
:102E7000A4E0B0E0EEE3F7E10C9428354091740251
:102E80005091750260917602709177022FB7F89495
:102E90008091EF039091F003A091F103B091F203C0
:102EA0002FBF841B950BA60BB70B11E08436910541
:102EB000A105B10538F10E94E010882341F10E947C
:102EC000B8086E5F7F4F8F4F9F4F69837A838B83E4
:102ED0009C8310E000E030E020E044E050E0BE01E0
:102EE0006F5F7F4F82E00E94F016182F882351F009
:102EF0000E94B80860937402709375028093760202
:102F000090937702812F2496E4E00C9444350E943C
:102F1000B80800918E0210918F022091900230919A
:102F20009102600F711F821F931FCBCF8F929F92D0
:102F3000AF92BF92EF92FF920F931F93CF937B01BB
:102F4000942FB901A801F70180809180A280B380FD
:102F5000EFB7F8940091EF031091F0032091F10383
:102F60003091F203EFBF081919092A093B09043609
:102F700011052105310518F4C1E0992381F010E015
:102F800000E030E020E00E94F016C82F882339F0DE
:102F90000E94B808F70160837183828393838C2F2A
:102FA000CF911F910F91FF90EF90BF90AF909F90A6
:102FB0008F900895A8E0B0E0E0EEF7E10C9428359A
:102FC00085E0ECEDF3E0DE01119601900D928A951B
:102FD000E1F78091070390910803A09109038E8384
:102FE0009F83A88741E08885811101C040E008E007
:102FF00010E09E012F5F3F4F65E872E086E00E947F
:1030000096178111109209032896E4E00C94443538
:10301000A1E0B0E0EEE0F8E10C9428350E94051143
:10302000898341E090915902981301C040E001E08A
:1030300010E09E012F5F3F4F61E872E085E00E9443
:1030400096172196E4E00C9444350F931F9341E0CA
:103050009091570280911004981301C040E001E064
:1030600010E020E134E06DE772E083E00E94961703
:10307000882389F041E09091580280917C02981356
:1030800001C040E001E010E02CE732E068E772E0C8
:1030900084E00E9496171F910F910895A1E0B0E07F
:1030A000E4E5F8E10C941F35762E4A0159016801D8
:1030B00001E010E09E012F5F3F4F50E040E070E0E4
:1030C00060E00E94F016182F882309F440C0F40134
:1030D00040815181628173812FB7F8948091EF0311
:1030E0009091F003A091F103B091F2032FBF841BE4
:1030F000950BA60BB70B84369105A105B10538F4E5
:10310000B701C6010E94FE089981891701F1870164
:10311000950150E040E070E060E0872D0E94F016DD
:10312000B82EB701C6010E94FE0811E099819813DC
:1031300010E01B2139F00E94B808F401608371830C
:1031400082839383812F2196EDE00C943B35A70178
:10315000B601C5010E94C035F5CFACE0B0E0E3EBAD
:10316000F8E10C94263586E0E82EF12C03E612E017
:103170009E01295F3F4F49E852E068E087E00E94E6
:103180004E18882391F096E0FE013796DE011196E5
:1031900001900D929A95E1F796E0FE013196A6EF27
:1031A000B2E001900D929A95E1F72C96E6E00C942E
:1031B0004235A5E0B0E0EFEDF8E10C9424356B0169
:1031C00085E0E82EF12C0EE412E09E012F5F3F4FC8
:1031D00040E752E061E080E00E944E18882349F009
:1031E00095E0FE013196ABE6B2E001900D929A9522
:1031F000E1F795E0EBE6F2E0D60101900D929A95A9
:10320000E1F72596E8E00C94403590E080E00E94DC
:10321000D735883E9E4F19F40E948D14089580E0A2
:1032200008951F920F920FB60F9211242F933F9380
:103230004F935F936F937F938F939F93AF93BF93BE
:10324000EF93FF938091E10082FF09C08091E2003B
:1032500082FF05C08091E1008B7F8093E100809127
:10326000DA0080FF24C08091D80080FF20C08091C8
:10327000DA008E7F8093DA008091D90080FF9DC0B4
:1032800080E189BD82E189BD09B400FEFDCF81E006
:10329000809303048091F603811109C00E941F07E7
:1032A0000E94EA078091E20084608093E2008091AE
:1032B000E10080FF17C08091E20080FF13C0809181
:1032C000E2008E7F8093E2008091E2008061809333
:1032D000E2008091D80080628093D80019BC85E01C
:1032E000809303048091E10084FF2BC08091E20071
:1032F00084FF27C080E189BD82E189BD89B5982F0F
:10330000917080FFFBCF8091D8008F7D8093D80093
:103310008091E1008F7E8093E1008091E2008F7EBA
:103320008093E2008091E20081608093E2008091CE
:103330000404882309F447C084E080930304809147
:1033400003048091E10083FF27C08091E20083FFA6
:1033500023C08091E100877F8093E10082E0809329
:103360000304109204048091E1008E7F8093E100B9
:103370008091E2008E7F8093E2008091E200806184
:103380008093E20042E060E080E00E94B807809114
:10339000F00088608093F000FF91EF91BF91AF91B2
:1033A0009F918F917F916F915F914F913F912F915D
:1033B0000F900FBE0F901F90189519BC1092030428
:1033C0001092F60374CF8091E30087FD93E0909311
:1033D0000304B5CF78941F921FB61F9211248F93C8
:1033E0009F93AF93BF938091EF039091F003A091CF
:1033F000F103B091F2030196A11DB11D8093EF037B
:103400009093F003A093F103B093F203BF91AF91B7
:103410009F918F911F901FBE1F9018959C014FB7D1
:10342000F8948091EF039091F003A091F103B09193
:10343000F2034FBF821B930B08952FB7F89480912E
:10344000EF039091F003A091F103B091F2032FBF2D
:1034500008950E941D1A9C019091EC028091ED024A
:10346000982B21F03093E9022093E8029091EE022C
:103470008091EF02982B21F03093E7022093E6022F
:103480008AEE92E00E94F008089590E080E00E94A9
:10349000DA0890E080E00E94C40810923B020E948B
:1034A0000F0F86E0EAEEF2E0DF011D928A95E9F760
:1034B0001092E4021092E3021092E5020E94291A8F
:1034C0000895982F9670963031F488608093100498
:1034D0000E94451A0895877FF9CF80911004982F94
:1034E0009670963021F488600E94611A0895877F53
:1034F000FBCF21E030E001C0220F8A95EAF720954A
:103500008091100482230E94611A089590913202E2
:103510008095892380933202282F277091F4282FD9
:10352000082E000C330B9217130659F090919F024E
:1035300092FF07C08595859585950E94791A10920E
:1035400032020895CF93C0919F02C2FB992790F950
:10355000981791F080FBC2F9C0939F0260919E0280
:1035600084E090E00E94DD356C2F82E290E00E94C2
:10357000DD3582E00E94861ACF91089521E030E087
:1035800001C0220F8A95EAF780911004822B0E94D5
:10359000611A089580937C020E94451A0895109242
:1035A0003C02E6EDF1E086E0DF011D928A95E9F745
:1035B0000E94451A0895AAE2B0E0E1EEFAE10C9407
:1035C000293585E094E02091F100DC012D93CD01B7
:1035D000B4E08D309B07B9F780910604833009F47D
:1035E00072C0B8F4813009F449C0823009F4B3C024
:1035F0008091E80083FF8BC28091050490910604BE
:103600009A3008F084C2E92FF0E0E155F94C0C94AF
:103610007F358A3009F48EC08B3009F471C089304F
:1036200039F780910504813219F78091090490914E
:103630000A04009711F00297D9F68091E800877F7D
:103640008093E8008091E80082FF38C09091F300F9
:103650008091F200029731F48091F100813011F0F5
:10366000863021F48091F1008093F8038091E80086
:103670008B778093E8000E949907BACF8091050468
:10368000813A09F0B5CF8091E800877F8093E80008
:103690008091090490910A04892B61F468E089EF14
:1036A00093E070E00E9445088091E8008B7780935A
:1036B000E8009ECF60E090E080E0F3CF80910304CB
:1036C0008111C0CF95CF80910504813A09F090CF48
:1036D0008091090490910A04892B09F089CF809187
:1036E000E800877F8093E8008091E80080FFFCCFAE
:1036F00080916D018093F1008091E8008E77B9CFC1
:1037000080910504813209F073CF80910904909172
:103710000A04892B09F06CCF8091E800877F8093A1
:10372000E8000E9499078091070480936D010E9430
:10373000CF1A5ECF80910504813209F059CF809174
:10374000E800877F8093E8000E9499078091080431
:103750008093F7034DCF80910504813A09F048CF5B
:103760008091E800877F8093E8008091E80080FFE7
:10377000FCCF8091F703BECF803899F0823809F0F2
:10378000C6C1809109048F70873008F0C0C1809352
:10379000E9008091EB0085FB882780F91092E90011
:1037A00006C0809101049091020491118260909171
:1037B000E800977F9093E8008093F1001092F10069
:1037C0008091E8008E779FC1882309F48DC18230F3
:1037D00009F09DC180910704811190C18091090475
:1037E0008F702FEF280F263008F091C18093E900E9
:1037F0002091EB0020FF82C1933031F48091EB00E7
:1038000080628093EB007AC19091EB00906190937D
:10381000EB0021E030E001C0220F8A95EAF7209307
:10382000EA001092EA008091EB008860EACF8111F3
:103830006EC1109107041F778091E3008078812B7F
:103840008093E3008091E800877F8093E8000E94E6
:1038500099078091E80080FFFCCF8091E3008068A9
:103860008093E30082E0111183E0809303044FC151
:103870008058823008F04BC1209107043091080431
:103880002C3DE3E03E07A1F583E08A838AE2898349
:103890004FB7F894DE01139620E03EE051E2E32FAB
:1038A000F0E050935700E49120FF03C0E295EF70E1
:1038B0003F5FEF708E2F90E0EA30C0F0C7968D9397
:1038C0009D932F5F243159F74FBF8091E800877F88
:1038D0008093E8006AE270E0CE0101960E944508FC
:1038E0008091E8008B778093E80011C1C096E7CF04
:1038F0008091090490910A04432F552743305105C4
:1039000009F44AC078F54130510509F47AC08BE5D5
:1039100090E0EEE1F8E04230510509F0F8C0209166
:10392000E800277F2093E80020910B0430910C04DD
:103930008217930708F49C0140E02115310509F036
:1039400065C0411163C08091E80082FDC9CF8091BC
:103950000304882329F2853019F28091E80083FF5F
:10396000F2CFBECF4132510509F43CC0423251057D
:1039700009F0CDC08330910508F0C9C0FC01EE0FFD
:10398000FF1FEA53FE4F0190F081E02D8D539E4FB3
:10399000DC018C9190E01AC0332721303105D1F041
:1039A0002115310561F02230310509F0B0C0EBE896
:1039B000F8E0E4918E2F90E0EBE8F8E007C0EBEB45
:1039C000F8E0E4918E2F90E0EBEBF8E0009709F43B
:1039D0009EC0A5CFE1EAF8E0E4918E2F90E0E1EA05
:1039E000F8E0F4CF8330910508F091C0880F991F5B
:1039F000FC01E453FE4F0190F081E02D89E090E05E
:103A00008ECF82E190E0E9E7F8E089CF809103046E
:103A1000882309F465CF853009F462CF8091E800EE
:103A200083FD5ECF8091E80082FD8DCF8091E8001C
:103A300080FF83CF9091F3008091F2002115310532
:103A400019F08830910550F041E0089709F040E006
:103A50008091E8008E778093E8006FCF4491409387
:103A6000F1003196215031090196E8CF803809F0F4
:103A70004EC08091E800877F8093E8008091040425
:103A80008093F1009DCE811142C010910704123045
:103A9000F0F58091E800877F8093E800109304049C
:103AA0000E949907112311F084E005C08091E30082
:103AB00087FDFACF81E08093030442E061EC81E06E
:103AC0000E94B80742E261EC84E00E94B80742E23B
:103AD00061EC82E00E94B80742E260EC83E00E9461
:103AE000B8078091030413C080910704813079F4F2
:103AF00081E0933009F080E0809302041092E900A5
:103B00008091E800877F8093E8000E949907809168
:103B1000E80083FF0AC08091E800877F8093E80077
:103B20008091EB0080628093EB00AA96E3E00C9416
:103B300045351F920F920FB60F9211242F933F938A
:103B40004F935F936F937F938F939F93AF93BF93A5
:103B5000CF93DF93EF93FF93D091E900DF708091D3
:103B6000EC00C82FC17080FDC0E81092E900809180
:103B7000F000877F8093F00078940E94DB1A109207
:103B8000E9008091F00088608093F000CD2BCF7029
:103B9000C093E900FF91EF91DF91CF91BF91AF9179
:103BA0009F918F917F916F915F914F913F912F9155
:103BB0000F900FBE0F901F9018950E94CF1A2FEFF5
:103BC00084E39CE0215080409040E1F700C0000079
:103BD00088E19AE00FB6F894A895809360000FBE34
:103BE00090936000FFCF882309F455C0823879F4A0
:103BF0000E94051181FF4FC089E30E94480C0E947A
:103C00000F0F89E30E943B0C0E940F0F0895833829
:103C100059F40E94051180FF3EC083E50E94480CC4
:103C20000E940F0F83E5EECF843859F40E940511EE
:103C300082FF31C087E40E94480C0E940F0F87E486
:103C4000E1CF9CEF980F913AE8F290E2980F98300C
:103C500050F4877091E001C0990F8A95EAF7892F97
:103C60000E94340CD1CF9BE5980F933028F490E05C
:103C700080E00E94DA08089598E5980F973128F4BB
:103C800090E080E00E94C4080895803F20F00E94E8
:103C900030090E94291A0895CF93C82F8823C9F0AC
:103CA0008238C9F40E94051181FD13C089E30E9486
:103CB000480C0E940F0F2FEF87EE93E021508040B9
:103CC0009040E1F700C0000089E30E943B0C0E9495
:103CD0000F0FCF9108958338A1F40E94051180FD44
:103CE000F8CF83E50E94480C0E940F0F2FEF81EE62
:103CF00094E0215080409040E1F700C0000083E54F
:103D0000E4CF8438A1F40E94051182FDE2CF87E45C
:103D10000E94480C0E940F0F2FEF81EE94E021507B
:103D200080409040E1F700C0000087E4CECF8CEFE8
:103D30008C0F813A68F4E6EDF1E08191C817E1F16A
:103D400021E0EC3DF207C9F78C2F0E94480CBFCF51
:103D500080E28C0F883068F4C77021E030E001C049
:103D6000220FCA95EAF780913C02822B80933C0295
:103D7000AECFEBE5EC0FE33040F4F0E0E259FE4F5C
:103D8000808190E00E94DA08A4CFE8E5EC0FE731EB
:103D900050F4F0E0EE0FFF1FEF58FE4F808191814D
:103DA0000E94C40896CFC03F08F493CF8C2F0E9486
:103DB000EB090E94291A8DCF8C2F0E943B0C0E9488
:103DC0000F0FC2CF1F93CF93DF93182FD0E0C0E027
:103DD000893311F4C0E5D0E0812F0E944C1E20975A
:103DE00039F4812F0E94F31DDF91CF911F91089527
:103DF0008FE99FE00197F1F700C000002197EFCF16
:103E00000F931F93CF93DF93C62FD42F022FFC0164
:103E100082818823A9F060930F040E941D1A909359
:103E20000E0480930D04C77081E001C0880FCA950D
:103E3000EAF70E94530FDF91CF911F910F910895E0
:103E400080910F04681332C080910D0490910E048C
:103E50000E940E1A883C910548F510E21D0FCD17FF
:103E6000B9F080E28C0F883040F4C77081E001C067
:103E7000880FCA95EAF70E944C0F183048F481E089
:103E80009D2F977001C0880F9A95EAF70E94530FF3
:103E9000802F0E94E21E183070F6D77081E001C0BA
:103EA000880FDA95EAF70E944C0FC5CFC77081E002
:103EB00001C0880FCA95EAF7F6CFA2E1B0E0E3E6C9
:103EC000FFE10C941B358C01FC0183819481892BCB
:103ED00031F08081918189238F3F09F076C6629607
:103EE000E1E10C9437350E942714F82E682F898160
:103EF0009A810E949F0C69817A818F2D0E941914EA
:103F00007C01F8018281882309F452C6970122516D
:103F10003F452031310508F034C68FEF93E00E9411
:103F2000C935811128C0FEEEEF0E77E5872E72E0CD
:103F3000972EE11032C01C821B82442443946AE015
:103F4000362E74018FEFE81AF80AC4010E94C935B1
:103F500089831A82882379F09FEF980F933058F560
:103F60008A83498292E0890E911CC7010E94C9355B
:103F70008B83811121C080913202877009F4AFCF09
:103F8000F8018281882309F4AACF80919F0282FFE1
:103F9000A6CF82E00E94861AA2CF811424E0920666
:103FA00051F3C4010E94C935811101C0EA943FEF69
:103FB000831A930ABECF4701FE0131967F01F701B4
:103FC0002081222309F4BDCF213009F047C091811F
:103FD0008281913031F4F2E0EF0EF11C0E94E21E7A
:103FE00007C0923049F422E0E20EF11C0E944C1E00
:103FF0003FEFE31AF30AE3CF933031F432E0E30EFC
:10400000F11C0E94F31DF4CF943021F08FEFE81AD9
:10401000F80AEECF92E0E90EF11C30E020E0B701A3
:104020006F5F7F4FF70141818053990B8A30910573
:1040300050F021503109E0F28FE99FE00197F1F74C
:1040400000C00000F6CF329EF001339EF00D112427
:104050009C012E0F3F1F842F7B01E1CFE22FF0E068
:10406000E754FE4F5490822F86958695869590E072
:10407000FC01E755FE4F64902770712C022E02C0A0
:10408000759467940A94E2F7E1E06E227724FC01CC
:10409000E756FE4FA490B12C022E02C0B594A7940F
:1040A0000A94E2F7F1E0AF22BB24FC01E757FE4F90
:1040B000C490D12C02C0D594C7942A95E2F721E090
:1040C000C222DD246114710419F081EE0E944C1E9D
:1040D000A114B10419F086EE0E944C1E852D0E9499
:1040E000E21EA114B10419F086EE0E94F31D6114C2
:1040F000710419F081EE0E94F31DC114D10409F47A
:1041000077CF8CE26BCF82E00E94BE1A17C0882363
:1041100009F431CF61E083E090E00E94DD3581E079
:104120000E94CA1A28CF882311F081E0EDCF81E0E8
:1041300003C08111E8CF82E00E94791A0E946D1AB3
:104140001ACF882321F083E00E94BE1A14CF83E0A7
:104150000E94791A10CF882359F00E94431680914B
:10416000DC0381608093DC0361E086950E94111678
:10417000F8018281882309F439C510920F04F3E015
:10418000EF16FDE5FF0608F0F8C02AEFE2162CE571
:10419000F20630F4C70182509C45449708F0FAC0FB
:1041A0000E94A61490939F0280939E02E2E1EE1675
:1041B000ECE5FE0609F40DC208F04BC129E0E21659
:1041C0002CE5F20609F4E3C108F00EC185E0E8161B
:1041D0008CE5F80609F4CBC108F0F8C0E3E0EE1670
:1041E000ECE5FE0609F4BBC108F0BDC180919E025A
:1041F000816022E0E2162CE5F20609F427C1609105
:104200009E02F0909F0284E090E00E94DD356F2DC9
:1042100082E290E00E94DD350E94CF1AACCE882366
:1042200009F4A9CE8091AF0290E0019666E070E0BB
:104230000E9406358093AF024091AF025091B002C8
:104240006091B1027091B2028FE090E00E94EF3570
:10425000E091AF02F0E0EE0FFF1FE355FE4F8081CB
:1042600080935401809353014091AF025091B0026A
:104270006091B1027091B20283E190E00E94EF354B
:104280007ACE882309F477CE8091B00290E001962F
:1042900066E070E00E9406358093B0024091AF0264
:1042A0005091B0026091B1027091B2028FE090E043
:1042B0000E94EF35E091B002F0E0EE0FFF1FE355F2
:1042C000FE4F80818093520180935101CDCF88238E
:1042D00031F08091B30291E089278093B30210926C
:1042E000DD011092DC0147CE8823C9F38091AE0234
:1042F00091E089278093AE02F2CF83EFE8168CE538
:10430000F80661F1A0F4E8EDEE16ECE5FE0611F119
:10431000F9EDEF16FCE5FF0669F127EDE2162CE555
:10432000F20609F025CF26E241EE61EE0FC035EF2F
:10433000E3163CE5F306D1F0A8F027E245EE66EE81
:1043400096EFE9169CE5F90609F012CFC8010E9424
:10435000001F11CE27E245EE65EEF8CF26E241EED2
:1043600060EEF4CF27E245EE64EEF0CF26E241EEB8
:1043700062EEECCF28E241E0EFCF35EAE3163DE50F
:10438000F30609F40DCFE0F491E6E9169DE5F90690
:1043900009F406CF86E1E8168CE5F80609F033C487
:1043A00080913C028A7A91E009F490E09093DE01DA
:1043B000811139C189E20E94480C0E940F0FDBCDA8
:1043C000C7018D5A9D45039728F7EACE80919E023A
:1043D000806237E0E3163CE5F306C1F108F4D3C090
:1043E00080919E02806432C09DE0E9169CE5F9064A
:1043F00009F4D7C0A0F480919E028E7FFBE0EF16F7
:10440000FCE5FF0619F180919E028C602CE0E2161B
:104410002CE5F206D8F080919E028D7F17C03FE018
:10442000E3163CE5F30609F4CCC008F4BEC090E105
:10443000E9169CE5F90609F4C8C080919E028F7BBD
:10444000E1E1EE16ECE5FE0609F0D9CE80939E027E
:10445000D6CEFFEFEF16FCE5FF0609F4C4C0D8F591
:104460003AEFE3163CE5F30609F485C0D0F494E195
:10447000E9169CE5F90609F4C4C008F4B0C0F5E1FA
:10448000EF16FCE5FF0609F0BACE80919E0282FB92
:10449000992790F921E0922790FB82F990FB83F90C
:1044A000D5CF2CEFE2162CE5F20609F482C008F411
:1044B00066C08DEFE8168CE5F80609F47EC08091A1
:1044C0009F0283609EEFE9169CE5F90609F097CEFE
:1044D00080939F0294CEE1E6EE16EDE5FE0609F428
:1044E0009BC0A0F421E0E2162DE5F20609F492C08B
:1044F00008F47DC060E082E0E8168DE5F80609F07A
:104500007ECE8EE090E00E94DD3579CE9DEAE91600
:104510009DE5F90601F168F490919E02892F8E7F46
:1045200090FF8160F5EAEF16FDE5FF0609F48ECFF6
:1045300066CE2EEAE2162DE5F20679F13FEAE316A1
:104540003DE5F30609F05BCE90919F02892F877FAE
:1045500093FF8860BDCF80919F028860B9CF809122
:104560009E02826073CF80919E0284606FCF8091A3
:104570009E0288606BCF80919F028160A9CF80915D
:104580009F028260A5CF80919E0280615FCF0E94D2
:10459000CF1A80919E02806859CF80919F02877FB9
:1045A00097CF80919E028B7F51CF80919E02877F13
:1045B0004DCF80919F028E7F8BCF80919F028D7F08
:1045C00087CF80919E028F7E41CF80919E028F7D0A
:1045D0003DCF0E94CF1A80919E028F7737CF809176
:1045E0009E02837F33CF80919F028C7F71CF809119
:1045F0009F02982F909591708E7F892B90FB81F967
:1046000067CF0E94CF1A90919E02892F97FB87F95E
:1046100080581CCF61E075CF90919E02892F8F7ECC
:1046200094FF806113CF85E3C6CE85E3E9C2816044
:104630008093DC0361E086950E9411169CCC44E3D4
:1046400056E16EE376E10E94140995CC4EE356E103
:1046500064E376E1F8CF49ED55E163EE75E1F3CF20
:1046600045EA55E162EB75E1EECF61E081E0E4CF30
:104670000E94CF1A2FEF34E38CE02150304080406D
:10468000E1F700C000000E94A70880919F0282FB12
:10469000882780F991E089270E94A21AF801828177
:1046A000E080F180882309F445C0C7010E942714E7
:1046B000D82E682FC7010E949F0CB7018D2D0E9434
:1046C00019140E94A10A7C01882EF801D280B580BD
:1046D000B2943FE0B322809132028770C1F0AD2CDA
:1046E000DD20B1F08F2D807F803421F080E28E0DAF
:1046F000883068F080919F0282FF09C082E00E94AA
:10470000861A809132028770AA24A3948111A12C69
:104710009F2C92942FE09222FBE0F91508F479C0C7
:10472000E92DF0E0E754F94C0C947F3581E0B4CFEB
:1047300080E0B2CFC7010E946B0CD82EBECF2F2DC8
:104740002F70C22E8F2D807F19F0C29490EFC92256
:10475000DD20B9F0CC2069F080E28E0D883010F0B9
:10476000811009C080913C02C82AC0923C020E947C
:104770000F0F8E2D4CC080913B02C82AC0923B0285
:10478000F6CF8E2D0E94F31DCC2009F442C080E2AA
:104790008E0D883010F0811004C08C2D0E94340CD6
:1047A00006C0C09480913B02C822C0923B020E9486
:1047B0000F0F2FC03F2D3F70C32E8F2D807F803273
:1047C00019F0C29480EFC822882089F081E0881611
:1047D00009F467C0DD2009F471C0BB2009F467C08B
:1047E000F801858180FFC5CF8F70858360C02091DF
:1047F0009F0222FD34C0DD2061F1CC2039F0809190
:104800003C02C82AC0923C020E940F0F80E00E9426
:104810004C1EE92DE850FF0B349710F40E9405114F
:10482000AA2009F45CCB8091320280FD58CBF801BC
:1048300012828595859585950E94BE1AC8010E94B1
:104840005D1F809132028595859585950E94791A24
:1048500046CB80E00E94F31DCC20D9F29ECFDD2014
:1048600099F090913D02892F8C29B11003C00E94CC
:10487000530FCFCFE1E0BE12FACF22FFCACF981775
:1048800041F280933D02C5CFB11006C00E942E0CAC
:104890008C2D0E944C0FBDCFF1E0BF1609F4B9CFAB
:1048A000F5CFDD2031F025E02B1508F4B2CF8C2DAB
:1048B000DECF34E03B1508F4ACCFEACFBB2041F3A8
:1048C000F9E38F1257C12FEF37EE83E021503040CC
:1048D0008040E1F700C000004DC18F2D8695869580
:1048E000837061F0813009F094CFC7019370D110CB
:1048F00002C090E080E00E94C4088BCFC701937093
:10490000D11002C090E080E00E94DA0882CF8E2DA4
:10491000DD20C1F10E94EB09EE2DE45FFF0BE530D5
:10492000F105B0F581E090E001C0880FEA95EAF763
:1049300026E0ECEFF2E0DE01179601900D922A9549
:10494000E1F726E0FE013796DE011D9601900D92FB
:104950002A95E1F72885DD20C1F0822B8E8786E03D
:10496000FE013D96DE01119601900D928A95E1F7C8
:1049700086E0FE013196ACEFB2E001900D928A958F
:10498000E1F747CF0E943009C7CF80958223E6CF59
:104990000E94291A3ECF8F2D837091F5D11039CF07
:1049A0004E2D429546954770440F440F8E2D8F70C3
:1049B000042E01C0880F0A94EAF72E2D2071E4FE20
:1049C00007C02FE030E001C0220F4A95EAF720959A
:1049D0003F2D369536953370323069F050F4409162
:1049E0007C02313029F0822B84230E94CA1A11CF15
:1049F000842B822BFACF282B80917C028227F5CF43
:104A00008695DD2011F08F2D8170882309F401CF68
:104A10004E2D429546954770440F440F8E2D8F7052
:104A2000042E01C0880F0A94EAF72E2D2071E4FEAF
:104A300007C02FE030E001C0220F4A95EAF7209529
:104A40003F2D369536953370323069F050F44091F1
:104A50001004313029F0822B84230E94611AD9CEB0
:104A6000842B822BFACF282B809110048227F5CF3C
:104A7000FF2DFF70FF2EDD2029F08F2F0E94BE1A20
:104A80008E2DF5CE8E2D0E944C0F8F2D0E94791AFF
:104A9000C0CE8E2D22EF8216B1F1281570F030EFC6
:104AA0008316D1F091EF891691F0DD2009F45DC0F5
:104AB000B1105FCE8F2D8F712AC0E3EF8E1651F1AA
:104AC000F4EF8F12F2CF80919F0282FD2FC08F2DC5
:104AD0008F71DD20D9F21BC0DD2081F024E02B1581
:104AE00008F497CE2F2D2F7181E090E001C0880F40
:104AF0002A95EAF7909110048927AFCF35E03B154E
:104B000008F487CEEFCF8F2D8F71D110BFCF0E94C9
:104B1000BE1A7FCE80E0DD2009F49FCF9F2D9F71CC
:104B200081E001C0880F9A95EAF797CFDD2091F0D8
:104B30008F2D8F71F82E0E94BE1A80919F0282FFE6
:104B400007C0E8E0FE9EC00111248360809332021A
:104B50008F2DDDCF81E00E94861AF1E0FB1508F071
:104B600058CE82E00E94861A54CEBB2039F0893399
:104B700009F4A9CE8E2D0E94F31D4BCE8F2D8F717F
:104B800085CFF0E1EF16FFE5FF0609F4CECA21E17B
:104B9000E2162FE5F20609F4B6CAF701E058FF4520
:104BA000E930F10508F0A9CBEB53F94C0C947F35B3
:104BB00030E1E3163FE5F30609F4B9CA91E1E916DD
:104BC0009FE5F90609F4B7CAE8CF85E0DE01119642
:104BD00001900D928A95E1F7F801228189819A81ED
:104BE000211181C90E946B0CF82E85C9F6E1EF16E0
:104BF000FCE5FF0661F58091DE01811116CD89E2A9
:104C00000E943B0CDACB2AE5E2162DE5F20609F408
:104C10008DCD78F4E1148CE5F80609F429CD9EEDEC
:104C2000E9169CE5F90609F039CD0E948A160E9422
:104C3000DD1DECE5EE16EDE5FE0609F426CD08F4E3
:104C400077CD27EAE2162DE5F20689F327CD80918C
:104C50003C02827239ECE3163CE5F30609F400CD20
:104C600008F050C0E5ECEE16ECE5FE0609F4F3CCD6
:104C700080F523ECE2162CE5F20609F4E0CC08F00E
:104C8000E5CC82ECE8168CE5F80609F007CD8091BA
:104C9000DC0380FFCCCC8E7F8093DC036091DC034F
:104CA0007091DD038091DE039091DF030E94B414C4
:104CB000809109038160809309039FEFE0E7F2E0B0
:104CC0009150E040F040E1F700C000000E944C101D
:104CD00052C94FEB55E16CEC75E197ECE9169CE598
:104CE000F90609F4B0CC43EE55E169ED75E1E8EC65
:104CF000EE16ECE5FE0608F4A6CC4CEC55E16FEBA5
:104D000075E1A1CCFDECEF16FCE5FF0609F4ADCC96
:104D1000C8F44DEE55E16FEF75E13BECE3163CE571
:104D2000F30609F490CC42EB55E165EA75E19CECA1
:104D3000E9169CE5F90608F486CC4FEF55E16DEED7
:104D400075E181CCE6EDEE16ECE5FE0608F413C93C
:104D5000FDE5EF16FF0609F40EC9A0CC1F93CF9313
:104D6000DF938091FF01807F09F049C08091FC01B1
:104D7000882309F444C080913102D09100026091EF
:104D8000FA017091FB01A091FD01B091FE01C62FC7
:104D9000C72316E0D81799F190E0109711F0CF3F94
:104DA00019F401968770F6CF189F9001199F300D66
:104DB0001124F901EF5FFD4F41814713F2CF40818C
:104DC0004613EFCF42814111ECCF438154814A1BFE
:104DD0005B0B483C510528F78091FF018F70806183
:104DE0008093FF01F901EA5FFD4F80818F70806140
:104DF00080838AEF91E00E945D1F0E94610CDF9129
:104E0000CF911F910895A1E1B0E0E9E0F7E20C94A1
:104E100022358C0185E0F801DE011D9601900D928E
:104E20008A95E1F7F801E2808AEFA82E81E0B82E9A
:104E30006091FD017091FE016115710509F426C1B3
:104E40009091FA014091FB01892F84238F3F09F44F
:104E50001DC120813181C380D480F090FC01F60116
:104E6000E61BF70BFF2009F4DCC08091FF01582FEF
:104E7000507FE83CF10508F09FC051116BC0FE2C3B
:104E8000431314C0921312C0E11010C08F708061E0
:104E90008093FF01C5010E945D1F8091FF01F80111
:104EA00085838F2D6196EAE00C943E35C114D104C0
:104EB00029F0822F83238F3F09F003C180E0F82F70
:104EC000F170DF2E80FF3CC08091310240910002E2
:104ED00056E0841315C02D873E878D859E850E94E0
:104EE0005614292F22952F702230F0F0243018F517
:104EF0009F70F1F0F8019581907FD1F4D12C1EC004
:104F000090E0589FF001599FF00D1124EF5FFD4F85
:104F10006181361306C06081261303C06281E612E8
:104F20000FC001968770D5CF9F7011F0882331F3A1
:104F3000805E883018F3C8010E945D1FFD2CB1CF40
:104F4000EE2009F4AECF8091FF0181608093FF01D4
:104F5000F12CA7CF431306C0921304C0F801EE2032
:104F600009F479C0C8010E946314882309F1EE2076
:104F7000F9F08091FF01803270F02091FA013091B8
:104F8000FB0138872F831986DB86CA868C87CE0182
:104F900007960E945D1F86E0F801AAEFB1E001903C
:104FA0000D928A95E1F70E94AE26FF24F39479CF03
:104FB000C8010E945D1FF9CF51110AC08AEF91E02C
:104FC0000E945D1F86E0F50111928A95E9F7C0CF36
:104FD00043130FC092130DC0E1100BC0F80185837D
:104FE000C8010E945D1F86E0F50111928A95E9F7DC
:104FF00058CFC8010E9463148823D1F2EE20C1F279
:105000008091FF01803238F22091FA013091FB014A
:105010003A8329831B82DD82CC828E83CE01019666
:10502000B8CFE83CF105F8F6FE2CEE2009F2431368
:105030001FC092131DC08091FF0180FD10C0982FEA
:10504000907F69F0F8018583903F31F0982F907F31
:10505000905F8F70892B8583C8010E945D1F86E059
:10506000F801AAEFB1E001900D928A95E1F719CF0E
:10507000C8010E94631481118ECF8091FF0181606D
:105080008093FF01C8010E945D1F0BCFEE2009F441
:105090008FCFC8010E946314F82E882309F488CFAB
:1050A00086E0F801AAEFB1E001900D928A95E1F750
:1050B0008091FA019091FB010E9456140E94AE2645
:1050C000F0CE81E08E25FBCEA7E1B0E0EAE6F8E283
:1050D0000C9429354B8B5C8B6D8B7E8B8F8B611188
:1050E00010923B021A8A198A85E0FE017396DE014E
:1050F0001D9601900D928A95E1F786E0FE013D969E
:10510000DE01179601900D928A95E1F7CE01079680
:105110000E940327882359F016E080913102909174
:105120000002891343C06796E3E00C94453586E09E
:10513000FE013796DE01119601900D928A95E1F7F6
:105140008A859B85892B41F38F81988589238F3FA1
:1051500019F32091000230E0C90101968770992768
:10516000409131024817190671F40E94CF1A10922B
:1051700000021092310286E0EAEFF1E0DF011D92B9
:105180008A95E9F7C9CF96E0929FD001939FB00D21
:105190001124AF5FBD4FFE01319601900D929A959B
:1051A000E1F7809300020E94610CB6CF819FC0019D
:1051B00011248F5F9D4F0E940327882309F4B3CFEA
:1051C0008091310290E00196877099278093310297
:1051D000A4CFA0E1B0E0EFEEF8E20C941F358E0111
:1051E0000F5F1F4F8AE0D8011D928A95E9F791EA77
:1051F000C92E91E0D92EF12CE12CAA24A394B12C34
:105200003DEA832E31E0932EF60181916F018F3FAD
:1052100009F442C0F894E82FE295EF70F0E021A184
:105220008F70A50102C0440F551F8A95E2F7CA018D
:10523000922F982B91A392A18095892382A3789491
:1052400000C0E6EAF1E0712C31E021912F3F09F432
:105250006BC0A22FA295AF70B0E090968C9190E0B9
:105260002F7002C0959587952A95E2F780FD5CC066
:10527000832F782A330F8E169F0639F7F601319760
:1052800080818F3F11F00E94470A50EA5A95F1F74A
:10529000F801EE0DFF1D70828FEFE81AF80AA5E005
:1052A000EA16F10409F0B0CF4AE050E0B80182E913
:1052B00092E00E94B335009741F02AE0F801A2E99C
:1052C000B2E001900D922A95E1F700919D02892BA1
:1052D00069F181E0809340020E941D1A90933F0281
:1052E00080933E0280913E0290913F020E940E1AEE
:1052F000059700F110E007521D4F45E050E062E9CC
:1053000072E0C8010E94B335D12C892B51F085E0A1
:10531000E2E9F2E0D80101900D928A95E1F7DD24EF
:10532000D3941092400207C080E0A3CF8091400246
:105330008111D8CFD12C0E94E010C82EE0919D029F
:10534000882309F492C07E01BBE0EB0EF11C85E0DE
:10535000D7011D928A95E9F70E2F10E007521D4FD5
:1053600080918D028A3008F04DC049ED58E1B701B7
:10537000C8010E94AD10882309F466C048E357E1D4
:10538000B701C8010E94AD10882309F45DC045E251
:1053900058E1B701C8010E94AD10882309F454C038
:1053A00048E058E1B701C8010E94AD10882309F414
:1053B0004BC04AED57E1B701C8010E94AD108823E8
:1053C00009F442C04DEA58E1B701C8010E94AD108E
:1053D0008823D1F110928D0280919C0290E045E0EB
:1053E00050E0B70187529D4F0E94B33521E02093D2
:1053F0004B02892BE1F4C12C8C2D8D296096EDE0B8
:105400000C943B3580914102909142020E940E1A09
:10541000843F914008F0A9CF80914B02882359F333
:1054200085E0F70111928A95E9F710924B02A0915D
:105430009C02B0E0A752BD4F85E0FE013B96019073
:105440000D928A95E1F7D8CF80918D028F3F31F090
:105450008F5F80938D028A3008F4BECF0E941D1AA0
:105460009093420280934102D7CFF0E0E752FD4F84
:1054700085E0AEE4B2E001900D928A95E1F765E037
:1054800070E08EE492E00E94FE0880934D028090CE
:10549000530290905402A0905502B0905602809111
:1054A000470290914802A0914902B0914A028816A1
:1054B0009906AA06BB06D1F0809247029092480254
:1054C000A0924902B0924A020E94E01081110EC0DF
:1054D0000E94B808861A970AA80AB90A80928E0212
:1054E00090928F02A0929002B09291028091570206
:1054F000809310048091580280937C02809159021D
:105500008093E703809161028823F1F080FF0DC052
:1055100080915A0280FF65C09091DC039160909366
:10552000DC0360E086950E9411168091610281FF84
:1055300009C020E040915D0260915C0280915B02B5
:105540000E94C7141092610240914302509144029C
:1055500060914502709146022FB7F8948091EF0355
:105560009091F003A091F103B091F2032FBF841B3F
:10557000950BA60BB70B0A97A105B10508F43CCF14
:105580000E94B808609343027093440280934502DE
:10559000909346028E01055F1F4F86E0F82ED801DA
:1055A000EF2D1D92EA95E9F74B855C856D857E852B
:1055B0008F8598890E9418132B873C874D875E87BB
:1055C0006F87788BF801A3E6B2E001900D92FA9410
:1055D000E1F766E070E0C8010E94FE088093620275
:1055E0000BCF0E949710A1CF1F921FB61F921124BC
:1055F0008F939F93AF93BF938091EE03811113C05C
:105600008091EF039091F003A091F103B091F20328
:105610004196A11DB11D8093EF039093F003A093D9
:10562000F103B093F203BF91AF919F918F911F90BF
:105630001FBE1F901895CDB7DEB7AE970FB6F89482
:10564000DEBF0FBECDBF85B7806885BF85B78068D8
:1056500085BF84B7877F84BF0FB6F894A8958091E3
:105660006000886180936000109260000FBE80E847
:1056700090E00FB6F89480936100909361000FBEA4
:1056800085E49AE09093D3018093D2010E941F0792
:105690000E94EA078091E20084608093E20078949F
:1056A000809103048823A1F01091E9001F7090916C
:1056B000EC00892F817090FD80E8182B1092E90092
:1056C0008091E80083FD0E94DB1A1F701093E900AF
:1056D00082E084BD93E095BD9AEF97BD80936E0004
:1056E00010928E0210928F021092900210929102EC
:1056F0000E948D14811102C00E94DA130E94E010F2
:105700008093500180915001882309F473C0109256
:10571000680183E2809369010E94E01081110E9478
:10572000A433809150018091500195E0811190E067
:1057300090939D0285E0891B80939C0201EA11E011
:10574000D8018D918D018F3F11F00E94470AB1E081
:10575000063A1B07A9F706EA11E04DEAE42E41E0FC
:10576000F42EF80181918F018F3F11F00E94470ABA
:10577000E016F106B1F78AE0E9EDF2E0DF01282F4B
:105780001D922A95E9F7E2E9F2E0DF011D928A9580
:10579000E9F70E945C160E940519811102C00E945F
:1057A0008A1682E090E00E94C9358093A3020E948D
:1057B000A61490939F0280939E020E94E928EFE333
:1057C000FCE93197F1F700C000000E94E9280E942F
:1057D000E010E4E08111E0E0F0E0E752FD4F80816D
:1057E00081FF0CC06FEF7FEF90E080E00E94FB35FF
:1057F0000E94A70883E2809368018CCF83E090E049
:105800000E94C9350E94CA1A0E94E010882309F438
:1058100018C183E08093D40280FD15C180E8809395
:1058200011040E945E326DE070E08CE492E00E9410
:105830005D0F892BE9F58091D40263E070E081FD72
:1058400004C189E492E00E945D0F892B89F56DE027
:1058500070E089E392E00E945D0F892B49F50E9478
:10586000B808605A75418F4F9F4F6093E103709362
:10587000E2038093E3039093E403E4E1F4E080E047
:1058800092E0DF019C011D9221503040E1F7F0933E
:105890001B06E0931A068FEF9FEF909313048093FB
:1058A000120481E08093E6038093E5031092D50211
:1058B0008091A002811136C00E940519811104C097
:1058C0000E948A160E94431688E090E00E94D1351B
:1058D0006093DC037093DD038093DE039093DF031A
:1058E000809109038360809309036E7F71F40E94A5
:1058F000431688E090E00E94D1356093DC037093FA
:10590000DD038093DE039093DF030E941A098091E8
:10591000DC0380FF04C060E086950E94111681E0E0
:105920008093A0020E94E010811102C00E94A73360
:105930000E94A81283E190E00E94D1356093AF02EB
:105940007093B0028093B1029093B202E62FF0E020
:10595000EE0FFF1FE355FE4F80818093540180932B
:105960005301E72FF0E0EE0FFF1FE355FE4F80815C
:10597000809352018093510185E591E09093EB0370
:105980008093EA0320E4622E44244394512C8091B6
:10599000030400E112E1853009F495C00E94E92872
:1059A00014EAE12E12E0F12E09ED202E02E0302E55
:1059B0002EEA32E0D101F70191918D912E173F0728
:1059C00009F48BC09817C1F30E94E010882EB9ED3E
:1059D000CB2EB2E0DB2E10E0F60101916F01D70172
:1059E0009D907D01901629F19026B12CAA24A394B4
:1059F000892D8A21B1F08820A1F0BEA21FA391E0D9
:105A0000802F8A2109F490E098A70E941D1A8160D6
:105A1000782F9AA789A74EA15FA168A58AA50E94A1
:105A20006428B394AA0CB7E0BB12E2CFF701319718
:105A300000831F5F1A3081F60E94B808DD24D394DA
:105A40006DC080E0E7CE80E2EACE86E492E0FBCE55
:105A500080910304843039F10E94870F0E9419114C
:105A60001092EE0388E190E00FB6F894A895809329
:105A700060000FBE6092600083B7817F846083BF47
:105A800083B7816083BF7894889583B78E7F83BF07
:105A90000FB6F894A89580916000886180936000AB
:105AA000109260000FBE80910204882361F00E9472
:105AB000E928E9EDF2E081918111D7C4A3EEB2E0CB
:105AC000AE17BF07C1F780910304853009F4C0CF3A
:105AD0000E94CF1A0E94051161CF981375CF0E94C2
