:100000000C9407070C9424070C9424070C94E133F8
:100010000C9424070C9424070C9424070C942407B4
:100020000C9424070C9424070C94E4180C94FD1CE5
:100030000C94A82A0C9424070C9424070C942407ED
:100040000C9424070C9424070C9424070C94240784
:100050000C9424070C94BD190C9424070C942407C9
:100060000C9424070C9424070C9424070C94240764
:100070000C9424070C9424070C9424070C94240754
:100080000C9424070C9424070C9424070C94240744
:100090000C9424070C9424070C9424070C94240734
:1000A0000C9424070C9424070C94240705010902DE
:1000B000A10185020901A1000509190129081500FE
:1000C0002501950875018102050109300931158165
:1000D000257F95027508810609381581257F9501D0
:1000E00075088106050C0A38021581257F95017572
:1000F000088106C0C005010980A101850319012AF4
:10010000B700150126B700950175108100C0050CD8
:100110000901A101850419012AA002150126A002E6
:10012000950175108100C00660FF0961A101096297
:10013000150026FF00952075088102096315002629
:10014000FF00952075089102C005010906A101056F
:100150000719E029E7150025019508750181029529
:1001600001750881010507190029FF150026FF0008
:100170009506750881000508190129059505750181
:100180009102950175039101C0000000000000007C
:10019000000000000000000000000000000000005F
:1001A000000000000000000000000000007E0F00C2
:1001B000D4FFFFFFC700000078000000000000002F
:1001C000002A2B28000000000000000000000000B2
:1001D0000000000029000000002C1E3420212224F1
:1001E000342627252E362D3738271E1F202122237F
:1001F0002425263333362E37381F04050607080911
:100200000A0B0C0D0E0F10111213141516171819D6
:100210001A1B1C1D2F3130232D3504050607080934
:100220000A0B0C0D0E0F10111213141516171819B6
:100230001A1B1C1D2F3130354C00DA0281FFD9F119
:10024000DB20A4A62EAF00A0C000A1C800AED580C0
:10025000A81FD300408D1420002D2D2D2D2D000A18
:1002600000204D78002053636C20005249474854C9
:10027000000A00204D78002053636C200053435245
:100280003A5F005343523A40002D2D2D2D2D5450EE
:100290004D4F444C45465420004341503A5F004383
:1002A00041503A40004E554D3A5F004E554D3A4050
:1002B000002D2D2D2D2D53544154532D2D2D2D2DED
:1002C000002055444620002041444A200020524945
:1002D000532000204C575220002044454620002D3A
:1002E0002D2D2D2D4C4159455200000000000000DD
:1002F000000000000000000080C0E0E0F0F0F0F03E
:10030000F0F0F0F0F0F0F0F0F0F0F0F0F0F0F0F0ED
:10031000F0F0F0E0C00000000080E0E0F0F0F0F06D
:10032000F0F0F0F0F0F0F0F0F0F0F0F0F0F0F0F0CD
:10033000F0F0F0F0F0F0F0F0F0F0F0F0F0F0F0F0BD
:10034000F0F0F0F0F0F0F0F0F0F0F0F0F0F0F0F0AD
:10035000F0F0F0F0F0F0F0F0F0F0F0F0F0F0F0E0AD
:10036000C0000000000000000000000000000000CD
:10037000000000000000007FFFFFFFFFFFFFFFFF06
:10038000FFFFFFFFFFFFFFFFFFFFFFFFFFFFFFFF7D
:10039000FFFFFFFFFF00000000FFFFFFFFFFFFFF69
:1003A000FFFF87070303030303030303030303039D
:1003B0000303030303030303030303030303038789
:1003C000FFFFFFFFFFFFFFFFFFFFFFFFFFFFFFFF3D
:1003D000FFFFFFFFFFFFFFFFFFFFFF7F3F1F0F0735
:1003E000010000000000000000000000000000000C
:1003F00000000000000000000001010303030303EC
:10040000030303030303030303030303030303FFC0
:10041000FFFFFFFFFF00000000FFFFFFFFFFFFFFE8
:10042000FFFFFFFFFFFFFFFFFFFFFFFFFFFFFFFFDC
:10043000FFFFFFFFFFFFFFFFFFFFFFFFFFFFFFFFCC
:10044000FFFFFFFFFFFFFFFFFFFFFFFFFFFFFFFFBC
:10045000FFFF7F3F3F1F0F07030100000000000068
:10046000000000000000000000000000000000008C
:10047000000000000000000000000000000000007C
:100480000000000000000000000000000000000765
:100490000F0F0F0F0700000000030F0F0F0F0F0FBC
:1004A0000F0F0F0F0F0F0F0F0F0F0F0F0F0F0F0F5C
:1004B0000F0F0F0F0F0F0F0F0F0F0F0F0F0F0F0F4C
:1004C0000F0F0F0F0F0F0F0F070707030303010194
:1004D000000000000000000000000000000000001C
:1004E0000000000000000000000000010101010107
:1004F00001010101020202020202020202030303DD
:1005000003030303030404040404040405050505AC
:10051000050606060606070707070708080808096C
:100520000909090A0A0A0B0B0B0C0C0C0D0D0D0E18
:100530000E0E0F0F0F1010111111121213131414AD
:10054000151516161717181819191A1A1B1B1C1D22
:100550001D1E1E1F2020212222232424252626277B
:100560002829292A2B2C2D2D2E2F303132323334AD
:1005700035363738393A3B3C3D3E3F4041424344B3
:1005800045464748494A4C4D4E4F50515354555695
:1005900058595A5B5D5E5F616264656668696B6C41
:1005A0006D6F7072737577787A7B7D7E80828385BC
:1005B00087888A8C8E8F91939596989A9C9EA0A2FC
:1005C000A3A5A7A9ABADAFB1B3B5B7BABCBEC0C206
:1005D000C4C6C9CBCDCFD1D4D6D8DBDDDFE2E4E7CA
:1005E000E9EBEEF0F3F5F8FAFDFF00AF00AE2900FD
:1005F0001E001F002000210022002F0035001400E3
:100600001A000800150017002D002B00040016002A
:10061000070009000A004C00E1001D001B00060055
:10062000190005002C00E000E300E2003504017E23
:100630002C004C0046002700260025002400230043
:1006400030003100130012000C0018001C002E00B6
:10065000340033000F000E000D000B002A00E500EF
:100660003800370036001000110028004F005200FB
:1006700051005000027E28002A0044003A003B004E
:100680003C003D003E002F0235021E021F022002E8
:10069000210222022D022B001E001F00200021003B
:1006A00022004C00E1002300240025002600270042
:1006B0002C00E000E300E2003504017E2C004C0039
:1006C000450043004200410040003F00300231023B
:1006D000270226022502240223022E0234023302BC
:1006E0000F000E000D000B002A00E5003802370253
:1006F00036021000110028004D004B004E004A0049
:10070000027E28002A0044003A003B003C003D00E5
:100710003E002F0235021E021F0220022102220289
:100720002D022B001E001F002000210022004C0083
:10073000E100230024002500260027002C00E00013
:10074000E300E2003504017E2C004C00450043002C
:100750004200410040003F003002310227022602E1
:100760002502240223022E02340233020F000E005F
:100770000D000B002A00077E067E370236021000AD
:1007800011002800057E047E4E004A00027E2800EB
:100790002A00010001000100010001000100010028
:1007A00001000100207821782478237801000100DD
:1007B000010002780678010001000100010001003B
:1007C0000100010001000100010001000100010021
:1007D0000100010001000100010001000100010011
:1007E0000100010001000100010027782878257828
:1007F0002678010001000100010001000100010054
:1008000001000100010001000100010001000100E0
:1008100001000100010001000100010001000902C6
:100820005B00030100A0FA090400000103010100BC
:100830000921110100012240000705810308000180
:100840000904010002030000000921110100012236
:100850002200070582032000010705030320000191
:100860000904020001030000000921110100012216
:100870007B00070584032000011201000200000034
:10088000081DFE60600001010200012203450072A4
:100890000067006F004B006E006900660065002075
:1008A0000072006500760031002E00320000001852
:1008B0000354006F00750063006800730065006EEC
:1008C0000073006F00720000000403090407087F32
:1008D0000807003E5B4F5B3E003E6B4F6B3E001CCB
:1008E0003E7C3E1C00183C7E3C18001C577D571C6B
:1008F000001C5E7F5E1C0000183C180000FFE7C370
:10090000E7FF00001824180000FFE7DBE7FF0030D6
:10091000483A060E00262979292600407F0505075A
:1009200000407F05253F005A3CE73C5A007F3E1CB3
:100930001C0800081C1C3E7F0014227F2214005F4C
:100940005F005F5F0006097F017F00006689956A8E
:100950000060606060600094A2FFA2940008047EC2
:1009600004080010207E20100008082A1C08000837
:100970001C2A0808001E10101010000C1E0C1E0C63
:100980000030383E383000060E3E0E0600000000F3
:1009900000000000005F00000000070007000014D6
:1009A0007F147F1400242A7F2A1200231308646214
:1009B00000364956205000000807030000001C22A2
:1009C0004100000041221C00002A1C7F1C2A000854
:1009D000083E080800008070300000080808080879
:1009E000000000606000002010080402003E514931
:1009F000453E0000427F40000072494949460021BF
:100A000041494D33001814127F10002745454539E0
:100A1000003C4A4949310041211109070036494942
:100A2000493600464949291E000000140000000014
:100A3000403400000000081422410014141414145F
:100A4000000041221408000201590906003E415DE0
:100A5000594E007C1211127C007F49494936003EF4
:100A600041414122007F4141413E007F4949494186
:100A7000007F09090901003E41415173007F0808C8
:100A8000087F0000417F4100002040413F01007F7E
:100A900008142241007F40404040007F021C027F3A
:100AA000007F0408107F003E4141413E007F09095C
:100AB0000906003E4151215E007F091929460026A2
:100AC000494949320003017F0103003F4040403F54
:100AD000001F2040201F003F4038403F00631408A3
:100AE0001463000304780403006159494D43000076
:100AF0007F41414100020408102000004141417F34
:100B0000000402010204004040404040000003078E
:100B10000800002054547840007F284444380038AE
:100B20004444442800384444287F0038545454181E
:100B30000000087E09020018A4A49C78007F080425
:100B400004780000447D4000002040403D00007FCC
:100B5000102844000000417F4000007C04780478A5
:100B6000007C0804047800384444443800FC18240D
:100B700024180018242418FC007C080404080048E9
:100B8000545454240004043F4424003C4040207C3E
:100B9000001C2040201C003C4030403C00442810F9
:100BA0002844004C9090907C004464544C440000D5
:100BB00008364100000000770000000041360800C0
:100BC000000201020402003C2623263C0000000033
:100BD000000000404040F0F8F8FF38FFF8F83FF818
:100BE000F8FF38FFF8F8F040404000000000000037
:100BF00080C0C0C0800000C0C08000000080C0C0B5
:100C000000C0C0000080C0C00000000000C0C0C024
:100C1000C0C000C0C00000000000000000000000D4
:100C200000000000000000000000000000000000C4
:100C300000000000000000000000000000000000B4
:100C4000000000000000000000000000C0F0F8FC00
:100C50003E1E06010000007F4141417F007F41416F
:100C6000417F000080C0E07E5B4F5BFEC00000C0A3
:100C700000DCD7DEDEDED7DC00C0000000000000B4
:100C80000000000000000000000000000000000064
:100C9000000000494949FFFFFFFFE0DFBFBF00BF81
:100CA000BFDFE0FFFFFFFF49494900000000001FD0
:100CB0003F6060E0BF1F007F7F071E381E077F7FF9
:100CC000007F7F0E1F3B716000000000007F7F0CE3
:100CD0000C0C007E7E007F7E0303007F7E03037E7C
:100CE0007E03037F7E000F3E703C063C703E0F008B
:100CF000327B49493F7E007F7E0303001E3F6969C6
:100D00006F2600000000000000000000030F1F3FDE
:100D10003C7870600000007F4141417F007F41418D
:100D2000417F00307B7F7830202030787F3B00038C
:100D3000000F7F0F0F0F7F0F000300000000000067
:100D400000000000000000000000000000000000A3
:100D5000000000010101070F0F7F0F7F0F0F7E0FB3
:100D60000F7F0F7F0F0F070101010000000000003F
:100D70000000000001010000000000000000000071
:100D80000000000000000000000000000000000063
:100D90000000000000000000000000000000000053
:100DA0000000000000000000000000000000000043
:100DB0000000000000000000000000000000000033
:100DC0000000000000000000000000000000000023
:100DD0000000000000000000000000000000000013
:100DE0000000000000000000000000000000000003
:100DF00000000000000000000000000000000000F3
:100E000000000000000000000000000000001124AD
:100E10001FBECFEFDAE0DEBFCDBF11E0A0E0B1E052
:100E2000EEE3FEE602C005900D92AE3DB107D9F7A4
:100E300026E0AEEDB1E001C01D92AD32B207E1F7A0
:100E40000E94CF2A0C94A4360C940000E8EDF0E048
:100E500080818E7F80831092E2001092DA001092DF
:100E6000E100A0EEB0E08C9181608C9380818F775F
:100E7000808319BCA7EDB0E08C918E7F8C9380812C
:100E80008F7E80831092080408952091E4003091B1
:100E9000E50095E6A9012091EC00822F817020FFEA
:100EA00006C08091E80080FF06C080E00895209190
:100EB000E80022FD1AC080911504882389F085304E
:100EC00089F08091EB0085FD0FC02091E400309106
:100ED000E50042175307F9F29150E1F684E00895D6
:100EE00082E0089583E0089581E0089580911704D9
:100EF00087FF13C08091E80082FF06C08091E80060
:100F00008B778093E80004C0809115048111F2CFA3
:100F10000895809115048823D9F38091E80080FF1B
:100F2000F8CF8091E8008E77ECCF982F9093E9006E
:100F3000242F762F50E0891731F07091EC0020912A
:100F4000ED005091F00021FD07C09F5F973071F7D1
:100F50008093E90081E008953091EB003E7F30936B
:100F6000EB003091ED003D7F3093ED003091EB00D0
:100F700031603093EB007093EC002093ED005093C0
:100F8000F0002091EE0027FDE0CF80E00895B0E072
:100F9000A0E0EDECF7E00C941B35C8EDD0E08881C3
:100FA0008F7E8883E7EDF0E080818160808384E03C
:100FB00082BF81E08093080488818E7F888302EE5F
:100FC00010E0F80110821092DA0081EEC82ED12CC8
:100FD000F601108288818F77888388818068888372
:100FE00088818F7D888319BC109215041092160495
:100FF000109214041092130490EEE92EF12CF701D4
:1010000080818B7F808388818160888342E060E07B
:1010100080E00E949507F60180818E7F8083F80131
:10102000808181608083808188608083F7018081F6
:101030008E7F8083888180618883CDB7DEB7E8E0CA
:101040000C943735FC0180911D0490911E04861785
:101050009707A0F06115710529F49091E8009E773B
:101060009093E80090E06115710551F4911108C06A
:101070008091E80082FF34C080E00895BC01F2CF87
:10108000809115048823C1F18530C1F18091E80079
:1010900083FD30C08091E80082FDEACF8091E800B6
:1010A00080FFE1CF8091F3002091F200382F61158D
:1010B000710519F02830310558F091E028303105DC
:1010C00009F090E02091E8002E772093E800CBCF44
:1010D00081918093F100615071092F5F3F4FE7CFFD
:1010E00080911504882341F0853041F08091E8001B
:1010F00083FFBECF81E0089582E0089583E00895E4
:1011000080910A04089588E19AE00FB6F894A895B2
:10111000809360000FBE90936000FFCF87E797E752
:10112000909301088093000888E19AE00FB6F89444
:10113000A895809360000FBE90936000FFCFCF9280
:10114000DF92EF92FF922FB7F894C0900404D090F2
:101150000504E0900604F09007042FBFA701960154
:10116000261B370B480B590BCA01B901FF90EF90B2
:10117000DF90CF9008952FB7F89460910404709198
:10118000050480910604909107042FBF0895A3E001
:10119000B0E0EDECF8E00C942135209101043091A1
:1011A000020428173907A1F09093020480930104E8
:1011B000E091FF03F0910004309751F024E029837F
:1011C0009B838A830680F781E02DCE0101960995E5
:1011D0002396E2E00C943D35A3E0B0E0E2EFF8E0C6
:1011E0000C9421352091FD033091FE032817390717
:1011F000A1F09093FE038093FD03E091FF03F09133
:101200000004309751F023E029839B838A83068072
:10121000F781E02DCE01019609952396E2E00C942A
:101220003D35E091FF03F0910004309739F022E062
:10123000DC012C930480F581E02D09950895FC01D3
:10124000680F791F8FEF91E32191822728E030E02A
:1012500087FF09C0880F892721503109C9F7E61790
:10126000F70791F70895880FF7CFFA01811101C0B0
:10127000FB01099508958091F103982F9E7F71F4E9
:101280008091F103817082608093F1038091F40377
:10129000873918F086E98093F4030895843080F745
:1012A000F5CF8091FA0280FD16C081FD16C082FD47
:1012B00016C08091F9028823A1F0883280F428E0DA
:1012C000829FC001112468E270E00E946235862F7F
:1012D000672B39F0089582E0089584E0089588E04E
:1012E000089581E008958091FA0280FD14C081FD87
:1012F00014C082FD16C08091F802882381F08E31DF
:1013000080F420E5829FC00111246EE170E00E940C
:101310006235862F089584E1089588E2089588E073
:10132000089580E5089580E00895F894E82FE29507
:10133000EF70F0E031A1282F2F7081E090E001C024
:10134000880F2A95EAF7982F9095932391A392A15D
:10135000892B82A3789408959091AD0292FF06C0E4
:10136000282F28712830F9F4877F846093FF06C006
:10137000282F28712831F1F4877E84612091AE02F4
:1013800020FF06C0382F38713830D9F4877F81604C
:1013900021FF06C0282F28712831D1F4877E816172
:1013A00094FD877E0895282F24712430F9F68B7FD1
:1013B0008860DCCF282F2471243101F78B7E88616F
:1013C000DDCF382F3171313019F78E7F8860E0CF53
:1013D000282F2171213121F78E7E8861E1CF82385B
:1013E0009105B9F1B0F48133910509F47DC048F459
:1013F0008932910509F46DC08A32910509F47BC0E8
:1014000008958533910509F45FC08933910509F189
:101410000895833E9105D9F138F4803E910529F174
:10142000823E910579F10895863E9105D9F1873E76
:10143000910509F43EC0843E910541F52091AE022C
:1014400021FF24C08091AD0284FD19C087EE90E099
:1014500008952091AD02237009F05AC02091AE0288
:1014600023FF14C089E290E008952091AD0220FD91
:1014700038C03091AE0230FF09C024FF43C090E075
:1014800080E008952091AD0222FDF7CF08952091CC
:10149000AD0222FD3AC03091AE0230FD39C024FFCA
:1014A000F5CFEDCF2091AD0223FFF0CF24FDE7CFA4
:1014B000CDCF2091AD0223FD2EC03091AE0231FF81
:1014C000EECF84EE90E008952091AD0225FFDECFAF
:1014D000C9CF2091AD0225FD21C02091AE0223FF8E
:1014E000D5CF89E390E0D2CF2091AD0226FFCECFB9
:1014F0008AE290E008952091AD0226FFC7CF81E3F4
:1015000090E0089583EE90E0089582EE90E00895D3
:1015100080EE90E0089586EE90E0089585E390E0F7
:1015200008951F93CF93DF930E94EF09EC01C1153B
:1015300080E5D807F0F5C11580E4D80708F09CC015
:10154000C03ED10520F5CD3CD10508F082C0C83A97
:10155000D10578F4C53AD10508F073C0C130D10582
:1015600019F1209709F1C430D105F0F4D0E0C0E0C2
:101570001BC0C33CD105D0F7C85AD0E0CC0FDD1F4B
:10158000CB58DE4F0990D881C02DD4640DC0C11551
:1015900080E2D80708F0D1C0C11581E0D80708F073
:1015A0005AC0C83ED10510F7CE01DF91CF911F91EF
:1015B0000895C03682E5D80718F5C03482E5D8070B
:1015C00008F06BC0C03282E5D80708F05FC0C115D3
:1015D00082E5D80708F497C02C2F2695269580E23F
:1015E000289F900111248C2F8370C1E0D0E002C0AD
:1015F000CC0FDD1F8A95E2F7C22BD32BDD68D4CF49
:10160000C03A82E5D80760F4C03882E5D80708F40C
:1016100059C0CF71D0E0DC2FCC27C46FD06AC4CFC3
:10162000C03C82E5D80708F462C0C03E82E5D80716
:1016300008F09CCFDC2FCC27CC27DF71C06FD06A9D
:10164000B3CFC55AD0E0CE58DE4FC881D0E0D064C9
:10165000ABCFD065A9CF8D2F0E94AC09182FCE013A
:1016600099270E94EF09C12FD0E0DC2FCC27CC278F
:10167000DF71C82BD92B98CFCE0199270E94EF0993
:10168000CC27DF70C82BD92BD06A8ECFCF71D0E09A
:10169000DC2FCC27C16FD06A87CF2C2F26952695BB
:1016A000277080E2289F900111248C2F8370C1E065
:1016B000D0E002C0CC0FDD1F8A95E2F7C22BD32BFE
:1016C000DC6872CF2C2F26952695277080E2289F04
:1016D000900111248C2F8370C1E0D0E002C0CC0FA8
:1016E000DD1F8A95E2F7C22BD32BDA685DCF8C2FF2
:1016F0008F710E94AC09C82FD0E0DC2FCC27CC27FB
:10170000DF71D06251CF8C2F8F710E94AC0955E0F0
:10171000D695C7955A95E1F7CF70D0E0DC2FCC274E
:10172000282F30E084FF05C044E0220F331F4A9584
:10173000E1F7C22BD32BD06937CF8D2F8F710E9449
:10174000AC09182FCE0199270E94EF09C12FD0E0D4
:10175000DC2FCC27CC27DF71C82BD92BD2CF80919F
:101760004902811110924902089580959091480292
:101770009823909348020895E2EEF1E09191891345
:1017800003C0DF0111971C9291E0E83EF907B1F721
:101790000895A2EEB1E0EFEF90E02D91821751F0A5
:1017A000EF3F19F4211101C0E92F9F5F9630A9F78F
:1017B000EF3F09F408950E2E000CFF0BE052FE4F90
:1017C0008283089520913D0290910C0256E02913E6
:1017D00002C080E0089530E0529FF001539FF00D69
:1017E0001124E35FFD4F7181761306C07081781379
:1017F00003C07281741304C02F5F3F4F2770E7CF7F
:1018000081E0089580913D0290910C02981301C0EF
:1018100008958F5F8770FACF292F9A3078F5873037
:1018200068F590E037E0239F800D911D1124682F0B
:10183000677023E0969587952A95E1F7FC01EE0FF6
:10184000FF1FE80FF91FE551FE4F50E040E080E038
:10185000219130E0062E02C0369527950A94E2F7D2
:1018600021703327042E01C0220F0A94EAF7822B3D
:101870004F5F5F4F4330510559F7089580E0089559
:10188000292F9A3098F5873088F590E037E0239F2C
:10189000800D911D1124282F277041E001C0440FB5
:1018A0002A95EAF723E0969587952A95E1F7FC01BA
:1018B000EE0FFF1FE80FF91FE551FE4F30E020E06B
:1018C00070E05191DF011197CB01022E02C0969575
:1018D00087950A94E2F7817081958527842385276F
:1018E0008C932F5F3F4F2330310559F70895982F80
:1018F0009670963021F488608093C8020895877F9F
:10190000FBCF9091C80221E030E0F90101C0EE0F59
:101910008A95EAF7D90102C0AA0FBB1F6A95E2F7C0
:10192000EA2B01C0220F4A95EAF7892F8E23E8138C
:1019300005C0292B822F0E94770C0895209529231A
:10194000F9CF21E030E001C0220F8A95EAF7209517
:101950008091C80282230E94770C089590913E02E4
:101960008095892380933E02282F277091F4282F99
:10197000082E000C330B9217130659F09091AE020B
:1019800092FF07C08595859585950E94A10C1092C0
:101990003E02089521E030E001C0220F8A95EAF767
:1019A0008091C802822B0E94770C089580938B024D
:1019B0000895982F92959F7011F0892F94E0282F09
:1019C0002695269511F09E5F822F869509F09F5FE0
:1019D000892F0895CF93DF93C091E801C80F41F498
:1019E0001092E80160E070E0CB01DF91CF910895A3
:1019F0008C2F69E10E945435D92F682F880F770BFF
:101A0000880B990B0E944036D093E801C85EC13321
:101A100060F31092E901E9CFCF93DF93C091E90120
:101A2000C80F41F41092E90160E070E0CB01DF9152
:101A3000CF9108958C2F6FE00E945435D92F682FD5
:101A4000880F770B880B990B0E944036D093E901E1
:101A5000C25FCD3160F31092E801E9CFAEE1B0E0B2
:101A6000E4E3FDE00C9419354B8B5C8B462F8F8B98
:101A7000988FE98EFA8E0B8F1C8FE22E2D8FF32E0E
:101A80003E8F842FD72E9091C702992309F456C018
:101A90000E940C0D0E940836C62E8D2D81950E9445
:101AA000EA0C0E940836D62EB12CA12C8091C202DD
:101AB000882309F478C0802F0E940C0D0E940836FC
:101AC000F62E812F81950E94EA0C0E940836E62EA0
:101AD00060E000E0AD8ABE8ADF8AC88E86E0FE0143
:101AE0007396DE01179601900D928A95E1F74C8965
:101AF0005A8D802F002E000C990B8A0D911DA7FC8A
:101B00009A9580382FEF92070CF481C080389105A8
:101B10000CF07FC0982F062E000C770B6B0D711DFB
:101B2000B7FC7A9560388FEF78070CF474C0862F75
:101B3000603871050CF470C08FE76EC0A0915C0135
:101B400091E0940F933018F1242F440F330B0A2E99
:101B5000000CBB0B0E9483350E9440360E94083661
:101B6000A62EA0915B0181E08D0D8330B0F02D2D6C
:101B7000DD0C330B0A2E000CBB0B0E9483350E9438
:101B80004036DF88C88C0E940836B62E8FCF642F6F
:101B9000440F770B880B990BDFCF6D2DDD0C770B86
:101BA000880B990BECCFA0915A0181E0800F833014
:101BB00008F1202F000F330B0A2E000CBB0B0E94E4
:101BC00083350E9440360E940836062FA0915901A5
:101BD00081E0810F8330A0F0212F012E000C330B08
:101BE0000A2E000CBB0B0E9483350E9440360E94D7
:101BF000083670CF602F000F770B880B990BE1CF61
:101C0000612F012E000C770B880B990BEECF90E81B
:101C100082CF9FE780CF80E86F2D0F2C000C770BD1
:101C20006C0D711DC7FC7A9560382FEF7207B4F107
:101C300060387105ACF52E2D0E2C000C330B2D0DDC
:101C4000311DD7FC3A9520387FEF37075CF12038FB
:101C5000310554F5452B488799878A872B876C87F0
:101C600086E0FE013796DE01119601900D928A956D
:101C7000E1F786E0FE013196DE011D9601900D929E
:101C80008A95E1F72D853E854F85588969897A893E
:101C900080E090E06E96EAE00C94353560E8CBCFBA
:101CA0006FE7C9CF20E8D6CF2FE7D4CFCF93DF930C
:101CB000C0912B06D0912C068A30C1F420912204C9
:101CC000CE0185529440622F70E00E94FD34281BA3
:101CD000822F66E00E944835C82FC15018F4DF916A
:101CE000CF91089580E20E94560EF7CF8D30E9F42F
:101CF000C552D44020912204622F70E0CE010E9490
:101D0000FD34281B822F9E01280F311D21153240E2
:101D100018F080E0D0E0C0E0C80FD11DCB5DDB4FF4
:101D2000D0932C06C0932B06DACF96E0FE01A5E2F5
:101D3000B6E001900D929A95E1F7803E08F458C004
:101D400086E0FE0111928A95E9F7C0912B06D091A9
:101D50002C0646E050E0BE0185E296E00E94AA35DE
:101D60009E0125523440892B41F1C90145E09695E9
:101D700087954A95E1F741E050E0BA0102C0660F4D
:101D8000771F8A95E2F7CB016091230470912404B8
:101D9000862B972BB9016B5F7F4FE5E076956795B2
:101DA000EA95E1F702C0440F551F6A95E2F7842BCC
:101DB000952B90932404809323042A5F3F4F4091F6
:101DC0002204642F70E0C9010E94FD34481B463094
:101DD00010F4240F311D211572E0370710F030E0A8
:101DE00020E02B5D3B4F30932C0620932B0677CFC2
:101DF000F6E08F9FB00111246353774F46E050E027
:101E0000CE010E94A135A1CFCF93DF93EC01FE015B
:101E10008491811103C0DF91CF9108950E94560EE5
:101E20002196F5CF46E050E06FEF72E081E193E05C
:101E30000E94AA35892B21F081E193E00E941109CB
:101E40009091120386E0E1E1F3E0DF01282F1D927B
:101E50002A95E9F790931203AFEFB2E001900D924B
:101E60008A95E1F708958091480290914702892B65
:101E70008093E00190914902992391F0892B8093FE
:101E8000E00120E082EE91E0FC013191CF013111BF
:101E90002F5FF1E0883E9F07B9F721110E94AF0B39
:101EA00048E050E06FE372E080EE91E00E94AA35D6
:101EB000892BA9F088E0E0EEF1E0AFE3B2E0019019
:101EC0000D928A95E1F7E091FF03F09100043097BD
:101ED00031F00280F381E02D80EE91E009950895C4
:101EE000882321F00E94B50B0E94330F08958823A8
:101EF00039F090914802982B909348020E94330F3A
:101F00000895B0E0A0E0E7E8FFE00C941B356C0119
:101F10007B0164E670E088E70E945B32EC0197FD8C
:101F200012C010E000E0F601E00FF11F849164E6BA
:101F300070E00E94C732EC01892B29F40F5F1F4F1C
:101F40000E151F0581F70E943D33CE01CDB7DEB7D8
:101F5000E8E00C9437358091FA039091FB039111DE
:101F600003C091E089270895882369F062E070E05A
:101F70008CEE95E00E94810F892B19F08091FA0375
:101F800008951092FA038091FA03EBCFCF93C0919A
:101F9000FA038091FB038823D1F00E94BB08605AAA
:101FA00075418F4F9F4F6093F6037093F7038093B3
:101FB000F8039093F903C11108C062E070E08AEE63
:101FC00095E00E94810F892B29F0C091FA038C2F94
:101FD000CF91089581E08093FA03F7CF0F931F9379
:101FE000CF93DF938B01EA0190911504943061F552
:101FF0008093E9008FEF9091E800815095FD06C035
:1020000095ED9A95F1F700008111F5CF8091E800E8
:1020100085FF1AC00E944507811111C08091E80018
:1020200085FD06C08091E8008E778093E800F2CFAE
:10203000F80181918F018093F100219779F78091C8
:10204000E8008E778093E800DF91CF911F910F9188
:10205000089543E050E0BC0184E00E94EE0F089533
:1020600046E050E0BC0184E00E94EE0F0895CF935B
:10207000DF93EC0148E050E0BC0181E00E94EE0FEC
:1020800088E0FE01ABE0B4E001900D928A95E1F7A3
:10209000DF91CF91089560916D018091F10380FFF0
:1020A00020C080916C0143E0849FC0011124815EB7
:1020B0009C4F539A2BB1277F3BB138605FB7F894A0
:1020C000FC01649FE00DF11D1124BF016817790721
:1020D000D1F45FBF8FE594E00197F1F700C00000F5
:1020E000089580916E0190916F0123E0829FF0012D
:1020F0001124E15EFC4F8917A0F611821082128232
:102100008F5F3396F8CFFC014191CF01E8E03BB9F6
:10211000000000C047FF2BB9440F000000C000C002
:1021200000C02BB900C0EA9591F7D0CFE1EFF3E002
:1021300080818E7F8083ECE1F3E082818160828305
:102140000E944B100895B0E0A0E0E9EAF0E10C94A1
:1021500019357C015B016A0180919C0201E010E06D
:102160008A3010F40AE010E0C1E0D0E0B501C70108
:10217000F6010995811104C021960C171D072CF456
:10218000CDB7DEB7EAE00C943535CC9F9001CD9FFA
:10219000300D300D112490E080E045E34A95F1F7D1
:1021A0000000019682179307C1F7E0CF80915A0291
:1021B000811119C088EC90E02091E30027FD10C048
:1021C000EFE3FCE93197F1F700C000000197A1F7B8
:1021D00082E080935A020E9426071092150403C0E1
:1021E00081E080935A0281E090915A02913011F07F
:1021F00080E0089508950E94D610811103C0809157
:10220000FC030895E091FF03F0910004309729F05A
:102210000190F081E02D0995089580E00895A0E3F4
:10222000B0E0E5E1F1E10C941D350E94D610882361
:1022300009F4E3C0609118037091190380911A03A7
:1022400090911B030E949F086A30710581059105DA
:1022500008F4D3C00E94BB0860931803709319035D
:1022600080931A0390931B0350911703509312030A
:102270004091110360911303709114038091150331
:10228000909116030E94E5122093110330931203DC
:102290004093130350931403609315037093160334
:1022A000309317030E94D610882309F4AAC086E051
:1022B000E1E1F3E0DE01179601900D928A95E1F7D6
:1022C00080911403819590911303919599878A8742
:1022D00086E0FE013796DE01959601900D928A9573
:1022E000E1F786E0FE01B596DE01119601900D92B0
:1022F0008A95E1F786E0FE013196A1E1B3E0019015
:102300000D928A95E1F786E0EBE0F3E0DE011796A7
:1023100001900D928A95E1F780910E03819590913D
:102320000D03919599878A8786E0FE013796DE0135
:102330009B9601900D928A95E1F786E0FE01BB968F
:10234000DE01119601900D928A95E1F786E0FE017B
:102350003196ABE0B3E001900D928A95E1F70E94CF
:10236000D610882309F497C086E0E1E1F3E0DE01AE
:10237000539601900D928A95E1F786E0EBE0F3E049
:10238000DE01179601900D928A95E1F7EF80F884AF
:1023900009851A852B853C854B895C896D897E89E9
:1023A0008F89988D0E942E0D2D873E874F87588BE1
:1023B000698B7A8B86E0FE013D96DE0111960190D5
:1023C0000D928A95E1F786E0FE013196A1E1B3E036
:1023D00001900D928A95E1F786E0E5E0F3E0DE01F9
:1023E000119601900D928A95E1F7809112039A81DE
:1023F000892B809312030E94120FE096E6E00C9462
:10240000393586E0E1E1F3E0DE01179601900D92A7
:102410008A95E1F78091140381959091130391952A
:1024200099878A8786E0FE013796DE0159960190EA
:102430000D928A95E1F786E0FE017996DE0111960C
:1024400001900D928A95E1F786E0FE013196A1E1B7
:10245000B3E001900D928A95E1F786E0EBE0F3E0BE
:10246000DE01179601900D928A95E1F780910E0397
:10247000819590910D03919599878A8786E0FE0159
:102480003796DE015F9601900D928A95E1F786E01E
:10249000FE017F9655CF86E0EBE0F3E0DE01539638
:1024A00001900D928A95E1F786E0E1E1F3E0DE012B
:1024B0001D9601900D928A95E1F7ED84FE840F85BB
:1024C000188929893A894B895C896D897E898F8928
:1024D000988D0E942E0D2F83388749875A876B87E6
:1024E0007C8786E0FE01379668CF1092B90088E9B4
:1024F0008093B8002FE78FEA92E02150804090400F
:10250000E1F700C00000089594EA9093BC009AE6B9
:102510009A95F1F700C09091B900987F983039F002
:102520009091B900987F903111F081E008958093E7
:10253000BB0084E88093BC0083EE92E00197F1F742
:1025400000C000008091B900887F883129F0809117
:10255000B900887F803449F780E00895EF92FF92B8
:102560000F931F93CF93DF93C82F8CE60E948412A2
:102570008BEBE82EF12CF701C083CCEBD0E004E824
:10258000088383EE92E00197F1F700C0000080918C
:10259000B90014E918839AE69A95F1F700C08DE620
:1025A0000E9484120883E3EEF2E03197F1F700C055
:1025B0000000F70180811883FAE6FA95F1F700C070
:1025C000CDB7DEB7E6E00C943935ACE0B0E0EBEE29
:1025D000F2E10C941E354F8358878B879C87162F0A
:1025E000072F83E00E94AE12F82E84E00E94AE1204
:1025F000482F33E08F2D632F0E945435282F842FCE
:10260000632F0E945435211104C0811102C0802F14
:10261000212F29878A8786E0FE013796DE011196F1
:1026200001900D928A95E1F729813A814B815C8175
:102630006D817E8180E090E02C96E5E00C943A3547
:10264000CF93DF93C6E5D2E060E0CE010E94D4359F
:102650002196C11584E0D807B9F7DF91CF9108958D
:102660001F93CF93DF93122F8430E0F46A30D0F4BD
:102670004730C0F4C42FD0E0CC0FDD1F9EE0699F2F
:10268000C00DD11D11249CE8899FC00DD11D1124BE
:10269000632FCE0186960E94D435612FCE01879696
:1026A0000E94D435DF91CF911F910895AF92BF92D0
:1026B000CF92DF92EF92FF921F93CF93DF938EEE34
:1026C000C82E85E0D82ED0E07601C0E014C0F50118
:1026D00025913491412F6C2F8D2F0E94301382E071
:1026E000A80EB11C1F5F173091F78EE0E80EF11CA9
:1026F000CF5FCA3019F0570110E0E9CFDF5F8CE8F7
:10270000C80ED11CD43001F7DF91CF911F91FF90FB
:10271000EF90DF90CF90BF90AF900895CF93C82FE8
:102720006FEF811163E282E290E00E94D4356FEF97
:10273000C11164E083E290E00E94D4356FEFC111D3
:1027400069E084E290E00E94D435CF91089580E062
:102750000E948E1360E085E290E00E94D4350E94D2
:1027600056130E94201381E00E948E1308950F9348
:102770001F93CF93DF93843030F56A3020F54730D4
:1027800010F5C42FD0E0CC0FDD1F2EE0629FC00DEE
:10279000D11D11243CE8839FC00DD11D1124CE0111
:1027A00086960E94C035082F10E0102F0027CE011A
:1027B00087960E94C0359801282BC901DF91CF91DF
:1027C0001F910F91089590E080E0F8CF462F7A3066
:1027D00040F4673030F4843020F4672F0E94B71340
:1027E000089590E080E00895CF92DF92FF920F93DA
:1027F0001F93CF93DF936C010091C80280918B02ED
:10280000082BC3E0D0E010E0FC2EC8010C2E02C063
:10281000959587950A94E2F780FD0CC02197A0F763
:10282000F12C8F2DDF91CF911F910F91FF90DF90B1
:10283000CF900895B6018C2F0E94E6130E94910A52
:10284000019761F3EECFCF93DF93EC010E94F41375
:10285000BE010E94E6130E94910ADF91CF91089574
:10286000FC0183819481892B29F0808191818923C6
:102870008F3F51F480E00895843FE1F717C0883E10
:10288000A8F0813FB9F712C0808191810E94231482
:1028900092959F70963099F358F4925F9F709230A2
:1028A00048F7803F19F040F7883E20F781E008950F
:1028B0009A5FF4CF82E290E00E94C035833289F4BF
:1028C00083E290E00E94C035843059F484E290E0C5
:1028D0000E94C03591E0893009F090E0892F817025
:1028E000089580E0FCCFCF92DF92EF92FF926B01D0
:1028F0007C010E943B09B701A60188E090E00E949C
:10290000E635FF90EF90DF90CF900895B0E0A0E023
:10291000ECE8F4E10C941735182FC62FD42F822E33
:102920000091F10300FF4CC08091F203811308C0B5
:102930008091F303861304C08091F403841729F077
:1029400080911E03826080931E03E02FE695F0E0E5
:10295000E353FE4F808180931C03802F8E7F823053
:10296000E9F4ED2FD73908F0E6E9F0E0E651FB4F46
:10297000C1112BC02491F22FE22F00FF0FC08091D4
:102980006E0190916F0133E0839FD0011124A15E0D
:10299000BC4F891708F48EC00E944B101093F203AD
:1029A000C093F303D093F403882051F06091F103B6
:1029B0007091F2038091F3039091F4030E947314D9
:1029C000CDB7DEB7ECE00C943335EC2EF12CE4916E
:1029D0009E2ECE2ED12C26E0129FC00111242FEF67
:1029E00030E0B9010E94FD34812F90E0880F991FDB
:1029F000F5E5F69FA001F79F500D1124841B950B60
:102A0000B82EBB0CB80EA9014E195F094C9DC00130
:102A10004D9D900D5C9D900D1124F92FCB9DA00133
:102A20001124452F5527D901A41BB50BAC9DA0013E
:102A3000AD9D500DBC9D500D1124D901AB19B109AC
:102A40005D01AE9CD001AF9CB00DBE9CB00D1124B9
:102A5000AB2FBB272A1B3B0B2C9DD0012D9DB00D0E
:102A60003C9DB00D11242B2F62307105A1F050F464
:102A70006115710509F481CF6130710581F0292F4D
:102A8000F52F7BCF6430710569F080F066307105F9
:102A900009F473CFF4CF2E2FE92FFB2F6ECF2E2FFB
:102AA000E52F6BCF292FFE2FEB2F67CFE92FF92DC5
:102AB000252F63CF1196EC9311972C931296FC93CC
:102AC00012978F5F139665CFE1EFF3E0438121E129
:102AD000421B08F440E021E0628181810E9486145B
:102AE0000895E1EFF3E0438121E1420F08F44FEF55
:102AF00021E0628181810E9486140895E1EFF3E074
:102B0000628121E1621B08F460E021E04381818160
:102B10000E9486140895E1EFF3E0628121E1620FE3
:102B200008F46FEF21E0438181810E9486140895AB
:102B3000E1EFF3E0818121E04381628188500E94CE
:102B400086140895E1EFF3E0818121E04381628101
:102B5000885F0E94861408958091F503882319F0F8
:102B600081508093F5036091F1037091F20380919D
:102B7000F3039091F4030E94731408958091F50378
:102B8000833018F48F5F8093F5036091F1037091A7
:102B9000F2038091F3039091F4030E94731408955B
:102BA0008091F10380FF1EC0817082608093F103E9
:102BB00080911E03816080931E03662351F0609113
:102BC000F1037091F2038091F3039091F4030E945A
:102BD000731420E04091F4036091F3038091F203B9
:102BE0000E9486140895E1EFF3E080818160808384
:102BF00060E086950E94D01508958091F103869536
:102C0000815009F481E061E00E94D015089561E0EF
:102C100081E00E94D0150895E1EFF3E083E0808326
:102C200011828FEF828386E983831482ACE1B3E063
:102C300012968C911297836012968C9360817181A9
:102C4000828193810E94731408951092C30210929E
:102C5000C4021092C5021092C60283E190E00E9465
:102C6000C8356093C3027093C4028093C5029093E9
:102C7000C60280E0663018F01092C30281E0763020
:102C800078F01092C4024091C3025091C402609146
:102C9000C5027091C60283E190E00E94E63502C051
:102CA0008111F1CF089567EE7EEF90E080E00E9401
:102CB000F23560E082E090E00E94D43560E083E08D
:102CC00090E00E94D43510928B0260E074E184E0C1
:102CD00090E00E94F23560E086E090E00E94D435FA
:102CE0006FEF87E090E00E94D43540E050E0BA01F9
:102CF00088E090E00E94E63560E08DE090E00E9480
:102D0000D43540E050E0BA0188E190E00E94E63519
:102D100060E087E190E00E94D43540E050E0BA01E5
:102D20008CE190E00E94E63570E060E080E290E0A7
:102D30000E94F23540E050E0BA0188E190E00E9444
:102D4000E63580E00E948E130E94A71340E050E019
:102D5000BA018FE090E00E94E6350E9425160895A2
:102D60009091AE0292FB222720F9281779F080FB80
:102D700092F99093AE026091AD027091AE0284E040
:102D800090E00E94F23582E00E94AE0C089590E03F
:102D900080E00E94CE35873E9E4F19F40E945A145F
:102DA000089580E00895B0E0A0E0E9EDF6E10C942C
:102DB0001C357901C82F880FDD0B41155105A9F08D
:102DC000FE0193E0EE0FFF1F9A95E1F7E050FF4FF1
:102DD00081819281855A9D4F208130E042175307AF
:102DE00008F49A01A9010E94B735CE010E948734E8
:102DF000D82E8823D1F001151105B9F083E0CC0F4E
:102E0000DD1F8A95E1F7FE01E050FF4F438150E05E
:102E10000417150708F4A801C050DF4F6C817D81AD
:102E2000655A7D4FC7010E94B7358D2DCDB7DEB7EE
:102E3000E7E00C943835A1E0B0E0E1E2F7E10C9472
:102E40001F3581E0898380919C028A3090F0109236
:102E5000C10210E000E030E020E041E050E0BE01BF
:102E60006F5F7F4F8AE00E94D31689838093C102EF
:102E700004C08091C102882361F389812196E4E036
:102E80000C943B35A4E0B0E0E8E4F7E10C941F3586
:102E900060918302709184028091850290918602F4
:102EA0000E949F0811E0643671058105910538F193
:102EB0000E94D610882341F10E94BB086E5F7F4FAD
:102EC0008F4F9F4F69837A838B839C8310E000E050
:102ED00030E020E044E050E0BE016F5F7F4F82E0D1
:102EE0000E94D316182F882351F00E94BB086093CC
:102EF0008302709384028093850290938602812FCF
:102F00002496E4E00C943B350E94BB0800919D029E
:102F100010919E0220919F023091A002600F711FBC
:102F2000821F931FCBCFB0E0A0E0E9E9F7E10C945A
:102F30001935C82F7B01D42F69015801FB0160812D
:102F40007181828193810E949F0864367105810599
:102F5000910510F4DD23C9F010E000E030E020E03E
:102F6000A501B6018C2F0E94D316C82F882339F0F3
:102F70000E94BB08F70160837183828393838C2F47
:102F8000CDB7DEB7EAE00C943535C1E0F8CFA8E064
:102F9000B0E0EDECF7E10C941F3585E0E1EFF3E0F4
:102FA000DE01119601900D928A95E1F780911C0344
:102FB00090911D03A0911E038E839F83A88741E0FB
:102FC0008885811101C040E008E010E09E012F5F7C
:102FD0003F4F64E972E086E00E94931781111092DE
:102FE0001E032896E4E00C943B35A1E0B0E0EBEF43
:102FF000F7E10C941F350E94FB10898341E090910A
:103000006702981301C040E001E010E09E012F5FCD
:103010003F4F60E972E085E00E9493172196E4E05B
:103020000C943B350F931F9341E090916502809182
:10303000C802981301C040E001E010E028EC32E043
:103040006CE872E083E00E949317882389F041E0E6
:103050009091660280918B02981301C040E001E0DC
:1030600010E02BE832E067E872E084E00E949317FA
:103070001F910F910895A1E0B0E0E1E4F8E10C9414
:103080001635762E4A015901680101E010E09E01D3
:103090002F5F3F4F50E040E070E060E00E94D316A9
:1030A000182F882399F1F4016081718182819381C5
:1030B0000E949F08643671058105910538F4B701B7
:1030C000C6010E941F099981891701F187019501A5
:1030D00050E040E070E060E0872D0E94D316B82EEB
:1030E000B701C6010E941F0911E09981981310E0F1
:1030F0001B2139F00E94BB08F40160837183828335
:103100009383812F2196EDE00C943235A701B6010F
:10311000C5010E94B735F5CFACE0B0E0E2E9F8E1D7
:103120000C941D3586E0E82EF12C01E712E09E019B
:10313000295F3F4F48E952E068E087E00E943B1872
:10314000882391F096E0FE013796DE0111960190FA
:103150000D929A95E1F796E0FE013196ABE0B3E06F
:1031600001900D929A95E1F72C96E6E00C94393592
:10317000A5E0B0E0EEEBF8E10C941B356B0185E0C7
:10318000E82EF12C0CE512E09E012F5F3F4F4FE738
:1031900052E061E080E00E943B18882349F095E00E
:1031A000FE013196AAE7B2E001900D929A95E1F7FF
:1031B00095E0EAE7F2E0D60101900D929A95E1F7E9
:1031C0002596E8E00C9437351F920F920FB60F92B8
:1031D00011242F933F934F935F936F937F938F931C
:1031E0009F93AF93BF93EF93FF938091E10082FF92
:1031F00009C08091E20082FF05C08091E1008B7FD1
:103200008093E1008091DA0080FF24C08091D80093
:1032100080FF20C08091DA008E7F8093DA00809159
:10322000D90080FF9DC080E189BD82E189BD09B4DC
:1032300000FEFDCF81E08093150480910804811188
:1032400009C00E9426070E94C7078091E20084609F
:103250008093E2008091E10080FF17C08091E2003E
:1032600080FF13C08091E2008E7F8093E200809106
:10327000E20080618093E2008091D80080628093B8
:10328000D80019BC85E0809315048091E10084FF8B
:103290002BC08091E20084FF27C080E189BD82E1DC
:1032A00089BD89B5982F917080FFFBCF8091D800A0
:1032B0008F7D8093D8008091E1008F7E8093E10024
:1032C0008091E2008F7E8093E2008091E200816035
:1032D0008093E20080911604882309F447C084E0BB
:1032E00080931504809115048091E10083FF27C02D
:1032F0008091E20083FF23C08091E100877F80936B
:10330000E10082E080931504109216048091E100A0
:103310008E7F8093E1008091E2008E7F8093E200B7
:103320008091E20080618093E20042E060E080E012
:103330000E9495078091F00088608093F000FF91D3
:10334000EF91BF91AF919F918F917F916F915F911D
:103350004F913F912F910F900FBE0F901F90189596
:1033600019BC109215041092080474CF8091E300E8
:1033700087FD93E090931504B5CF78941F921FB604
:103380001F9211248F939F93AF93BF938091040456
:1033900090910504A0910604B09107040196A11D27
:1033A000B11D8093040490930504A0930604B09388
:1033B0000704BF91AF919F918F911F901FBE1F90E7
:1033C00018959C014FB7F8948091040490910504DE
:1033D000A0910604B09107044FBF821B930B089580
:1033E0002FB7F8948091040490910504A0910604ED
:1033F000B09107042FBF08950E94F0199C0190918D
:10340000070380910803982B21F03093FE0220934C
:10341000FD029091090380910A03982B21F03093CB
:10342000FC022093FB0285E093E00E9411090895BD
:10343000CF9310924802C6E0E2EEF1E0DF018C2F5C
:103440001D928A95E9F790E080E00E94EC0890E0F8
:1034500080E00E94C708109247020E94330FE5E007
:10346000F3E0DF011D92CA95E9F71092F80210927D
:10347000F9021092FA020E94FC19CF910895AAE273
:10348000B0E0E5E4FAE10C94203587E194E0209186
:10349000F100DC012D93CD01B4E08F319B07B9F72A
:1034A00080911804833009F472C0B8F4813009F4B3
:1034B00049C0823009F4B3C08091E80083FF8BC219
:1034C00080911704909118049A3008F084C2E92F73
:1034D000F0E0EA55F94C0C9476358A3009F48EC048
:1034E0008B3009F471C0893039F78091170481322B
:1034F00019F780911B0490911C04009711F002971A
:10350000D9F68091E800877F8093E8008091E800F9
:1035100082FF38C09091F3008091F200029731F45D
:103520008091F100813011F0863021F48091F1001A
:1035300080930A048091E8008B778093E8000E94D2
:103540007607BACF80911704813A09F0B5CF809100
:10355000E800877F8093E80080911B0490911C0411
:10356000892B61F468E08BE094E070E00E9422080F
:103570008091E8008B778093E8009ECF60E090E038
:1035800080E0F3CF809115048111C0CF95CF809159
:103590001704813A09F090CF80911B0490911C048C
:1035A000892B09F089CF8091E800877F8093E8001C
:1035B0008091E80080FFFCCF809171018093F10041
:1035C0008091E8008E77B9CF80911704813209F09D
:1035D00073CF80911B0490911C04892B09F06CCF50
:1035E0008091E800877F8093E8000E9476078091B1
:1035F0001904809371010E94181A5ECF80911704FC
:10360000813209F059CF8091E800877F8093E800EC
:103610000E94760780911A04809309044DCF80910F
:103620001704813A09F048CF8091E800877F8093A2
:10363000E8008091E80080FFFCCF80910904BECFB4
:10364000803899F0823809F0C6C180911B048F70D0
:10365000873008F0C0C18093E9008091EB0085FBC2
:10366000882780F91092E90006C080911304909198
:103670001404911182609091E800977F9093E80084
:103680008093F1001092F1008091E8008E779FC145
:10369000882309F48DC1823009F09DC180911904FD
:1036A000811190C180911B048F702FEF280F26305D
:1036B00008F091C18093E9002091EB0020FF82C1C6
:1036C000933031F48091EB0080628093EB007AC1FB
:1036D0009091EB0090619093EB0021E030E001C00D
:1036E000220F8A95EAF72093EA001092EA0080916F
:1036F000EB008860EACF81116EC1109119041F7729
:103700008091E3008078812B8093E3008091E80032
:10371000877F8093E8000E9476078091E80080FF11
:10372000FCCF8091E30080688093E30082E0111178
:1037300083E0809315044FC18058823008F04BC15C
:103740002091190430911A042C3DE3E03E07A1F5C5
:1037500083E08A838AE289834FB7F894DE01139667
:1037600020E03EE051E2E32FF0E050935700E49177
:1037700020FF03C0E295EF703F5FEF708E2F90E067
:10378000EA30C0F0C7968D939D932F5F243159F78F
:103790004FBF8091E800877F8093E8006AE270E085
:1037A000CE0101960E9422088091E8008B778093D9
:1037B000E80011C1C096E7CF80911B0490911C04D2
:1037C000432F55274330510509F44AC078F541305D
:1037D000510509F47AC08BE590E0EEE1F8E0423063
:1037E000510509F0F8C02091E800277F2093E800F8
:1037F00020911D0430911E048217930708F49C0148
:1038000040E02115310509F065C0411163C0809188
:10381000E80082FDC9CF80911504882329F2853004
:1038200019F28091E80083FFF2CFBECF41325105FB
:1038300009F43CC04232510509F0CDC083309105F6
:1038400008F0C9C0FC01EE0FFF1FEE52FE4F0190C1
:10385000F081E02D81539E4FDC018C9190E01AC0E5
:10386000332721303105D1F02115310561F02230A7
:10387000310509F0B0C0EBE8F8E0E4918E2F90E05C
:10388000EBE8F8E007C0E9ECF8E0E4918E2F90E077
:10389000E9ECF8E0009709F49EC0A5CFEFEAF8E064
:1038A000E4918E2F90E0EFEAF8E0F4CF83309105B9
:1038B00008F091C0880F991FFC01E852FE4F01905B
:1038C000F081E02D89E090E08ECF82E190E0E9E7A1
:1038D000F8E089CF80911504882309F465CF8530FD
:1038E00009F462CF8091E80083FD5ECF8091E8000B
:1038F00082FD8DCF8091E80080FF83CF9091F3000F
:103900008091F2002115310519F08830910550F0B1
:1039100041E0089709F040E08091E8008E778093BD
:10392000E8006FCF44914093F10031962150310966
:103930000196E8CF803809F04EC08091E800877F7B
:103940008093E800809116048093F1009DCE811150
:1039500042C0109119041230F0F58091E800877F81
:103960008093E800109316040E947607112311F04B
:1039700084E005C08091E30087FDFACF81E0809369
:10398000150442E061EC81E00E94950742E261EC9F
:1039900084E00E94950742E261EC82E00E94950774
:1039A00042E260EC83E00E9495078091150413C009
:1039B00080911904813079F481E0933009F080E03E
:1039C000809314041092E9008091E800877F80932F
:1039D000E8000E9476078091E80083FF0AC080918A
:1039E000E800877F8093E8008091EB0080628093FD
:1039F000EB00AA96E3E00C943C351F920F920FB6B1
:103A00000F9211242F933F934F935F936F937F9364
:103A10008F939F93AF93BF93CF93DF93EF93FF93D6
:103A2000D091E900DF708091EC00C82FC17080FD5B
:103A3000C0E81092E9008091F000877F8093F00049
:103A400078940E943F1A1092E9008091F0008860FB
:103A50008093F000CD2BCF70C093E900FF91EF91E0
:103A6000DF91CF91BF91AF919F918F917F916F9196
:103A70005F914F913F912F910F900FBE0F901F902C
:103A80001895662309F472C08D3C41F40E947309B5
:103A90008195809308030E94FC1908958E3C19F4C7
:103AA0000E947309F6CF8F3C31F40E94730981950F
:103AB00080930703F0CF803D19F40E947309F8CF7B
:103AC000893D29F40E94510980930903E4CF8A3D7E
:103AD00021F40E9451098195F7CF8B3D31F40E946A
:103AE0005109819580930A03D6CF8C3D19F40E9429
:103AF0005109F8CF9FE2980F983020F5282F215DCB
:103B0000330BA90121E030E001C0220F4A95EAF70A
:103B100090910603922B90930603815D21E030E0A3
:103B2000A90102C0440F551F8A95E2F7CA012091EE
:103B30001203662309F493C0822B809312030E9420
:103B4000120F08958D3D31F48091FA0281608093C7
:103B5000FA02A1CF8E3D21F48091FA028260F7CF64
:103B60008F3D19F58091FA028460F1CF909107039F
:103B70008D3C59F42091080327FF0DC010920803D3
:103B800091110BC01092F80208C08E3CB1F4209144
:103B9000080312169CF39923B1F090910903209128
:103BA0000A03922B11F41092F902482F415D550B34
:103BB0004830510508F4B1CF6ECF8F3C39F497FFF0
:103BC000EACF1092070390910803DACF803D19F4F1
:103BD0001916BCF3E0CF20910903893D29F4121690
:103BE000D4F610920903D7CF8A3D19F427FFD3CF1B
:103BF000F8CF20910A038B3D29F427FFCCCF1092F8
:103C00000A03C9CF8C3D19F41216CCF3C4CF2FE2AE
:103C1000280F283088F4282F215D330BA90121E0DB
:103C200030E001C0220F4A95EAF720953091060353
:103C3000232320930603AFCF2091FA022E7F8D3DE0
:103C400059F02091FA022D7F8E3D31F08F3D09F021
:103C5000A2CF2091FA022B7F2093FA029CCF80956D
:103C600082236BCF882309F456C0823879F40E94EE
:103C7000FB1081FF50C089E30E94C90B0E94330FE3
:103C800089E30E94BC0B0E94330F0895833859F4D6
:103C90000E94FB1080FF3FC083E50E94C90B0E9479
:103CA000330F83E5EECF843859F40E94FB1082FF76
:103CB00032C087E40E94C90B0E94330F87E4E1CF32
:103CC0009CEF980F913AE8F290E2980F983050F4F8
:103CD000877091E001C0990F8A95EAF7892F0E94B9
:103CE000B50BD1CF9BE5980F933028F490E080E09E
:103CF0000E94EC08089598E5980F9B3128F490E015
:103D000080E00E94C708089593E3980F933118F458
:103D100060E00E94411D0895CF93C82F8823C9F009
:103D20008238C9F40E94FB1081FD13C089E30E9410
:103D3000C90B0E94330F2FEF87EE93E02150804094
:103D40009040E1F700C0000089E30E94BC0B0E9494
:103D5000330FCF9108958338A1F40E94FB1080FDAA
:103D6000F8CF83E50E94C90B0E94330F2FEF81EE3D
:103D700094E0215080409040E1F700C0000083E5CE
:103D8000E4CF8438A1F40E94FB1082FDE2CF87E4E7
:103D90000E94C90B0E94330F2FEF81EE94E0215057
:103DA00080409040E1F700C0000087E4CECF8CEF68
:103DB0008C0F813A68F4E2EEF1E08191C817E9F1E5
:103DC00021E0E83EF207C9F78C2F0E94C90BBFCF54
:103DD00080E28C0F883068F4C77021E030E001C0C9
:103DE000220FCA95EAF780914802822B80934802FD
:103DF000AECFEBE5EC0FE33040F4F0E0EE58FE4FD1
:103E0000808190E00E94EC08A4CFE8E5EC0FEB3154
:103E100050F4F0E0EE0FFF1FEB58FE4F80819181D0
:103E20000E94C70896CF83E38C0F833108F091CFAF
:103E300061E08C2F0E94411D8CCF8C2F0E94BC0B07
:103E40000E94330FC1CF1F93CF93DF93182FD0E081
:103E5000C0E0893311F4C0E5D0E0812F0E948C1EB0
:103E6000209739F4812F0E94321EDF91CF911F914C
:103E700008958FE99FE00197F1F700C000002197B6
:103E8000EFCF0F931F93CF93DF93C62FD42F022F23
:103E9000FC0182818823A9F0609321040E94F0191B
:103EA0009093200480931F04C77081E001C0880FA5
:103EB000CA95EAF70E94770FDF91CF911F910F917A
:103EC000089580912104681332C080911F0490915D
:103ED00020040E94E119883C910548F510E21D0F6D
:103EE000CD17B9F080E28C0F883040F4C77081E0C4
:103EF00001C0880FCA95EAF70E94700F183048F485
:103F000081E09D2F977001C0880F9A95EAF70E9473
:103F1000770F802F0E94231F183070F6D77081E032
:103F200001C0880FDA95EAF70E94700FC5CFC770FD
:103F300081E001C0880FCA95EAF7F6CFA8E0B0E0AB
:103F4000E4EAFFE10C9413358C01DC0113968D91AA
:103F50009C911497892B39F08C9111969C9189230F
:103F60008F3F09F0FCC52896E0E10C942F350E94A4
:103F7000F413F82E682F89819A810E94400C698180
:103F80007A818F2D0E94E6137C01F80182818823BB
:103F900009F43BC1970137572038310508F041C675
:103FA000FFE0FE1508F489C08FEF93E00E94C03552
:103FB000811183C0E6E5AE2EE2E0BE2EE11047C0DF
:103FC000FE01339686E0DF011D928A95E9F77AE0DB
:103FD000472E7501BFEFEB1AFB0AC5010E94C035E1
:103FE00089831A82882309F468C0813009F078C077
:103FF0006501E2E0CE0ED11CC7010E94C0358A8364
:10400000882309F45AC09FEF980F933070F5F3E0BE
:10401000AF0EB11CC6010E94C0358B83882309F402
:104020004CC01C82DE0111967D01F7012081222304
:1040300081F2213009F094C091818281913009F0A0
:1040400051C0F2E0EF0EF11C0E94231F52C0A114D8
:1040500024E0B20691F1C5010E94C035811101C072
:10406000EA943FEFA31AB30AA9CF56018430D1F6E0
:1040700062E0E62EF12C56012FEFA21AB20AC60119
:104080000E94C035E1E0F0E0EC0FFD1FEE0DFF1DDA
:104090008083882391F08C3741F4E2E0F0E0EC0F6C
:1040A000FD1FEE0DFF1D1082BDCF3FEFE31AF30A97
:1040B000650187E0E816F104F1F680913E02877011
:1040C00009F451CFD80112968C91882309F44BCF73
:1040D0008091AE0282FF47CF82E00E94AE0C43CFB8
:1040E0005701A0CF923049F422E0E20EF11C0E9469
:1040F0008C1EEFEFEE1AFE0A98CF933031F432E0C7
:10410000E30EF11C0E94321EF4CF943021F08FEFA9
:10411000E81AF80AEECF92E0E90EF11C30E020E058
:10412000B7016F5F7F4FD70111964C918053990B68
:104130008A30910550F021503109D8F2EFE9FFE0C3
:104140003197F1F700C00000F6CF429EF001439E88
:10415000F00D11249C012E0F3F1F842F7B01E0CF17
:10416000E22FF0E0E754FE4F5490822F869586951B
:10417000869590E0FC01E755FE4F64902770712C06
:10418000022E02C0759467940A94E2F731E063222C
:104190007724FC01E756FE4F8490912C022E02C03A
:1041A000959487940A94E2F7A1E08A229924FC016D
:1041B000E757FE4FC490D12C02C0D594C7942A95DE
:1041C000E2F7B1E0CB22DD246114710419F081EE35
:1041D0000E948C1E8114910419F086EE0E948C1EA0
:1041E000852D0E94231F8114910419F086EE0E94F0
:1041F000321E6114710419F081EE0E94321EC11446
:10420000D10409F476CF8CE21FCFF701FE57E930D5
:10421000F10508F0C7C0E055F94C0C94763561E023
:1042200083E090E00E94D43581E00E94D60C45CF17
:10423000882321F081E00E94CA0C03C081E00E9423
:10424000A10C43E062E081E00E94810C36CF88231C
:1042500011F082E0F0CF82E0F2CF882321F083E0FA
:104260000E94CA0C2ACF83E00E94A10C26CF88238B
:1042700059F00E940C168091F10381608093F10344
:1042800061E086950E94D015D80112968C91882302
:1042900009F4B9C410922104C7019057839708F01C
:1042A0009DC484E090E00E94CE359093AE0280934E
:1042B000AD02F701E150F047E232F10508F09BC092
:1042C000E754F94C0C947635882309F4F6CE8091A6
:1042D000C30290E0019666E070E00E94FD34809396
:1042E000C3024091C3025091C4026091C502709113
:1042F000C6028FE090E00E94E635E091C302F0E054
:10430000EE0FFF1FE754FE4F808180935C01809386
:104310005B014091C3025091C4026091C50270914B
:10432000C60283E190E00E94E635C7CE882309F4F7
:10433000C4CE8091C40290E0019666E070E00E94D5
:10434000FD348093C4024091C3025091C402609135
:10435000C5027091C6028FE090E00E94E635E091C0
:10436000C402F0E0EE0FFF1FE754FE4F8081809300
:104370005A0180935901CDCF882331F08091C70233
:1043800091E089278093C7021092E9011092E80119
:1043900094CE8823C9F38091C20291E0892780934B
:1043A000C202F2CFF701E851FC47E730F10508F00F
:1043B0006BCFE552F94C0C94763526E241EE61EE76
:1043C000C8010E94411F79CE27E245EE65EEF8CF85
:1043D00026E241EE60EEF4CF27E245EE64EEF0CF48
:1043E00026E241EE62EEECCF27E245EE66EEE8CF44
:1043F00028E241E0EBCF8091AD0281608093AD0275
:1044000095C08091AE0288608093AE028FC080918B
:10441000AD028260F3CF8091AD028460EFCF8091D6
:10442000AD028860EBCF8091AE028160EDCF8091CC
:10443000AE028260E9CF8091AD028061DFCF8091D2
:10444000AD028062DBCF8091AD028064D7CF0E9445
:10445000181A8091AD028068D1CF8091AD028C6036
:10446000CDCF8091AE028360CFCF8091AD028E7FA1
:10447000C5CF8091AE02877FC7CF8091AD028D7F7F
:10448000BDCF8091AD028B7FB9CF8091AD02877F88
:10449000B5CF8091AE028E7FB7CF8091AE028D7F77
:1044A000B3CF8091AD028F7EA9CF8091AD028F7D79
:1044B000A5CF8091AD028F7BA1CF0E94181A809169
:1044C000AD028F779BCF8091AD02837F97CF809194
:1044D000AE028C7F99CF8091AD0282FB992790F933
:1044E00021E0922790FB82F990FB83F987CF80919E
:1044F000AE02982F909591708E7F892B90FB81F959
:1045000083CF9091AD02892F8F7B96FF806476CF09
:104510000E94181A9091AD02892F97FB87F9805855
:104520006DCF61E08EE090E00E94D4356091AD02E5
:104530007091AE0284E090E00E94F2350E94181A59
:10454000BCCD60E0EFCF9091AD02892F8F7E94FFBC
:10455000806154CF9091AD02892F8E7F90FF816052
:104560004DCF9091AE02892F877F93FF88604CCF0B
:1045700085E344C385E352C3809148028272F70108
:10458000E052F847E531F10508F05CC0EE51F94C16
:104590000C9476358091F10380FF15C08E7F809357
:1045A000F1036091F1037091F2038091F303909114
:1045B000F4030E94731480911E03816080931E0394
:1045C0000E944B107ACD81608093F10361E0869563
:1045D0000E94D01572CD4DEF55E167E076E10E9463
:1045E00035096BCD47E056E16DEF75E1F8CF48E94D
:1045F00055E162EA75E1F3CF42EA55E168E975E118
:10460000EECF4EE755E16BE875E1E9CF4BE855E1B8
:104610006EE775E1E4CF44E655E161E775E1DFCF90
:1046200041E755E164E675E1DACF4CEA55E16EEB1E
:1046300075E1D5CF4EEB55E16CEA75E1D0CF61E085
:1046400081E0C6CFB7E7EB16BCE7FB0609F4F6CD71
:10465000E8E7EE16ECE7FE0609F4FDCDF8018281ED
:10466000E080F180882309F485C0C7010E94F4131B
:10467000D82E682FC7010E94400CB7018D2D0E94D3
:10468000E6130E94910A7C01882ED8011296DC90D4
:1046900012971596BC90B2943FE0B32280913E02EF
:1046A0008770F1F0AD2CDD20E1F08F2D807F80341C
:1046B00051F080E28E0D883098F0B11004C08F2D3B
:1046C000807E803269F08091AE0282FF09C082E074
:1046D0000E94AE0C80913E028770AA24A39481119F
:1046E000A12C9F2C92942FE09222BBE0B91508F4E4
:1046F000B0C0E92DF0E0E950F94C0C9476359BE51B
:10470000E9169CE7F906A1F1ACE5EA16ACE7FA0672
:1047100029F1BAE5EB16BCE7FB0609F09FCF81E073
:1047200024C00E94181AEFEFF4E32CE0E150F040AF
:104730002040E1F700C000000E948E086FEF7FEF7D
:1047400090E080E00E94F2350E94181AAFEFB4E3C7
:10475000ECE0A150B040E040E1F73CC28091AE02F5
:1047600082FB882780F991E089270E94B01676CFD6
:1047700080E0FBCFC7010E940C0CD82E7ECFEF2D1E
:10478000EF70CE2E8F2D807F19F0C29490EFC9224A
:10479000DD20B9F0CC2069F080E28E0D883010F079
:1047A000811009C080914802C82AC09248020E9424
:1047B000330F8E2D4CC080914702C82AC092470209
:1047C000F6CF8E2D0E94321ECC2009F442C080E22A
:1047D0008E0D883010F0811004C08C2D0E94B50B16
:1047E00006C0C09480914702C822C09247020E942E
:1047F000330F2FC0FF2DFF70CF2E8F2D807F803283
:1048000019F0C29480EFC822882089F021E0821636
:1048100009F46CC0DD2009F476C0BB2009F46CC03B
:10482000F801858180FFC5CF8F70858365C0209199
:10483000AE0222FD34C0DD2061F1CC2039F0809140
:104840004802C82AC09248020E94330F80E00E94AA
:104850008C1EA92DA850BB0B149710F40E94FB10BE
:10486000AA2009F480CB80913E0280FD7CCBF80128
:1048700012828595859585950E94CA0CC8010E9473
:104880009E1F80913E028595859585950E94A10C7D
:104890006ACB80E00E94321ECC20D9F29ECFDD2070
:1048A00099F090914902892F8C29B11003C00E9480
:1048B000770FCFCF31E0B312FACF22FFCACF9817CC
:1048C00041F280934902C5CFB11006C00E94AF0BE0
:1048D0008C2D0E94700FBDCF81E0B81609F4B9CFBE
:1048E0008C2D0E94700F0E94AF0BB3CFDD2031F0F2
:1048F00095E09B1508F4ADCF8C2DD9CFA4E0AB1576
:1049000008F4A7CFE5CFBB2019F3F9E38F1209C054
:104910002FEF37EE83E0215030408040E1F700C0B8
:1049200000008E2D0E94321E94CF8F2D8695869585
:10493000837061F0813009F08CCFC7019370D11082
:1049400002C080E090E00E94C70883CFC701937047
:10495000D11002C080E090E00E94EC087ACF6D2D6B
:104960008E2D0E94411D75CF8F2D837091F5D11032
:1049700070CF4E2D429546954770440F440F8E2DB3
:104980008F70042E01C0880F0A94EAF72E2D207133
:10499000E4FE07C02FE030E001C0220F4A95EAF79D
:1049A00020953F2D369536953370323069F050F4AE
:1049B00040918B02313029F0822B84230E94D60C47
:1049C00048CF842B822BFACF282B80918B02822711
:1049D000F5CF8695DD2011F08F2D8170882309F4A5
:1049E00038CF4E2D429546954770440F440F8E2D7B
:1049F0008F70042E01C0880F0A94EAF72E2D2071C3
:104A0000E4FE07C02FE030E001C0220F4A95EAF72C
:104A100020953F2D369536953370323069F050F43D
:104A20004091C802313029F0822B84230E94770CF8
:104A300010CF842B822BFACF282B8091C80282279B
:104A4000F5CF9F2D9F70F92EDD2029F0892F0E9430
:104A5000CA0C8E2D2CCF8E2D0E94700F8F2D0E9490
:104A6000A10CF7CE8E2DA2EF8A16B1F1A81570F029
:104A7000B0EF8B16D1F0E1EF8E1691F0DD2009F446
:104A80005EC0B11096CE8F2D8F712AC0F3EF8F16B6
:104A900051F124EF8212F2CF8091AE0282FD2FC03D
:104AA0008F2D8F71DD20D9F21BC0DD2081F034E025
:104AB0003B1508F4CECE2F2D2F7181E090E001C080
:104AC000880F2A95EAF79091C8028927AFCF85E031
:104AD0008B1508F4BECEEFCF8F2D8F71D110BFCFC5
:104AE0000E94CA0CB6CE80E0DD2009F49FCF9F2D36
:104AF0009F7181E001C0880F9A95EAF797CFDD207A
:104B000099F09F2D9F71F92E892F0E94CA0C8091D8
:104B1000AE0282FF07C0A8E0FA9EC00111248360A4
:104B200080933E028F2DDCCF81E00E94AE0CB1E07D
:104B3000BB1508F08ECE82E00E94AE0C8ACEBB2060
:104B400059F0893309F0EDCEEFEFF7EE23E0E150B5
:104B5000F0402040E1F7E3CE8F2D8F7180CF85E0CC
:104B6000F801DE01119601900D928A95E1F7D801C6
:104B700012962C9189819A812111F9C90E940C0CFD
:104B8000F82EFDC9B7E7EB16BCE7FB0609F452CBDC
:104B9000E8E7EE16ECE7FE0609F45BCBF3E0EF1670
:104BA000FCE7FF0609F4CACD08F0A9CDE1143CE703
:104BB000F30609F4B6CD81E0E8168CE7F80609F0B3
:104BC0004DCD0E94181A3FEF84E39CE031508040A5
:104BD0009040E1F700C000000E948308F6E1EF1664
:104BE000FCE7FF0679F6809148028A7A91E009F4A1
:104BF00090E09093EA018111BBCC89E20E94C90B3D
:104C00000E94330F5ACA26E1E2162CE7F20609F099
:104C1000B3CC8091EA018111ADCC89E20E94BC0B3A
:104C2000EFCFF701FE57E930F10508F0BBCBED5FA0
:104C3000F84C0C9476351F93CF93DF9380910B0241
:104C4000807F09F04BC080910802882309F446C098
:104C500080913D02C0910C024091060250910702E2
:104C60006091090270910A02D42FD52316E0C8176B
:104C7000A9F190E061157105A9F1DF3F99F1189F45
:104C8000F001199FF00D1124DF01A35FBD4F1196B4
:104C90002C911197251326C02C91241323C0129612
:104CA0002C91129721111EC013962D913C91261B19
:104CB000370B283C3105B0F480910B028F70806176
:104CC00080930B02EE5EFD4F80818F708061808348
:104CD00086E092E00E949E1F0E94020CDF91CF911D
:104CE0001F91089501968770C2CFA1E1B0E0EBE774
:104CF000F6E20C9417358C0185E0F801DE011D9673
:104D000001900D928A95E1F7F801E28086E0882E05
:104D100082E0982E4091090250910A0241155105F6
:104D200009F430C19091060220910702892F822355
:104D30008F3F09F427C1D080C180A380B480F09058
:104D40000802B501641B750BFF2009F4E7C08091D0
:104D50000B02382F307F683C710508F0ABC0311171
:104D600078C0FE2C2C1114C09D1112C0E11010C08F
:104D70008F70806180930B02C4010E949E1F8091FE
:104D80000B02F80185838F2D6196ECE00C9433358E
:104D9000A114B104C9F18D2D8C218F3FA9F181E0BF
:104DA0008E2580FF05C04E2D6C2D8D2D0E94E20BAF
:104DB000A114B10459F18D2D8C218F3F39F181E07F
:104DC0008E25F82FF170BF2E80FF39C04E2D6C2D2F
:104DD0008D2D0E94E20BA82E811131C0DD86CE867A
:104DE0008D859E850E942314292F22952F702430B3
:104DF00078F49F702230A8F09923B9F0F8019581DA
:104E0000907F99F4FA2CBFCF80E0CBCF80E0D9CF50
:104E10002A5F2F70223068F0C8010E949E1FAB2CC1
:104E2000F1CF992311F0882369F3805E883050F325
:104E3000F3CF803F38F3815F833070F7E3CFEE200C
:104E400009F4A1CF80910B02816080930B02F12CB9
:104E50009ACF2C1105C09D1103C0EE2009F477C034
:104E6000C8010E943014882309F1EE20F9F08091E6
:104E70000B02803270F020910602309107023887D1
:104E80002F831986BB86AA868C87CE0107960E943F
:104E90009E1F86E0F801A6E0B2E001900D928A958F
:104EA000E1F70E941B26FF24F3946DCFC8010E94F6
:104EB0009E1FF9CF31110AC086E092E00E949E1F2A
:104EC00086E0F40111928A95E9F7C1CF2C110EC04A
:104ED0009D110CC0E1100AC08583C8010E949E1F6D
:104EE00086E0F40111928A95E9F74DCFC8010E943E
:104EF00030148823D9F2EE20C9F280910B0280325F
:104F000040F220910602309107023A8329831B82E6
:104F1000BD82AC828E83CE010196B9CF683C71050B
:104F2000F8F6FE2CEE2011F22C111EC09D111CC0B3
:104F300080910B0280FD0FC0982F907F61F08583D8
:104F4000903F31F0982F907F905F8F70892B8583F1
:104F5000C8010E949E1F86E0F801A6E0B2E0019021
:104F60000D928A95E1F70FCFC8010E94301481118C
:104F700090CF80910B02816080930B02C8010E9448
:104F80009E1F01CFEE2009F491CFC8010E9430147A
:104F9000F82E882309F48ACF86E0F801A6E0B2E073
:104FA00001900D928A95E1F7809106029091070297
:104FB0000E9423140E941B26E6CEA7E1B0E0E3EE98
:104FC000F7E20C9420354B8B5C8B6D8B7E8B8F8B3B
:104FD0006111109247021A8A198A85E0FE017396C0
:104FE000DE011D9601900D928A95E1F786E0FE01A3
:104FF0003D96DE01179601900D928A95E1F7CE015C
:1050000007960E947526882359F016E080913D028C
:1050100090910C02891343C06796E3E00C943C35F1
:1050200086E0FE013796DE01119601900D928A9579
:10503000E1F78A859B85892B41F38F8198858923A8
:105040008F3F19F320910C0230E0C901019687705F
:10505000992740913D024817190671F40E94181AC9
:1050600010920C0210923D0286E0E6E0F2E0DF01D1
:105070001D928A95E9F7C9CF96E0929FD001939F40
:10508000B00D1124A35FBD4FFE01319601900D922A
:105090009A95E1F780930C020E94020CB6CF819F93
:1050A000C0011124835F9D4F0E947526882309F457
:1050B000B3CF80913D0290E001968770992780934D
:1050C0003D02A4CFA9E1B0E0E8E6F8E20C94163581
:1050D0008E010F5F1F4F8AE0D8011D928A95E9F774
:1050E0008DEAC82E81E0D82EF12CE12CAA24A394BD
:1050F000B12C29EB822E21E0922EF60181916F01D5
:105100008F3F09F442C0F894E82FE295EF70F0E089
:1051100021A18F70A50102C0440F551F8A95E2F7A7
:10512000CA01922F982B91A392A18095892382A3E3
:10513000789400C0E2EBF1E0712C31E021912F3F37
:1051400009F46BC0A22FA295AF70B0E090968C913D
:1051500090E02F7002C0959587952A95E2F780FD23
:105160005CC0832F782A330F8E169F0639F7F6011D
:10517000319780818F3F11F00E94950950EA5A952E
:10518000F1F7F801EE0DFF1D70828FEFE81AF80AB3
:10519000A5E0EA16F10409F0B0CF4AE050E0B8010A
:1051A00081EA92E00E94AA35009741F02AE0F801D6
:1051B000A1EAB2E001900D922A95E1F70091AC02CC
:1051C000892B69F181E080934E020E94F01990933F
:1051D0004D0280934C0280914C0290914D020E94AE
:1051E000E119059700F110E002511D4F45E050E034
:1051F00061EA72E0C8010E94AA35D12C892B51F0D6
:1052000085E0E1EAF2E0D80101900D928A95E1F79C
:10521000DD24D39410924E0207C080E0A3CF80918A
:105220004E028111D8CFD12C0E94D610C82EE09109
:10523000AC02882309F49BC07E01BBE0EB0EF11C9D
:1052400085E0D7011D928A95E9F70E2F10E00251F3
:105250001D4F80919C028A3008F056C048EB58E1FF
:10526000B701C8010E94A310882309F46FC042E46B
:1052700057E1B701C8010E94A310882309F466C052
:1052800042E158E1B701C8010E94A310882309F444
:105290005DC045EF57E1B701C8010E94A310882304
:1052A00009F454C047EC57E1B701C8010E94A310AC
:1052B000882309F44BC04CE858E1B701C8010E94AB
:1052C000A310882309F442C04BE157E1B701C8019C
:1052D0000E94A3108823D1F110929C028091AB020E
:1052E00090E045E050E0B70182519D4F0E94AA3501
:1052F00021E020935902892BE1F4C12C8C2D8D29BA
:105300006996EDE00C94323580914F0290915002F5
:105310000E94E119843F914008F0A0CF809159028A
:10532000882359F385E0F70111928A95E9F71092E5
:105330005902A091AB02B0E0A251BD4F85E0FE0141
:105340003B9601900D928A95E1F7D8CF80919C020F
:105350008F3F31F08F5F80939C028A3008F4BECF7C
:105360000E94F0199093500280934F02D7CFF0E043
:10537000E251FD4F85E0ACE5B2E001900D928A95D7
:10538000E1F765E070E08CE592E00E941F098093F0
:105390005B028090610290906202A0906302B090E4
:1053A00064028091550290915602A0915702B091EB
:1053B000580288169906AA06BB06D1F080925502BB
:1053C00090925602A0925702B09258020E94D610B4
:1053D00081110EC00E94BB08861A970AA80AB90A52
:1053E00080929D0290929E02A0929F02B092A00293
:1053F000809165028093C8028091660280938B023F
:10540000809167028093FC0388E0E8E6F2E0DE0129
:105410001B9601900D928A95E1F78091680286951E
:1054200000916902F0906A02E0906B0210916F02A5
:1054300010926F021123A9F010FF0BC09B8590FF03
:105440005CC09091F10391609093F10360E00E9441
:10545000D01511FF06C020E04E2D6F2D802F0E9429
:105460008614609151027091520280915302909182
:1054700054020E949F086A30710581059105C0F1B0
:105480000E94BB08609351027093520280935302B2
:105490009093540289E0E0E7F2E0DE011B96019070
:1054A0000D928A95E1F7FE01749686E0DF011D9268
:1054B0008A95E9F74C895D896E897F89888D998DF8
:1054C0000E94E5122C873D874E875F87688B798B1A
:1054D00066E070E0CE010C960E941F098B8789E080
:1054E000FE013B96A0E7B2E001900D928A95E1F7AC
:1054F000809179028093C10201CF0E949610A9CFBA
:10550000A5E0B0E0E6E8FAE20C941F350E94F0193D
:105510008C0180914A0290914B0280179107A1F073
:105520008FEF89838A831B820E94F0198160782F14
:105530009D838C8349815A816B818D810E94DD27F7
:1055400010934B0200934A022596E4E00C943B35FD
:105550001F921FB61F9211248F939F93AF93BF93F7
:1055600080910304811113C080910404909105047B
:10557000A0910604B09107044196A11DB11D80932E
:10558000040490930504A0930604B0930704BF910C
:10559000AF919F918F911F901FBE1F901895CDB70F
:1055A000DEB7A7970FB6F894DEBF0FBECDBF85B7A5
:1055B000806885BF85B7806885BF84B7877F84BFD3
:1055C0000FB6F894A8958091600088618093600080
:1055D000109260000FBE80E890E00FB6F8948093C0
:1055E0006100909361000FBE83E999E09093DF0121
:1055F0008093DE010E9426070E94C7078091E20087
:1056000084608093E2007894809115048823A1F04F
:105610001091E9001F709091EC00892F817090FD2E
:1056200080E8182B1092E9008091E80083FD0E9429
:105630003F1A1F701093E90082E084BD93E095BD8E
:105640009AEF97BD80936E0010929D0210929E0279
:1056500010929F021092A0020E945A14811102C05F
:105660000E94A7130E94D610809358018091580180
:10567000882309F478C010926C0183E280936D0155
:105680000E94D61081110E949B3380915801809115
:10569000580195E0811190E09093AC0285E0891B60
:1056A0008093AB020DEA11E052EBE52E51E0F52EAE
:1056B000D8018D918D018F3F11F00E949509E01660
:1056C000F106B1F702EB11E049EBE42E41E0F42ED4
:1056D000F80181918F018F3F11F00E949509E0162A
:1056E000F106B1F78AE0EEEEF2E0DF01282F1D921D
:1056F0002A95E9F7E1EAF2E0DF011D928A95E9F7E0
:105700000E9425160E94C716811102C00E945316DE
:1057100082E090E00E94C0358093B20284E090E085
:105720000E94CE359093AE028093AD020E94622813
:10573000EFE3FCE93197F1F700C000000E94622816
:105740000E94D610E4E08111E0E0F0E0E251FD4F6C
:10575000808181FF0CC06FEF7FEF90E080E00E94BE
:10576000F2350E948E0883E280936C0187CF83E03C
:1057700090E00E94C0350E94D60C0E94D61088236B
:1057800009F434C183E08093E90280FD31C180E8EF
:10579000809322040E9455326DE070E08CE492E028
:1057A0000E94810F892BE9F58091E90263E070E0A6
:1057B00081FD20C189E492E00E94810F892B89F547
:1057C0006DE070E089E392E00E94810F892B49F53A
:1057D0000E94BB08605A75418F4F9F4F6093F6033C
:1057E0007093F7038093F8039093F903E5E2F4E0F4
:1057F00080E092E0DF019C011D9221503040E1F7F2
:10580000F0932C06E0932B068FEF9FEF90932404E8
:105810008093230481E08093FB038093FA0310922A
:10582000EA028091AF02811136C00E94C716811131
:1058300004C00E9453160E940C1688E090E00E945B
:10584000C8356093F1037093F2038093F303909350
:10585000F40380911E03836080931E036E7F71F4B6
:105860000E940C1688E090E00E94C8356093F10316
:105870007093F2038093F3039093F4030E943B0927
:105880008091F10380FF04C060E086950E94D015EE
:1058900081E08093AF020E94D61081110CC00E945B
:1058A0009E330E94BB086093BD027093BE0280933A
:1058B000BF029093C0020E94751283E190E00E94A3
:1058C000C8356093C3027093C4028093C50290935D
:1058D000C602E62FF0E0EE0FFF1FE754FE4F808177
:1058E00080935C0180935B01E72FF0E0EE0FFF1FD8
:1058F000E754FE4F808180935A01809359018DE5D2
:1059000091E0909300048093FF038EEE92E02AE0F2
:10591000622E680E44244394512C809115048530E6
:10592000B1F400E4F02EEE24E39400E112E1809162
:105930001504853009F461C00E94181A0E94FB10FA
:105940001092B1028091B00281110E94F3150E9461
:105950006228B3EBEB2EB2E0FB2E1EEEC12E12E05E
:10596000D12E2DEB32E0D601F70191918D912E17BA
:105970003F0709F48AC09817C1F30E94D610882EF9
:1059800010E0F60101916F01D7019D907D01901605
:1059900029F19026B12CAA24A394892D8A21B1F053
:1059A0008820A1F0B9A21AA391E0802F8A2109F4DE
:1059B00090E09BA30E94F0198160782F9DA38CA397
:1059C00049A15AA16BA18DA10E94DD27B394AA0C15
:1059D000B7E0BB12E2CFF701319700831F5F1A30A7
:1059E00081F60E94BB08DD24D39454C080E0CBCE66
:1059F00080E2CECE86E492E0DFCE80911504843042
:105A000009F434C08091B102811109C0E092B10261
:105A10008091F10381708093B0020E9496100E94E1
:105A2000AB0F0E940F111092030488E190E00FB6B3
:105A3000F894A895809360000FBEF092600083B741
:105A4000817F846083BF83B7816083BF78948895AA
:105A500083B78E7F83BF0FB6F894A89580916000BE
:105A6000886180936000109260000FBE80911404E2
:105A7000882309F45CCF0E946228EEEEF2E0819167
:105A80008111E1C46E12FBCF52CF981376CF0E94E2
:105A9000802AD12C0E94D6108091C102811115C09C
:105AA0000E94D610811111C06091BD027091BE029A
:105AB0008091BF029091C0020E949F08693B7B4089
:105AC0008105910510F00E9483088091FB038823D3
:105AD00009F494C08091EB029091EC020E94E119CC
