:100000000C9407070C9424070C9424070C947C335D
:100010000C9424070C9424070C9424070C942407B4
:100020000C9424070C9424070C94CD180C94E61C13
:100030000C948F2A0C9424070C9424070C94240706
:100040000C9424070C9424070C9424070C94240784
:100050000C9424070C94A6190C9424070C942407E0
:100060000C9424070C9424070C9424070C94240764
:100070000C9424070C9424070C9424070C94240754
:100080000C9424070C9424070C9424070C94240744
:100090000C9424070C9424070C9424070C94240734
:1000A0000C9424070C9424070C94240705010902DE
:1000B000A10185020901A1000509190129081500FE
:1000C0002501950875018102050109300931158165
:1000D000257F95027508810609381581257F9501D0
:1000E00075088106050C0A38021581257F95017572
:1000F000088106C0C005010980A101850319012AF4
:10010000B700150126B700950175108100C0050CD8
:100110000901A101850419012AA002150126A002E6
:10012000950175108100C00660FF0961A101096297
:10013000150026FF00952075088102096315002629
:10014000FF00952075089102C005010906A101056F
:100150000719E029E7150025019508750181029529
:1001600001750881010507190029FF150026FF0008
:100170009506750881000508190129059505750181
:100180009102950175039101C0000000000000007C
:10019000000000000000000000000000000000005F
:1001A000000000000000000000000000007E0F00C2
:1001B000D4FFFFFFC700000078000000000000002F
:1001C000002A2B28000000000000000000000000B2
:1001D0000000000029000000002C1E3420212224F1
:1001E000342627252E362D3738271E1F202122237F
:1001F0002425263333362E37381F04050607080911
:100200000A0B0C0D0E0F10111213141516171819D6
:100210001A1B1C1D2F3130232D3504050607080934
:100220000A0B0C0D0E0F10111213141516171819B6
:100230001A1B1C1D2F3130354C00DA0281FFD9F119
:10024000DB20A4A62EAF00A0C000A1C800AED580C0
:10025000A81FD300408D1420002D2D2D2D2D000A18
:1002600000204D78002053636C20005249474854C9
:10027000000A00204D78002053636C200053435245
:100280003A5F005343523A40002D2D2D2D2D5450EE
:100290004D4F444C45465420004341503A5F004383
:1002A00041503A40004E554D3A5F004E554D3A4050
:1002B000002D2D2D2D2D53544154532D2D2D2D2DED
:1002C000002055444620002041444A200020524945
:1002D000532000204C575220002044454620002D3A
:1002E0002D2D2D2D4C4159455200000000000000DD
:1002F000000000000000000080C0E0E0F0F0F0F03E
:10030000F0F0F0F0F0F0F0F0F0F0F0F0F0F0F0F0ED
:10031000F0F0F0E0C00000000080E0E0F0F0F0F06D
:10032000F0F0F0F0F0F0F0F0F0F0F0F0F0F0F0F0CD
:10033000F0F0F0F0F0F0F0F0F0F0F0F0F0F0F0F0BD
:10034000F0F0F0F0F0F0F0F0F0F0F0F0F0F0F0F0AD
:10035000F0F0F0F0F0F0F0F0F0F0F0F0F0F0F0E0AD
:10036000C0000000000000000000000000000000CD
:10037000000000000000007FFFFFFFFFFFFFFFFF06
:10038000FFFFFFFFFFFFFFFFFFFFFFFFFFFFFFFF7D
:10039000FFFFFFFFFF00000000FFFFFFFFFFFFFF69
:1003A000FFFF87070303030303030303030303039D
:1003B0000303030303030303030303030303038789
:1003C000FFFFFFFFFFFFFFFFFFFFFFFFFFFFFFFF3D
:1003D000FFFFFFFFFFFFFFFFFFFFFF7F3F1F0F0735
:1003E000010000000000000000000000000000000C
:1003F00000000000000000000001010303030303EC
:10040000030303030303030303030303030303FFC0
:10041000FFFFFFFFFF00000000FFFFFFFFFFFFFFE8
:10042000FFFFFFFFFFFFFFFFFFFFFFFFFFFFFFFFDC
:10043000FFFFFFFFFFFFFFFFFFFFFFFFFFFFFFFFCC
:10044000FFFFFFFFFFFFFFFFFFFFFFFFFFFFFFFFBC
:10045000FFFF7F3F3F1F0F07030100000000000068
:10046000000000000000000000000000000000008C
:10047000000000000000000000000000000000007C
:100480000000000000000000000000000000000765
:100490000F0F0F0F0700000000030F0F0F0F0F0FBC
:1004A0000F0F0F0F0F0F0F0F0F0F0F0F0F0F0F0F5C
:1004B0000F0F0F0F0F0F0F0F0F0F0F0F0F0F0F0F4C
:1004C0000F0F0F0F0F0F0F0F070707030303010194
:1004D000000000000000000000000000000000001C
:1004E0000000000000000000000000010101010107
:1004F00001010101020202020202020202030303DD
:1005000003030303030404040404040405050505AC
:10051000050606060606070707070708080808096C
:100520000909090A0A0A0B0B0B0C0C0C0D0D0D0E18
:100530000E0E0F0F0F1010111111121213131414AD
:10054000151516161717181819191A1A1B1B1C1D22
:100550001D1E1E1F2020212222232424252626277B
:100560002829292A2B2C2D2D2E2F303132323334AD
:1005700035363738393A3B3C3D3E3F4041424344B3
:1005800045464748494A4C4D4E4F50515354555695
:1005900058595A5B5D5E5F616264656668696B6C41
:1005A0006D6F7072737577787A7B7D7E80828385BC
:1005B00087888A8C8E8F91939596989A9C9EA0A2FC
:1005C000A3A5A7A9ABADAFB1B3B5B7BABCBEC0C206
:1005D000C4C6C9CBCDCFD1D4D6D8DBDDDFE2E4E7CA
:1005E000E9EBEEF0F3F5F8FAFDFF00AF00AE2900FD
:1005F0001E001F002000210022002F0035001400E3
:100600001A000800150017002D002B00040016002A
:10061000070009000A004C00E1001D001B00060055
:10062000190005002C00E000E300E2003504017E23
:100630002C004C0046002700260025002400230043
:1006400030003100130012000C0018001C002E00B6
:10065000340033000F000E000D000B002A00E500EF
:100660003800370036001000110028004F005200FB
:1006700051005000027E28002A0044003A003B004E
:100680003C003D003E002F0235021E021F022002E8
:10069000210222022D022B001E001F00200021003B
:1006A00022004C00E1002300240025002600270042
:1006B0002C00E000E300E2003504017E2C004C0039
:1006C000450043004200410040003F00300231023B
:1006D000270226022502240223022E0234023302BC
:1006E0000F000E000D000B002A00E5003802370253
:1006F00036021000110028004D004B004E004A0049
:10070000027E28002A0044003A003B003C003D00E5
:100710003E002F0235021E021F0220022102220289
:100720002D022B001E001F002000210022004C0083
:10073000E100230024002500260027002C00E00013
:10074000E300E2003504017E2C004C00450043002C
:100750004200410040003F003002310227022602E1
:100760002502240223022E02340233020F000E005F
:100770000D000B002A00077E067E370236021000AD
:1007800011002800057E047E4E004A00027E2800EB
:100790002A00010001000100010001000100010028
:1007A00001000100207821782478237801000100DD
:1007B000010002780678010001000100010001003B
:1007C0000100010001000100010001000100010021
:1007D0000100010001000100010001000100010011
:1007E0000100010001000100010027782878257828
:1007F0002678010001000100010001000100010054
:1008000001000100010001000100010001000100E0
:1008100001000100010001000100010001000902C6
:100820005B00030100A0FA090400000103010100BC
:100830000921110100012240000705810308000180
:100840000904010002030000000921110100012236
:100850002200070582032000010705030320000191
:100860000904020001030000000921110100012216
:100870007B00070584032000011201000200000034
:10088000081DFE60600001010200012203450072A4
:100890000067006F004B006E006900660065002075
:1008A0000072006500760031002E00320000001852
:1008B0000354006F00750063006800730065006EEC
:1008C0000073006F00720000000403090407087F32
:1008D0000807003E5B4F5B3E003E6B4F6B3E001CCB
:1008E0003E7C3E1C00183C7E3C18001C577D571C6B
:1008F000001C5E7F5E1C0000183C180000FFE7C370
:10090000E7FF00001824180000FFE7DBE7FF0030D6
:10091000483A060E00262979292600407F0505075A
:1009200000407F05253F005A3CE73C5A007F3E1CB3
:100930001C0800081C1C3E7F0014227F2214005F4C
:100940005F005F5F0006097F017F00006689956A8E
:100950000060606060600094A2FFA2940008047EC2
:1009600004080010207E20100008082A1C08000837
:100970001C2A0808001E10101010000C1E0C1E0C63
:100980000030383E383000060E3E0E0600000000F3
:1009900000000000005F00000000070007000014D6
:1009A0007F147F1400242A7F2A1200231308646214
:1009B00000364956205000000807030000001C22A2
:1009C0004100000041221C00002A1C7F1C2A000854
:1009D000083E080800008070300000080808080879
:1009E000000000606000002010080402003E514931
:1009F000453E0000427F40000072494949460021BF
:100A000041494D33001814127F10002745454539E0
:100A1000003C4A4949310041211109070036494942
:100A2000493600464949291E000000140000000014
:100A3000403400000000081422410014141414145F
:100A4000000041221408000201590906003E415DE0
:100A5000594E007C1211127C007F49494936003EF4
:100A600041414122007F4141413E007F4949494186
:100A7000007F09090901003E41415173007F0808C8
:100A8000087F0000417F4100002040413F01007F7E
:100A900008142241007F40404040007F021C027F3A
:100AA000007F0408107F003E4141413E007F09095C
:100AB0000906003E4151215E007F091929460026A2
:100AC000494949320003017F0103003F4040403F54
:100AD000001F2040201F003F4038403F00631408A3
:100AE0001463000304780403006159494D43000076
:100AF0007F41414100020408102000004141417F34
:100B0000000402010204004040404040000003078E
:100B10000800002054547840007F284444380038AE
:100B20004444442800384444287F0038545454181E
:100B30000000087E09020018A4A49C78007F080425
:100B400004780000447D4000002040403D00007FCC
:100B5000102844000000417F4000007C04780478A5
:100B6000007C0804047800384444443800FC18240D
:100B700024180018242418FC007C080404080048E9
:100B8000545454240004043F4424003C4040207C3E
:100B9000001C2040201C003C4030403C00442810F9
:100BA0002844004C9090907C004464544C440000D5
:100BB00008364100000000770000000041360800C0
:100BC000000201020402003C2623263C0000000033
:100BD000000000404040F0F8F8FF38FFF8F83FF818
:100BE000F8FF38FFF8F8F040404000000000000037
:100BF00080C0C0C0800000C0C08000000080C0C0B5
:100C000000C0C0000080C0C00000000000C0C0C024
:100C1000C0C000C0C00000000000000000000000D4
:100C200000000000000000000000000000000000C4
:100C300000000000000000000000000000000000B4
:100C4000000000000000000000000000C0F0F8FC00
:100C50003E1E06010000007F4141417F007F41416F
:100C6000417F000080C0E07E5B4F5BFEC00000C0A3
:100C700000DCD7DEDEDED7DC00C0000000000000B4
:100C80000000000000000000000000000000000064
:100C9000000000494949FFFFFFFFE0DFBFBF00BF81
:100CA000BFDFE0FFFFFFFF49494900000000001FD0
:100CB0003F6060E0BF1F007F7F071E381E077F7FF9
:100CC000007F7F0E1F3B716000000000007F7F0CE3
:100CD0000C0C007E7E007F7E0303007F7E03037E7C
:100CE0007E03037F7E000F3E703C063C703E0F008B
:100CF000327B49493F7E007F7E0303001E3F6969C6
:100D00006F2600000000000000000000030F1F3FDE
:100D10003C7870600000007F4141417F007F41418D
:100D2000417F00307B7F7830202030787F3B00038C
:100D3000000F7F0F0F0F7F0F000300000000000067
:100D400000000000000000000000000000000000A3
:100D5000000000010101070F0F7F0F7F0F0F7E0FB3
:100D60000F7F0F7F0F0F070101010000000000003F
:100D70000000000001010000000000000000000071
:100D80000000000000000000000000000000000063
:100D90000000000000000000000000000000000053
:100DA0000000000000000000000000000000000043
:100DB0000000000000000000000000000000000033
:100DC0000000000000000000000000000000000023
:100DD0000000000000000000000000000000000013
:100DE0000000000000000000000000000000000003
:100DF00000000000000000000000000000000000F3
:100E000000000000000000000000000000001124AD
:100E10001FBECFEFDAE0DEBFCDBF11E0A0E0B1E052
:100E2000E4E7FDE602C005900D92A63DB107D9F7B3
:100E300026E0A6EDB1E001C01D92AF31B207E1F7A7
:100E40000E94B62A0C943F360C940000E8EDF0E0C6
:100E500080818E7F80831092E2001092DA001092DF
:100E6000E100A0EEB0E08C9181608C9380818F775F
:100E7000808319BCA7EDB0E08C918E7F8C9380812C
:100E80008F7E80831092FA0308952091E4003091C0
:100E9000E50095E6A9012091EC00822F817020FFEA
:100EA00006C08091E80080FF06C080E00895209190
:100EB000E80022FD1AC080910704882389F085305C
:100EC00089F08091EB0085FD0FC02091E400309106
:100ED000E50042175307F9F29150E1F684E00895D6
:100EE00082E0089583E0089581E0089580910904E7
:100EF00087FF13C08091E80082FF06C08091E80060
:100F00008B778093E80004C0809107048111F2CFB1
:100F10000895809107048823D9F38091E80080FF29
:100F2000F8CF8091E8008E77ECCF982F9093E9006E
:100F3000242F762F50E0891731F07091EC0020912A
:100F4000ED005091F00021FD07C09F5F973071F7D1
:100F50008093E90081E008953091EB003E7F30936B
:100F6000EB003091ED003D7F3093ED003091EB00D0
:100F700031603093EB007093EC002093ED005093C0
:100F8000F0002091EE0027FDE0CF80E00895B0E072
:100F9000A0E0EDECF7E00C94B634C8EDD0E0888129
:100FA0008F7E8883E7EDF0E080818160808384E03C
:100FB00082BF81E08093FA0388818E7F888302EE6E
:100FC00010E0F80110821092DA0081EEC82ED12CC8
:100FD000F601108288818F77888388818068888372
:100FE00088818F7D888319BC1092070410920804B1
:100FF000109206041092050490EEE92EF12CF701F0
:1010000080818B7F808388818160888342E060E07B
:1010100080E00E949507F60180818E7F8083F80131
:10102000808181608083808188608083F7018081F6
:101030008E7F8083888180618883CDB7DEB7E8E0CA
:101040000C94D234FC0180910F0490911004861707
:101050009707A0F06115710529F49091E8009E773B
:101060009093E80090E06115710551F4911108C06A
:101070008091E80082FF34C080E00895BC01F2CF87
:10108000809107048823C1F18530C1F18091E80087
:1010900083FD30C08091E80082FDEACF8091E800B6
:1010A00080FFE1CF8091F3002091F200382F61158D
:1010B000710519F02830310558F091E028303105DC
:1010C00009F090E02091E8002E772093E800CBCF44
:1010D00081918093F100615071092F5F3F4FE7CFFD
:1010E00080910704882341F0853041F08091E80029
:1010F00083FFBECF81E0089582E0089583E00895E4
:101100008091FC03089587E797E790930108809307
:10111000000888E19AE00FB6F894A89580936000E3
:101120000FBE90936000FFCF2FB7F8946091F60345
:101130007091F7038091F8039091F9032FBF089500
:10114000A3E0B0E0E6EAF8E00C94BC342091F303AD
:101150003091F40328173907A1F09093F40380939A
:10116000F303E091F103F091F203309751F024E0A2
:1011700029839B838A830680F781E02DCE01019627
:1011800009952396E2E00C94D834A3E0B0E0EBECB0
:10119000F8E00C94BC342091EF033091F003281751
:1011A0003907A1F09093F0038093EF03E091F103EE
:1011B000F091F203309751F023E029839B838A83D7
:1011C0000680F781E02DCE01019609952396E2E095
:1011D0000C94D834E091F103F091F203309739F098
:1011E00022E0DC012C930480F581E02D099508951F
:1011F000FC01680F791F8FEF91E32191822728E08E
:1012000030E087FF09C0880F892721503109C9F7CD
:10121000E617F70791F70895880FF7CFFA018111C4
:1012200001C0FB01099508958091E303982F9E7FEB
:1012300071F48091E303817082608093E303809175
:10124000E603873918F086E98093E6030895843031
:1012500080F7F5CF8091EC0280FD16C081FD16C0AD
:1012600082FD16C08091EB028823A1F0883280F4C1
:1012700028E0829FC001112468E270E00E94FD34E2
:10128000862F672B39F0089582E0089584E0089551
:1012900088E0089581E008958091EC0280FD14C0FB
:1012A00081FD14C082FD16C08091EA02882381F07E
:1012B0008E3180F420E5829FC00111246EE170E040
:1012C0000E94FD34862F089584E1089588E20895F0
:1012D00088E0089580E5089580E00895F894E82F67
:1012E000E295EF70F0E031A1282F2F7081E090E0BF
:1012F00001C0880F2A95EAF7982F9095932391A320
:1013000092A1892B82A3789408959091A40292FFD0
:1013100006C0282F28712830F9F4877F846093FF56
:1013200006C0282F28712831F1F4877E846120912E
:10133000A50220FF06C0382F38713830D9F4877FD6
:10134000816021FF06C0282F28712831D1F4877EC3
:10135000816194FD877E0895282F24712430F9F649
:101360008B7F8860DCCF282F2471243101F78B7E9E
:101370008861DDCF382F3171313019F78E7F886069
:10138000E0CF282F2171213121F78E7E8861E1CFB6
:1013900082389105B9F1B0F48133910509F47DC02B
:1013A00048F48932910509F46DC08A32910509F437
:1013B0007BC008958533910509F45FC08933910599
:1013C00009F10895833E9105D9F138F4803E9105E5
:1013D00029F1823E910579F10895863E9105D9F172
:1013E000873E910509F43EC0843E910541F5209168
:1013F000A50221FF24C08091A40284FD19C087EEBC
:1014000090E008952091A402237009F05AC0209121
:10141000A50223FF14C089E290E008952091A40260
:1014200020FD38C03091A50230FF09C024FF43C021
:1014300090E080E008952091A40222FDF7CF089566
:101440002091A40222FD3AC03091A50230FD39C09E
:1014500024FFF5CFEDCF2091A40223FFF0CF24FD90
:10146000E7CFCDCF2091A40223FD2EC03091A5025D
:1014700031FFEECF84EE90E008952091A40225FF85
:10148000DECFC9CF2091A40225FD21C02091A50265
:1014900023FFD5CF89E390E0D2CF2091A40226FF8D
:1014A000CECF8AE290E008952091A40226FFC7CF14
:1014B00081E390E0089583EE90E0089582EE90E05D
:1014C000089580EE90E0089586EE90E0089585E31B
:1014D00090E008951F93CF93DF930E94C809EC0119
:1014E000C11580E5D807F0F5C11580E4D80708F0EC
:1014F0009CC0C03ED10520F5CD3CD10508F082C08E
:10150000C83AD10578F4C53AD10508F073C0C130A6
:10151000D10519F1209709F1C430D105F0F4D0E0DC
:10152000C0E01BC0C33CD105D0F7C85AD0E0CC0FF7
:10153000DD1FC359DE4F0990D881C02DD4640DC082
:10154000C11580E2D80708F0D1C0C11581E0D807E5
:1015500008F05AC0C83ED10510F7CE01DF91CF91F7
:101560001F910895C03682E5D80718F5C03482E58A
:10157000D80708F06BC0C03282E5D80708F05FC01A
:10158000C11582E5D80708F497C02C2F269526951B
:1015900080E2289F900111248C2F8370C1E0D0E05D
:1015A00002C0CC0FDD1F8A95E2F7C22BD32BDD687A
:1015B000D4CFC03A82E5D80760F4C03882E5D807B6
:1015C00008F459C0CF71D0E0DC2FCC27C46FD06AAB
:1015D000C4CFC03C82E5D80708F462C0C03E82E5B3
:1015E000D80708F09CCFDC2FCC27CC27DF71C06F49
:1015F000D06AB3CFC55AD0E0C659DE4FC881D0E01B
:10160000D064ABCFD065A9CF8D2F0E948509182F4C
:10161000CE0199270E94C809C12FD0E0DC2FCC272A
:10162000CC27DF71C82BD92B98CFCE0199270E94E8
:10163000C809CC27DF70C82BD92BD06A8ECFCF71C9
:10164000D0E0DC2FCC27C16FD06A87CF2C2F269516
:101650002695277080E2289F900111248C2F83709B
:10166000C1E0D0E002C0CC0FDD1F8A95E2F7C22BAB
:10167000D32BDC6872CF2C2F26952695277080E21D
:10168000289F900111248C2F8370C1E0D0E002C00C
:10169000CC0FDD1F8A95E2F7C22BD32BDA685DCF22
:1016A0008C2F8F710E948509C82FD0E0DC2FCC27AA
:1016B000CC27DF71D06251CF8C2F8F710E948509AA
:1016C00055E0D695C7955A95E1F7CF70D0E0DC2F5D
:1016D000CC27282F30E084FF05C044E0220F331FC1
:1016E0004A95E1F7C22BD32BD06937CF8D2F8F715D
:1016F0000E948509182FCE0199270E94C809C12F81
:10170000D0E0DC2FCC27CC27DF71C82BD92BD2CF50
:10171000809141028111109241020895809590912B
:1017200040029823909340020895EAEDF1E09191F0
:10173000891303C0DF0111971C9291E0E03EF90785
:10174000B1F70895AAEDB1E0EFEF90E02D91821787
:1017500051F0EF3F19F4211101C0E92F9F5F96303E
:10176000A9F7EF3F09F408950E2E000CFF0BE85285
:10177000FE4F82830895209135029091040256E035
:10178000291302C080E0089530E0529FF001539F7A
:10179000F00D1124EB5FFD4F7181761306C070814F
:1017A000781303C07281741304C02F5F3F4F2770FA
:1017B000E7CF81E00895809135029091040298135B
:1017C00001C008958F5F8770FACF292F9A3078F57E
:1017D000873068F590E037E0239F800D911D11243C
:1017E000682F677023E0969587952A95E1F7FC01AD
:1017F000EE0FFF1FE80FF91FED51FE4F50E040E0E4
:1018000080E0219130E0062E02C0369527950A949B
:10181000E2F721703327042E01C0220F0A94EAF761
:10182000822B4F5F5F4F4330510559F7089580E099
:101830000895292F9A3098F5873088F590E037E0A1
:10184000239F800D911D1124282F277041E001C096
:10185000440F2A95EAF723E0969587952A95E1F7B4
:10186000FC01EE0FFF1FE80FF91FED51FE4F30E0B6
:1018700020E070E05191DF011197CB01022E02C0F0
:10188000969587950A94E2F7817081958527842340
:1018900085278C932F5F3F4F2330310559F70895EB
:1018A000982F9670963021F488608093BA0208953C
:1018B000877FFBCF9091BA0221E030E0F90101C0AF
:1018C000EE0F8A95EAF7D90102C0AA0FBB1F6A95ED
:1018D000E2F7EA2B01C0220F4A95EAF7892F8E23FF
:1018E000E81305C0292B822F0E94500C08952095E3
:1018F0002923F9CF21E030E001C0220F8A95EAF7D1
:1019000020958091BA0282230E94500C08959091F4
:1019100036028095892380933602282F277091F410
:10192000282F082E000C330B9217130659F09091B4
:10193000A50292FF07C08595859585950E947A0C32
:1019400010923602089521E030E001C0220F8A95FE
:10195000EAF78091BA02822B0E94500C089580937E
:1019600082020895982F92959F7011F0892F94E02C
:10197000282F2695269511F09E5F822F869509F0D7
:101980009F5F892F0895CF93DF93C091E001C80F27
:1019900041F41092E00160E070E0CB01DF91CF9163
:1019A00008958C2F69E10E94EF34D92F682F880F9A
:1019B000770B880B990B0E94DB35D093E001C85E52
:1019C000C13360F31092E101E9CFCF93DF93C0916F
:1019D000E101C80F41F41092E10160E070E0CB0139
:1019E000DF91CF9108958C2F6FE00E94EF34D92FB3
:1019F000682F880F770B880B990B0E94DB35D093EB
:101A0000E101C25FCD3160F31092E001E9CFAEE1B8
:101A1000B0E0EDE0FDE00C94B4344B8B5C8B462FD2
:101A20008F8B988FE98EFA8E0B8F1C8FE22E2D8F65
:101A3000F32E3E8F842FD72E9091B902992309F46B
:101A400056C00E94E50C0E94A335C62E8D2D8195AF
:101A50000E94C30C0E94A335D62EB12CA12C8091DC
:101A6000B402882309F478C0802F0E94E50C0E94FC
:101A7000A335F62E812F81950E94C30C0E94A335B9
:101A8000E62E60E000E0AD8ABE8ADF8AC88E86E07E
:101A9000FE017396DE01179601900D928A95E1F78B
:101AA0004C895A8D802F002E000C990B8A0D911DA8
:101AB000A7FC9A9580382FEF92070CF481C08038EC
:101AC00091050CF07FC0982F062E000C770B6B0D44
:101AD000711DB7FC7A9560388FEF78070CF474C0ED
:101AE000862F603871050CF470C08FE76EC0A0912E
:101AF000540191E0940F933018F1242F440F330BCD
:101B00000A2E000CBB0B0E941E350E94DB350E9482
:101B1000A335A62EA091530181E08D0D8330B0F046
:101B20002D2DDD0C330B0A2E000CBB0B0E941E3535
:101B30000E94DB35DF88C88C0E94A335B62E8FCF7C
:101B4000642F440F770B880B990BDFCF6D2DDD0CC5
:101B5000770B880B990BECCFA091520181E0800F9D
:101B6000833008F1202F000F330B0A2E000CBB0B23
:101B70000E941E350E94DB350E94A335062FA091DE
:101B8000510181E0810F8330A0F0212F012E000C44
:101B9000330B0A2E000CBB0B0E941E350E94DB3556
:101BA0000E94A33570CF602F000F770B880B990B25
:101BB000E1CF612F012E000C770B880B990BEECF34
:101BC00090E882CF9FE780CF80E86F2D0F2C000C2C
:101BD000770B6C0D711DC7FC7A9560382FEF72077B
:101BE000B4F160387105ACF52E2D0E2C000C330BC2
:101BF0002D0D311DD7FC3A9520387FEF37075CF16A
:101C00002038310554F5452B488799878A872B87DB
:101C10006C8786E0FE013796DE01119601900D92E9
:101C20008A95E1F786E0FE013196DE011D9601906E
:101C30000D928A95E1F72D853E854F8558896989F2
:101C40007A8980E090E06E96EAE00C94D03460E807
:101C5000CBCF6FE7C9CF20E8D6CF2FE7D4CFCF9334
:101C6000DF93C0911D06D0911E068A30C1F42091E9
:101C70001404CE0187519440622F70E00E94983482
:101C8000281B822F66E00E94E334C82FC15018F44D
:101C9000DF91CF91089580E20E942F0EF7CF8D3013
:101CA000E9F4C751D44020911404622F70E0CE01B2
:101CB0000E949834281B822F9E01280F311D211568
:101CC000324018F080E0D0E0C0E0C80FD11DC95EFE
:101CD000DB4FD0931E06C0931D06DACF96E0FE01BF
:101CE000A7E1B6E001900D929A95E1F7803E08F4E5
:101CF00058C086E0FE0111928A95E9F7C0911D0651
:101D0000D0911E0646E050E0BE0187E196E00E94B9
:101D100045359E0127513440892B41F1C90145E0E9
:101D2000969587954A95E1F741E050E0BA0102C0E7
:101D3000660F771F8A95E2F7CB01609115047091C9
:101D40001604862B972BB9016B5F7F4FE5E07695E4
:101D50006795EA95E1F702C0440F551F6A95E2F7CF
:101D6000842B952B90931604809315042A5F3F4F84
:101D700040911404642F70E0C9010E949834481BFC
:101D8000463010F4240F311D211572E0370710F092
:101D900030E020E0295E3B4F30931E0620931D0665
:101DA00077CFF6E08F9FB00111246353774F46E061
:101DB00050E0CE010E943C35A1CFCF93DF93EC01E0
:101DC000FE018491811103C0DF91CF9108950E949B
:101DD0002F0E2196F5CF46E050E061EF72E083E0F0
:101DE00093E00E944535892B21F083E093E00E9427
:101DF000EA089091040386E0E3E0F3E0DF01282F96
:101E00001D922A95E9F790930403A1EFB2E00190A7
:101E10000D928A95E1F708958091400290913F02DA
:101E2000892B8093D80190914102992391F0892BBD
:101E30008093D80120E08AED91E0FC013191CF013F
:101E400031112F5FF1E0803E9F07B9F721110E9409
:101E5000880B48E050E067E372E088ED91E00E9473
:101E60004535892BA9F088E0E8EDF1E0A7E3B2E081
:101E700001900D928A95E1F7E091F103F091F20360
:101E8000309731F00280F381E02D88ED91E00995E3
:101E90000895882321F00E948E0B0E940C0F089554
:101EA000882339F090914002982B909340020E9431
:101EB0000C0F0895B0E0A0E0E0E6FFE00C94B6342B
:101EC0006C017B0164E670E088E70E94F631EC016A
:101ED00097FD12C010E000E0F601E00FF11F8491C1
:101EE00064E670E00E946232EC01892B29F40F5FF6
:101EF0001F4F0E151F0581F70E94D832CE01CDB7B6
:101F0000DEB7E8E00C94D2348091EC039091ED03BD
:101F1000911103C091E089270895882369F062E058
:101F200070E08CEE95E00E945A0F892B19F0809199
:101F3000EC0308951092EC038091EC03EBCFCF9368
:101F4000C091EC038091ED038823D1F00E949408A6
:101F5000605A75418F4F9F4F6093E8037093E90378
:101F60008093EA039093EB03C11108C062E070E034
:101F70008AEE95E00E945A0F892B29F0C091EC035C
:101F80008C2FCF91089581E08093EC03F7CF0F93CE
:101F90001F93CF93DF938B01EA0190910704943054
:101FA00061F58093E9008FEF9091E800815095FDF5
:101FB00006C095ED9A95F1F700008111F5CF80915B
:101FC000E80085FF1AC00E944507811111C0809169
:101FD000E80085FD06C08091E8008E778093E800D8
:101FE000F2CFF80181918F018093F100219779F769
:101FF0008091E8008E778093E800DF91CF911F9168
:102000000F91089543E050E0BC0184E00E94C70FA7
:10201000089546E050E0BC0184E00E94C70F089597
:10202000CF93DF93EC0148E050E0BC0181E00E94D7
:10203000C70F88E0FE01ADEFB3E001900D928A95E5
:10204000E1F7DF91CF910895609165018091E303FD
:1020500080FF20C08091640143E0849FC00111246F
:102060008F5E9C4F539A2BB1277F3BB138605FB78F
:10207000F894FC01649FE00DF11D1124BF01681765
:102080007907D1F45FBF8FE594E00197F1F700C0C5
:1020900000000895809166019091670123E0829F7E
:1020A000F0011124EF5EFC4F8917A0F61182108217
:1020B00012828F5F3396F8CFFC014191CF01E8E0A7
:1020C0003BB9000000C047FF2BB9440F000000C01F
:1020D00000C000C02BB900C0EA9591F7D0CFE3EE65
:1020E000F3E080818E7F8083EEE0F3E08281816087
:1020F00082830E9424100895B0E0A0E0E2E8F0E1BD
:102100000C94B4347C015B016A018091930201E07C
:1021100010E08A3010F40AE010E0C1E0D0E0B50130
:10212000C701F6010995811104C021960C171D07FE
:102130002CF4CDB7DEB7EAE00C94D034CC9F9001FC
:10214000CD9F300D300D112490E080E045E34A959D
:10215000F1F70000019682179307C1F7E0CF809155
:102160005202811119C088EC90E02091E30027FD14
:1021700010C0EFE3FCE93197F1F700C000000197D0
:10218000A1F782E0809352020E9426071092070472
:1021900003C081E08093520281E09091520291301D
:1021A00011F080E0089508950E94AF10811103C0DE
:1021B0008091EE030895E091F103F091F2033097DE
:1021C00029F00190F081E02D0995089580E00895AF
:1021D000A0E3B0E0EEEEF0E10C94B8340E94AF1052
:1021E000882309F4EFC040910A0350910B036091DA
:1021F0000C0370910D032FB7F8948091F603909122
:10220000F703A091F803B091F9032FBF841B950B3E
:10221000A60BB70B0A97A105B10508F4D3C00E941D
:10222000940860930A0370930B0380930C039093BC
:102230000D035091090350930403409103036091EF
:1022400005037091060380910703909108030E9493
:10225000CA12209303033093040340930503509361
:1022600006036093070370930803309309030E94E9
:10227000AF10882309F4AAC086E0E3E0F3E0DE01B2
:10228000179601900D928A95E1F78091060381954A
:1022900090910503919599878A8786E0FE0137968C
:1022A000DE01959601900D928A95E1F786E0FE0198
:1022B000B596DE01119601900D928A95E1F786E0C0
:1022C000FE013196A3E0B3E001900D928A95E1F70B
:1022D00086E0EDEFF2E0DE01179601900D928A950F
:1022E000E1F78091000381959091FF029195998784
:1022F0008A8786E0FE013796DE019B9601900D925B
:102300008A95E1F786E0FE01BB96DE011196019009
:102310000D928A95E1F786E0FE013196ADEFB2E0CD
:1023200001900D928A95E1F70E94AF10882309F47D
:1023300097C086E0E3E0F3E0DE01539601900D9252
:102340008A95E1F786E0EDEFF2E0DE011796019065
:102350000D928A95E1F7EF80F88409851A852B851F
:102360003C854B895C896D897E898F89988D0E9417
:10237000070D2D873E874F87588B698B7A8B86E0B8
:10238000FE013D96DE01119601900D928A95E1F7CE
:1023900086E0FE013196A3E0B3E001900D928A95AC
:1023A000E1F786E0E7EFF2E0DE01119601900D9291
:1023B0008A95E1F7809104039A81892B8093040325
:1023C0000E94EB0EE096E6E00C94D43486E0E3E065
:1023D000F3E0DE01179601900D928A95E1F7809166
:1023E0000603819590910503919599878A8786E0E8
:1023F000FE013796DE01599601900D928A95E1F71C
:1024000086E0FE017996DE01119601900D928A9583
:10241000E1F786E0FE013196A3E0B3E001900D9272
:102420008A95E1F786E0EDEFF2E0DE011796019084
:102430000D928A95E1F78091000381959091FF02BA
:10244000919599878A8786E0FE013796DE015F962F
:1024500001900D928A95E1F786E0FE017F9655CFB7
:1024600086E0EDEFF2E0DE01539601900D928A9541
:10247000E1F786E0E3E0F3E0DE011D9601900D92C6
:102480008A95E1F7ED84FE840F85188929893A89B8
:102490004B895C896D897E898F89988D0E94070D93
:1024A0002F83388749875A876B877C8786E0FE01B0
:1024B000379668CF1092B90088E98093B8002FE76B
:1024C0008FEA92E0215080409040E1F700C0000088
:1024D000089594EA9093BC009AE69A95F1F700C0AB
:1024E0009091B900987F983039F09091B900987F19
:1024F000903111F081E008958093BB0084E88093CF
:10250000BC0083EE92E00197F1F700C000008091DB
:10251000B900887F883129F08091B900887F8034A4
:1025200049F780E00895EF92FF920F931F93CF93A6
:10253000DF93C82F8CE60E9469128BEBE82EF12CFA
:10254000F701C083CCEBD0E004E8088383EE92E08F
:102550000197F1F700C000008091B90014E91883D9
:102560009AE69A95F1F700C08DE60E9469120883F9
:10257000E3EEF2E03197F1F700C00000F70180814F
:102580001883FAE6FA95F1F700C0CDB7DEB7E6E0BA
:102590000C94D434ACE0B0E0E0EDF2E10C94B9344A
:1025A0004F8358878B879C87162F072F83E00E94C5
:1025B0009312F82E84E00E949312482F33E08F2D5F
:1025C000632F0E94EF34282F842F632F0E94EF3453
:1025D000211104C0811102C0802F212F29878A87F1
:1025E00086E0FE013796DE01119601900D928A95E4
:1025F000E1F729813A814B815C816D817E8180E0A8
:1026000090E02C96E5E00C94D534CF93DF93C6E5AB
:10261000D2E060E0CE010E946F352196C11584E0C2
:10262000D807B9F7DF91CF9108951F93CF93DF9328
:10263000122F8430E0F46A30D0F44730C0F4C42F55
:10264000D0E0CC0FDD1F9EE0699FC00DD11D11248D
:102650009CE8899FC00DD11D1124632FCE01869661
:102660000E946F35612FCE0187960E946F35DF91F2
:10267000CF911F910895AF92BF92CF92DF92EF92C8
:10268000FF921F93CF93DF938EEEC82E85E0D82E56
:10269000D0E07601C0E014C0F50125913491412FBE
:1026A0006C2F8D2F0E94151382E0A80EB11C1F5FA6
:1026B000173091F78EE0E80EF11CCF5FCA3019F0A9
:1026C000570110E0E9CFDF5F8CE8C80ED11CD43091
:1026D00001F7DF91CF911F91FF90EF90DF90CF90A6
:1026E000BF90AF900895CF93C82F6FEF811163E231
:1026F00082E290E00E946F356FEFC11164E083E2E7
:1027000090E00E946F356FEFC11161E184E290E0CB
:102710000E946F35CF91089580E00E94731360E0AE
:1027200085E290E00E946F350E943B130E940513E2
:1027300081E00E94731308950F931F93CF93DF934B
:10274000843030F56A3020F5473010F5C42FD0E0E2
:10275000CC0FDD1F2EE0629FC00DD11D11243CE87F
:10276000839FC00DD11D1124CE0186960E945B353A
:10277000082F10E0102F0027CE0187960E945B35AE
:102780009801282BC901DF91CF911F910F910895D6
:1027900090E080E0F8CF462F7A3040F4673030F494
:1027A000843020F4672F0E949C13089590E080E00D
:1027B0000895CF92DF92FF920F931F93CF93DF93F1
:1027C0006C010091BA0280918202082BC3E0D0E034
:1027D00010E0FC2EC8010C2E02C0959587950A9436
:1027E000E2F780FD0CC02197A0F7F12C8F2DDF912F
:1027F000CF911F910F91FF90DF90CF900895B60178
:102800008C2F0E94CB130E946A0A019761F3EECFCE
:10281000CF93DF93EC010E94D913BE010E94CB132A
:102820000E946A0ADF91CF910895FC01838194810F
:10283000892B29F08081918189238F3F51F480E099
:102840000895843FE1F717C0883EA8F0813FB9F7AB
:1028500012C0808191810E94081492959F709630D9
:1028600099F358F4925F9F70923048F7803F19F0C7
:1028700040F7883E20F781E008959A5FF4CF82E226
:1028800090E00E945B35833289F483E290E00E94FD
:102890005B35843059F484E290E00E945B3591E02E
:1028A000813109F090E0892F8170089580E0FCCF9C
:1028B000CF92DF92EF92FF926B017C010E9414098C
:1028C000B701A60188E090E00E948135FF90EF906B
:1028D000DF90CF900895B0E0A0E0E1E7F4E10C9440
:1028E000B234182FC62FD42F822E0091E30300FF9D
:1028F0004CC08091E403811308C08091E5038613E6
:1029000004C08091E603841729F08091100382604F
:1029100080931003E02FE695F0E0EB53FE4F8081AB
:1029200080930E03802F8E7F8230E9F4ED2FD7390C
:1029300008F0E6E9F0E0E651FB4FC1112BC024910D
:10294000F22FE22F00FF0FC0809166019091670186
:1029500033E0839FD0011124AF5EBC4F891708F488
:102960008EC00E9424101093E403C093E503D0931B
:10297000E603882051F06091E3037091E4038091B5
:10298000E5039091E6030E945814CDB7DEB7ECE062
:102990000C94CE34EC2EF12CE4919E2ECE2ED12C24
:1029A00026E0129FC00111242FEF30E0B9010E94F0
:1029B0009834812F90E0880F991FF5E5F69FA001CC
:1029C000F79F500D1124841B950BB82EBB0CB80E2D
:1029D000A9014E195F094C9DC0014D9D900D5C9D54
:1029E000900D1124F92FCB9DA0011124452F5527BF
:1029F000D901A41BB50BAC9DA001AD9D500DBC9D94
:102A0000500D1124D901AB19B1095D01AE9CD00163
:102A1000AF9CB00DBE9CB00D1124AB2FBB272A1B61
:102A20003B0B2C9DD0012D9DB00D3C9DB00D112474
:102A30002B2F62307105A1F050F46115710509F476
:102A400081CF6130710581F0292FF52F7BCF643064
:102A5000710569F080F06630710509F473CFF4CF29
:102A60002E2FE92FFB2F6ECF2E2FE52F6BCF292F87
:102A7000FE2FEB2F67CFE92FF92D252F63CF11966E
:102A8000EC9311972C931296FC9312978F5F1396E9
:102A900065CFE3EEF3E0438121E1421B08F440E01F
:102AA00021E0628181810E946B140895E3EEF3E0DE
:102AB000438121E1420F08F44FEF21E062818181DF
:102AC0000E946B140895E3EEF3E0628121E1621B42
:102AD00008F460E021E0438181810E946B14089535
:102AE000E3EEF3E0628121E1620F08F46FEF21E091
:102AF000438181810E946B140895E3EEF3E08181AC
:102B000021E04381628188500E946B140895E3EEB6
:102B1000F3E0818121E043816281885F0E946B1430
:102B200008958091E703882319F081508093E7038B
:102B30006091E3037091E4038091E5039091E603D3
:102B40000E94581408958091E703833018F48F5F32
:102B50008093E7036091E3037091E4038091E503C0
:102B60009091E6030E94581408958091E30380FF3A
:102B70001EC0817082608093E303809110038160A6
:102B800080931003662351F06091E3037091E40396
:102B90008091E5039091E6030E94581420E0409153
:102BA000E6036091E5038091E4030E946B140895AD
:102BB000E3EEF3E080818160808360E086950E948F
:102BC000B51508958091E3038695815009F481E05D
:102BD00061E00E94B515089561E081E00E94B5159D
:102BE0000895E3EEF3E083E0808311828FEF828328
:102BF00086E983831482AEE0B3E012968C9112973B
:102C0000836012968C9360817181828193810E948E
:102C1000581408951092B5021092B6021092B7029D
:102C20001092B80283E190E00E9463356093B50290
:102C30007093B6028093B7029093B80280E066303A
:102C400018F01092B50281E0763078F01092B6025A
:102C50004091B5025091B6026091B7027091B802EE
:102C600083E190E00E94813502C08111F1CF089587
:102C700067EE7EEF90E080E00E948D3560E082E0BC
:102C800090E00E946F3560E083E090E00E946F3535
:102C90001092820260E074E184E090E00E948D3541
:102CA00060E086E090E00E946F356FEF87E090E093
:102CB0000E946F3540E050E0BA0188E090E00E9449
:102CC000813560E08DE090E00E946F3540E050E09B
:102CD000BA0188E190E00E94813560E087E190E0F0
:102CE0000E946F3540E050E0BA018CE190E00E9414
:102CF000813570E060E080E290E00E948D3540E038
:102D000050E0BA0188E190E00E94813580E00E94A5
:102D100073130E948C1340E050E0BA018FE090E002
:102D20000E9481350E940A1608959091A50292FB97
:102D3000222720F9281779F080FB92F99093A502B9
:102D40006091A4027091A50284E090E00E948D350C
:102D500082E00E94870C089590E080E00E9469352F
:102D6000873E9E4F19F40E943F14089580E0089515
:102D7000B0E0A0E0EEEBF6E10C94B7347901C82F97
:102D8000880FDD0B41155105A9F0FE0193E0EE0F10
:102D9000FF1F9A95E1F7E050FF4F818192818D5A94
:102DA0009D4F208130E04217530708F49A01A90192
:102DB0000E945235CE010E942234D82E8823D1F0B1
:102DC00001151105B9F083E0CC0FDD1F8A95E1F7FD
:102DD000FE01E050FF4F438150E00417150708F44F
:102DE000A801C050DF4F6C817D816D5A7D4FC701B6
:102DF0000E9452358D2DCDB7DEB7E7E00C94D33469
:102E0000A4E0B0E0E6E0F7E10C94BA3440917A0235
:102E100050917B0260917C0270917D022FB7F894F3
:102E20008091F6039091F703A091F803B091F90314
:102E30002FBF841B950BA60BB70B11E084369105B1
:102E4000A105B10538F10E94AF10882341F10E941D
:102E500094086E5F7F4F8F4F9F4F69837A838B8378
:102E60009C8310E000E030E020E044E050E0BE0150
:102E70006F5F7F4F82E00E94B816182F882351F0B1
:102E80000E94940860937A0270937B0280937C0284
:102E900090937D02812F2496E4E00C94D6340E9416
:102EA000940800919402109195022091960230911D
:102EB0009702600F711F821F931FCBCF8F929F923B
:102EC000AF92BF92EF92FF920F931F93CF937B012C
:102ED000942FB901A801F70180809180A280B3806E
:102EE000EFB7F8940091F6031091F7032091F803DF
:102EF0003091F903EFBF081919092A093B09043673
:102F000011052105310518F4C1E0992381F010E085
:102F100000E030E020E00E94B816C82F882339F086
:102F20000E949408F70160837183828393838C2FBE
:102F3000CF911F910F91FF90EF90BF90AF909F9016
:102F40008F900895A8E0B0E0E8EAF7E10C94BA3475
:102F500085E0E3EEF3E0DE01119601900D928A9593
:102F6000E1F780910E0390910F03A09110038E83DF
:102F70009F83A88741E08885811101C040E008E077
:102F800010E09E012F5F3F4F6BE872E086E00E94E9
:102F90005E178111109210032896E4E00C94D63449
:102FA000A1E0B0E0E6EDF7E10C94BA340E94D41051
:102FB000898341E090915F02981301C040E001E0F5
:102FC00010E09E012F5F3F4F67E872E085E00E94AE
:102FD0005E172196E4E00C94D6340F931F9341E0E2
:102FE00090915D028091BA02981301C040E001E027
:102FF00010E02AEB32E063E872E083E00E945E17A3
:10300000882389F041E090915E02809182029813BA
:1030100001C040E001E010E022E832E06EE772E03B
:1030200084E00E945E171F910F910895A1E0B0E027
:10303000ECE1F8E10C94B134762E4A0159016801B3
:1030400001E010E09E012F5F3F4F50E040E070E054
:1030500060E00E94B816182F882309F440C0F401DC
:1030600040815181628173812FB7F8948091F6037A
:103070009091F703A091F803B091F9032FBF841B3F
:10308000950BA60BB70B84369105A105B10538F455
:10309000B701C6010E94F8089981891701F18701DB
:1030A000950150E040E070E060E0872D0E94B81686
:1030B000B82EB701C6010E94F80811E09981981353
:1030C00010E01B2139F00E949408F40160837183A1
:1030D00082839383812F2196EDE00C94CD34A70158
:1030E000B601C5010E945235F5CFACE0B0E0EBE788
:1030F000F8E10C94B83486E0E82EF12C09E612E0F1
:103100009E01295F3F4F4FE852E068E087E00E9450
:103110001618882391F096E0FE013796DE0111968D
:1031200001900D929A95E1F796E0FE013196ADEF90
:10313000B2E001900D929A95E1F72C96E6E00C949E
:10314000D434A5E0B0E0E7EAF8E10C94B6346B01C2
:1031500085E0E82EF12C04E512E09E012F5F3F4F41
:1031600046E752E061E080E00E941618882349F0AB
:1031700095E0FE013196A1E7B2E001900D929A959B
:10318000E1F795E0E1E7F2E0D60101900D929A9522
:10319000E1F72596E8E00C94D2341F920F920FB617
:1031A0000F9211242F933F934F935F936F937F93CD
:1031B0008F939F93AF93BF93EF93FF938091E10021
:1031C00082FF09C08091E20082FF05C08091E1008A
:1031D0008B7F8093E1008091DA0080FF24C0809192
:1031E000D80080FF20C08091DA008E7F8093DA00C3
:1031F0008091D90080FF9DC080E189BD82E189BDB9
:1032000009B400FEFDCF81E0809307048091FA03AA
:10321000811109C00E9426070E94C7078091E20021
:1032200084608093E2008091E10080FF17C080916C
:10323000E20080FF13C08091E2008E7F8093E20065
:103240008091E20080618093E2008091D8008062EA
:103250008093D80019BC85E0809307048091E10039
:1032600084FF2BC08091E20084FF27C080E189BDEC
:1032700082E189BD89B5982F917080FFFBCF809145
:10328000D8008F7D8093D8008091E1008F7E80935D
:10329000E1008091E2008F7E8093E2008091E20065
:1032A00081608093E20080910804882309F447C07C
:1032B00084E080930704809107048091E10083FFFC
:1032C00027C08091E20083FF23C08091E100877FC7
:1032D0008093E10082E080930704109208048091BB
:1032E000E1008E7F8093E1008091E2008E7F8093E9
:1032F000E2008091E20080618093E20042E060E0C1
:1033000080E00E9495078091F00088608093F00033
:10331000FF91EF91BF91AF919F918F917F916F91AD
:103320005F914F913F912F910F900FBE0F901F9083
:10333000189519BC109207041092FA0374CF80916B
:10334000E30087FD93E090930704B5CF78941F9234
:103350001FB61F9211248F939F93AF93BF938091B9
:10336000F6039091F703A091F803B091F903019649
:10337000A11DB11D8093F6039093F703A093F8036A
:10338000B093F903BF91AF919F918F911F901FBE92
:103390001F9018959C014FB7F8948091F603909177
:1033A000F703A091F803B091F9034FBF821B930B71
:1033B00008952FB7F8948091F6039091F703A091A8
:1033C000F803B091F9032FBF08950E94D9199C0109
:1033D0009091F9028091FA02982B21F03093F0023B
:1033E0002093EF029091FB028091FC02982B21F038
:1033F0003093EE022093ED0287EF92E00E94EA08FC
:103400000895CF9310924002C6E0EAEDF1E0DF01AB
:103410008C2F1D928A95E9F790E080E00E94C50804
:1034200090E080E00E94A00810923F020E940C0FE2
:10343000E7EFF2E0DF011D92CA95E9F71092EA0288
:103440001092EB021092EC020E94E519CF910895C0
:10345000AAE2B0E0EEE2FAE10C94BB3489E094E039
:103460002091F100DC012D93CD01B4E081319B0767
:10347000B9F780910A04833009F472C0B8F481303E
:1034800009F449C0823009F4B3C08091E80083FF99
:103490008BC28091090490910A049A3008F084C28A
:1034A000E92FF0E0EF5BF94C0C9411358A3009F408
:1034B0008EC08B3009F471C0893039F780910904CE
:1034C000813219F780910D0490910E04009711F04C
:1034D0000297D9F68091E800877F8093E800809179
:1034E000E80082FF38C09091F3008091F2000297CB
:1034F00031F48091F100813011F0863021F4809117
:10350000F1008093FC038091E8008B778093E800C2
:103510000E947607BACF80910904813A09F0B5CFAD
:103520008091E800877F8093E80080910D0490915E
:103530000E04892B61F468E08DEF93E070E00E9447
:1035400022088091E8008B778093E8009ECF60E0AE
:1035500090E080E0F3CF809107048111C0CF95CF38
:1035600080910904813A09F090CF80910D049091E7
:103570000E04892B09F089CF8091E800877F809322
:10358000E8008091E80080FFFCCF80916901809382
:10359000F1008091E8008E77B9CF809109048132E3
:1035A00009F073CF80910D0490910E04892B09F0DE
:1035B0006CCF8091E800877F8093E8000E947607B7
:1035C00080910B04809369010E94011A5ECF809163
:1035D0000904813209F059CF8091E800877F8093F8
:1035E000E8000E94760780910C048093FB034DCF86
:1035F00080910904813A09F048CF8091E800877FE3
:103600008093E8008091E80080FFFCCF8091FB036D
:10361000BECF803899F0823809F0C6C180910D0480
:103620008F70873008F0C0C18093E9008091EB0073
:1036300085FB882780F91092E90006C08091050477
:1036400090910604911182609091E800977F909389
:10365000E8008093F1001092F1008091E8008E77ED
:103660009FC1882309F48DC1823009F09DC18091EA
:103670000B04811190C180910D048F702FEF280FE2
:10368000263008F091C18093E9002091EB0020FFE3
:1036900082C1933031F48091EB0080628093EB0023
:1036A0007AC19091EB0090619093EB0021E030E0C3
:1036B00001C0220F8A95EAF72093EA001092EA00EF
:1036C0008091EB008860EACF81116EC110910B04EC
:1036D0001F778091E3008078812B8093E3008091B5
:1036E000E800877F8093E8000E9476078091E800D9
:1036F00080FFFCCF8091E30080688093E30082E04C
:10370000111183E0809307044FC18058823008F084
:103710004BC120910B0430910C042C3DE3E03E079B
:10372000A1F583E08A838AE289834FB7F894DE01AA
:10373000139620E03EE051E2E32FF0E05093570073
:10374000E49120FF03C0E295EF703F5FEF708E2F92
:1037500090E0EA30C0F0C7968D939D932F5F24319F
:1037600059F74FBF8091E800877F8093E8006AE2B5
:1037700070E0CE0101960E9422088091E8008B77CC
:103780008093E80011C1C096E7CF80910D0490911D
:103790000E04432F55274330510509F44AC078F5EC
:1037A0004130510509F47AC08BE590E0EEE1F8E094
:1037B0004230510509F0F8C02091E800277F20939E
:1037C000E80020910F04309110048217930708F449
:1037D0009C0140E02115310509F065C0411163C02D
:1037E0008091E80082FDC9CF80910704882329F2E7
:1037F000853019F28091E80083FFF2CFBECF4132CD
:10380000510509F43CC04232510509F0CDC0833066
:10381000910508F0C9C0FC01EE0FFF1FE653FE4FF3
:103820000190F081E02D89539E4FDC018C9190E056
:103830001AC0332721303105D1F02115310561F04F
:103840002230310509F0B0C0EBE8F8E0E4918E2FAA
:1038500090E0EBE8F8E007C0E9ECF8E0E4918E2FA7
:1038600090E0E9ECF8E0009709F49EC0A5CFEFEAFC
:10387000F8E0E4918E2F90E0EFEAF8E0F4CF8330A7
:10388000910508F091C0880F991FFC01E053FE4F8D
:103890000190F081E02D89E090E08ECF82E190E010
:1038A000E9E7F8E089CF80910704882309F465CF20
:1038B000853009F462CF8091E80083FD5ECF80916E
:1038C000E80082FD8DCF8091E80080FF83CF90914A
:1038D000F3008091F2002115310519F0883091052F
:1038E00050F041E0089709F040E08091E8008E77C1
:1038F0008093E8006FCF44914093F10031962150BE
:1039000031090196E8CF803809F04EC08091E80077
:10391000877F8093E800809108048093F1009DCE1A
:10392000811142C010910B041230F0F58091E80033
:10393000877F8093E800109308040E947607112384
:1039400011F084E005C08091E30087FDFACF81E0AB
:103950008093070442E061EC81E00E94950742E217
:1039600061EC84E00E94950742E261EC82E00E94F3
:10397000950742E260EC83E00E949507809107047E
:1039800013C080910B04813079F481E0933009F009
:1039900080E0809306041092E9008091E800877F20
:1039A0008093E8000E9476078091E80083FF0AC0B8
:1039B0008091E800877F8093E8008091EB0080622F
:1039C0008093EB00AA96E3E00C94D7341F920F92F9
:1039D0000FB60F9211242F933F934F935F936F93E2
:1039E0007F938F939F93AF93BF93CF93DF93EF9387
:1039F000FF93D091E900DF708091EC00C82FC17077
:103A000080FDC0E81092E9008091F000877F8093EC
:103A1000F00078940E94281A1092E9008091F0003A
:103A200088608093F000CD2BCF70C093E900FF91A8
:103A3000EF91DF91CF91BF91AF919F918F917F9146
:103A40006F915F914F913F912F910F900FBE0F900B
:103A50001F9018950E94011A2FEF84E39CE02150DB
:103A600080409040E1F700C0000088E19AE00FB686
:103A7000F894A895809360000FBE90936000FFCFEC
:103A8000662309F472C08D3C41F40E944C09819573
:103A90008093FA020E94E51908958E3C19F40E9461
:103AA0004C09F6CF8F3C31F40E944C0981958093EC
:103AB000F902F0CF803D19F40E944C09F8CF893DFE
:103AC00029F40E942A098093FB02E4CF8A3D21F465
:103AD0000E942A098195F7CF8B3D31F40E942A0973
:103AE00081958093FC02D6CF8C3D19F40E942A095F
:103AF000F8CF9FE2980F983020F5282F215D330BE7
:103B0000A90121E030E001C0220F4A95EAF7909127
:103B1000F802922B9093F802815D21E030E0A90138
:103B200002C0440F551F8A95E2F7CA012091040391
:103B3000662309F493C0822B809304030E94EB0E4A
:103B400008958D3D31F48091EC0281608093EC0208
:103B5000A1CF8E3D21F48091EC028260F7CF8F3DA2
:103B600019F58091EC028460F1CF9091F9028D3CBF
:103B700059F42091FA0227FF0DC01092FA02911118
:103B80000BC01092EA0208C08E3CB1F42091FA02F8
:103B900012169CF39923B1F09091FB022091FC0244
:103BA000922B11F41092EB02482F415D550B4830D7
:103BB000510508F4B1CF6ECF8F3C39F497FFEACFAF
:103BC0001092F9029091FA02DACF803D19F4191699
:103BD000BCF3E0CF2091FB02893D29F41216D4F604
:103BE0001092FB02D7CF8A3D19F427FFD3CFF8CF2D
:103BF0002091FC028B3D29F427FFCCCF1092FC02D0
:103C0000C9CF8C3D19F41216CCF3C4CF2FE2280F84
:103C1000283088F4282F215D330BA90121E030E002
:103C200001C0220F4A95EAF720953091F80223232C
:103C30002093F802AFCF2091EC022E7F8D3D59F0FA
:103C40002091EC022D7F8E3D31F08F3D09F0A2CF07
:103C50002091EC022B7F2093EC029CCF8095822355
:103C60006BCF882309F456C0823879F40E94D410AF
:103C700081FF50C089E30E94A20B0E940C0F89E3D0
:103C80000E94950B0E940C0F0895833859F40E94EE
:103C9000D41080FF3FC083E50E94A20B0E940C0F4E
:103CA00083E5EECF843859F40E94D41082FF32C0ED
:103CB00087E40E94A20B0E940C0F87E4E1CF9CEFE7
:103CC000980F913AE8F290E2980F983050F487708C
:103CD00091E001C0990F8A95EAF7892F0E948E0B17
:103CE000D1CF9BE5980F933028F490E080E00E94BC
:103CF000C508089598E5980F9B3128F490E080E07E
:103D00000E94A008089593E3980F933118F460E09F
:103D10000E94401D0895CF93C82F8823C9F0823890
:103D2000C9F40E94D41081FD13C089E30E94A20B44
:103D30000E940C0F2FEF87EE93E0215080409040BF
:103D4000E1F700C0000089E30E94950B0E940C0F70
:103D5000CF9108958338A1F40E94D41080FDF8CF4C
:103D600083E50E94A20B0E940C0F2FEF81EE94E0DE
:103D7000215080409040E1F700C0000083E5E4CF8F
:103D80008438A1F40E94D41082FDE2CF87E40E941F
:103D9000A20B0E940C0F2FEF81EE94E02150804087
:103DA0009040E1F700C0000087E4CECF8CEF8C0F8D
:103DB000813A68F4EAEDF1E08191C817E9F121E078
:103DC000E03EF207C9F78C2F0E94A20BBFCF80E222
:103DD0008C0F883068F4C77021E030E001C0220FFA
:103DE000CA95EAF780914002822B80934002AECFC1
:103DF000EBE5EC0FE33040F4F0E0E659FE4F808154
:103E000090E00E94C508A4CFE8E5EC0FEB3150F438
:103E1000F0E0EE0FFF1FE359FE4F808191810E9479
:103E2000A00896CF83E38C0F833108F091CF61E037
:103E30008C2F0E94401D8CCF8C2F0E94950B0E94CE
:103E40000C0FC1CF1F93CF93DF93182FD0E0C0E0AA
:103E5000893311F4C0E5D0E0812F0E948B1E20979A
:103E600039F4812F0E94311EDF91CF911F91089567
:103E70008FE99FE00197F1F700C000002197EFCF95
:103E80000F931F93CF93DF93C62FD42F022FFC01E4
:103E900082818823A9F0609313040E94D91990931A
:103EA000120480931104C77081E001C0880FCA9585
:103EB000EAF70E94500FDF91CF911F910F91089563
:103EC00080911304681332C0809111049091120400
:103ED0000E94CA19883C910548F510E21D0FCD17C4
:103EE000B9F080E28C0F883040F4C77081E001C0E7
:103EF000880FCA95EAF70E94490F183048F481E00C
:103F00009D2F977001C0880F9A95EAF70E94500F75
:103F1000802F0E94221F183070F6D77081E001C0F8
:103F2000880FDA95EAF70E94490FC5CFC77081E084
:103F300001C0880FCA95EAF7F6CFA8E0B0E0E3EA3F
:103F4000FFE10C94AE348C01DC0113968D919C91B1
:103F50001497892B39F08C9111969C9189238F3F6E
:103F600009F0F3C52896E0E10C94CA340E94D913F5
:103F7000F82E682F89819A810E94190C69817A81B3
:103F80008F2D0E94CB137C01F8018281882309F4D4
:103F90003BC1970137572038310508F02DC6FFE0A7
:103FA000FE1508F489C08FEF93E00E945B35811104
:103FB00083C0E6E5AE2EE2E0BE2EE11047C0FE0172
:103FC000339686E0DF011D928A95E9F77AE0472E65
:103FD0007501BFEFEB1AFB0AC5010E945B358983AF
:103FE0001A82882309F468C0813009F078C065011D
:103FF000E2E0CE0ED11CC7010E945B358A83882384
:1040000009F45AC09FEF980F933070F5F3E0AF0EAC
:10401000B11CC6010E945B358B83882309F44CC018
:104020001C82DE0111967D01F7012081222381F29D
:10403000213009F094C091818281913009F051C002
:10404000F2E0EF0EF11C0E94221F52C0A11424E0E6
:10405000B20691F1C5010E945B35811101C0EA945D
:104060003FEFA31AB30AA9CF56018430D1F662E01C
:10407000E62EF12C56012FEFA21AB20AC6010E94B9
:104080005B35E1E0F0E0EC0FFD1FEE0DFF1D8083DE
:10409000882391F08C3741F4E2E0F0E0EC0FFD1F53
:1040A000EE0DFF1D1082BDCF3FEFE31AF30A65014D
:1040B00087E0E816F104F1F680913602877009F482
:1040C00051CFD80112968C91882309F44BCF80915F
:1040D000A50282FF47CF82E00E94870C43CF5701A1
:1040E000A0CF923049F422E0E20EF11C0E948B1E18
:1040F000EFEFEE1AFE0A98CF933031F432E0E30E80
:10410000F11C0E94311EF4CF943021F08FEFE81A99
:10411000F80AEECF92E0E90EF11C30E020E0B701A2
:104120006F5F7F4FD70111964C918053990B8A3066
:10413000910550F021503109D8F2EFE9FFE03197B5
:10414000F1F700C00000F6CF429EF001439EF00D53
:1041500011249C012E0F3F1F842F7B01E0CFE22F03
:10416000F0E0E754FE4F5490822F86958695869511
:1041700090E0FC01E755FE4F64902770712C022EF1
:1041800002C0759467940A94E2F731E063227724C1
:10419000FC01E756FE4F8490912C022E02C09594AC
:1041A00087940A94E2F7A1E08A229924FC01E75758
:1041B000FE4FC490D12C02C0D594C7942A95E2F743
:1041C000B1E0CB22DD246114710419F081EE0E946C
:1041D0008B1E8114910419F086EE0E948B1E852D92
:1041E0000E94221F8114910419F086EE0E94311E54
:1041F0006114710419F081EE0E94311EC114D104C2
:1042000009F476CF8CE21FCFF701FE57E930F105B4
:1042100008F0C7C0E55BF94C0C94113561E083E010
:1042200090E00E946F3581E00E94AF0C45CF88235B
:1042300021F081E00E94A30C03C081E00E947A0C6F
:1042400043E062E081E00E945A0C36CF882311F0EF
:1042500082E0F0CF82E0F2CF882321F083E00E9459
:10426000A30C2ACF83E00E947A0C26CF882359F032
:104270000E94F1158091E30381608093E30361E084
:1042800086950E94B515D80112968C91882309F461
:10429000A5C410921304C7019057839708F089C4EE
:1042A00084E090E00E9469359093A5028093A40277
:1042B000F701E150F047E232F10508F09BC0EC5AFB
:1042C000F94C0C941135882309F4F6CE8091B5028F
:1042D00090E0019666E070E00E9498348093B50209
:1042E0004091B5025091B6026091B7027091B80248
:1042F0008FE090E00E948135E091B502F0E0EE0F92
:10430000FF1FEF54FE4F808180935401809353012F
:104310004091B5025091B6026091B7027091B80217
:1043200083E190E00E948135C7CE882309F4C4CE92
:104330008091B60290E0019666E070E00E949834A9
:104340008093B6024091B5025091B6026091B702D7
:104350007091B8028FE090E00E948135E091B60242
:10436000F0E0EE0FFF1FEF54FE4F8081809352016B
:1043700080935101CDCF882331F08091B90291E033
:1043800089278093B9021092E1011092E00194CE46
:104390008823C9F38091B40291E089278093B40205
:1043A000F2CFF701E851FC47E730F10508F06BCF99
:1043B000EA58F94C0C94113526E241EE61EEC80141
:1043C0000E94401F79CE27E245EE65EEF8CF26E247
:1043D00041EE60EEF4CF27E245EE64EEF0CF26E248
:1043E00041EE62EEECCF27E245EE66EEE8CF28E242
:1043F00041E0EBCF8091A40281608093A40295C03C
:104400008091A50288608093A5028FC08091A4024C
:104410008260F3CF8091A4028460EFCF8091A402E8
:104420008860EBCF8091A5028160EDCF8091A502DD
:104430008260E9CF8091A4028061DFCF8091A402E5
:104440008062DBCF8091A4028064D7CF0E94011AE2
:104450008091A4028068D1CF8091A4028C60CDCFDE
:104460008091A5028360CFCF8091A4028E7FC5CFBB
:104470008091A502877FC7CF8091A4028D7FBDCF99
:104480008091A4028B7FB9CF8091A402877FB5CFA2
:104490008091A5028E7FB7CF8091A5028D7FB3CF8B
:1044A0008091A4028F7EA9CF8091A4028F7DA5CF99
:1044B0008091A4028F7BA1CF0E94011A8091A40257
:1044C0008F779BCF8091A402837F97CF8091A502A5
:1044D0008C7F99CF8091A40282FB992790F921E0EB
:1044E000922790FB82F990FB83F987CF8091A502F8
:1044F000982F909591708E7F892B90FB81F983CFB7
:104500009091A402892F8F7B96FF806476CF0E94C2
:10451000011A9091A402892F97FB87F980586DCFDB
:1045200061E08EE090E00E946F356091A40270918E
:10453000A50284E090E00E948D350E94011ABCCD56
:1045400060E0EFCF9091A402892F8F7E94FF80616D
:1045500054CF9091A402892F8E7F90FF81604DCF20
:104560009091A502892F877F93FF88604CCF85E3C8
:1045700030C385E33EC3809140028272F701E0526E
:10458000F847E531F10508F05CC0E358F94C0C94AC
:1045900011358091E30380FF15C08E7F8093E30384
:1045A0006091E3037091E4038091E5039091E60349
:1045B0000E945814809110038160809310030E9420
:1045C00024107ACD81608093E30361E086950E9498
:1045D000B51572CD42EE55E16CEE75E10E940E0903
:1045E0006BCD4CEE55E162EE75E1F8CF4DE755E14C
:1045F00067E875E1F3CF47E855E16DE775E1EECF88
:1046000043E655E160E775E1E9CF40E755E163E650
:1046100075E1E4CF49E455E166E575E1DFCF46E5B4
:1046200055E169E475E1DACF41E955E163EA75E105
:10463000D5CF43EA55E161E975E1D0CF61E081E092
:10464000C6CFB7E7EB16BCE7FB0609F4F6CDE8E703
:10465000EE16ECE7FE0609F4FDCDF8018281E0805C
:10466000F180882309F47CC0C7010E94D913D82E99
:10467000682FC7010E94190CB7018D2D0E94CB1322
:104680000E946A0A7C01882ED8011296DC9012974B
:104690001596BC90B2943FE0B322809136028770A9
:1046A000F1F0AD2CDD20E1F08F2D807F803451F0D2
:1046B00080E28E0D883098F0B11004C08F2D807E7E
:1046C000803269F08091A50282FF09C082E00E94D9
:1046D000870C809136028770AA24A3948111A12CA3
:1046E0009F2C92942FE09222BBE0B91508F4A7C04A
:1046F000E92DF0E0EE56F94C0C9411359BE5E916E6
:104700009CE7F90659F1ACE5EA16ACE7FA06E1F0E8
:10471000BAE5EB16BCE7FB0609F09FCF81E01BC0B2
:104720000E94011AEFEFF4E32CE0E150F04020404A
:10473000E1F700C000000E9483086FEF7FEF90E078
:1047400080E00E948D3533C28091A50282FB8827CC
:1047500080F991E089270E9495167FCF80E0FBCFFA
:10476000C7010E94E50BD82E87CFEF2DEF70CE2E1C
:104770008F2D807F19F0C29490EFC922DD20B9F00F
:10478000CC2069F080E28E0D883010F0811009C0D5
:1047900080914002C82AC09240020E940C0F8E2DC8
:1047A0004CC080913F02C82AC0923F02F6CF8E2DA6
:1047B0000E94311ECC2009F442C080E28E0D883068
:1047C00010F0811004C08C2D0E948E0B06C0C09486
:1047D00080913F02C822C0923F020E940C0F2FC05E
:1047E000FF2DFF70CF2E8F2D807F803219F0C29465
:1047F00080EFC822882089F021E0821609F46CC07D
:10480000DD2009F476C0BB2009F46CC0F801858175
:1048100080FFC5CF8F70858365C02091A50222FDE2
:1048200034C0DD2061F1CC2039F080914002C82AEB
:10483000C09240020E940C0F80E00E948B1EA92DA6
:10484000A850BB0B149710F40E94D410AA2009F4AE
:1048500089CB8091360280FD85CBF8011282859547
:10486000859585950E94A30CC8010E949D1F80918B
:1048700036028595859585950E947A0C73CB80E0EC
:104880000E94311ECC20D9F29ECFDD2099F090916C
:104890004102892F8C29B11003C00E94500FCFCF45
:1048A00031E0B312FACF22FFCACF981741F28093BA
:1048B0004102C5CFB11006C00E94880B8C2D0E940A
:1048C000490FBDCF81E0B81609F4B9CF8C2D0E94F5
:1048D000490F0E94880BB3CFDD2031F095E09B1586
:1048E00008F4ADCF8C2DD9CFA4E0AB1508F4A7CF39
:1048F000E5CFBB2019F3F9E38F1209C02FEF37EE94
:1049000083E0215030408040E1F700C000008E2D50
:104910000E94311E94CF8F2D86958695837061F00D
:10492000813009F08CCFC7019370D11002C080E0B4
:1049300090E00E94A00883CFC7019370D11002C0FD
:1049400080E090E00E94C5087ACF6D2D8E2D0E94E8
:10495000401D75CF8F2D837091F5D11070CF4E2DE6
:10496000429546954770440F440F8E2D8F70042E4C
:1049700001C0880F0A94EAF72E2D2071E4FE07C0CB
:104980002FE030E001C0220F4A95EAF720953F2D35
:10499000369536953370323069F050F4409182028A
:1049A000313029F0822B84230E94AF0C48CF842B16
:1049B000822BFACF282B809182028227F5CF869511
:1049C000DD2011F08F2D8170882309F438CF4E2D12
:1049D000429546954770440F440F8E2D8F70042EDC
:1049E00001C0880F0A94EAF72E2D2071E4FE07C05B
:1049F0002FE030E001C0220F4A95EAF720953F2DC5
:104A0000369536953370323069F050F44091BA02E1
:104A1000313029F0822B84230E94500C10CF842B3C
:104A2000822BFACF282B8091BA028227F5CF9F2DB7
:104A30009F70F92EDD2029F0892F0E94A30C8E2D66
:104A40002CCF8E2D0E94490F8F2D0E947A0CF7CE0D
:104A50008E2DA2EF8A16B1F1A81570F0B0EF8B166B
:104A6000D1F0E1EF8E1691F0DD2009F45EC0B110B7
:104A700096CE8F2D8F712AC0F3EF8F1651F124EF50
:104A80008212F2CF8091A50282FD2FC08F2D8F71EF
:104A9000DD20D9F21BC0DD2081F034E03B1508F4A5
:104AA000CECE2F2D2F7181E090E001C0880F2A9586
:104AB000EAF79091BA028927AFCF85E08B1508F409
:104AC000BECEEFCF8F2D8F71D110BFCF0E94A30C20
:104AD000B6CE80E0DD2009F49FCF9F2D9F7181E04D
:104AE00001C0880F9A95EAF797CFDD2099F09F2DA6
:104AF0009F71F92E892F0E94A30C8091A50282FF3D
:104B000007C0A8E0FA9EC00111248360809336029A
:104B10008F2DDCCF81E00E94870CB1E0BB1508F03F
:104B20008ECE82E00E94870C8ACEBB2059F089335A
:104B300009F0EDCEEFEFF7EE23E0E150F04020403A
:104B4000E1F7E3CE8F2D8F7180CF85E0F801DE0194
:104B5000119601900D928A95E1F7D80112962C9149
:104B600089819A81211102CA0E94E50BF82E06CA9A
:104B7000B7E7EB16BCE7FB0609F45BCBE8E7EE16FC
:104B8000ECE7FE0609F464CBF3E0EF16FCE7FF0662
:104B900009F4D3CD08F0B2CDE1143CE7F30609F4F3
:104BA000BFCD81E0E8168CE7F80609F056CD0E94EB
:104BB0002A1DF6E1EF16FCE7FF06D1F680914002D0
:104BC0008A7A91E009F490E09093E2018111CFCCD0
:104BD00089E20E94A20B0E940C0F6ECA26E1E21627
:104BE0002CE7F20609F0C7CC8091E2018111C1CC1B
:104BF00089E20E94950BEFCFF701FE57E930F105EE
:104C000008F0CFCBE256F94C0C9411351F93CF939B
:104C1000DF9380910302807F09F04BC080910002F6
:104C2000882309F446C080913502C0910402409166
:104C3000FE015091FF016091010270910202D42F98
:104C4000D52316E0C817A9F190E061157105A9F107
:104C5000DF3F99F1189FF001199FF00D1124DF013A
:104C6000AB5FBD4F11962C911197251326C02C9147
:104C7000241323C012962C91129721111EC0139653
:104C80002D913C91261B370B283C3105B0F48091C7
:104C900003028F70806180930302E65FFD4F808185
:104CA0008F70806180838EEF91E00E949D1F0E9433
:104CB000DB0BDF91CF911F91089501968770C2CFD2
:104CC000A1E1B0E0E6E6F6E20C94B2348C0185E0B6
:104CD000F801DE011D9601900D928A95E1F7F80129
:104CE000E2808EEF882E81E0982E40910102509153
:104CF00002024115510509F430C19091FE01209145
:104D0000FF01892F82238F3F09F427C1D080C18002
:104D1000A380B480F0900002B501641B750BFF20E6
:104D200009F4E7C080910302382F307F683C710599
:104D300008F0ABC0311178C0FE2C2C1114C09D11AD
:104D400012C0E11010C08F70806180930302C40113
:104D50000E949D1F80910302F80185838F2D61962B
:104D6000ECE00C94CE34A114B104C9F18D2D8C214A
:104D70008F3FA9F181E08E2580FF05C04E2D6C2D5F
:104D80008D2D0E94BB0BA114B10459F18D2D8C21E6
:104D90008F3F39F181E08E25F82FF170BF2E80FF13
:104DA00039C04E2D6C2D8D2D0E94BB0BA82E81116C
:104DB00031C0DD86CE868D859E850E940814292F00
:104DC00022952F70243078F49F702230A8F0992318
:104DD000B9F0F8019581907F99F4FA2CBFCF80E06B
:104DE000CBCF80E0D9CF2A5F2F70223068F0C80186
:104DF0000E949D1FAB2CF1CF992311F0882369F3FA
:104E0000805E883050F3F3CF803F38F3815F83308A
:104E100070F7E3CFEE2009F4A1CF80910302816007
:104E200080930302F12C9ACF2C1105C09D1103C071
:104E3000EE2009F477C0C8010E941514882309F1F7
:104E4000EE20F9F080910302803270F02091FE0193
:104E50003091FF0138872F831986BB86AA868C87FD
:104E6000CE0107960E949D1F86E0F801AEEFB1E0EB
:104E700001900D928A95E1F70E940626FF24F39493
:104E80006DCFC8010E949D1FF9CF31110AC08EEF6E
:104E900091E00E949D1F86E0F40111928A95E9F746
:104EA000C1CF2C110EC09D110CC0E1100AC085832A
:104EB000C8010E949D1F86E0F40111928A95E9F7CE
:104EC0004DCFC8010E9415148823D9F2EE20C9F2F3
:104ED00080910302803240F22091FE013091FF0167
:104EE0003A8329831B82BD82AC828E83CE010196D8
:104EF000B9CF683C7105F8F6FE2CEE2011F22C11AA
:104F00001EC09D111CC08091030280FD0FC0982F10
:104F1000907F61F08583903F31F0982F907F905F74
:104F20008F70892B8583C8010E949D1F86E0F80140
:104F3000AEEFB1E001900D928A95E1F70FCFC80175
:104F40000E941514811190CF80910302816080939B
:104F50000302C8010E949D1F01CFEE2009F491CFEA
:104F6000C8010E941514F82E882309F48ACF86E020
:104F7000F801AEEFB1E001900D928A95E1F78091D2
:104F8000FE019091FF010E9408140E940626E6CEC1
:104F9000A7E1B0E0EEECF7E20C94BB344B8B5C8BFA
:104FA0006D8B7E8B8F8B611110923F021A8A198A4A
:104FB00085E0FE017396DE011D9601900D928A95A3
:104FC000E1F786E0FE013D96DE01179601900D9215
:104FD0008A95E1F7CE0107960E946026882359F052
:104FE00016E08091350290910402891343C06796C0
:104FF000E3E00C94D73486E0FE013796DE0111968B
:1050000001900D928A95E1F78A859B85892B41F362
:105010008F81988589238F3F19F32091040230E016
:10502000C9010196877099274091350248171906E2
:1050300071F40E94011A109204021092350286E067
:10504000EEEFF1E0DF011D928A95E9F7C9CF96E016
:10505000929FD001939FB00D1124AB5FBD4FFE0115
:10506000319601900D929A95E1F7809304020E9487
:10507000DB0BB6CF819FC00111248B5F9D4F0E9437
:105080006026882309F4B3CF8091350290E0019621
:105090008770992780933502A4CFA9E1B0E0E3E5BA
:1050A000F8E20C94B1348E010F5F1F4F8AE0D801F3
:1050B0001D928A95E9F785EAC82E81E0D82EF12C59
:1050C000E12CAA24A394B12C21EB822E21E0922E74
:1050D000F60181916F018F3F09F442C0F894E82FE7
:1050E000E295EF70F0E021A18F70A50102C0440F9E
:1050F000551F8A95E2F7CA01922F982B91A392A18E
:105100008095892382A3789400C0EAEAF1E0712CAB
:1051100031E021912F3F09F46BC0A22FA295AF700F
:10512000B0E090968C9190E02F7002C09595879595
:105130002A95E2F780FD5CC0832F782A330F8E1604
:105140009F0639F7F601319780818F3F11F00E9459
:105150006E0950EA5A95F1F7F801EE0DFF1D7082C5
:105160008FEFE81AF80AA5E0EA16F10409F0B0CFCB
:105170004AE050E0B80188E992E00E944535009786
:1051800041F02AE0F801A8E9B2E001900D922A95D9
:10519000E1F70091A302892B69F181E08093460237
:1051A0000E94D91990934502809344028091440251
:1051B000909145020E94CA19059700F110E0005233
:1051C0001D4F45E050E068E972E0C8010E94453596
:1051D000D12C892B51F085E0E8E9F2E0D80101906B
:1051E0000D928A95E1F7DD24D3941092460207C010
:1051F00080E0A3CF809146028111D8CFD12C0E94AC
:10520000AF10C82EE091A302882309F492C07E015A
:10521000BBE0EB0EF11C85E0D7011D928A95E9F702
:105220000E2F10E000521D4F809193028A3008F03B
:105230004DC041EA58E1B701C8010E947C108823A3
:1052400009F466C040E057E1B701C8010E947C1034
:10525000882309F45DC04DEE57E1B701C8010E94F3
:105260007C10882309F454C040ED57E1B701C80110
:105270000E947C10882309F44BC042EA57E1B70131
:10528000C8010E947C10882309F442C045E758E118
:10529000B701C8010E947C108823D1F110929302BB
:1052A0008091A20290E045E050E0B70180529D4F0E
:1052B0000E94453521E020935102892BE1F4C12C55
:1052C0008C2D8D296996EDE00C94CD3480914702A8
:1052D000909148020E94CA19843F914008F0A9CFDA
:1052E00080915102882359F385E0F70111928A9544
:1052F000E9F710925102A091A202B0E0A052BD4F76
:1053000085E0FE013B9601900D928A95E1F7D8CF9A
:10531000809193028F3F31F08F5F809393028A30A8
:1053200008F4BECF0E94D919909348028093470297
:10533000D7CFF0E0E052FD4F85E0A4E5B2E0019068
:105340000D928A95E1F765E070E084E592E00E94B5
:10535000F808809353028090590290905A02A090CE
:105360005B02B0905C0280914D0290914E02A09140
:105370004F02B091500288169906AA06BB06D1F0DA
:1053800080924D0290924E02A0924F02B092500233
:105390000E94AF1081110EC00E949408861A970ACD
:1053A000A80AB90A8092940290929502A09296025D
:1053B000B092970280915D028093BA0280915E0262
:1053C0008093820280915F028093EE0388E0E0E6A2
:1053D000F2E0DE011B9601900D928A95E1F7809133
:1053E0006002869500916102F0906202E090630293
:1053F00010916702109267021123A9F010FF0BC0F1
:105400009B8590FF61C09091E30391609093E303CB
:1054100060E00E94B51511FF06C020E04E2D6F2DF3
:10542000802F0E946B144091490250914A02609172
:105430004B0270914C022FB7F8948091F603909133
:10544000F703A091F803B091F9032FBF841B950BCC
:10545000A60BB70B0A97A105B10508F431CF0E943E
:1054600094086093490270934A0280934B02909390
:105470004C0289E0E8E6F2E0DE011B9601900D9215
:105480008A95E1F7FE01749686E0DF011D928A9508
:10549000E9F74C895D896E897F89888D998D0E9495
:1054A000CA122C873D874E875F87688B798B66E0B1
:1054B00070E0CE010C960E94F8088B8789E0FE010F
:1054C0003B96A8E6B2E01FCF0E946F10A4CFA5E0E4
:1054D000B0E0EDE6FAE20C94BA340E94D9198C01DE
:1054E000809142029091430280179107A1F08FEFC3
:1054F00089838A831B820E94D9198160782F9D83BA
:105500008C8349815A816B818D810E94C8271093B9
:105510004302009342022596E4E00C94D6341F9295
:105520001FB61F9211248F939F93AF93BF938091C7
:10553000F503811113C08091F6039091F703A091B8
:10554000F803B091F9034196A11DB11D8093F603B4
:105550009093F703A093F803B093F903BF91AF9131
:105560009F918F911F901FBE1F901895CDB7DEB7EA
:10557000A7970FB6F894DEBF0FBECDBF85B7806882
:1055800085BF85B7806885BF84B7877F84BF0FB626
:10559000F894A895809160008861809360001092D3
:1055A00060000FBE80E890E00FB6F8948093610031
:1055B000909361000FBE8CE699E09093D7018093A1
:1055C000D6010E9426070E94C7078091E2008460EE
:1055D0008093E2007894809107048823A1F01091D1
:1055E000E9001F709091EC00892F817090FD80E898
:1055F000182B1092E9008091E80083FD0E94281A80
:105600001F701093E90082E084BD93E095BD9AEF8E
:1056100097BD80936E0010929402109295021092A2
:105620009602109297020E943F14811102C00E94BC
:105630008C130E94AF1080935001809150018823F9
:1056400009F472C01092640183E2809365010E94A4
:10565000AF1081110E94363380915001809150012A
:1056600095E0811190E09093A30285E0891B8093DF
:10567000A20205EA11E0D8018D918D018F3F11F052
:105680000E946E09B1E00A3A1B07A9F70AEA11E085
:10569000F80181918F018F3F11F00E946E09F1E0B6
:1056A000013B1F07A9F78AE0E0EEF2E0DF01082FD7
:1056B0001D920A95E9F7E8E9F2E0DF011D928A956B
:1056C000E9F70E940A160E94AC16811102C00E94DE
:1056D000381682E090E00E945B358093A90284E056
:1056E00090E00E9469359093A5028093A4020E94E5
:1056F0004D28EFE3FCE93197F1F700C000000E946C
:105700004D280E94AF10E4E08111E0E0F0E0E052AB
:10571000FD4F808181FF0CC06FEF7FEF90E080E054
:105720000E948D350E94830883E2809364018DCFAF
:1057300083E090E00E945B350E94AF0C0E94AF10A6
:10574000882309F412C183E08093DB0280FD0FC13E
:1057500080E8809314040E94F0316DE070E08CE4E6
:1057600092E00E945A0F892BE9F58091DB0263E0F9
:1057700070E081FDFEC089E492E00E945A0F892BFF
:1057800089F56DE070E089E392E00E945A0F892B61
:1057900049F50E949408605A75418F4F9F4F60935E
:1057A000E8037093E9038093EA039093EB03E7E146
:1057B000F4E080E092E0DF018C011D920150104086
:1057C000E1F7F0931E06E0931D068FEF9FEF909395
:1057D00016048093150481E08093ED038093EC031D
:1057E0001092DC028091A602811136C00E94AC1694
:1057F000811104C00E9438160E94F11588E090E0E3
:105800000E9463356093E3037093E4038093E503A0
:105810009093E603809110038360809310036E7F62
:1058200071F40E94F11588E090E00E946335609366
:10583000E3037093E4038093E5039093E6030E94EF
:1058400014098091E30380FF04C060E086950E9404
:10585000B51581E08093A6020E94AF10811102C0AD
:105860000E9439330E945A1283E190E00E9463350E
:105870006093B5027093B6028093B7029093B8021A
:10588000E62FF0E0EE0FFF1FEF54FE4F8081809374
:10589000540180935301E72FF0E0EE0FFF1FEF5408
:1058A000FE4F8081809352018093510185E591E004
:1058B0009093F2038093F103FF24F394662463949E
:1058C0008091070400E112E1853009F49EC00E9436
:1058D0004D280AEA12E080EEC82E82E0D82E24EB92
:1058E00032E0D601F80191918D912E173F0709F40E
:1058F0009FC09817C1F30E94AF10782EE12CD601FB
:10590000BD906D01F80181908F018B1429F18B24DA
:10591000A12C99249394882D8921B1F07720A1F0AE
:10592000A9A2EAA291E08B2D892109F490E09BA322
:105930000E94D9198160782F9DA38CA349A15AA1F7
:105940006BA18DA10E94C827A394990CF7E0AF1218
:10595000E2CFF8013197B082E3942AE0E212CFCF90
:105960000E949408EE24E39468C080E0EDCE80E2CB
:10597000F0CE86E492E001CF80910704843009F4F0
:1059800035C08091A802811109C06092A80280915F
:10599000E30381708093A7020E946F100E94840F1E
:1059A0000E94E8101092F50328E130E040E40FB6C1
:1059B000F894A895209360000FBE4093600083B7D1
:1059C000817F846083BF83B7816083BF789488952B
:1059D00083B78E7F83BF0FB6F894A895809160003F
:1059E000886180936000109260000FBE8091060471
:1059F000882359F00E944D28E0EEF2E08191811158
:105A0000C6C482E0EA3EF807C9F7809107048530F2
:105A100009F4B2CF0E94011A0E94D4101092A80279
:105A20008091A702882309F452CF0E94D8154FCF46
:105A3000981361CF0E94672AE12C0E94AF108091D9
:105A4000ED03882309F494C08091DD029091DE0279
:105A50000E94CA19C29708F468C00E94D91990938D
:105A6000DE028093DD0287E194E090931E0680932E
:105A70001D060E94AF10882309F4A5C18FED92E0A6
:105A80000E94DD0E8091BA020E94B20C813009F4AE
:105A900079C1882349F0823009F477C1833009F451
:105AA00077C181EC92E002C089ED92E00E94DD0EA8
:105AB00081EB92E00E94DD0E0E94D410182F85EA3F
:105AC00092E010FF02C08BEA92E00E94DD0E89E9AD
:105AD00092E011FF02C08FE992E00E94DD0E8DE797
