:100000000C9407070C9424070C9424070C94D83202
:100010000C9424070C9424070C9424070C942407B4
:100020000C9424070C9424070C945F180C94781CEF
:100030000C94D8290C9424070C9424070C942407BE
:100040000C9424070C9424070C9424070C94240784
:100050000C9424070C9438190C9424070C9424074E
:100060000C9424070C9424070C9424070C94240764
:100070000C9424070C9424070C9424070C94240754
:100080000C9424070C9424070C9424070C94240744
:100090000C9424070C9424070C9424070C94240734
:1000A0000C9424070C9424070C94240705010902DE
:1000B000A10185020901A1000509190129081500FE
:1000C0002501950875018102050109300931158165
:1000D000257F95027508810609381581257F9501D0
:1000E00075088106050C0A38021581257F95017572
:1000F000088106C0C005010980A101850319012AF4
:10010000B700150126B700950175108100C0050CD8
:100110000901A101850419012AA002150126A002E6
:10012000950175108100C00660FF0961A101096297
:10013000150026FF00952075088102096315002629
:10014000FF00952075089102C005010906A101056F
:100150000719E029E7150025019508750181029529
:1001600001750881010507190029FF150026FF0008
:100170009506750881000508190129059505750181
:100180009102950175039101C0000000000000007C
:10019000000000000000000000000000000000005F
:1001A000000000000000000000000000007E0F00C2
:1001B000D4FFFFFFC700000078000000000000002F
:1001C000002A2B28000000000000000000000000B2
:1001D0000000000029000000002C1E3420212224F1
:1001E000342627252E362D3738271E1F202122237F
:1001F0002425263333362E37381F04050607080911
:100200000A0B0C0D0E0F10111213141516171819D6
:100210001A1B1C1D2F3130232D3504050607080934
:100220000A0B0C0D0E0F10111213141516171819B6
:100230001A1B1C1D2F3130354C00DA0281FFD9F119
:10024000DB20A4A62EAF00A0C000A1C800AED580C0
:10025000A81FD300408D1420002D2D2D2D2D000A18
:1002600000204D78002053636C20005249474854C9
:10027000000A00204D78002053636C200053435245
:100280003A5F005343523A40002D2D2D2D2D5450EE
:100290004D4F444C45465420004341503A5F004383
:1002A00041503A40004E554D3A5F004E554D3A4050
:1002B000002D2D2D2D2D53544154532D2D2D2D2DED
:1002C000002055444620002041444A200020524945
:1002D000532000204C575220002044454620002D3A
:1002E0002D2D2D2D4C4159455200000000000000DD
:1002F000000000000000000080C0E0E0F0F0F0F03E
:10030000F0F0F0F0F0F0F0F0F0F0F0F0F0F0F0F0ED
:10031000F0F0F0E0C00000000080E0E0F0F0F0F06D
:10032000F0F0F0F0F0F0F0F0F0F0F0F0F0F0F0F0CD
:10033000F0F0F0F0F0F0F0F0F0F0F0F0F0F0F0F0BD
:10034000F0F0F0F0F0F0F0F0F0F0F0F0F0F0F0F0AD
:10035000F0F0F0F0F0F0F0F0F0F0F0F0F0F0F0E0AD
:10036000C0000000000000000000000000000000CD
:10037000000000000000007FFFFFFFFFFFFFFFFF06
:10038000FFFFFFFFFFFFFFFFFFFFFFFFFFFFFFFF7D
:10039000FFFFFFFFFF00000000FFFFFFFFFFFFFF69
:1003A000FFFF87070303030303030303030303039D
:1003B0000303030303030303030303030303038789
:1003C000FFFFFFFFFFFFFFFFFFFFFFFFFFFFFFFF3D
:1003D000FFFFFFFFFFFFFFFFFFFFFF7F3F1F0F0735
:1003E000010000000000000000000000000000000C
:1003F00000000000000000000001010303030303EC
:10040000030303030303030303030303030303FFC0
:10041000FFFFFFFFFF00000000FFFFFFFFFFFFFFE8
:10042000FFFFFFFFFFFFFFFFFFFFFFFFFFFFFFFFDC
:10043000FFFFFFFFFFFFFFFFFFFFFFFFFFFFFFFFCC
:10044000FFFFFFFFFFFFFFFFFFFFFFFFFFFFFFFFBC
:10045000FFFF7F3F3F1F0F07030100000000000068
:10046000000000000000000000000000000000008C
:10047000000000000000000000000000000000007C
:100480000000000000000000000000000000000765
:100490000F0F0F0F0700000000030F0F0F0F0F0FBC
:1004A0000F0F0F0F0F0F0F0F0F0F0F0F0F0F0F0F5C
:1004B0000F0F0F0F0F0F0F0F0F0F0F0F0F0F0F0F4C
:1004C0000F0F0F0F0F0F0F0F070707030303010194
:1004D000000000000000000000000000000000001C
:1004E0000000000000000000000000010101010107
:1004F00001010101020202020202020202030303DD
:1005000003030303030404040404040405050505AC
:10051000050606060606070707070708080808096C
:100520000909090A0A0A0B0B0B0C0C0C0D0D0D0E18
:100530000E0E0F0F0F1010111111121213131414AD
:10054000151516161717181819191A1A1B1B1C1D22
:100550001D1E1E1F2020212222232424252626277B
:100560002829292A2B2C2D2D2E2F303132323334AD
:1005700035363738393A3B3C3D3E3F4041424344B3
:1005800045464748494A4C4D4E4F50515354555695
:1005900058595A5B5D5E5F616264656668696B6C41
:1005A0006D6F7072737577787A7B7D7E80828385BC
:1005B00087888A8C8E8F91939596989A9C9EA0A2FC
:1005C000A3A5A7A9ABADAFB1B3B5B7BABCBEC0C206
:1005D000C4C6C9CBCDCFD1D4D6D8DBDDDFE2E4E7CA
:1005E000E9EBEEF0F3F5F8FAFDFF00AF00AE2900FD
:1005F0001E001F002000210022002F0035001400E3
:100600001A000800150017002D002B00040016002A
:10061000070009000A004C00E1001D001B00060055
:10062000190005002C00E000E300E2003504017F22
:100630002C004C0046002700260025002400230043
:1006400030003100130012000C0018001C002E00B6
:10065000340033000F000E000D000B002A00E500EF
:100660003800370036001000110028004F005200FB
:1006700051005000027F28002A0044003A003B004D
:100680003C003D003E002F0235021E021F022002E8
:10069000210222022D022B001E001F00200021003B
:1006A00022004C00E1002300240025002600270042
:1006B0002C00E000E300E2003504017F2C004C0038
:1006C000450043004200410040003F00300231023B
:1006D000270226022502240223022E0234023302BC
:1006E0000F000E000D000B002A00E5003802370253
:1006F00036021000110028004D004B004E004A0049
:10070000027F28002A0044003A003B003C003D00E4
:100710003E002F0235021E021F0220022102220289
:100720002D022B001E001F002000210022004C0083
:10073000E100230024002500260027002C00E00013
:10074000E300E2003504017F2C004C00450043002B
:100750004200410040003F003002310227022602E1
:100760002502240223022E02340233020F000E005F
:100770000D000B002A00077F067F370236021000AB
:1007800011002800057F047F4E004A00027F2800E8
:100790002A00010001000100010001000100010028
:1007A00001000100207821782478237801000100DD
:1007B0000100027806780478037801000100010046
:1007C0000100010001000100010001000100010021
:1007D0000100010001000100010001000100010011
:1007E0000100010001000100010027782878257828
:1007F0002678010001000100010001000100010054
:1008000001000100010001000100010001000100E0
:1008100001000100010001000100010001000902C6
:100820005B00030100A0FA090400000103010100BC
:100830000921110100012240000705810308000180
:100840000904010002030000000921110100012236
:100850002200070582032000010705030320000191
:100860000904020001030000000921110100012216
:100870007B00070584032000011201000200000034
:10088000081DFE60600001010200012203450072A4
:100890000067006F004B006E006900660065002075
:1008A0000072006500760031002E00320000001852
:1008B0000354006F00750063006800730065006EEC
:1008C0000073006F00720000000403090407087F32
:1008D0000807003E5B4F5B3E003E6B4F6B3E001CCB
:1008E0003E7C3E1C00183C7E3C18001C577D571C6B
:1008F000001C5E7F5E1C0000183C180000FFE7C370
:10090000E7FF00001824180000FFE7DBE7FF0030D6
:10091000483A060E00262979292600407F0505075A
:1009200000407F05253F005A3CE73C5A007F3E1CB3
:100930001C0800081C1C3E7F0014227F2214005F4C
:100940005F005F5F0006097F017F00006689956A8E
:100950000060606060600094A2FFA2940008047EC2
:1009600004080010207E20100008082A1C08000837
:100970001C2A0808001E10101010000C1E0C1E0C63
:100980000030383E383000060E3E0E0600000000F3
:1009900000000000005F00000000070007000014D6
:1009A0007F147F1400242A7F2A1200231308646214
:1009B00000364956205000000807030000001C22A2
:1009C0004100000041221C00002A1C7F1C2A000854
:1009D000083E080800008070300000080808080879
:1009E000000000606000002010080402003E514931
:1009F000453E0000427F40000072494949460021BF
:100A000041494D33001814127F10002745454539E0
:100A1000003C4A4949310041211109070036494942
:100A2000493600464949291E000000140000000014
:100A3000403400000000081422410014141414145F
:100A4000000041221408000201590906003E415DE0
:100A5000594E007C1211127C007F49494936003EF4
:100A600041414122007F4141413E007F4949494186
:100A7000007F09090901003E41415173007F0808C8
:100A8000087F0000417F4100002040413F01007F7E
:100A900008142241007F40404040007F021C027F3A
:100AA000007F0408107F003E4141413E007F09095C
:100AB0000906003E4151215E007F091929460026A2
:100AC000494949320003017F0103003F4040403F54
:100AD000001F2040201F003F4038403F00631408A3
:100AE0001463000304780403006159494D43000076
:100AF0007F41414100020408102000004141417F34
:100B0000000402010204004040404040000003078E
:100B10000800002054547840007F284444380038AE
:100B20004444442800384444287F0038545454181E
:100B30000000087E09020018A4A49C78007F080425
:100B400004780000447D4000002040403D00007FCC
:100B5000102844000000417F4000007C04780478A5
:100B6000007C0804047800384444443800FC18240D
:100B700024180018242418FC007C080404080048E9
:100B8000545454240004043F4424003C4040207C3E
:100B9000001C2040201C003C4030403C00442810F9
:100BA0002844004C9090907C004464544C440000D5
:100BB00008364100000000770000000041360800C0
:100BC000000201020402003C2623263C0000000033
:100BD000000000404040F0F8F8FF38FFF8F83FF818
:100BE000F8FF38FFF8F8F040404000000000000037
:100BF00080C0C0C0800000C0C08000000080C0C0B5
:100C000000C0C0000080C0C00000000000C0C0C024
:100C1000C0C000C0C00000000000000000000000D4
:100C200000000000000000000000000000000000C4
:100C300000000000000000000000000000000000B4
:100C4000000000000000000000000000C0F0F8FC00
:100C50003E1E06010000007F4141417F007F41416F
:100C6000417F000080C0E07E5B4F5BFEC00000C0A3
:100C700000DCD7DEDEDED7DC00C0000000000000B4
:100C80000000000000000000000000000000000064
:100C9000000000494949FFFFFFFFE0DFBFBF00BF81
:100CA000BFDFE0FFFFFFFF49494900000000001FD0
:100CB0003F6060E0BF1F007F7F071E381E077F7FF9
:100CC000007F7F0E1F3B716000000000007F7F0CE3
:100CD0000C0C007E7E007F7E0303007F7E03037E7C
:100CE0007E03037F7E000F3E703C063C703E0F008B
:100CF000327B49493F7E007F7E0303001E3F6969C6
:100D00006F2600000000000000000000030F1F3FDE
:100D10003C7870600000007F4141417F007F41418D
:100D2000417F00307B7F7830202030787F3B00038C
:100D3000000F7F0F0F0F7F0F000300000000000067
:100D400000000000000000000000000000000000A3
:100D5000000000010101070F0F7F0F7F0F0F7E0FB3
:100D60000F7F0F7F0F0F070101010000000000003F
:100D70000000000001010000000000000000000071
:100D80000000000000000000000000000000000063
:100D90000000000000000000000000000000000053
:100DA0000000000000000000000000000000000043
:100DB0000000000000000000000000000000000033
:100DC0000000000000000000000000000000000023
:100DD0000000000000000000000000000000000013
:100DE0000000000000000000000000000000000003
:100DF00000000000000000000000000000000000F3
:100E000000000000000000000000000000001124AD
:100E10001FBECFEFDAE0DEBFCDBF11E0A0E0B1E052
:100E2000EAE1FCE602C005900D92A23DB107D9F7B8
:100E300026E0A2EDB1E001C01D92A931B207E1F7B1
:100E40000E94FF290C949B350C940000E8EDF0E023
:100E500080818E7F80831092E2001092DA001092DF
:100E6000E100A0EEB0E08C9181608C9380818F775F
:100E7000808319BCA7EDB0E08C918E7F8C9380812C
:100E80008F7E80831092F30308952091E4003091C7
:100E9000E50095E6A9012091EC00822F817020FFEA
:100EA00006C08091E80080FF06C080E00895209190
:100EB000E80022FD1AC080910004882389F0853063
:100EC00089F08091EB0085FD0FC02091E400309106
:100ED000E50042175307F9F29150E1F684E00895D6
:100EE00082E0089583E0089581E0089580910204EE
:100EF00087FF13C08091E80082FF06C08091E80060
:100F00008B778093E80004C0809100048111F2CFB8
:100F10000895809100048823D9F38091E80080FF30
:100F2000F8CF8091E8008E77ECCF982F9093E9006E
:100F3000242F762F50E0891731F07091EC0020912A
:100F4000ED005091F00021FD07C09F5F973071F7D1
:100F50008093E90081E008953091EB003E7F30936B
:100F6000EB003091ED003D7F3093ED003091EB00D0
:100F700031603093EB007093EC002093ED005093C0
:100F8000F0002091EE0027FDE0CF80E00895B0E072
:100F9000A0E0EDECF7E00C941234C8EDD0E08881CD
:100FA0008F7E8883E7EDF0E080818160808384E03C
:100FB00082BF81E08093F30388818E7F888302EE75
:100FC00010E0F80110821092DA0081EEC82ED12CC8
:100FD000F601108288818F77888388818068888372
:100FE00088818F7D888319BC1092000410920104BF
:100FF0001092FF031092FE0390EEE92EF12CF70100
:1010000080818B7F808388818160888342E060E07B
:1010100080E00E949507F60180818E7F8083F80131
:10102000808181608083808188608083F7018081F6
:101030008E7F8083888180618883CDB7DEB7E8E0CA
:101040000C942E34FC0180910804909109048617B9
:101050009707A0F06115710529F49091E8009E773B
:101060009093E80090E06115710551F4911108C06A
:101070008091E80082FF34C080E00895BC01F2CF87
:10108000809100048823C1F18530C1F18091E8008E
:1010900083FD30C08091E80082FDEACF8091E800B6
:1010A00080FFE1CF8091F3002091F200382F61158D
:1010B000710519F02830310558F091E028303105DC
:1010C00009F090E02091E8002E772093E800CBCF44
:1010D00081918093F100615071092F5F3F4FE7CFFD
:1010E00080910004882341F0853041F08091E80030
:1010F00083FFBECF81E0089582E0089583E00895E4
:101100008091F503089587E797E79093010880930E
:10111000000888E19AE00FB6F894A89580936000E3
:101120000FBE90936000FFCF2FB7F8946091EF034C
:101130007091F0038091F1039091F2032FBF089515
:10114000A3E0B0E0E6EAF8E00C9418342091EC0358
:101150003091ED0328173907A1F09093ED038093A8
:10116000EC03E091EA03F091EB03309751F024E0B7
:1011700029839B838A830680F781E02DCE01019627
:1011800009952396E2E00C943434A3E0B0E0EBEC54
:10119000F8E00C9418342091E8033091E903281703
:1011A0003907A1F09093E9038093E803E091EA0303
:1011B000F091EB03309751F023E029839B838A83DE
:1011C0000680F781E02DCE01019609952396E2E095
:1011D0000C943434E091EA03F091EB03309739F04A
:1011E00022E0DC012C930480F581E02D099508951F
:1011F000FC01680F791F8FEF91E32191822728E08E
:1012000030E087FF09C0880F892721503109C9F7CD
:10121000E617F70791F70895880FF7CFFA018111C4
:1012200001C0FB01099508958091DC03982F9E7FF2
:1012300071F48091DC03817082608093DC03809183
:10124000DF03873918F086E98093DF03089584303F
:1012500080F7F5CF8091E50280FD16C081FD16C0B4
:1012600082FD16C08091E4028823A1F0883280F4C8
:1012700028E0829FC001112468E270E00E94593486
:10128000862F672B39F0089582E0089584E0089551
:1012900088E0089581E008958091E50280FD14C002
:1012A00081FD14C082FD16C08091E302882381F085
:1012B0008E3180F420E5829FC00111246EE170E040
:1012C0000E945934862F089584E1089588E2089594
:1012D00088E0089580E5089580E00895F894E82F67
:1012E000E295EF70F0E031A1282F2F7081E090E0BF
:1012F00001C0880F2A95EAF7982F9095932391A320
:1013000092A1892B82A37894089590919E0292FFD6
:1013100006C0282F28712830F9F4877F846093FF56
:1013200006C0282F28712831F1F4877E846120912E
:101330009F0220FF06C0382F38713830D9F4877FDC
:10134000816021FF06C0282F28712831D1F4877EC3
:10135000816194FD877E0895282F24712430F9F649
:101360008B7F8860DCCF282F2471243101F78B7E9E
:101370008861DDCF382F3171313019F78E7F886069
:10138000E0CF282F2171213121F78E7E8861E1CFB6
:10139000CF93DF93EC0182389105B9F108F041C099
:1013A0008133910509F49FC050F58932910509F404
:1013B0008FC08A9709F49EC0C11520E5D20708F0B6
:1013C000BDC0C11530E4D30708F00AC1C03ED10545
:1013D00008F0A5C0CD3CD10508F000C1C83AD10540
:1013E00008F08FC0C53AD10508F0F0C0C130D10572
:1013F00039F1209729F1C430D10510F546C0853365
:10140000910509F460C0C997B9F680919E02837076
:1014100009F044C180919F0283FF12C0C9E2D0E06D
:101420000FC0833E9105A1F178F4803E910509F14A
:10143000823E910509F0C0CF80919E0282FD21C0BD
:10144000CE01DF91CF910895863E910561F1873EEF
:10145000910571F1843E910509F0AECF80919F0214
:1014600081FFEECF80919E02C7EED0E084FD0DC0DB
:10147000E7CF80919E0280FD33C090919F0290FF44
:10148000DFCFC3EED0E084FFDBCFD0E0C0E0D8CF29
:1014900080919E0282FDFFC090919F0290FDFEC050
:1014A00084FFCECFF2CF80919E0283FDDDCFC8CFE7
:1014B00080919E0283FDF5C090919F0291FFF0CF35
:1014C000C4EED0E0BDCF80919E0285FFB9CFA6CFFC
:1014D00080919E0285FDE8C080919F0283FFB0CF7E
:1014E000C9E3D0E0ADCF80919E0286FFA9CFCAE2CA
:1014F000D0E0A6CF80919E0286FFA2CFC1E3D0E0CC
:101500009FCFC13CD10508F6C85AD0E0CC0FDD1FF3
:10151000C359DE4F0990D881C02DD46491CFC11535
:1015200040E2D40708F0AAC0C11581E0D80708F04E
:1015300087CFC83ED10508F483CFA7CFC03622E5B8
:10154000D20718F5C03432E5D30708F053C0C032D3
:1015500042E5D40708F047C0C11582E5D80708F472
:101560007FC02C2F2695269540E2249F90011124C0
:101570008C2F8370C1E0D0E002C0CC0FDD1F8A95B4
:10158000E2F7C22BD32BDD685BCFC03A22E5D2074E
:1015900060F4C03832E5D30708F441C0CF71D0E021
:1015A000DC2FCC27C46FD06A4BCFC03C42E5D407B8
:1015B00008F44AC0C03E82E5D80708F066CFDC2FA9
:1015C000CC27CC27DF71C06FD06A3ACFC55AD0E0A4
:1015D000C659DE4FC881D0E0D06432CFD06530CF5D
:1015E000DF70D06A2DCFCF71D0E0DC2FCC27C16F58
:1015F000D06A26CF2C2F26952695277080E2289F2B
:10160000900111248C2F8370C1E0D0E002C0CC0F78
:10161000DD1F8A95E2F7C22BD32BDC6811CF2C2F6C
:1016200026952695277040E2249F900111248C2F47
:101630008370C1E0D0E002C0CC0FDD1F8A95E2F7D5
:10164000C22BD32BDA68FCCE8C2F8F710E948509B8
:10165000C82FD0E0DC2FCC27CC27DF71D062F0CEB2
:101660008C2F8F710E94850935E0D695C7953A95E4
:10167000E1F7CF709C2FEC01D069E2CE8D2F8F71F6
:101680000E94850990E0982F882788279F719C01E8
:101690002C2BE901E3CFC2EED0E0D2CEC0EED0E0F9
:1016A000CFCEC6EED0E0CCCEC5E3D0E0C9CE80919F
:1016B0003D02811110923D020895809590913C0267
:1016C000982390933C020895E6EDF1E091918913FF
:1016D00003C0DF0111971C9291E0EC3DF907B1F7CF
:1016E0000895A6EDB1E0EFEF90E02D91821751F053
:1016F000EF3F19F4211101C0E92F9F5F9630A9F740
:10170000EF3F09F408950E2E000CFF0BEC52FE4F34
:10171000828308958091310290910002981301C054
:1017200008958F5F8770FACF292F9A3078F5873028
:1017300068F590E037E0239F800D911D1124682FFC
:10174000677023E0969587952A95E1F7FC01EE0FE7
:10175000FF1FE80FF91FE152FE4F50E040E080E02C
:10176000219130E0062E02C0369527950A94E2F7C3
:1017700021703327042E01C0220F0A94EAF7822B2E
:101780004F5F5F4F4330510559F7089580E008954A
:10179000292F9A3098F5873088F590E037E0239F1D
:1017A000800D911D1124282F277041E001C0440FA6
:1017B0002A95EAF723E0969587952A95E1F7FC01AB
:1017C000EE0FFF1FE80FF91FE152FE4F30E020E05F
:1017D00070E05191DF011197CB01022E02C0969566
:1017E00087950A94E2F78170819585278423852760
:1017F0008C932F5F3F4F2330310559F70895982F71
:101800009670963021F4886080930D040895877F48
:10181000FBCF80910D04982F9670963021F488604C
:101820000E94FF0B0895877FFBCF21E030E001C0CD
:10183000220F8A95EAF7209580910D0482230E9459
:10184000FF0B089590913202809589238093320294
:10185000282F277091F4282F082E000C330B921795
:10186000130659F090919F0292FF07C085958595C8
:1018700085950E94150C10923202089521E030E007
:1018800001C0220F8A95EAF780910D04822B0E94F5
:10189000FF0B089580937C020895982F92959F7076
:1018A00011F0892F94E0282F2695269511F09E5F40
:1018B000822F869509F09F5F892F0895CF93DF933C
:1018C000C091DC01C80F41F41092DC0160E070E0CF
:1018D000CB01DF91CF9108958C2F69E10E944B34A9
:1018E000D92F682F880F770B880B990B0E943735FB
:1018F000D093DC01C85EC13360F31092DD01E9CF03
:10190000CF93DF93C091DD01C80F41F41092DD0148
:1019100060E070E0CB01DF91CF9108958C2F6FE0F4
:101920000E944B34D92F682F880F770B880B990BA7
:101930000E943735D093DD01C25FCD3160F3109244
:10194000DC01E9CFAEE1B0E0E8EAFCE00C94103451
:101950004B8B5C8B462F8F8B988FE98EFA8E0B8F7B
:101960001C8FE22E2D8FF32E3E8F842FD72E909139
:10197000B302992309F456C00E94800C0E94FF34E0
:10198000C62E8D2D81950E945E0C0E94FF34D62EAE
:10199000B12CA12C8091AE02882309F478C0802F4D
:1019A0000E94800C0E94FF34F62E812F81950E94A8
:1019B0005E0C0E94FF34E62E60E000E0AD8ABE8A35
:1019C000DF8AC88E86E0FE017396DE0117960190CD
:1019D0000D928A95E1F74C895A8D802F002E000CCC
:1019E000990B8A0D911DA7FC9A9580382FEF9207CD
:1019F0000CF481C0803891050CF07FC0982F062E22
:101A0000000C770B6B0D711DB7FC7A9560388FEF6A
:101A100078070CF474C0862F603871050CF470C020
:101A20008FE76EC0A091540191E0940F933018F1AC
:101A3000242F440F330B0A2E000CBB0B0E947A3468
:101A40000E9437350E94FF34A62EA091530181E0F9
:101A50008D0D8330B0F02D2DDD0C330B0A2E000CD4
:101A6000BB0B0E947A340E943735DF88C88C0E94F5
:101A7000FF34B62E8FCF642F440F770B880B990B52
:101A8000DFCF6D2DDD0C770B880B990BECCFA09180
:101A9000520181E0800F833008F1202F000F330BBB
:101AA0000A2E000CBB0B0E947A340E9437350E942C
:101AB000FF34062FA091510181E0810F8330A0F007
:101AC000212F012E000C330B0A2E000CBB0B0E94A1
:101AD0007A340E9437350E94FF3470CF602F000F98
:101AE000770B880B990BE1CF612F012E000C770B40
:101AF000880B990BEECF90E882CF9FE780CF80E8EC
:101B00006F2D0F2C000C770B6C0D711DC7FC7A9597
:101B100060382FEF7207B4F160387105ACF52E2DE7
:101B20000E2C000C330B2D0D311DD7FC3A952038AF
:101B30007FEF37075CF12038310554F5452B488796
:101B400099878A872B876C8786E0FE013796DE01AE
:101B5000119601900D928A95E1F786E0FE0131968B
:101B6000DE011D9601900D928A95E1F72D853E8547
:101B70004F85588969897A8980E090E06E96EAE01D
:101B80000C942C3460E8CBCF6FE7C9CF20E8D6CFD8
:101B90002FE7D4CFCF93DF93C0911706D0911806CB
:101BA0008A30C1F420910E04CE0181519440622FFD
:101BB00070E00E94F433281B822F66E00E943F34BD
:101BC000C82FC15018F4DF91CF91089580E20E9490
:101BD000CA0DF7CF8D30E9F4C151D44020910E04E5
:101BE000622F70E0CE010E94F433281B822F9E01E9
:101BF000280F311D2115324018F080E0D0E0C0E000
:101C0000C80FD11DCF5EDB4FD0931806C0931706C7
:101C1000DACF96E0FE01A1E1B6E001900D929A952F
:101C2000E1F7803E08F458C086E0FE0111928A95E3
:101C3000E9F7C0911706D091180646E050E0BE01C2
:101C400081E196E00E94A1349E0121513440892B0C
:101C500041F1C90145E0969587954A95E1F741E044
:101C600050E0BA0102C0660F771F8A95E2F7CB01F8
:101C700060910F0470911004862B972BB9016B5F54
:101C80007F4FE5E076956795EA95E1F702C0440F4E
:101C9000551F6A95E2F7842B952B9093100480933F
:101CA0000F042A5F3F4F40910E04642F70E0C9017A
:101CB0000E94F433481B463010F4240F311D2115C7
:101CC00072E0370710F030E020E02F5E3B4F30939A
:101CD00018062093170677CFF6E08F9FB0011124E6
:101CE0006353774F46E050E0CE010E949834A1CF75
:101CF000CF93DF93EC01FE018491811103C0DF914A
:101D0000CF9108950E94CA0D2196F5CF46E050E08C
:101D10006AEE72E08CEF92E00E94A134892B21F0F0
:101D20008CEF92E00E94EA089091FD0286E0ECEFD1
:101D3000F2E0DF01282F1D922A95E9F79093FD022A
:101D4000AAEEB2E001900D928A95E1F70895809194
:101D50003C0290913B02892B8093D40190913D02EB
:101D6000992391F0892B8093D40120E086ED91E0B6
:101D7000FC013191CF0131112F5FF1E08C3D9F07C4
:101D8000B9F721110E94570B48E050E063E372E07D
:101D900084ED91E00E94A134892BA9F088E0E4ED64
:101DA000F1E0A3E3B2E001900D928A95E1F7E091B2
:101DB000EA03F091EB03309731F00280F381E02DDC
:101DC00084ED91E009950895882321F00E945D0B30
:101DD0000E94A70E0895882339F090913C02982B19
:101DE00090933C020E94A70E0895B0E0A0E0EBEFB4
:101DF000FEE00C9412346C017B0164E670E088E72D
:101E00000E945231EC0197FD12C010E000E0F60193
:101E1000E00FF11F849164E670E00E94BE31EC0196
:101E2000892B29F40F5F1F4F0E151F0581F70E94A4
:101E30003432CE01CDB7DEB7E8E00C942E34809179
:101E4000E5039091E603911103C091E0892708957D
:101E5000882369F062E070E08CEE95E00E94F50E58
:101E6000892B19F08091E50308951092E503809184
:101E7000E503EBCFCF93C091E5038091E603882380
:101E8000D1F00E949408605A75418F4F9F4F609324
:101E9000E1037093E2038093E3039093E403C111A1
:101EA00008C062E070E08AEE95E00E94F50E892B92
:101EB00029F0C091E5038C2FCF91089581E08093A4
:101EC000E503F7CF0F931F93CF93DF938B01EA01C5
:101ED00090910004943061F58093E9008FEF909128
:101EE000E800815095FD06C095ED9A95F1F7000048
:101EF0008111F5CF8091E80085FF1AC00E94450747
:101F0000811111C08091E80085FD06C08091E80034
:101F10008E778093E800F2CFF80181918F01809352
:101F2000F100219779F78091E8008E778093E8009F
:101F3000DF91CF911F910F91089543E050E0BC01D4
:101F400084E00E94620F089546E050E0BC0184E006
:101F50000E94620F0895CF93DF93EC0148E050E0B8
:101F6000BC0181E00E94620F88E0FE01A6EFB3E0B1
:101F700001900D928A95E1F7DF91CF9108956091DC
:101F800065018091DC0380FF20C08091640143E003
:101F9000849FC0011124865F9C4F539A2BB1277FE9
:101FA0003BB138605FB7F894FC01649FE00DF11D10
:101FB0001124BF0168177907D1F45FBF8FE594E062
:101FC0000197F1F700C0000008958091660190919B
:101FD000670123E0829FF0011124E65FFC4F89171F
:101FE000A0F61182108212828F5F3396F8CFFC0127
:101FF0004191CF01E8E03BB9000000C047FF2BB999
:10200000440F000000C000C000C02BB900C0EA951A
:1020100091F7D0CFECEDF3E080818E7F8083E7E015
:10202000F3E08281816082830E94BF0F0895B0E057
:10203000A0E0EDE1F0E10C9410347C015B016A0159
:1020400080918D0201E010E08A3010F40AE010E087
:10205000C1E0D0E0B501C701F6010995811104C0C6
:1020600021960C171D072CF4CDB7DEB7EAE00C94CF
:102070002C34CC9F9001CD9F300D300D112490E079
:1020800080E045E34A95F1F7000001968217930737
:10209000C1F7E0CF80914C02811119C088EC90E02B
:1020A0002091E30027FD10C0EFE3FCE93197F1F741
:1020B00000C000000197A1F782E080934C020E94CB
:1020C00026071092000403C081E080934C0281E057
:1020D00090914C02913011F080E0089508950E9493
:1020E0004A10811103C08091E7030895E091EA034B
:1020F000F091EB03309729F00190F081E02D0995E4
:10210000089580E00895A0E3B0E0E9E8F0E10C94E0
:1021100014340E944A10882309F4EFC0409103034D
:102120005091040360910503709106032FB7F89452
:102130008091EF039091F003A091F103B091F2032D
:102140002FBF841B950BA60BB70B0A97A105B105F2
:1021500008F4D3C00E9494086093030370930403AF
:102160008093050390930603509102035093FD0260
:102170004091FC026091FE027091FF028091000389
:10218000909101030E9465122093FC023093FD029E
:102190004093FE025093FF0260930003709301038B
:1021A000309302030E944A10882309F4AAC086E0F3
:1021B000ECEFF2E0DE01179601900D928A95E1F7BF
:1021C0008091FF0281959091FE02919599878A876F
:1021D00086E0FE013796DE01959601900D928A9574
:1021E000E1F786E0FE01B596DE01119601900D92B1
:1021F0008A95E1F786E0FE013196ACEFB2E00190FE
:102200000D928A95E1F786E0E6EFF2E0DE0117969F
:1022100001900D928A95E1F78091F9028195909154
:10222000F802919599878A8786E0FE013796DE014C
:102230009B9601900D928A95E1F786E0FE01BB9690
:10224000DE01119601900D928A95E1F786E0FE017C
:102250003196A6EFB2E001900D928A95E1F70E94C7
:102260004A10882309F497C086E0ECEFF2E0DE0123
:10227000539601900D928A95E1F786E0E6EFF2E041
:10228000DE01179601900D928A95E1F7EF80F884B0
:1022900009851A852B853C854B895C896D897E89EA
:1022A0008F89988D0E94A20C2D873E874F87588B6F
:1022B000698B7A8B86E0FE013D96DE0111960190D6
:1022C0000D928A95E1F786E0FE013196ACEFB2E01F
:1022D00001900D928A95E1F786E0E0EFF2E0DE01F1
:1022E000119601900D928A95E1F78091FD029A81F5
:1022F000892B8093FD020E94860EE096E6E00C9406
:10230000303486E0ECEFF2E0DE01179601900D929A
:102310008A95E1F78091FF0281959091FE02919557
:1023200099878A8786E0FE013796DE0159960190EB
:102330000D928A95E1F786E0FE017996DE0111960D
:1023400001900D928A95E1F786E0FE013196ACEF9F
:10235000B2E001900D928A95E1F786E0E6EFF2E0B7
:10236000DE01179601900D928A95E1F78091F902AE
:1023700081959091F802919599878A8786E0FE0170
:102380003796DE015F9601900D928A95E1F786E01F
:10239000FE017F9655CF86E0E6EFF2E0DE01539630
:1023A00001900D928A95E1F786E0ECEFF2E0DE0114
:1023B0001D9601900D928A95E1F7ED84FE840F85BC
:1023C000188929893A894B895C896D897E898F8929
:1023D000988D0E94A20C2F83388749875A876B8774
:1023E0007C8786E0FE01379668CF1092B90088E9B5
:1023F0008093B8002FE78FEA92E021508040904010
:10240000E1F700C00000089594EA9093BC009AE6BA
:102410009A95F1F700C09091B900987F983039F003
:102420009091B900987F903111F081E008958093E8
:10243000BB0084E88093BC0083EE92E00197F1F743
:1024400000C000008091B900887F883129F0809118
:10245000B900887F803449F780E00895EF92FF92B9
:102460000F931F93CF93DF93C82F8CE60E94041223
:102470008BEBE82EF12CF701C083CCEBD0E004E825
:10248000088383EE92E00197F1F700C0000080918D
:10249000B90014E918839AE69A95F1F700C08DE621
:1024A0000E9404120883E3EEF2E03197F1F700C0D6
:1024B0000000F70180811883FAE6FA95F1F700C071
:1024C000CDB7DEB7E6E00C943034ACE0B0E0EBE63C
:1024D000F2E10C9415344F8358878B879C87162F15
:1024E000072F83E00E942E12F82E84E00E942E1205
:1024F000482F33E08F2D632F0E944B34282F842FD9
:10250000632F0E944B34211104C0811102C0802F1F
:10251000212F29878A8786E0FE013796DE011196F2
:1025200001900D928A95E1F729813A814B815C8176
:102530006D817E8180E090E02C96E5E00C94313452
:10254000CF93DF93C6E5D2E060E0CE010E94CB34AA
:102550002196C11584E0D807B9F7DF91CF9108958E
:102560001F93CF93DF93122F8430E0F46A30D0F4BE
:102570004730C0F4C42FD0E0CC0FDD1F9EE0699F30
:10258000C00DD11D11249CE8899FC00DD11D1124BF
:10259000632FCE0186960E94CB34612FCE018796A1
:1025A0000E94CB34DF91CF911F910895AF92BF92DB
:1025B000CF92DF92EF92FF921F93CF93DF938EEE35
:1025C000C82E85E0D82ED0E07601C0E014C0F50119
:1025D00025913491412F6C2F8D2F0E94B01282E0F3
:1025E000A80EB11C1F5F173091F78EE0E80EF11CAA
:1025F000CF5FCA3019F0570110E0E9CFDF5F8CE8F8
:10260000C80ED11CD43001F7DF91CF911F91FF90FC
:10261000EF90DF90CF90BF90AF900895CF93DF936E
:10262000D82FCFEF8111C3E26C2F82E290E00E949D
:10263000CB346FEFD11161E083E290E00E94CB34A4
:102640006C2F84E290E00E94CB34DF91CF9108950B
:1026500080E00E940E1360E085E290E00E94CB349F
:102660000E94D6120E94A01281E00E940E130895CB
:102670000F931F93CF93DF93843030F56A3020F5AA
:10268000473010F5C42FD0E0CC0FDD1F2EE0629F45
:10269000C00DD11D11243CE8839FC00DD11D112414
:1026A000CE0186960E94B734082F10E0102F002725
:1026B000CE0187960E94B7349801282BC901DF917B
:1026C000CF911F910F91089590E080E0F8CF462FB1
:1026D0007A3040F4673030F4843020F4672F0E9461
:1026E0003813089590E080E00895CF92DF92FF9232
:1026F0000F931F93CF93DF936C0100910D04809192
:102700007C02082BC7E0D0E010E0FC2EC8010C2EA4
:1027100002C0959587950A94E2F780FD0CC0219739
:10272000A0F7F12C8F2DDF91CF911F910F91FF908A
:10273000DF90CF900895B6018C2F0E9467130E94FE
:10274000C809019761F3EECFCF93DF93EC010E94AC
:102750007513BE010E9467130E94C809DF91CF91D3
:102760000895FC0183819481892B29F080819181D6
:1027700089238F3F51F480E00895843FE1F717C02B
:10278000883EA8F0813FB9F712C0808191810E94F4
:10279000A41392959F70963099F358F4925F9F70AE
:1027A000923048F7803F19F040F7883E20F781E0EB
:1027B00008959A5FF4CF82E290E00E94B7348332AA
:1027C00089F483E290E00E94B734813059F484E2C6
:1027D00090E00E94B73491E0833209F090E0892FB5
:1027E0008170089580E0FCCFCF92DF92EF92FF924C
:1027F0006B017C010E941409B701A60188E090E0FA
:102800000E94DD34FF90EF90DF90CF900895B0E00C
:10281000A0E0EDE0F4E10C940E34182FC62FD42F75
:10282000822E0091DC0300FF4CC08091DD038113F8
:1028300008C08091DE03861304C08091DF038417F3
:1028400029F080910903826080930903E02FE695C7
:10285000F0E0EF53FE4F808180930703802F8E7F3F
:102860008230E9F4ED2FD73908F0E6E9F0E0E651DF
:10287000FB4FC1112BC02491F22FE22F00FF0FC09C
:10288000809166019091670133E0839FD00111240C
:10289000A65FBC4F891708F48EC00E94BF0F10932B
:1028A000DD03C093DE03D093DF03882051F06091F5
:1028B000DC037091DD038091DE039091DF030E94C1
:1028C000F413CDB7DEB7ECE00C942A34EC2EF12CE7
:1028D000E4919E2ECE2ED12C26E0129FC001112411
:1028E0002FEF30E0B9010E94F433812F90E0880F80
:1028F000991FF5E5F69FA001F79F500D1124841B49
:10290000950BB82EBB0CB80EA9014E195F094C9D52
:10291000C0014D9D900D5C9D900D1124F92FCB9D14
:10292000A0011124452F5527D901A41BB50BAC9D3F
:10293000A001AD9D500DBC9D500D1124D901AB19C6
:10294000B1095D01AE9CD001AF9CB00DBE9CB00D35
:102950001124AB2FBB272A1B3B0B2C9DD0012D9D97
:10296000B00D3C9DB00D11242B2F62307105A1F0EC
:1029700050F46115710509F481CF6130710581F062
:10298000292FF52F7BCF6430710569F080F0663018
:10299000710509F473CFF4CF2E2FE92FFB2F6ECFE3
:1029A0002E2FE52F6BCF292FFE2FEB2F67CFE92F8F
:1029B000F92D252F63CF1196EC9311972C93129636
:1029C000FC9312978F5F139665CFECEDF3E0438194
:1029D00021E1421B08F440E021E0628181810E94F4
:1029E00007140895ECEDF3E0438121E1420F08F470
:1029F0004FEF21E0628181810E9407140895ECED80
:102A0000F3E0628121E1621B08F460E021E0438190
:102A100081810E9407140895ECEDF3E0628121E1C9
:102A2000620F08F46FEF21E0438181810E94071457
:102A30000895ECEDF3E0818121E0438162818850CB
:102A40000E9407140895ECEDF3E0818121E04381B9
:102A50006281885F0E94071408958091E0038823B3
:102A600019F081508093E0036091DC037091DD03E5
:102A70008091DE039091DF030E94F413089580910A
:102A8000E003833018F48F5F8093E0036091DC03F0
:102A90007091DD038091DE039091DF030E94F413B7
:102AA00008958091DC0380FF1EC081708260809356
:102AB000DC0380910903816080930903662351F050
:102AC0006091DC037091DD038091DE039091DF0360
:102AD0000E94F41320E04091DF036091DE038091B7
:102AE000DD030E94071408958091DC0386958150D0
:102AF00009F481E061E00E945115089561E081E0F0
:102B00000E9451150895ECEDF3E083E0808311827B
:102B10008FEF828386E983831482A7E0B3E0129665
:102B20008C911297836012968C936081718182815F
:102B300093810E94F41308951092AF021092B00294
:102B40001092B1021092B20283E190E00E94BF3471
:102B50006093AF027093B0028093B1029093B2027F
:102B600080E0663018F01092AF0281E0763078F0A5
:102B70001092B0024091AF025091B0026091B10248
:102B80007091B20283E190E00E94DD3402C08111B5
:102B9000F1CF089567EE7EEF90E080E00E94E93487
:102BA00060E082E090E00E94CB3460E083E090E05F
:102BB0000E94CB3410927C0260E074E184E090E0EB
:102BC0000E94E93460E086E090E00E94CB346FEF31
:102BD00087E090E00E94CB3440E050E0BA0188E00A
:102BE00090E00E94DD3460E08DE090E00E94CB3404
:102BF00040E050E0BA0188E190E00E94DD3460E0FE
:102C000087E190E00E94CB3440E050E0BA018CE1D3
:102C100090E00E94DD3470E060E080E290E00E948D
:102C2000E93440E050E0BA0188E190E00E94DD34F0
:102C300080E00E940E130E94281340E050E0BA0189
:102C40008FE090E00E94DD340E949C1508959091E1
:102C50009F0292FB222720F9281779F080FB92F936
:102C600090939F0260919E0270919F0284E090E099
:102C70000E94E93482E00E94220C089590E080E0F6
:102C80000E94C534873E9E4F19F40E94DB130895BD
:102C900080E00895B0E0A0E0E0E5F6E10C941334A4
:102CA0007901C82F880FDD0B41155105A9F0FE01F0
:102CB00093E0EE0FFF1F9A95E1F7E050FF4F8181FF
:102CC0009281835B9D4F208130E04217530708F4C7
:102CD0009A01A9010E94AE34CE010E947E33D82E03
:102CE0008823D1F001151105B9F083E0CC0FDD1F69
:102CF0008A95E1F7FE01E050FF4F438150E0041751
:102D0000150708F4A801C050DF4F6C817D81635B1B
:102D10007D4FC7010E94AE348D2DCDB7DEB7E7E001
:102D20000C942F34A4E0B0E0E8E9F6E10C941634FA
:102D30004091740250917502609176027091770211
:102D40002FB7F8948091EF039091F003A091F103D5
:102D5000B091F2032FBF841B950BA60BB70B11E0AC
:102D600084369105A105B10538F10E944A108823E7
:102D700041F10E9494086E5F7F4F8F4F9F4F698390
:102D80007A838B839C8310E000E030E020E044E015
:102D900050E0BE016F5F7F4F82E00E944A16182FFD
:102DA000882351F00E949408609374027093750216
:102DB0008093760290937702812F2496E4E00C941E
:102DC00032340E94940800918E0210918F0220915B
:102DD000900230919102600F711F821F931FCBCF21
:102DE0008F929F92AF92BF92EF92FF920F931F9399
:102DF000CF937B01942FB901A801F70180809180C6
:102E0000A280B380EFB7F8940091EF031091F00324
:102E10002091F1033091F203EFBF081919092A0933
:102E20003B09043611052105310518F4C1E0992349
:102E300081F010E000E030E020E00E944A16C82F48
:102E4000882339F00E949408F7016083718382839C
:102E500093838C2FCF911F910F91FF90EF90BF9094
:102E6000AF909F908F900895A8E0B0E0EAE3F7E17B
:102E70000C94163485E0ECEDF3E0DE011196019040
:102E80000D928A95E1F78091070390910803A09134
:102E900009038E839F83A88741E08885811101C043
:102EA00040E008E010E09E012F5F3F4F65E872E0D0
:102EB00086E00E94F0168111109209032896E4E042
:102EC0000C943234A1E0B0E0E8E6F7E10C9416345B
:102ED0000E946F10898341E090915902981301C0BC
:102EE00040E001E010E09E012F5F3F4F61E872E09B
:102EF00085E00E94F0162196E4E00C9432340F93A2
:102F00001F9341E09091570280910D04981301C0E6
:102F100040E001E010E02DE034E06DE772E083E096
:102F20000E94F016882389F041E090915802809128
:102F30007C02981301C040E001E010E02CE732E091
:102F400068E772E084E00E94F0161F910F910895E7
:102F5000A1E0B0E0EEEAF7E10C940D34762E4A01E0
:102F60005901680101E010E09E012F5F3F4F50E0E2
:102F700040E070E060E00E944A16182F882309F4B0
:102F800040C0F40140815181628173812FB7F89470
:102F90008091EF039091F003A091F103B091F203BF
:102FA0002FBF841B950BA60BB70B84369105A1058B
:102FB000B10538F4B701C6010E94F8089981891754
:102FC00001F18701950150E040E070E060E0872D5D
:102FD0000E944A16B82EB701C6010E94F80811E0F7
:102FE0009981981310E01B2139F00E949408F40194
:102FF0006083718382839383812F2196EDE00C940B
:103000002934A701B601C5010E94AE34F5CFACE06A
:10301000B0E0EDE0F8E10C94143486E0E82EF12CF9
:1030200003E612E09E01295F3F4F49E852E068E065
:1030300087E00E94A817882391F096E0FE0137965A
:10304000DE01119601900D929A95E1F796E0FE014E
:103050003196A6EFB2E001900D929A95E1F72C9689
:10306000E6E00C943034A5E0B0E0E9E3F8E10C943C
:1030700012346B0185E0E82EF12C0EE412E09E0183
:103080002F5F3F4F40E752E061E080E00E94A817C9
:10309000882349F095E0FE013196ABE6B2E001905D
:1030A0000D929A95E1F795E0EBE6F2E0D6010190FA
:1030B0000D929A95E1F72596E8E00C942E341F9234
:1030C0000F920FB60F9211242F933F934F935F935C
:1030D0006F937F938F939F93AF93BF93EF93FF93E0
:1030E0008091E10082FF09C08091E20082FF05C06B
:1030F0008091E1008B7F8093E1008091DA0080FF76
:1031000024C08091D80080FF20C08091DA008E7F9B
:103110008093DA008091D90080FF9DC080E189BD55
:1031200082E189BD09B400FEFDCF81E080930004F7
:103130008091F303811109C00E9426070E94C707EE
:103140008091E20084608093E2008091E10080FF42
:1031500017C08091E20080FF13C08091E2008E7F53
:103160008093E2008091E20080618093E200809190
:10317000D80080628093D80019BC85E08093000459
:103180008091E10084FF2BC08091E20084FF27C082
:1031900080E189BD82E189BD89B5982F917080FF5A
:1031A000FBCF8091D8008F7D8093D8008091E10083
:1031B0008F7E8093E1008091E2008F7E8093E20019
:1031C0008091E20081608093E20080910104882375
:1031D00009F447C084E0809300048091000480914A
:1031E000E10083FF27C08091E20083FF23C080912C
:1031F000E100877F8093E10082E0809300041092D9
:1032000001048091E1008E7F8093E1008091E200D3
:103210008E7F8093E2008091E20080618093E200E3
:1032200042E060E080E00E9495078091F0008860B5
:103230008093F000FF91EF91BF91AF919F918F919B
:103240007F916F915F914F913F912F910F900FBEA2
:103250000F901F90189519BC109200041092F30360
:1032600074CF8091E30087FD93E090930004B5CF85
:1032700078941F921FB61F9211248F939F93AF9340
:10328000BF938091EF039091F003A091F103B0916F
:10329000F2030196A11DB11D8093EF039093F003FB
:1032A000A093F103B093F203BF91AF919F918F91DF
:1032B0001F901FBE1F9018959C014FB7F8948091E6
:1032C000EF039091F003A091F103B091F2034FBF8F
:1032D000821B930B08952FB7F8948091EF03909180
:1032E000F003A091F103B091F2032FBF08950E9463
:1032F0006B199C019091F2028091F302982B21F0BE
:103300003093E9022093E8029091F4028091F50253
:10331000982B21F03093E7022093E60280EF92E0B1
:103320000E94EA080895CF9310923C02C6E0E6EDB1
:10333000F1E0DF018C2F1D928A95E9F790E080E0A3
:103340000E94C50890E080E00E94A00810923B0215
:103350000E94A70EE0EFF2E0DF011D92CA95E9F7A7
:103360001092E3021092E4021092E5020E94771993
:10337000CF910895AAE2B0E0E0ECF9E10C941734A3
:1033800082E094E02091F100DC012D93CD01B4E0C6
:103390008A309B07B9F780910304833009F472C027
:1033A000B8F4813009F449C0823009F4B3C0809187
:1033B000E80083FF8BC280910204909103049A304D
:1033C00008F084C2E92FF0E0E356FA4C0C946D3417
:1033D0008A3009F48EC08B3009F471C0893039F716
:1033E00080910204813219F78091060490910704BC
:1033F000009711F00297D9F68091E800877F8093BB
:10340000E8008091E80082FF38C09091F30080913D
:10341000F200029731F48091F100813011F0863092
:1034200021F48091F1008093F5038091E8008B777F
:103430008093E8000E947607BACF80910204813A17
:1034400009F0B5CF8091E800877F8093E8008091F4
:10345000060490910704892B61F468E086EF93E0FD
:1034600070E00E9422088091E8008B778093E8004A
:103470009ECF60E090E080E0F3CF80910004811166
:10348000C0CF95CF80910204813A09F090CF80910E
:10349000060490910704892B09F089CF8091E800F8
:1034A000877F8093E8008091E80080FFFCCF8091C7
:1034B00069018093F1008091E8008E77B9CF809107
:1034C0000204813209F073CF8091060490910704C1
:1034D000892B09F06CCF8091E800877F8093E8000A
:1034E0000E94760780910404809369010E949319D9
:1034F0005ECF80910204813209F059CF8091E800BB
:10350000877F8093E8000E9476078091050480936E
:10351000F4034DCF80910204813A09F048CF8091A5
:10352000E800877F8093E8008091E80080FFFCCF6F
:103530008091F403BECF803899F0823809F0C6C17B
:10354000809106048F70873008F0C0C18093E90035
:103550008091EB0085FB882780F91092E90006C076
:103560008091FE039091FF03911182609091E80099
:10357000977F9093E8008093F1001092F100809182
:10358000E8008E779FC1882309F48DC1823009F04D
:103590009DC180910404811190C1809106048F70B7
:1035A0002FEF280F263008F091C18093E900209179
:1035B000EB0020FF82C1933031F48091EB008062F8
:1035C0008093EB007AC19091EB0090619093EB00B7
:1035D00021E030E001C0220F8A95EAF72093EA004B
:1035E0001092EA008091EB008860EACF81116EC1F1
:1035F000109104041F778091E3008078812B8093E1
:10360000E3008091E800877F8093E8000E947607BE
:103610008091E80080FFFCCF8091E3008068809378
:10362000E30082E0111183E0809300044FC18058D1
:10363000823008F04BC120910404309105042C3DE8
:10364000E3E03E07A1F583E08A838AE289834FB7EE
:10365000F894DE01139620E03EE051E2E32FF0E023
:1036600050935700E49120FF03C0E295EF703F5F55
:10367000EF708E2F90E0EA30C0F0C7968D939D9347
:103680002F5F243159F74FBF8091E800877F8093E7
:10369000E8006AE270E0CE0101960E942208809163
:1036A000E8008B778093E80011C1C096E7CF809146
:1036B000060490910704432F55274330510509F420
:1036C0004AC078F54130510509F47AC08BE590E0A5
:1036D000EEE1F8E04230510509F0F8C02091E80031
:1036E000277F2093E8002091080430910904821775
:1036F000930708F49C0140E02115310509F065C0ED
:10370000411163C08091E80082FDC9CF809100041F
:10371000882329F2853019F28091E80083FFF2CFE7
:10372000BECF4132510509F43CC04232510509F087
:10373000CDC08330910508F0C9C0FC01EE0FFF1F1A
:10374000EA53FE4F0190F081E02D8D539E4FDC0136
:103750008C9190E01AC0332721303105D1F021152A
:10376000310561F02230310509F0B0C0EBE8F8E036
:10377000E4918E2F90E0EBE8F8E007C0E9ECF8E088
:10378000E4918E2F90E0E9ECF8E0009709F49EC0F8
:10379000A5CFEFEAF8E0E4918E2F90E0EFEAF8E0B1
:1037A000F4CF8330910508F091C0880F991FFC0178
:1037B000E453FE4F0190F081E02D89E090E08ECF40
:1037C00082E190E0E9E7F8E089CF80910004882366
:1037D00009F465CF853009F462CF8091E80083FD5C
:1037E0005ECF8091E80082FD8DCF8091E80080FF60
:1037F00083CF9091F3008091F2002115310519F0EB
:103800008830910550F041E0089709F040E0809140
:10381000E8008E778093E8006FCF44914093F100E9
:103820003196215031090196E8CF803809F04EC019
:103830008091E800877F8093E80080910104809365
:10384000F1009DCE811142C0109104041230F0F5B8
:103850008091E800877F8093E800109301040E9424
:103860007607112311F084E005C08091E30087FD05
:10387000FACF81E08093000442E061EC81E00E9495
:10388000950742E261EC84E00E94950742E261EC18
:1038900082E00E94950742E260EC83E00E94950777
:1038A0008091000413C080910404813079F481E098
:1038B000933009F080E08093FF031092E90080913B
:1038C000E800877F8093E8000E9476078091E800F7
:1038D00083FF0AC08091E800877F8093E800809191
:1038E000EB0080628093EB00AA96E3E00C94333403
:1038F0001F920F920FB60F9211242F933F934F9365
:103900005F936F937F938F939F93AF93BF93CF9367
:10391000DF93EF93FF93D091E900DF708091EC008B
:10392000C82FC17080FDC0E81092E9008091F000BE
:10393000877F8093F00078940E94BA191092E90072
:103940008091F00088608093F000CD2BCF70C09301
:10395000E900FF91EF91DF91CF91BF91AF919F91DE
:103960008F917F916F915F914F913F912F910F9028
:103970000FBE0F901F9018950E9493192FEF84E3AC
:103980009CE0215080409040E1F700C0000088E1B9
:103990009AE00FB6F894A895809360000FBE9093BC
:1039A0006000FFCF662309F472C08D3C41F40E9491
:1039B0004C0981958093F3020E94771908958E3CFB
:1039C00019F40E944C09F6CF8F3C31F40E944C0947
:1039D00081958093F202F0CF803D19F40E944C094A
:1039E000F8CF893D29F40E942A098093F402E4CF9C
:1039F0008A3D21F40E942A098195F7CF8B3D31F44D
:103A00000E942A0981958093F502D6CF8C3D19F446
:103A10000E942A09F8CF9FE2980F983020F5282FAE
:103A2000215D330BA90121E030E001C0220F4A954E
:103A3000EAF79091F102922B9093F102815D21E0DF
:103A400030E0A90102C0440F551F8A95E2F7CA0170
:103A50002091FD02662309F493C0822B8093FD021E
:103A60000E94860E08958D3D31F48091E5028160BB
:103A70008093E502A1CF8E3D21F48091E502826022
:103A8000F7CF8F3D19F58091E5028460F1CF9091D9
:103A9000F2028D3C59F42091F30227FF0DC01092E1
:103AA000F30291110BC01092E30208C08E3CB1F4F6
:103AB0002091F30212169CF39923B1F09091F40235
:103AC0002091F502922B11F41092E402482F415DEF
:103AD000550B4830510508F4B1CF6ECF8F3C39F407
:103AE00097FFEACF1092F2029091F302DACF803D75
:103AF00019F41916BCF3E0CF2091F402893D29F4A2
:103B00001216D4F61092F402D7CF8A3D19F427FF8B
:103B1000D3CFF8CF2091F5028B3D29F427FFCCCFEE
:103B20001092F502C9CF8C3D19F41216CCF3C4CF14
:103B30002FE2280F283088F4282F215D330BA901AC
:103B400021E030E001C0220F4A95EAF7209530913C
:103B5000F10223232093F102AFCF2091E5022E7FC3
:103B60008D3D59F02091E5022D7F8E3D31F08F3D46
:103B700009F0A2CF2091E5022B7F2093E5029CCF94
:103B8000809582236BCF882309F456C0823879F45C
:103B90000E946F1081FF50C089E30E94710B0E9448
:103BA000A70E89E30E94640B0E94A70E0895833834
:103BB00059F40E946F1080FF3FC083E50E94710B93
:103BC0000E94A70E83E5EECF843859F40E946F104F
:103BD00082FF32C087E40E94710B0E94A70E87E427
:103BE000E1CF9CEF980F913AE8F290E2980F98306D
:103BF00050F4877091E001C0990F8A95EAF7892FF8
:103C00000E945D0BD1CF9BE5980F933028F490E094
:103C100080E00E94C508089598E5980F993128F42E
:103C200090E080E00E94A008089593E3980F9331FC
:103C300018F460E00E94D21C0895CF93C82F882307
:103C4000C9F08238C9F40E946F1081FD13C089E366
:103C50000E94710B0E94A70E2FEF87EE93E0215078
:103C600080409040E1F700C0000089E30E94640BAF
:103C70000E94A70ECF9108958338A1F40E946F107F
:103C800080FDF8CF83E50E94710B0E94A70E2FEFF5
:103C900081EE94E0215080409040E1F700C00000A8
:103CA00083E5E4CF8438A1F40E946F1082FDE2CF57
:103CB00087E40E94710B0E94A70E2FEF81EE94E023
:103CC000215080409040E1F700C0000087E4CECF53
:103CD0008CEF8C0F813A68F4E6EDF1E08191C81722
:103CE000E9F121E0EC3DF207C9F78C2F0E94710B3E
:103CF000BFCF80E28C0F883068F4C77021E030E0DD
:103D000001C0220FCA95EAF780913C02822B809372
:103D10003C02AECFEBE5EC0FE33040F4F0E0E659C7
:103D2000FE4F808190E00E94C508A4CFE8E5EC0F2B
:103D3000E93150F4F0E0EE0FFF1FE359FE4F8081B0
:103D400091810E94A00896CF83E38C0F833108F005
:103D500091CF61E08C2F0E94D21C8CCF8C2F0E94BF
:103D6000640B0E94A70EC1CF1F93CF93DF93182F30
:103D7000D0E0C0E0893311F4C0E5D0E0812F0E948B
:103D80001D1E209739F4812F0E94C31DDF91CF9112
:103D90001F9108958FE99FE00197F1F700C000009F
:103DA0002197EFCF0F931F93CF93DF93C62FD42F7D
:103DB000022FFC0182818823A9F060930C040E94E9
:103DC0006B1990930B0480930A04C77081E001C0C3
:103DD000880FCA95EAF70E94EB0EDF91CF911F91F1
:103DE0000F91089580910C04681332C080910A04E9
:103DF00090910B040E945C19883C910548F510E2F3
:103E00001D0FCD17B9F080E28C0F883040F4C770D9
:103E100081E001C0880FCA95EAF70E94E40E1830CD
:103E200048F481E09D2F977001C0880F9A95EAF7BA
:103E30000E94EB0E802F0E94B41E183070F6D770CF
:103E400081E001C0880FDA95EAF70E94E40EC5CF41
:103E5000C77081E001C0880FCA95EAF7F6CFA8E0E5
:103E6000B0E0E5E3FFE10C940A348C01DC01139629
:103E70008D919C911497892B39F08C9111969C917E
:103E800089238F3F09F0D5C52896E0E10C942634AC
:103E90000E947513F82E682F89819A810E94C80BA1
:103EA00069817A818F2D0E9467137C01F8018281DC
:103EB000882309F49BC597012250374720313105EB
:103EC00008F0A9C58FEF93E00E94B734811185C037
:103ED000EA94EA94E6E5AE2EE2E0BE2EE11047C099
:103EE000FE01339686E0DF011D928A95E9F77AE0BC
:103EF000472E7501BFEFEB1AFB0AC5010E94B734CC
:103F000089831A82882309F468C0813009F078C057
:103F10006501E2E0CE0ED11CC7010E94B7348A834E
:103F2000882309F45AC09FEF980F933070F5F3E09F
:103F3000AF0EB11CC6010E94B7348B83882309F4ED
:103F40004CC01C82DE0111967D01F70120812223E5
:103F500081F2213009F094C091818281913009F081
:103F600051C0F2E0EF0EF11C0E94B41E52C0A11429
:103F7000F4E0BF0691F1C5010E94B734811101C080
:103F8000EA942FEFA21AB20AA9CF56018430D1F6D3
:103F900062E0E62EF12C56012FEFA21AB20AC601FA
:103FA0000E94B734E1E0F0E0EC0FFD1FEE0DFF1DC5
:103FB0008083882391F08C3741F4E2E0F0E0EC0F4D
:103FC000FD1FEE0DFF1D1082BDCF3FEFE31AF30A78
:103FD000650187E0E816F104F1F6809132028770FE
:103FE00009F452CFD80112968C91882309F44CCF52
:103FF00080919F0282FF48CF82E00E94220C44CF32
:104000005701A0CF923049F422E0E20EF11C0E9449
:104010001D1EEFEFEE1AFE0A98CF933031F432E016
:10402000E30EF11C0E94C31DF4CF943021F08FEFFA
:10403000E81AF80AEECF92E0E90EF11C30E020E039
:10404000B7016F5F7F4FD70111964C918053990B49
:104050008A30910550F021503109D8F2EFE9FFE0A4
:104060003197F1F700C00000F6CF429EF001439E69
:10407000F00D11249C012E0F3F1F842F7B01E0CFF8
:10408000E22FF0E0E754FE4F5490822F86958695FC
:10409000869590E0FC01E755FE4F64902770712CE7
:1040A000022E02C0759467940A94E2F731E063220D
:1040B0007724FC01E756FE4F8490912C022E02C01B
:1040C000959487940A94E2F7A1E08A229924FC014E
:1040D000E757FE4FC490D12C02C0D594C7942A95BF
:1040E000E2F7B1E0CB22DD246114710419F081EE16
:1040F0000E941D1E8114910419F086EE0E941D1E5F
:10410000852D0E94B41E8114910419F086EE0E9440
:10411000C31D6114710419F081EE0E94C31DC11406
:10412000D10409F476CF8CE21FCF882309F455CF50
:1041300061E083E090E00E94CB3481E00E944A0C71
:104140004CCF882311F081E071C481E003C081115C
:104150006CC482E00E94150C0E94090C3ECF88239B
:1041600021F083E00E943E0C38CF83E00E94150CC2
:1041700034CF882359F00E9483158091DC0381603D
:104180008093DC0361E086950E945115D801129658
:104190008C91882309F475C410920C04C7019057C0
:1041A000839708F059C484E090E00E94C53490934E
:1041B0009F0280939E02F701E150F047E232F10541
:1041C00008F09BC0E955FA4C0C946D34882309F42F
:1041D00004CF8091AF0290E0019666E070E00E940B
:1041E000F4338093AF024091AF025091B0026091DE
:1041F000B1027091B2028FE090E00E94DD34E09154
:10420000AF02F0E0EE0FFF1FE355FE4F8081809379
:104210005401809353014091AF025091B0026091DC
:10422000B1027091B20283E190E00E94DD34D5CEFC
:10423000882309F4D2CE8091B00290E0019666E026
:1042400070E00E94F4338093B0024091AF0250912D
:10425000B0026091B1027091B2028FE090E00E94D2
:10426000DD34E091B002F0E0EE0FFF1FE355FE4FAA
:1042700080818093520180935101CDCF882331F00A
:104280008091B30291E089278093B3021092DD01FF
:104290001092DC01A2CE8823C9F38091AE0291E096
:1042A00089278093AE02F2CFF701E851FC47E7304F
:1042B000F10508F06BCFE753FA4C0C946D3426E20D
:1042C00041EE61EEC8010E94D21E87CE27E245EE84
:1042D00065EEF8CF26E241EE60EEF4CF27E245EE40
:1042E00064EEF0CF26E241EE62EEECCF27E245EE3F
:1042F00066EEE8CF28E241E0EBCF80919E0281603C
:1043000080939E0295C080919F02886080939F0257
:104310008FC080919E028260F3CF80919E02846064
:10432000EFCF80919E028860EBCF80919F028160E9
:10433000EDCF80919F028260E9CF80919E028061E3
:10434000DFCF80919E028062DBCF80919E028064ED
:10435000D7CF0E94931980919E028068D1CF80911F
:104360009E028C60CDCF80919F028360CFCF8091E1
:104370009E028E7FC5CF80919F02877FC7CF80919D
:104380009E028D7FBDCF80919E028B7FB9CF8091A1
:104390009E02877FB5CF80919F028E7FB7CF80919D
:1043A0009F028D7FB3CF80919E028F7EA9CF809197
:1043B0009E028F7DA5CF80919E028F7BA1CF0E9410
:1043C000931980919E028F779BCF80919E02837F6D
:1043D00097CF80919F028C7F99CF80919E0282FB24
:1043E000992790F921E0922790FB82F990FB83F9BD
:1043F00087CF80919F02982F909591708E7F892B07
:1044000090FB81F983CF90919E02892F8F7B96FF3D
:10441000806476CF0E94931990919E02892F97FB1A
:1044200087F980586DCF61E08EE090E00E94CB3438
:1044300060919E0270919F0284E090E00E94E934B6
:104440000E949319CACD60E0EFCF90919E02892F10
:104450008F7E94FF806154CF90919E02892F8E7F32
:1044600090FF81604DCF90919F02892F877F93FFAE
:1044700088604CCF85E300C385E30DC38091DC03E6
:1044800080FF15C08E7F8093DC036091DC03709108
:10449000DD038091DE039091DF030E94F41380918D
:1044A00009038160809309030E94BF0F96CD81604C
:1044B0008093DC0361E086950E9451158ECD44E720
:1044C00055E16EE775E10E940E0987CD4EE755E193
:1044D00064E775E1F8CF49E155E163E275E1F3CFB7
:1044E00043E255E169E175E1EECF4FEF54E16CE055
:1044F00075E1E9CF4CE055E16FEF74E1E4CF45EEB3
:1045000054E162EF74E1DFCF42EF54E165EE74E114
:10451000DACF4DE255E16FE375E1D5CF4FE355E1D9
:104520006DE275E1D0CF61E081E0C6CF0E949319C2
:10453000BFEFE4E3FCE0B150E040F040E1F700C041
:1045400000000E9483086FEF7FEF90E080E00E9400
:10455000E9340E94BC1C80919F0282FB882780F96D
:1045600091E089270E942716F8018281E080F1807E
:10457000882309F446C0C7010E947513D82E682FFE
:10458000C7010E94C80BB7018D2D0E9467130E94BE
:10459000C8097C01882ED8011296DC9012971596D6
:1045A000BC90B2943FE0B322809132028770C1F098
:1045B000AD2CDD20B1F08F2D807F803421F080E2A2
:1045C0008E0D883068F080919F0282FF09C082E0E2
:1045D0000E94220C809132028770AA24A394811138
:1045E000A12C9F2C92942FE09222BBE0B91508F4E5
:1045F00077C0E92DF0E0E053FA4C0C946D3480E084
:10460000B1CFC7010E94940BD82EBDCFEF2DEF7014
:10461000CE2E8F2D807F19F0C29490EFC922DD201D
:10462000B9F0CC2069F080E28E0D883010F0811056
:1046300009C080913C02C82AC0923C020E94A70E89
:104640008E2D4CC080913B02C82AC0923B02F6CF0F
:104650008E2D0E94C31DCC2009F442C080E28E0D35
:10466000883010F0811004C08C2D0E945D0B06C0B4
:10467000C09480913B02C822C0923B020E94A70EC8
:104680002FC0FF2DFF70CF2E8F2D807F803219F02D
:10469000C29480EFC822882089F021E0821609F4B4
:1046A0006CC0DD2009F476C0BB2009F46CC0F801B1
:1046B000858180FFC5CF8F70858365C020919F0263
:1046C00022FD34C0DD2061F1CC2039F080913C0224
:1046D000C82AC0923C020E94A70E80E00E941D1EC4
:1046E000A92DA850BB0B149710F40E946F10AA209C
:1046F00009F4CACB8091320280FDC6CBF801128248
:104700008595859585950E943E0CC8010E942F1FB6
:10471000809132028595859585950E94150CB4CBC4
:1047200080E00E94C31DCC20D9F29ECFDD2099F0FD
:1047300090913D02892F8C29B11003C00E94EB0E8D
:10474000CFCF31E0B312FACF22FFCACF981741F290
:1047500080933D02C5CFB11006C00E94570B8C2D2F
:104760000E94E40EBDCF81E0B81609F4B9CF8C2DBC
:104770000E94E40E0E94570BB3CFDD2031F095E08C
:104780009B1508F4ADCF8C2DD9CFA4E0AB1508F460
:10479000A7CFE5CFBB2019F3F9E38F1209C02FEFA4
:1047A00037EE83E0215030408040E1F700C0000048
:1047B0008E2D0E94C31D94CF8F2D86958695837074
:1047C00061F0813009F08CCFC7019370D11002C025
:1047D00080E090E00E94A00883CFC7019370D110C1
:1047E00002C080E090E00E94C5087ACF6D2D8E2D2A
:1047F0000E94D21C75CF8F2D837091F5D11070CF90
:104800004E2D429546954770440F440F8E2D8F7064
:10481000042E01C0880F0A94EAF72E2D2071E4FEC1
:1048200007C02FE030E001C0220F4A95EAF720953B
:104830003F2D369536953370323069F050F4409103
:104840007C02313029F0822B84230E944A0C48CF0D
:10485000842B822BFACF282B80917C028227F5CFE4
:104860008695DD2011F08F2D8170882309F438CFD3
:104870004E2D429546954770440F440F8E2D8F70F4
:10488000042E01C0880F0A94EAF72E2D2071E4FE51
:1048900007C02FE030E001C0220F4A95EAF72095CB
:1048A0003F2D369536953370323069F050F4409193
:1048B0000D04313029F0822B84230E94FF0B10CF8E
:1048C000842B822BFACF282B80910D048227F5CFE1
:1048D0009F2D9F70F92EDD2029F0892F0E943E0C1C
:1048E0008E2D2CCF8E2D0E94E40E8F2D0E94150C44
:1048F000F7CE8E2DA2EF8A16B1F1A81570F0B0EFA9
:104900008B16D1F0E1EF8E1691F0DD2009F45EC038
:10491000B11096CE8F2D8F712AC0F3EF8F1651F103
:1049200024EF8212F2CF80919F0282FD2FC08F2D43
:104930008F71DD20D9F21BC0DD2081F034E03B1502
:1049400008F4CECE2F2D2F7181E090E001C0880FAA
:104950002A95EAF790910D048927AFCF85E08B1552
:1049600008F4BECEEFCF8F2D8F71D110BFCF0E9434
:104970003E0CB6CE80E0DD2009F49FCF9F2D9F71C5
:1049800081E001C0880F9A95EAF797CFDD2099F072
:104990009F2D9F71F92E892F0E943E0C80919F02BE
:1049A00082FF07C0A8E0FA9EC001112483608093B3
:1049B00032028F2DDCCF81E00E94220CB1E0BB15CA
:1049C00008F08ECE82E00E94220C8ACEBB2059F0E5
:1049D000893309F0EDCEEFEFF7EE23E0E150F04040
:1049E0002040E1F7E3CE8F2D8F7180CFE114F7E700
:1049F000FF0609F4AACB21E0E21627E7F20609F444
:104A0000A8CBF701FF57E930F10508F04DCCE4528F
:104A1000FA4C0C946D34E11437E7F30609F493CBA8
:104A200091E0E91697E7F90661F782E00E943E0CF3
:104A300093CB85E0F801DE01119601900D928A95E5
:104A4000E1F7D80112962C9189819A81211120CA0F
:104A50000E94940BF82E24CAB6E1EB16BCE7FB06C5
:104A6000E9F480913C028A7A91E009F490E0909315
:104A7000DE018111FFCC89E20E94710B0E94A70E1A
:104A8000ACCAE6E1EE16ECE7FE0679F58091DE01B0
:104A90008111F2CC89E20E94640BF0CFF3E0EF16B3
:104AA000FCE7FF0609F44FCD60F4E1143CE7F306A0
:104AB00009F43CCD81E0E8168CE7F80609F449CD0D
:104AC00053CD9BE5E9169CE7F90609F498CDACE5D2
:104AD000EA16ACE7FA0609F43ECDBAE5EB16BCE7F8
:104AE000FB0609F041CD81E03DCD80913C02827210
:104AF000F701E052F847E531F10508F035CDEB510B
:104B0000FA4C0C946D341F93CF93DF938091FF0187
:104B1000807F09F049C08091FC01882309F444C0DA
:104B200080913102D09100026091FA017091FB01F5
:104B3000A091FD01B091FE01C62FC72316E0D81742
:104B400099F190E0109711F0CF3F19F4019687701A
:104B5000F6CF189F9001199F300D1124F901EF5FD6
:104B6000FD4F41814713F2CF40814613EFCF428181
:104B70004111ECCF438154814A1B5B0B483C5105EA
:104B800028F78091FF018F7080618093FF01F90108
:104B9000EA5FFD4F80818F70806180838AEF91E0B2
:104BA0000E942F1F0E948A0BDF91CF911F910895C1
:104BB000A1E1B0E0EEEDF5E20C9410348C0185E05B
:104BC000F801DE011D9601900D928A95E1F7F8013A
:104BD000E2808AEFA82E81E0B82E6091FD017091ED
:104BE000FE016115710509F426C19091FA01409109
:104BF000FB01892F84238F3F09F41DC1208131815E
:104C0000C380D480F090FC01F601E61BF70BFF2077
:104C100009F4DCC08091FF01582F507FE83CF1057A
:104C200008F09FC051116BC0FE2C431314C09213A7
:104C300012C0E11010C08F7080618093FF01C50128
:104C40000E942F1F8091FF01F80185838F2D6196AF
:104C5000EAE00C942C34C114D10429F0822F832370
:104C60008F3F09F003C180E0F82FF170DF2E80FF45
:104C70003CC0809131024091000256E0841315C07F
:104C80002D873E878D859E850E94A413292F22950E
:104C90002F702230F0F0243018F59F70F1F0F801F9
:104CA0009581907FD1F4D12C1EC090E0589FF001E7
:104CB000599FF00D1124EF5FFD4F6181361306C03F
:104CC0006081261303C06281E6120FC001968770CF
:104CD000D5CF9F7011F0882331F3805E883018F3B0
:104CE000C8010E942F1FFD2CB1CFEE2009F4AECFDA
:104CF0008091FF0181608093FF01F12CA7CF4313C6
:104D000006C0921304C0F801EE2009F479C0C8016E
:104D10000E94B113882309F1EE20F9F08091FF0180
:104D2000803270F02091FA013091FB0138872F8397
:104D30001986DB86CA868C87CE0107960E942F1FB4
:104D400086E0F801AAEFB1E001900D928A95E1F7B3
:104D50000E948325FF24F39479CFC8010E942F1F5E
:104D6000F9CF51110AC08AEF91E00E942F1F86E00F
:104D7000F50111928A95E9F7C0CF43130FC0921342
:104D80000DC0E1100BC0F8018583C8010E942F1FE0
:104D900086E0F50111928A95E9F758CFC8010E9483
:104DA000B1138823D1F2EE20C1F28091FF0180324D
:104DB00038F22091FA013091FB013A8329831B825A
:104DC000DD82CC828E83CE010196B8CFE83CF1051E
:104DD000F8F6FE2CEE2009F243131FC092131DC0FB
:104DE0008091FF0180FD10C0982F907F69F0F8013D
:104DF0008583903F31F0982F907F905F8F70892B43
:104E00008583C8010E942F1F86E0F801AAEFB1E058
:104E100001900D928A95E1F719CFC8010E94B11354
:104E200081118ECF8091FF0181608093FF01C801C5
:104E30000E942F1F0BCFEE2009F48FCFC8010E94D4
:104E4000B113F82E882309F488CF86E0F801AAEF81
:104E5000B1E001900D928A95E1F78091FA0190916D
:104E6000FB010E94A4130E948325F0CE81E08E25D1
:104E7000FBCEA7E1B0E0EFE3F7E20C9417344B8BE5
:104E80005C8B6D8B7E8B8F8B611110923B021A8A2B
:104E9000198A85E0FE017396DE011D9601900D9240
:104EA0008A95E1F786E0FE013D96DE0117960190B6
:104EB0000D928A95E1F7CE0107960E94D8258823A6
:104EC00059F016E08091310290910002891343C09D
:104ED0006796E3E00C94333486E0FE013796DE01FA
:104EE000119601900D928A95E1F78A859B85892B11
:104EF00041F38F81988589238F3F19F32091000218
:104F000030E0C90101968770992740913102481716
:104F1000190671F40E949319109200021092310246
:104F200086E0EAEFF1E0DF011D928A95E9F7C9CF4B
:104F300096E0929FD001939FB00D1124AF5FBD4FBB
:104F4000FE01319601900D929A95E1F7809300024F
:104F50000E948A0BB6CF819FC00111248F5F9D4FA5
:104F60000E94D825882309F4B3CF8091310290E0C4
:104F700001968770992780933102A4CFA9E1B0E010
:104F8000E4ECF7E20C940D348E010F5F1F4F8AE0C2
:104F9000D8011D928A95E9F781EAC82E81E0D82EC2
:104FA000F12CE12CAA24A394B12C2DEA822E21E02D
:104FB000922EF60181916F018F3F09F442C0F8945F
:104FC000E82FE295EF70F0E021A18F70A50102C0FB
:104FD000440F551F8A95E2F7CA01922F982B91A38F
:104FE00092A18095892382A3789400C0E6EAF1E03B
:104FF000712C31E021912F3F09F46BC0A22FA295B3
:10500000AF70B0E090968C9190E02F7002C09595B3
:1050100087952A95E2F780FD5CC0832F782A330FAD
:105020008E169F0639F7F601319780818F3F11F078
:105030000E946E0950EA5A95F1F7F801EE0DFF1D36
:1050400070828FEFE81AF80AA5E0EA16F10409F079
:10505000B0CF4AE050E0B80182E992E00E94A1346A
:10506000009741F02AE0F801A2E9B2E001900D9228
:105070002A95E1F700919D02892B69F181E08093E7
:1050800040020E946B1990933F0280933E028091F0
:105090003E0290913F020E945C19059700F110E0DA
:1050A00007521D4F45E050E062E972E0C8010E94DE
:1050B000A134D12C892B51F085E0E2E9F2E0D8014E
:1050C00001900D928A95E1F7DD24D394109240026D
:1050D00007C080E0A3CF809140028111D8CFD12CAE
:1050E0000E944A10C82EE0919D02882309F492C0C4
:1050F0007E01BBE0EB0EF11C85E0D7011D928A9585
:10510000E9F70E2F10E007521D4F80918D028A3073
:1051100008F04DC043E358E1B701C8010E941710E1
:10512000882309F466C042E956E1B701C8010E942C
:105130001710882309F45DC04FE757E1B701C80194
:105140000E941710882309F454C042E657E1B701C2
:10515000C8010E941710882309F44BC044E357E1AB
:10516000B701C8010E941710882309F442C047E024
:1051700058E1B701C8010E9417108823D1F110929D
:105180008D0280919C0290E045E050E0B70187528B
:105190009D4F0E94A13421E020934B02892BE1F422
:1051A000C12C8C2D8D296996EDE00C9429348091C9
:1051B0004102909142020E945C19843F914008F0A4
:1051C000A9CF80914B02882359F385E0F701119212
:1051D0008A95E9F710924B02A0919C02B0E0A75289
:1051E000BD4F85E0FE013B9601900D928A95E1F757
:1051F000D8CF80918D028F3F31F08F5F80938D02E9
:105200008A3008F4BECF0E946B19909342028093BB
:105210004102D7CFF0E0E752FD4F85E0AEE4B2E0C7
:1052200001900D928A95E1F765E070E08EE492E0DE
:105230000E94F80880934D0280905302909054028F
:10524000A0905502B090560280914702909148027A
:10525000A0914902B0914A0288169906AA06BB0697
:10526000D1F08092470290924802A0924902B092F7
:105270004A020E944A1081110EC00E949408861AA8
:10528000970AA80AB90A80928E0290928F02A09281
:105290009002B09291028091570280930D04809108
:1052A000580280937C02809159028093E70388E042
:1052B000EAE5F2E0DE011B9601900D928A95E1F796
:1052C00080915A02869500915B02F0905C02E0901A
:1052D0005D0210916102109261021123A9F010FF8A
:1052E0000BC09B8590FF61C09091DC03916090930F
:1052F000DC0360E00E94511511FF06C020E04E2D36
:105300006F2D802F0E940714409143025091440258
:1053100060914502709146022FB7F8948091EF0397
:105320009091F003A091F103B091F2032FBF841B81
:10533000950BA60BB70B0A97A105B10508F431CF61
:105340000E94940860934302709344028093450244
:105350009093460289E0E2E6F2E0DE011B960190BE
:105360000D928A95E1F7FE01749686E0DF011D92A9
:105370008A95E9F74C895D896E897F89888D998D39
:105380000E9465122C873D874E875F87688B798BDB
:1053900066E070E0CE010C960E94F8088B8789E0E9
:1053A000FE013B96A2E6B2E01FCF0E940A10A4CFF6
:1053B0001F921FB61F9211248F939F93AF93BF9399
:1053C0008091EE03811113C08091EF039091F0035F
:1053D000A091F103B091F2034196A11DB11D8093FC
:1053E000EF039093F003A093F103B093F203BF9106
:1053F000AF919F918F911F901FBE1F901895CDB7B1
:10540000DEB7AE970FB6F894DEBF0FBECDBF85B73F
:10541000806885BF85B7806885BF84B7877F84BF74
:105420000FB6F894A8958091600088618093600021
:10543000109260000FBE80E890E00FB6F894809361
:105440006100909361000FBE8CE699E09093D301C8
:105450008093D2010E9426070E94C7078091E20034
:1054600084608093E2007894809100048823A1F006
:105470001091E9001F709091EC00892F817090FDD0
:1054800080E8182B1092E9008091E80083FD0E94CB
:10549000BA191F701093E90082E084BD93E095BDB6
:1054A0009AEF97BD80936E0010928E0210928F0239
:1054B00010929002109291020E94DB13811102C09F
:1054C0000E9428130E944A1080935001809150013D
:1054D000882309F478C01092640183E28093650107
:1054E0000E944A1081110E94923280915001809155
:1054F000500195E0811190E090939D0285E0891B19
:1055000080939C0201EA11E066EAE62E61E0F62E45
:10551000D8018D918D018F3F11F00E946E09E01628
:10552000F106B1F706EA11E05DEAE52E51E0F52E4D
:10553000F80181918F018F3F11F00E946E09E016F2
:10554000F106B1F78AE0E9EDF2E0DF01282F1D92C4
:105550002A95E9F7E2E9F2E0DF011D928A95E9F781
:105560000E949C150E943E16811102C00E94CA151D
:1055700082E090E00E94B7348093A30284E090E040
:105580000E94C53490939F0280939E020E94BE2782
:10559000EFE3FCE93197F1F700C000000E94BE275D
:1055A0000E944A10E4E08111E0E0F0E0E752FD4F94
:1055B000808181FF0CC06FEF7FEF90E080E00E9460
:1055C000E9340E94830883E28093640187CF83E0FB
:1055D00090E00E94B7340E944A0C0E944A1088232F
:1055E00009F419C183E08093D40280FD16C180E8DC
:1055F00080930E040E944C316DE070E08CE492E0E8
:105600000E94F50E892BE9F58091D40263E070E0E9
:1056100081FD05C189E492E00E94F50E892B89F590
:105620006DE070E089E392E00E94F50E892B49F568
:105630000E949408605A75418F4F9F4F6093E10319
:105640007093E2038093E3039093E403E1E1F4E0D9
:1056500080E092E0DF019C011D9221503040E1F793
:10566000F0931806E09317068FEF9FEF90931004C6
:1056700080930F0481E08093E6038093E50310920A
:10568000D5028091A002811136C00E943E16811180
:1056900004C00E94CA150E94831588E090E00E9411
:1056A000BF346093DC037093DD038093DE0390933B
:1056B000DF03809109038360809309036E7F71F497
:1056C0000E94831588E090E00E94BF346093DC0361
:1056D0007093DD038093DE039093DF030E9414092F
:1056E0008091DC0380FF04C060E086950E94511524
:1056F00081E08093A0020E944A10811102C00E94A2
:1057000095320E94F51183E190E00E94BF346093CE
:10571000AF027093B0028093B1029093B202E62F71
:10572000F0E0EE0FFF1FE355FE4F808180935401A0
:1057300080935301E72FF0E0EE0FFF1FE355FE4F7C
:105740008081809352018093510185E591E090938F
:10575000EB038093EA0333EE232E32E0332E44240E
:105760004394512C8091000400E112E1853009F44A
:1057700093C00E94BE2704EA12E089ED682E82E001
:10578000782E2EEA32E0D301F80191918D912E17F7
:105790003F0709F48BC09817C1F30E944A10882E66
:1057A000B9EDEB2EB2E0FB2ED12CF701C1907F01B9
:1057B000D8019D908D019C1429F19C24B12CAA2420
:1057C000A394892D8A21B1F08820A1F0BEA2DFA286
:1057D00091E08C2D8A2109F490E098A70E946B1922
:1057E0008160782F9AA789A74EA15FA168A58AA595
:1057F0000E943927B394AA0CB7E0BB12E2CFF8019C
:105800003197C082D394EAE0DE12CFCF0E94940891
:10581000DD24D3946CC080E0E6CE80E2E9CE86E45D
:1058200092E0FACE80910004843041F10E941F0F73
:105830000E9483101092EE0388E190E0A0E40FB67E
:10584000F894A895809360000FBEA093600083B782
:10585000817F846083BF83B7816083BF789488959C
:1058600083B78E7F83BF0FB6F894A89580916000B0
:10587000886180936000109260000FBE8091FF03EA
:10588000882351F00E94BE27E9EDF2E08191811159
:10589000DAC42E163F06D1F780910004853009F452
:1058A000C1CF0E9493190E946F1063CF981375CFD8
:1058B0000E946B198C018091A1029091A20208179D
:1058C0001907A1F08FEF89A38AA31BA20E946B196D
:1058D0008160782F9DA38CA349A15AA16BA18DA1B2
:1058E0000E9439271093A2020093A102D12C0E949A
:1058F0004A108091E603882309F494C08091D6026F
:105900009091D7020E945C19C29708F468C00E9467
:105910006B199093D7028093D60281E194E0909323
:105920001806809317060E944A10882309F4A5C11F
:105930008FED92E00E94780E80910D040E944D0C34
:10594000813009F479C1882349F0823009F477C1A4
:10595000833009F477C181EC92E002C089ED92E0D6
:105960000E94780E81EB92E00E94780E0E946F10E8
:10597000182F85EA92E010FF02C08BEA92E00E94A5
:10598000780E89E992E011FF02C08FE992E00E944F
:10599000780E8DE792E012FF02C083E892E00E9449
:1059A000780E89E892E00E94780E8091B3028823F5
:1059B00009F44BC187E792E00E94780E8BE692E0F3
:1059C0000E94780E8091AE02882309F44AC185E6D0
:1059D00092E00E94780E89E592E00E94780E809114
:1059E0000F0490911004892B21F08091E60381111E
:1059F0006AC18091E5038823A9F00E949408009170
:105A0000E1031091E2032091E3033091E403601B72
:105A1000710B820B930B6F3F7F4F8F4F9F4710F49B
:105A20000E941F0FD1100E943A0F86E0E0EFF2E0D3
:105A3000DE01119601900D928A95E1F71092F20223
:105A40001092F3021092F4021092F5028B819C8165
:105A5000892B09F44AC08091E8029091E9020E94E2
:105A60005C199C019091E302992309F410C425313B
:105A70003105D8F19F3F19F09F5F9093E3021B819E
:105A8000112359F00E944C099FEF11160CF491E07C
:105A9000899F802D11248093F2021C81112359F0DB
:105AA0000E944C099FEF11160CF491E0899F802D04
:105AB00011248093F3023091F2023323B1F020914C
:105AC000F302222391F045EB3403C0011124992302
:105AD00009F40EC29093F20245EB240390011124C5
