:100000000C94E8060C942F070C942F070C94F632EE
:100010000C942F070C942F070C942F070C942F0788
:100020000C942F070C942F070C94E3170C94711C5D
:100030000C94B4290C942F070C942F070C942F07C1
:100040000C942F070C942F070C942F070C942F0758
:100050000C942F070C94BC180C942F070C942F07AA
:100060000C942F070C942F070C942F070C942F0738
:100070000C942F070C942F070C942F070C942F0728
:100080000C942F070C942F070C942F070C942F0718
:100090000C942F070C942F070C942F070C942F0708
:1000A0000C942F070C942F070C942F0705010902BD
:1000B000A10185020901A1000509190129081500FE
:1000C0002501950875018102050109300931158165
:1000D000257F95027508810609381581257F9501D0
:1000E00075088106050C0A38021581257F95017572
:1000F000088106C0C005010980A101850319012AF4
:10010000B700150126B700950175108100C0050CD8
:100110000901A101850419012AA002150126A002E6
:10012000950175108100C00660FF0961A101096297
:10013000150026FF00952075088102096315002629
:10014000FF00952075089102C005010906A101056F
:100150000719E029E7150025019508750181029529
:1001600001750881010507190029FF150026FF0008
:100170009506750881000508190129059505750181
:100180009102950175039101C0000000000000007C
:10019000000000000000000000000000000000005F
:1001A000000000000000000000000000007E0F00C2
:1001B000D4FFFFFFC700000078000000000000002F
:1001C000002A2B28000000000000000000000000B2
:1001D0000000000029000000002C1E3420212224F1
:1001E000342627252E362D3738271E1F202122237F
:1001F0002425263333362E37381F04050607080911
:100200000A0B0C0D0E0F10111213141516171819D6
:100210001A1B1C1D2F3130232D3504050607080934
:100220000A0B0C0D0E0F10111213141516171819B6
:100230001A1B1C1D2F3130354C00DA0281FFD9F119
:10024000DB20A4A62EAF00A0C000A1C800AED580C0
:10025000A81FD300408D1420002020202020202023
:10026000005343524C434B200020202020202020CC
:10027000004341504C434B200020202020202020D0
:10028000004E554D4C434B2000556E646566696EBB
:1002900065640A0041646A7573740A005261697387
:1002A000650A004C6F7765720A0044656661756C7B
:1002B000740A004C617965723A2000000000000069
:1002C00000000000000000000080C0E0E0F0F0F05E
:1002D000F0F0F0F0F0F0F0F0F0F0F0F0F0F0F0F01E
:1002E000F0F0F0F0E0C00000000080E0E0F0F0F09E
:1002F000F0F0F0F0F0F0F0F0F0F0F0F0F0F0F0F0FE
:10030000F0F0F0F0F0F0F0F0F0F0F0F0F0F0F0F0ED
:10031000F0F0F0F0F0F0F0F0F0F0F0F0F0F0F0F0DD
:10032000F0F0F0F0F0F0F0F0F0F0F0F0F0F0F0F0CD
:10033000E0C000000000000000000000000000001D
:1003400000000000000000007FFFFFFFFFFFFFFF35
:10035000FFFFFFFFFFFFFFFFFFFFFFFFFFFFFFFFAD
:10036000FFFFFFFFFFFF00000000FFFFFFFFFFFF99
:10037000FFFFFF87070303030303030303030303D1
:10038000030303030303030303030303030303033D
:1003900087FFFFFFFFFFFFFFFFFFFFFFFFFFFFFFE5
:1003A000FFFFFFFFFFFFFFFFFFFFFFFF7F3F1F0F6D
:1003B0000701000000000000000000000000000035
:1003C000000000000000000000000101030303031F
:1003D00003030303030303030303030303030303ED
:1003E000FFFFFFFFFFFF00000000FFFFFFFFFFFF19
:1003F000FFFFFFFFFFFFFFFFFFFFFFFFFFFFFFFF0D
:10040000FFFFFFFFFFFFFFFFFFFFFFFFFFFFFFFFFC
:10041000FFFFFFFFFFFFFFFFFFFFFFFFFFFFFFFFEC
:10042000FFFFFF7F3F3F1F0F070301000000000099
:1004300000000000000000000000000000000000BC
:1004400000000000000000000000000000000000AC
:10045000000000000000000000000000000000009C
:10046000070F0F0F0F0700000000030F0F0F0F0FF4
:100470000F0F0F0F0F0F0F0F0F0F0F0F0F0F0F0F8C
:100480000F0F0F0F0F0F0F0F0F0F0F0F0F0F0F0F7C
:100490000F0F0F0F0F0F0F0F0F07070703030301B6
:1004A000010000000000000000000000000000004B
:1004B0000000000000000000000000000101010138
:1004C000010101010102020202020202020203030F
:1004D00003030303030304040404040404050505DF
:1004E00005050606060606070707070708080808A1
:1004F000090909090A0A0A0B0B0B0C0C0C0D0D0D4E
:100500000E0E0E0F0F0F10101111111212131314E3
:1005100014151516161717181819191A1A1B1B1C5B
:100520001D1D1E1E1F2020212222232424252626B5
:10053000272829292A2B2C2D2D2E2F3031323233EA
:100540003435363738393A3B3C3D3E3F40414243F3
:100550004445464748494A4C4D4E4F5051535455D7
:100560005658595A5B5D5E5F616264656668696B87
:100570006C6D6F7072737577787A7B7D7E80828305
:100580008587888A8C8E8F91939596989A9C9EA049
:10059000A2A3A5A7A9ABADAFB1B3B5B7BABCBEC056
:1005A000C2C4C6C9CBCDCFD1D4D6D8DBDDDFE2E41F
:1005B000E7E9EBEEF0F3F5F8FAFDFF00AF00AE2946
:1005C000001E001F002000210022002F0035001413
:1005D000001A000800150017002D002B000400165B
:1005E00000070009000A004C00E1001D001B000686
:1005F00000190005002C00E000E300E20035048152
:100600005F2C004C00460027002600250024002314
:100610000030003100130012000C0018001C002EE6
:1006200000340033000F000E000D000B002A00E51F
:10063000003800370036001000110028004F00522B
:100640000051005000825F28002A0044003A003B1D
:10065000003C003D003E002F0235021E021F02201A
:1006600002210222022D022B001E001F0020002169
:100670000022004C00E10023002400250026002772
:10068000002C00E000E300E2003504815F2C004C08
:1006900000450043004200410040003F003002316D
:1006A00002270226022502240223022E02340233EC
:1006B000020F000E000D000B002A00E50038023783
:1006C0000236021000110028004D004B004E004A77
:1006D00000825F28002A0044003A003B003C003DB5
:1006E000003E002F0235021E021F022002210222BC
:1006F000022D022B001E001F002000210022004CB2
:1007000000E100230024002500260027002C00E043
:1007100000E300E2003504815F2C004C00450043FB
:10072000004200410040003F003002310227022613
:10073000022502240223022E02340233020F000E8D
:10074000000D000B002A00E50038023702360210C7
:100750000011002800845F855F4E004A00825F28F8
:10076000002A000100010001000100010001000158
:10077000000100005CC25CC35CC65CC55C0100019A
:10078000000100BF5CC15CBE5CBD5C0100010001FA
:100790000001000100010001000100010001000151
:1007A0000001000100010001000100010001000141
:1007B0000001000100010001000100C95CCA5CC722
:1007C0005CC85C01000100010001000100010001A2
:1007D0000001000100010001000100010001000111
:1007E00000010001000100010001000100010009F9
:1007F000025B00030100A0FA0904000001030101EB
:1008000000092111010001224000070581030800B1
:100810000A0904010002030000000921110100017E
:1008200022220007058203200001070503032000A0
:100830000109040200010300000009211101000167
:10084000227B000705840320000A12010002000039
:1008500000081DFE60600001010200011403450054
:10086000720067006F006B006E0069006600650033
:100870000000180354006F007500630068007300E7
:1008800065006E0073006F0072000000040309042D
:1008900007087F0807003E5B4F5B3E003E6B4F6BD7
:1008A0003E001C3E7C3E1C00183C7E3C18001C5741
:1008B0007D571C001C5E7F5E1C0000183C18000069
:1008C000FFE7C3E7FF00001824180000FFE7DBE79D
:1008D000FF0030483A060E00262979292600407F7D
:1008E00005050700407F05253F005A3CE73C5A00BC
:1008F0007F3E1C1C0800081C1C3E7F0014227F2227
:1009000014005F5F005F5F0006097F017F000066E3
:1009100089956A0060606060600094A2FFA2940004
:1009200008047E04080010207E20100008082A1CFD
:100930000800081C2A0808001E10101010000C1EC9
:100940000C1E0C0030383E383000060E3E0E0600FD
:1009500000000000000000005F000000000700072A
:100960000000147F147F1400242A7F2A120023130E
:100970000864620036495620500000080703000052
:10098000001C224100000041221C00002A1C7F1C88
:100990002A0008083E08080000807030000008089F
:1009A0000808080000006060000020100804020031
:1009B0003E5149453E0000427F400000724949498E
:1009C00046002141494D33001814127F100027457D
:1009D000454539003C4A4949310041211109070088
:1009E000364949493600464949291E00000014008D
:1009F00000000040340000000008142241001414DC
:100A000014141400004122140800020159090600C0
:100A10003E415D594E007C1211127C007F494949CC
:100A200036003E41414122007F4141413E007F4925
:100A3000494941007F09090901003E4141517300C4
:100A40007F0808087F0000417F4100002040413FAF
:100A500001007F08142241007F40404040007F0297
:100A60001C027F007F0408107F003E4141413E0090
:100A70007F09090906003E4151215E007F091929BD
:100A8000460026494949320003017F0103003F40E7
:100A900040403F001F2040201F003F4038403F00A3
:100AA0006314081463000304780403006159494D7A
:100AB0004300007F41414100020408102000004132
:100AC00041417F00040201020400404040404000D8
:100AD0000003070800002054547840007F28444455
:100AE0003800384444442800384444287F003854AF
:100AF0005454180000087E09020018A4A49C780031
:100B00007F080404780000447D4000002040403D00
:100B100000007F102844000000417F4000007C045A
:100B2000780478007C080404780038444444380091
:100B3000FC182424180018242418FC007C08040441
:100B4000080048545454240004043F4424003C400A
:100B500040207C001C2040201C003C4030403C00D9
:100B60004428102844004C9090907C004464544CDD
:100B700044000008364100000000770000000041FA
:100B8000360800000201020402003C2623263C0035
:100B9000000000000000404040F0F8F8FF38FFF887
:100BA000F83FF8F8FF38FFF8F8F040404000000048
:100BB00000000080C0C0C0800000C0C080000000F5
:100BC00080C0C000C0C0000080C0C00000000000A5
:100BD000C0C0C0C0C000C0C00000000000000000D5
:100BE0000000000000000000000000000000000005
:100BF00000000000000000000000000000000000F5
:100C0000000000000000000000000000000000C024
:100C1000F0F8FC3E1E06010000007F4141417F00CC
:100C20007F4141417F000080C0E07E5B4F5BFEC0A2
:100C30000000C000DCD7DEDEDED7DC00C000000034
:100C400000000000000000000000000000000000A4
:100C5000000000000000494949FFFFFFFFE0DFBF3F
:100C6000BF00BFBFDFE0FFFFFFFF494949000000B1
:100C700000001F3F6060E0BF1F007F7F071E381E1F
:100C8000077F7F007F7F0E1F3B7160000000000028
:100C90007F7F0C0C0C007E7E007F7E0303007F7E36
:100CA00003037E7E03037F7E000F3E703C063C7094
:100CB0003E0F00327B49493F7E007F7E0303001ECA
:100CC0003F69696F2600000000000000000000037B
:100CD0000F1F3F3C7870600000007F4141417F0062
:100CE0007F4141417F00307B7F7830202030787F0A
:100CF0003B0003000F7F0F0F0F7F0F00030000006A
:100D000000000000000000000000000000000000E3
:100D1000000000000000010101070F0F7F0F7F0F8F
:100D20000F7E0F0F7F0F7F0F0F07010101000000E3
:100D300000000000000000010100000000000000B1
:100D400000000000000000000000000000000000A3
:100D50000000000000000000000000000000000093
:100D60000000000000000000000000000000000083
:100D70000000000000000000000000000000000073
:100D80000000000000000000000000000000000063
:100D90000000000000000000000000000000000053
:100DA0000000000000000000000000000000000043
:100DB0000000000000000000000000000000000033
:100DC0000000000000000000000000000000000023
:100DD00011241FBECFEFDAE0DEBFCDBF04B603FEA5
:100DE00027C08091710690917206A0917306B09110
:100DF00074068730904BA740B04BD1F41092710627
:100E000010927206109273061092740614BE84B784
:100E1000877F84BF0FB6F894A895809160008861A1
:100E200080936000109260000FBEE0E0F8E3099547
:100E300012E0A0E0B1E0E4E1FCE602C005900D9212
:100E4000A030B107D9F726E0A0E0B2E001C01D92C2
:100E5000A137B207E1F70E94DB290C94C8350C9446
:100E60000000FC01AC014B5F5F4F8FEF91E32191DC
:100E7000822728E030E087FF09C0880F89272150AA
:100E80003109C9F7E417F50791F70895880FF7CFEF
:100E9000E8EDF0E080818E7F80831092E200109276
:100EA000DA001092E100A0EEB0E08C9181608C93AA
:100EB00080818F77808319BCA7EDB0E08C918E7F05
:100EC0008C9380818F7E808310924B0408952091B3
:100ED000E4003091E50095E6A9012091EC00822F15
:100EE000817020FF06C08091E80080FF06C080E08E
:100EF00008952091E80022FD1AC0809158048823AB
:100F000089F0853089F08091EB0085FD0FC020913C
:100F1000E4003091E50042175307F9F29150E1F6F1
:100F200084E0089582E0089583E0089581E00895C3
:100F3000EF92FF920F931F93CF937C018B010E943E
:100F40006707C82F811117C08091E80085FD0BC08D
:100F50008091E8008E778093E8000E9467078823DD
:100F600099F3C82F08C0F70181917F018093F100A8
:100F70000150110949F78C2FCF911F910F91FF90CC
:100F8000EF90089580915A0487FF13C08091E80084
:100F900082FF06C08091E8008B778093E80004C050
:100FA000809158048111F2CF0895809158048823CC
:100FB000D9F38091E80080FFF8CF8091E8008E7728
:100FC000ECCF982F9093E900242F762F50E08917CB
:100FD00031F07091EC002091ED005091F00021FD76
:100FE00007C09F5F973071F78093E90081E0089513
:100FF0003091EB003E7F3093EB003091ED003D7F70
:101000003093ED003091EB0031603093EB00709342
:10101000EC002093ED005093F0002091EE0027FDAE
:10102000E0CF80E00895CF92DF92EF92FF920F938E
:101030001F93CF93DF93C8EDD0E088818F7E8883A4
:10104000E7EDF0E080818160808384E082BF81E011
:1010500080934B0488818E7F888302EE10E0F80134
:1010600010821092DA0081EEC82ED12CF601108287
:1010700088818F77888388818068888388818F7D45
:10108000888319BC10925804109259041092570486
:101090001092560490EEE92EF12CF70180818B7F9F
:1010A000808388818160888342E060E080E00E94E4
:1010B000E107F60180818E7F8083F8018081816065
:1010C0008083808188608083F70180818E7F808328
:1010D000888180618883DF91CF911F910F91FF906C
:1010E000EF90DF90CF900895FC0180916004909183
:1010F000610486179707A0F06115710529F4909196
:10110000E8009E779093E80090E06115710551F436
:10111000911108C08091E80082FF34C080E00895FA
:10112000BC01F2CF809158048823C1F18530C1F110
:101130008091E80083FD30C08091E80082FDEACF15
:101140008091E80080FFE1CF8091F3002091F200D0
:10115000382F6115710519F02830310558F091E0EC
:101160002830310509F090E02091E8002E77209397
:10117000E800CBCF81918093F100615071092F5F1E
:101180003F4FE7CF80915804882341F0853041F0EC
:101190008091E80083FFBECF81E0089582E008954A
:1011A00083E00895089580914D04089587E797E7B7
:1011B000909301088093000888E19AE00FB6F894B4
:1011C000A895809360000FBE90936000FFCF2FB76B
:1011D000F894609144047091450480914604909184
:1011E00047042FBF089520914104309142042817ED
:1011F000390771F09093420480934104E0913F04D9
:10120000F0914004309721F00084F185E02D09949D
:10121000089520913D0430913E042817390771F05C
:1012200090933E0480933D04E0913F04F09140048C
:10123000309721F00680F781E02D09940895E09120
:101240003F04F0914004309739F022E0DC012C9308
:101250000480F581E02D09940895FA01811101C0FF
:10126000FB01099480913104982F9E7F71F4809145
:101270003104817082608093310480913404893715
:1012800018F088E7809334040895843080F7F5CF10
:1012900040915803803F59F48091590387FF0DC056
:1012A0001092590341110BC01092500308C0813FA6
:1012B00081F48091590318169CF3442381F08091A6
:1012C0005A0390915B03892B09F05AC010924F0387
:1012D0000895823F49F447FFF0CF10925803809160
:1012E00059038111ECCFE0CF833F19F41416ACF30E
:1012F000E4CF90915A03893F29F41916F4F610921D
:101300005A03DBCF8A3F19F497FFD7CFF8CF9091DC
:101310005B038B3F29F497FFD0CF10925B03CDCFB7
:101320008C3F19F41916CCF3C8CF9CE0980F953078
:1013300090F4845F990B21E030E0B90102C0660FA0
:10134000771F8A95E2F7CB01809590915703892307
:1013500080935703B2CF8D3F31F4809151038E7F3C
:1013600080935103AACF8E3F21F4809151038D7F4A
:10137000F7CF8F3F09F0A1CF809151038B7FF0CF42
:1013800008958091510380FD16C081FD16C082FD35
:1013900016C080914F038823A1F0883280F428E0A2
:1013A000829FC001112468E270E00E94A434862F5D
:1013B000672B39F0089582E0089584E0089588E06D
:1013C000089581E008958091510380FD14C081FD4E
:1013D00014C082FD16C080915003882381F08431AF
:1013E00080F422E3829FC001112464E170E00E9436
:1013F000A434862F08958CE0089589E1089585E04E
:10140000089582E30895803F31F40E94E3098195B5
:10141000809359030895813F19F40E94E309F8CF9E
:10142000823F31F40E94E309819580935803089527
:10143000833F19F40E94E309F8CF893F29F40E9401
:10144000C10980935A0308958A3F21F40E94C1097B
:101450008195F7CF8B3F31F40E94C109819580932C
:101460005B0308958C3F19F40E94C109F8CF9CE0FA
:10147000980F953070F4845F990B21E030E001C043
:10148000220F8A95EAF780915703822B80935703A6
:1014900008958D3F31F48091510381608093510311
:1014A00008958E3F21F4809151038260F7CF8F3FE2
:1014B000B9F7809151038460F1CF80914903F9011C
:1014C0008083809147038183089580E00895789414
:1014D0000895E0919402EC30A4F48AE0E802F0016F
:1014E0001124E85EFE4F0084F185E02D309749F02D
:1014F00027EB32E04091960267E972E08091950215
:1015000009940895EFE7F2E0868980936A0187895C
:10151000809381010895F894E82FE295EF70F0E050
:1015200031A1282F2F7081E090E001C0880F2A950B
:10153000EAF7982F9095932391A392A1892B82A3E8
:101540000C94670A9091F90292FF06C0282F287127
:101550002830F9F4877F846093FF06C0282F287114
:101560002831F1F4877E84612091FA0220FF06C0C1
:10157000382F38713830D9F4877F816021FF06C059
:10158000282F28712831D1F4877E816194FD877ED0
:101590000895282F24712430F9F68B7F8860DCCFE2
:1015A000282F2471243101F78B7E8861DDCF382FFD
:1015B0003171313019F78E7F8860E0CF282F21718B
:1015C000213121F78E7E8861E1CFCF93DF93EC014B
:1015D00082389105A9F1D8F58133910509F496C0B7
:1015E00048F58932910509F48AC08A9709F495C0B3
:1015F000C11521E5D20708F0BCC0C11530E5D307FD
:1016000008F014C1C83ED10508F09CC0C03ED10509
:1016100060F5C83AD10508F087C0C53AD10508F091
:10162000FDC0C130D10509F12097F9F0C430D105D2
:10163000E0F440C08533910509F45AC0C997C1F65A
:101640008091F902837089F0C0EED0E00EC0833E35
:10165000910599F170F4803E910501F1823E91056A
:1016600039F68091F90282FD21C0CE01DF91CF9140
:101670000895863E910561F1873E910571F1843EA2
:10168000910509F0B5CF8091FA0281FFEECF8091EC
:10169000F902C7EED0E084FD0DC0E7CF8091F902DA
:1016A00080FD12C19091FA0290FFDFCFC3EED0E02F
:1016B00084FFDBCFD0E0C0E0D8CF8091F90282FD7B
:1016C00006C19091FA0290FDBFCF84FFCECFF2CF3A
:1016D0008091F90283FDDDCFC8CF8091F90283FDAF
:1016E000F9C09091FA0291FFF0CFC4EED0E0BDCFE7
:1016F0008091F90285FFB9CFC9E2D0E0B6CF8091E1
:10170000F90285FFB2CFC5E3D0E0AFCF8091F902F7
:1017100086FFABCFCAE2D0E0A8CF8091F90286FF66
:10172000A4CFC1E3D0E0A1CFCF3BD10518F6C85A72
:10173000D0E0CC0FDD1FC756DE4F0990D881C02DF9
:10174000D46493CFC11540E2D40758F4C11581E0A9
:10175000D80708F08ACFC03FD10508F4ABCFD065D9
:1017600084CFC11590E4D90708F4A4CFDF70D06A04
:101770007CCFC11525E5D20700F5C11534E5D307A7
:1017800008F08AC0C11543E5D40708F071C0C1153F
:1017900082E5D80708F467C0CE018370992721E05D
:1017A00030E002C0220F331F8A95E2F7C695C69536
:1017B00080E2C89FE001112452C0C11599E5D90704
:1017C000A8F4C11528E5D20708F06BC0C11536E5AD
:1017D000D30708F06FCF8C2F0E94A20AC82FD0E049
:1017E000DC2FCC27CC27DF71D0623FCFC1154AE573
:1017F000D40708F45BC0CE0190568115904208F0E2
:1018000059CF8D2F8F710E94A20A90E0982F8827C0
:1018100088279F719C012C2BE901E6CFC55AD0E0A7
:10182000CA56DE4FC881D0E0D0641FCFCE01E4E0BD
:1018300096958795EA95E1F783702C2F2695269546
:10184000237040E2249F90011124382B8C2F837049
:10185000C1E0D0E002C0CC0FDD1F8A95E2F7C22BB9
:10186000D32BDC6802CFDC2FCC27C16FD06AFDCE32
:10187000CE018370992721E030E002C0220F331F90
:101880008A95E2F7C695C69590E2C99FE0011124BA
:10189000C22BD32BDA68E9CEDC2FCC27C46FD06AF9
:1018A000E4CEDC2FCC27C06FD06ADFCE8C2F8F70B8
:1018B0000E94A20A34E0D695C7953A95E1F7CF7019
:1018C0009C2FEC01D069D1CEC9E3D0E0CECEC2EEE0
:1018D000D0E0CBCEC6EED0E0C8CE809173028111AD
:1018E00010927302089580959091720298239093BC
:1018F000720208958091720290917102892B9091E9
:101900007002892B8093020290917302992391F0C7
:10191000892B8093020220E084E092E0FC01319167
:10192000CF0131112F5FF2E08A309F07B9F7211103
:101930000E946D0CE0913F04F0914004309731F02B
:101940000280F381E02D82E092E009940895E4E0C2
:10195000F2E09191891303C0DF0111971C9292E08C
:10196000EA30F907B1F70895A4E0B2E0EFEF90E0B4
:101970002D91821751F0EF3F19F4211101C0E92F89
:101980009F5F9630A9F7EF3F09F408950E2E000CE3
:10199000FF0BEE5FFD4F8283089580916E02909160
:1019A0003D02981301C008958F5F8770FACF27E03A
:1019B000929F800D1124982F977086958695869515
:1019C00023E0829FF0011124E45EFD4F50E040E0EF
:1019D00080E0219130E0092E02C0369527950A94C7
:1019E000E2F721703327042E01C0220F0A94EAF790
:1019F000822B4F5F5F4F4330510559F7089527E021
:101A0000929F800D1124982F977041E001C0440FE0
:101A10009A95EAF786958695869593E0899FF001D9
:101A20001124E45EFD4F90E080E070E05191DF0111
:101A300011979B01082E02C0369527950A94E2F76C
:101A4000217021952527242325272C930196833067
:101A5000910561F70895882321F00E94730C0C947E
:101A60007A0C0895882339F090917202982B909304
:101A700072020C947A0C0895982F92959F7011F031
:101A8000892F94E0282F2695269511F09E5F822FAE
:101A9000869509F09F5F892F0895CF93DF93C091BA
:101AA0001202C80F41F41092120260E070E0CB0104
:101AB000DF91CF9108958C2F64E10E949634D92F45
:101AC000682F880F770B880B990B0E946435D09391
:101AD0001202CD5EC73260F310921302E9CFCF93AA
:101AE000DF93C0911302C80F41F41092130260E01B
:101AF00070E0CB01DF91CF9108958C2F6AE00E94B6
:101B00009634D92F682F880F770B880B990B0E947A
:101B10006435D0931302C75FC33160F31092120291
:101B2000E9CF0F931F93CF93DF93C82FD62F082FA2
:101B300010E06003B0011124072E000C880B990BF4
:101B40000E9464352D2F0D2E000C330B37FF03C080
:101B50003195219531092330310584F021E02C0F96
:101B60002330D0F41D167CF433E0C39FB001112460
:101B7000072E000C880B990B0E946435DF91CF91E2
:101B80001F910F910895C801880F991F880F991F01
:101B9000B801681B790BECCFCC5FC93078F71D1604
:101BA00034F4B801660F771F660F771FE1CF2CEF73
:101BB0002003B001219F700D1124DACFCF93DF9362
:101BC000C0916F06D09170068A30C1F420916604EE
:101BD000CE0189569440622F70E00E947634281B13
:101BE000822F66E00E948A34C82FC15018F4DF911A
:101BF000CF91089580E20E94DE0DF7CF8D30E9F499
:101C0000C956D44020916604622F70E0CE010E9434
:101C10007634281B822F9E01280F311D211532405A
:101C200018F080E0D0E0C0E0C80FD11DC759DB4FED
:101C3000D0937006C0936F06DACF96E0FE01A9E656
:101C4000B6E001900D929A95E1F7803E08F458C0F5
:101C500086E0FE0111928A95E9F7C0916F06D09156
:101C6000700646E050E0BE0189E696E00E94CE3460
:101C70009E0129563440892B41F1C90145E09695D2
:101C800087954A95E1F741E050E0BA0102C0660F3E
:101C9000771F8A95E2F7CB01609167047091680421
:101CA000862B972BB9016B5F7F4FE5E076956795A3
:101CB000EA95E1F702C0440F551F6A95E2F7842BBD
:101CC000952B90936804809367042A5F3F4F40915F
:101CD0006604642F70E0C9010E947634481B4630C8
:101CE00010F4240F311D211572E0370710F030E099
:101CF00020E027593B4F3093700620936F0677CF33
:101D0000F6E08F9FB00111246057774F46E050E016
:101D1000CE010E94C534A1CFCF93DF93EC01FE0129
:101D20008491811103C0DF91CF9108950E94DE0D4F
:101D30002196F5CFCF92DF92EF92FF920F931F93F0
:101D4000CF93DF936C017B0164E670E088E70E942B
:101D50004531EC0197FD12C010E000E0F601E00F04
:101D6000F11F849164E670E00E94BF31EC01892B81
:101D700029F40F5F1F4F0E151F0581F70E94423295
:101D8000CE01DF91CF911F910F91FF90EF90DF90E7
:101D9000CF90089580913A0490913B04911103C033
:101DA00091E089270895882369F062E070E08DEB67
:101DB00095E00E949A0E892B19F080913A040895BB
:101DC00010923A0480913A04EBCFCF93C0913A0439
:101DD00080913B048823D1F00E94E708605A754146
:101DE0008F4F9F4F6093360470933704809338046D
:101DF00090933904C11108C062E070E08BEB95E06C
:101E00000E949A0E892B29F0C0913A048C2FCF9111
:101E1000089581E080933A04F7CF8093480470934B
:101E20004A0460934904809158048430F9F4809303
:101E3000E9008FEF9091E800815095FD06C095ED87
:101E40009A95F1F700008111F5CF8091E80085FFA8
:101E50000DC050E040E063E070E088E494E00E9450
:101E600098078091E8008E778093E8000895BC0180
:101E700084E00C940D0FBC0183E00C940D0F9C01C9
:101E800084E08093E9009FEF8091E800915085FD08
:101E900006C085ED8A95F1F700009111F5CF80918C
:101EA000E80085FF0CC050E040E066E070E0C9014A
:101EB0000E9498078091E8008E778093E80008954B
:101EC000CF93DF93EC0181E08093E9008FEF909155
:101ED000E800815095FD06C095ED9A95F1F7000058
:101EE0008111F5CF8091E80085FF14C050E040E0FB
:101EF00068E070E0CE010E9498078091E8008E773C
:101F00008093E80088E0FE01AEE4B4E001900D9219
:101F10008A95E1F7DF91CF910895609191018091C9
:101F2000310480FF20C08091900143E0849FC00174
:101F30001124815A9C4F539A2BB1277F3BB13860B3
:101F40005FB7F894FC01649FE00DF11D1124BF01FF
:101F500068177907D1F45FBF8FE594E00197F1F737
:101F600000C000000895809192019091930123E0B8
:101F7000829FF0011124E15AFC4F8917A0F61182CB
:101F8000108212828F5F3396F8CFFC014191CF010E
:101F9000E8E03BB9000000C047FF2BB9440F000048
:101FA00000C000C000C02BB900C0EA9591F7D0CFA7
:101FB000E1E3F4E080818E7F8083ECE5F3E08281D1
:101FC000816082832FEF80E792E021508040904033
:101FD000E1F700C000000C948D0F9F92AF92BF926A
:101FE000CF92DF92EF92FF920F931F93CF93DF93E5
:101FF0007C015B016A018091460301E010E08A30B8
:1020000010F40AE010E0C1E0D0E0F894B501C70197
:10201000F6010995982E0E94670A911004C0219636
:102020000C171D076CF4892DDF91CF911F910F9133
:10203000FF90EF90DF90CF90BF90AF909F9008956A
:10204000CC9F9001CD9F300D300D112490E080E0A9
:1020500045E34A95F1F70000019682179307C1F70F
:10206000D4CF80917E02811118C088EC9091E3005A
:1020700097FD10C0EFE3FCE93197F1F700C00000D5
:102080008150A1F782E080937E020E94480710925F
:10209000580403C081E080937E0281E090917E022B
:1020A000913011F080E0089508950E94311081115F
:1020B00003C080913C040895E0913F04F0914004F6
:1020C000309721F00190F081E02D099480E008958F
:1020D00094EA9093BC009AE69A95F1F700C090912B
:1020E000B900987F983039F09091B900987F90317D
:1020F00011F081E008958093BB0084E88093BC00D8
:1021000083EE92E00197F1F700C000008091B900E2
:10211000887F883129F08091B900887F803449F721
:1021200080E00895EF92FF920F931F93CF93DF9378
:10213000C82F8CE60E9468108BEBE82EF12CF7017B
:10214000C083CCEBD0E004E8088383EE92E00197F3
:10215000F1F700C000008091B90014E918839AE6F5
:102160009A95F1F700C08DE60E9468100883E3EEAF
:10217000F2E03197F1F700C00000F7018081188389
:10218000FAE6FA95F1F700C0DF91CF911F910F9118
:10219000FF90EF9008954F925F926F927F928F928F
:1021A0009F92AF92BF92CF92DF92EF92FF92CF9326
:1021B000DF93CDB7DEB76C970FB6F894DEBF0FBED6
:1021C000CDBF86E0E6E1F2E0DE011D9601900D92C2
:1021D0008A95E1F786E0FE013D96DE0111960190B9
:1021E0000D928A95E1F786E0FE013196DE01539665
:1021F00001900D928A95E1F783E00E949210F82EEB
:1022000084E00E949210382F23E08F2D622F0E94CD
:102210009634E82E832F622F0E949634F82E0E9467
:102220003110882309F4FEC08091140290911102AC
:102230008913C0C09E2D9F2981119DC009F090C0B7
:1022400060910201809149030E94910D2B013C0194
:1022500060910101809147030E94910D4B015C0147
:10226000C12CD12C7601C98EDA8EEB8EFC8E1092A9
:102270004A03109249031092480310924703C30186
:10228000B2010E942C356D8BC501B4010E942C3522
:1022900061956E8BC701B6010E942C356F8B698DDD
:1022A0007A8D8B8D9C8D0E942C356195688F86E090
:1022B000FE017396DE01119601900D928A95E1F769
:1022C00086E0FE013196A6E1B2E001900D928A957A
:1022D000E1F786E0E6E1F2E0DE01179601900D926B
:1022E0008A95E1F786E0EBE0F2E0DE0111960190DD
:1022F0000D928A95E1F746E050E0BE016F5F7F4F97
:10230000CE0107960E94CE34892B21F086E192E01F
:102310000E941F09109218021092190210921A02BC
:1023200010921B0286E0E6E1F2E0ABE0B2E0019041
:102330000D928A95E1F76C960FB6F894DEBF0FBE4A
:10234000CDBFDF91CF91FF90EF90DF90CF90BF9006
:10235000AF909F908F907F906F905F904F90089577
:10236000609104018E2D0E94910D2B013C01609122
:1023700003018F2D71CF911114C0809149030E94E8
:102380006F0D698F7A8F8B8F9C8F809147030E948E
:102390004D0D6B017C01812C912C540124013501E0
:1023A00066CF8E2D0E946F0D698F7A8F8B8F9C8FD9
:1023B0008F2DEDCFC0904903D090470381111BC0F2
:1023C000609104018E2D0E94910D2B013C016091C2
:1023D00003018F2D0E94910D4B015C018C2D0E94F9
:1023E0006F0D698F7A8F8B8F9C8F8D2D0E944D0D75
:1023F0006B017C013CCF609102018C2D0E94910DFC
:102400002B013C01609101018D2D0E94910D4B012A
:102410005C018E2D0E946F0D698F7A8F8B8F9C8F40
:102420008F2DE4CF8E2D0E2C000C990B90934A0328
:10243000809349038F2D0F2C000C990B9093480328
:10244000809347036E2DEE0C770B880B990B0E943F
:1024500064352B013C016F2DFF0C770B880B990B1A
:102460000E9464354B015C01C12CD12C7601C98ED0
:10247000DA8EEB8EFC8E03CFCF93DF93C7E5D2E0ED
:1024800060E0CE010E94F8342196C11584E0D8079F
:10249000B9F7DF91CF9108956F927F928F929F92BB
:1024A000AF92BF92CF92DF92EF92FF920F931F9362
:1024B000CF93DF938FEBC82E85E0D82E91ECE92ED9
:1024C000F12CE701CC58D10936011BC0F5018590EC
:1024D0009490692DC8010E94F834682DC8010196B6
:1024E0000E94F83482E0A80EB11C0E5F1F4FC01787
:1024F000D10761F78EE0680E711C2E96CE15DF05B0
:1025000029F08E010E5011095301E0CF7E018CE8B5
:10251000E80EF11C8CE8C80ED11C81EFE81682E0B1
:10252000F80679F6DF91CF911F910F91FF90EF9010
:10253000DF90CF90BF90AF909F908F907F906F90E3
:102540000895CF93C82F6FEF811162E283E290E08C
:102550000E94F8346FEFC11165E084E290E00E94C0
:10256000F8346FEFC11164E085E290E0CF910C94F4
:10257000F83480E00E94A11260E086E290E00E94C0
:10258000F8340E944C120E943C1281E00C94A1127B
:102590000F931F93CF93DF93C42FD0E0CC0FDD1F99
:1025A0002EE0629FC00DD11D11243CE8839FC00D19
:1025B000D11D1124CE0187960E94E434082F10E02B
:1025C000102F0027CE0188960E94E4349801282B12
:1025D000C901DF91CF911F910F910895462F84304B
:1025E00038F47A3028F4673018F4672F0C94C81246
:1025F00090E080E00895CF92DF92FF920F931F93B7
:10260000CF93DF936C01009165048091E802082B61
:10261000C7E0D0E010E0FC2EC8010C2E02C095955A
:1026200087950A94E2F780FD0CC02197A0F7F12C62
:102630008F2DDF91CF911F910F91FF90DF90CF9061
:102640000895B6018C2F0E94EE120E94E50A0197B0
:1026500061F3EECFCF93DF93EC010E94FB12BE013A
:102660000E94EE12DF91CF910C94E50AFC0180816B
:1026700091810E942A13292F2F7092959F7092505A
:102680009E3078F4E92FF0E0E653FA4C0C94B8341D
:10269000803F19F020F4883E20F481E00895843FC3
:1026A000E1F380E00895883EC0F3813FD1F7F5CF94
:1026B000822F869586958695089583E290E00E9404
:1026C000E434823289F484E290E00E94E43485307C
:1026D00059F485E290E00E94E43491E0843009F0FE
:1026E00090E0892F8170089580E0FCCFCF9384E043
:1026F00090E00E94E434C82F82E290E00E94E4342B
:10270000982F8C2FCF910895CF92DF92EF92FF9266
:102710006B017C010E943209B701A60188E090E0BC
:10272000FF90EF90DF90CF900C940A358F929F929C
:10273000AF92BF92CF92DF92EF92FF920F931F93CF
:10274000CF93DF93182FC62FD42F822E0091310400
:1027500000FFD8C0E02FE695F0E0E251FE4F808107
:1027600080935C03802F8E7F8230E9F4E42F493719
:1027700008F0E8E7F0E0E554FB4FC11144C02491B4
:10278000F22FE22F00FF0FC08091920190919301F0
:1027900033E0839FD0011124A15ABC4F891708F45C
:1027A000A7C00E948D0F80913204811308C08091D0
:1027B00033048C1304C0809134048D1729F0809168
:1027C0005E03826080935E0310933204C0933304EF
:1027D000D0933404882009F495C06091310470913D
:1027E00032048091330490913404DF91CF911F9192
:1027F0000F91FF90EF90DF90CF90BF90AF909F90A0
:102800008F900C948413EC2EF12CE4919E2ECE2EFE
:10281000D12C26E0129FC00111242FEF30E0B90126
:102820000E947634812F90E0880F991FF5E5F69F7E
:10283000A001F79F500D1124841B950BB82EBB0CE3
:10284000B80EA9014E195F094C9DC0014D9D900D18
:102850005C9D900D1124F92FCB9DA0011124452FD3
:102860005527D901A41BB50BAC9DA001AD9D500D02
:10287000BC9D500D1124D901AB19B1095D01AE9C6D
:10288000D001AF9CB00DBE9CB00D1124AB2FBB2767
:102890002A1B3B0B2C9DD0012D9DB00D3C9DB00DF6
:1028A00011242B2F62307105A1F050F461157105D0
:1028B00009F468CF6130710581F0292FF52F62CFBF
:1028C0006430710569F080F06630710509F45ACF03
:1028D000F4CF2E2FE92FFB2F55CF2E2FE52F52CFE0
:1028E000292FFE2FEB2F4ECFE92FF92D252F4ACF81
:1028F0001196EC9311972C931296FC9312978F5F7D
:1029000013964CCFDF91CF911F910F91FF90EF90D5
:10291000DF90CF90BF90AF909F908F900895E1E3AC
:10292000F4E0438121E1421B08F440E021E06281B0
:1029300081810C949613E1E3F4E0438121E1420F9D
:1029400008F44FEF21E0628181810C949613E1E35A
:10295000F4E0628121E1621B08F460E021E0438140
:1029600081810C949613E1E3F4E0628121E1620F2E
:1029700008F46FEF21E0438181810C949613E1E329
:10298000F4E0818121E04381628188500C949613A8
:10299000E1E3F4E0818121E043816281885F0C946E
:1029A000961380913504882319F081508093350463
:1029B0006091310470913204809133049091340419
:1029C0000C94841380913504833018F48F5F8093C6
:1029D00035046091310470913204809133049091F8
:1029E00034040C9484138091310480FF1EC08170E4
:1029F00082608093310480915E03816080935E03E6
:102A0000662351F060913104709132048091330457
:102A1000909134040E94841320E04091340460912A
:102A20003304809132040C949613089580913104FC
:102A30008695815009F481E061E00C94F31461E023
:102A400081E00C94F314E1E3F4E083E080831182ED
:102A50008FEF828388E783831482ACE5B3E012961C
:102A60008C911297836012968C9360817181828120
:102A700093810C948413109208031092090310920E
:102A80000A0310920B0383E190E00E94EC34609300
:102A900008037093090380930A0390930B0380E06B
:102AA000663018F081E080930803763078F081E09A
:102AB00080930903409108035091090360910A0330
:102AC00070910B0383E190E00C940A358111F2CFF1
:102AD000089569EE7EEF90E080E00E94163560E098
:102AE00082E090E00E94F83460E083E090E00E9491
:102AF000F8341092E80260E084E090E00E94F8343C
:102B000060E082E290E00E94F83460E085E090E0CE
:102B10000E94F83460E086E090E00E94F8346FEFA5
:102B200087E090E00E94F83440E050E0BA0188E08D
:102B300090E00E940A3560E08DE090E00E94F83459
:102B400040E050E0BA0188E190E00E940A3560E080
:102B500087E190E00E94F83440E050E0BA018CE157
:102B600090E00E940A3570E060E080E290E00E9410
:102B7000163540E050E0BA0188E190E00E940A3545
:102B800080E00E94A1120E94B91240E050E0BA0118
:102B90008FE090E00E940A350C943B15EF92FF9273
:102BA0000F931F93CF93DF937901C82F880FDD0B0D
:102BB00041155105A9F08AE08C9FF0018D9FF00D21
:102BC0001124E85EFE4F8381948181589D4F2281BC
:102BD00030E04217530708F49A01A9010E94DB3440
:102BE000CE010E94BF33892B11F501151105E9F0C3
:102BF0008AE08C9FF0018D9FF00D1124E85EFE4F5E
:102C0000458150E00417150708F4A8018AE08C9F5D
:102C1000F0018D9FF00D1124E85EFE4F66817781F3
:102C200061587D4FC7010E94DB3481E001C080E024
:102C3000DF91CF911F910F91FF90EF9008950F9327
:102C40001F93CF93DF9300D000D0CDB7DEB7409174
:102C5000E0025091E1026091E2027091E3022FB72D
:102C6000F8948091440490914504A0914604B09159
:102C700047042FBF841B950BA60BB70B11E08436BE
:102C80009105A105B10538F10E943110882369F141
:102C90000E94E7086E5F7F4F8F4F9F4F69837A8353
:102CA0008B839C8310E000E030E020E044E050E0C3
:102CB000BE016F5F7F4F82E00E94CE15182F8823E0
:102CC00051F00E94E7086093E0027093E102809364
:102CD000E2029093E302812F0F900F900F900F90DC
:102CE000DF91CF911F910F9108950E94E708009105
:102CF000F5021091F6022091F7023091F802600F70
:102D0000711F821F931FC6CFEF92FF920F931F93E5
:102D1000CF93DF9300D000D000D0CDB7DEB77B01DA
:102D200001E010E09E012A5F3F4F50E040E070E07C
:102D300060E080E00E94CE15182F882309F44FC070
:102D40004091DC025091DD026091DE027091DF0261
:102D50002FB7F8948091440490914504A0914604C3
:102D6000B09147042FBF841B950BA60BB70B84367D
:102D70009105A105B10538F480E892E00E94310781
:102D80009E81891761F105E010E09E012F5F3F4FA2
:102D900050E040E070E060E081E00E94CE15082F36
:102DA00080E892E00E94310711E09E81981310E0C4
:102DB000102301F10E94E7086093DC027093DD02AA
:102DC0008093DE029093DF0285E0FE013196A7ED4D
:102DD000B2E001900D928A95E1F711E00BC085E019
:102DE000E0E8F2E0DE01119601900D928A95E1F79C
:102DF0001111EACF85E0E7EDF2E0D70101900D92E5
:102E00008A95E1F7812F26960FB6F894DEBF0FBEA4
:102E1000CDBFDF91CF911F910F91FF90EF9008955B
:102E20008F929F92AF92BF92EF92FF920F931F9358
:102E3000CF937B01942FB901A801F7018080918085
:102E4000A280B380EFB7F894009144041091450438
:102E50002091460430914704EFBF081919092A0947
:102E60003B09043611052105310518F4C1E0992309
:102E700081F010E000E030E020E00E94CE15C82F85
:102E8000882339F00E94E708F70160837183828309
:102E900093838C2FCF911F910F91FF90EF90BF9054
:102EA000AF909F908F9008950F931F93CF93DF93D0
:102EB000CDB7DEB728970FB6F894DEBF0FBECDBFF3
:102EC00085E0E1E3F4E0DE01119601900D928A9530
:102ED000E1F780915C0390915D03A0915E038E8386
:102EE0009F83A88741E08885811101C040E008E008
:102EF00010E09E012F5F3F4F61EF72E086E00E947D
:102F00001017811110925E0328960FB6F894DEBF59
:102F10000FBECDBFDF91CF911F910F9108950F93F9
:102F20001F93CF93DF930F92CDB7DEB70E9455105A
:102F3000898341E090918B02981301C040E001E049
:102F400010E09E012F5F3F4F6DEE72E085E00E9422
:102F500010170F90DF91CF911F910F9108950F934C
:102F60001F9341E09091890280916504981301C0FC
:102F700040E001E010E025E634E069EE72E083E035
:102F80000E941017882389F041E090918A02809175
:102F9000E802981301C040E001E010E028EE32E0C2
:102FA00064EE72E084E00E9410171F910F91089563
:102FB00090E080E00E94F234893E9E4F11F40C9420
:102FC0005D1380E008951F920F920FB60F921124A7
:102FD0002F933F934F935F936F937F938F939F9321
:102FE000AF93BF93EF93FF938091E10082FF09C0FD
:102FF0008091E20082FF05C08091E1008B7F809389
:10300000E1008091DA0080FF24C08091D80080FF29
:1030100020C08091DA008E7F8093DA008091D90001
:1030200080FF9DC080E189BD82E189BD09B400FEB9
:10303000FDCF81E08093580480914B04811109C039
:103040000E9448070E9413088091E20084608093E8
:10305000E2008091E10080FF17C08091E20080FFD4
:1030600013C08091E2008E7F8093E2008091E200A5
:1030700080618093E2008091D80080628093D800C4
:1030800019BC85E0809358048091E10084FF2BC037
:103090008091E20084FF27C080E189BD82E189BD83
:1030A00089B5982F917080FFFBCF8091D8008F7DDC
:1030B0008093D8008091E1008F7E8093E100809121
:1030C000E2008F7E8093E2008091E2008160809335
:1030D000E20080915904882309F447C084E080937A
:1030E0005804809158048091E10083FF27C08091AB
:1030F000E20083FF23C08091E100877F8093E1009D
:1031000082E080935804109259048091E1008E7FF0
:103110008093E1008091E2008E7F8093E2008091B5
:10312000E20080618093E20042E060E080E00E9483
:10313000E1078091F00088608093F000FF91EF91AB
:10314000BF91AF919F918F917F916F915F914F91BF
:103150003F912F910F900FBE0F901F90189519BCA3
:103160001092580410924B0474CF8091E30087FDB5
:1031700093E090935804B5CF78941F921FB61F9296
:1031800011248F939F93AF93BF93809144049091A8
:103190004504A0914604B09147040196A11DB11DBC
:1031A0008093440490934504A0934604B09347044D
:1031B000BF91AF919F918F911F901FBE1F90189547
:1031C0009C014FB7F8948091440490914504A091DC
:1031D0004604B09147044FBF821B930B08952FB74D
:1031E000F8948091440490914504A0914604B091D4
:1031F00047042FBF08950E94EF189C019091580337
:1032000080915903982B21F0309355032093540358
:1032100090915A0380915B03982B21F030935303D4
:103220002093520386E593E00C941F0990E080E020
:103230000E94090990E080E00E94F3081092710258
:10324000109270020E947A0C86E0E6E5F3E0DF015E
:103250001D928A95E9F71092500310924F03109235
:1032600051030C94FB18982F9670963029F48860BF
:10327000809365040C941619877FFACF80916504BA
:10328000982F9670963019F488600C943319877FC4
:10329000FCCF21E030E001C0220F8A95EAF72095AB
:1032A0008091650482230C94331990916F0280956C
:1032B000892380936F02282F277091F4282F082EDE
:1032C000000C330B9217130659F09091FA0292FDFD
:1032D00007C08595859585950E94491910926F02C2
:1032E0000895CF93C091FA02C2FB992790F99817DD
:1032F00099F080FBC2F9C093FA026091F90284E070
:1033000090E00E94F8346C2F82E290E00E94F83442
:1033100082E0CF910C945519CF91089521E030E0CF
:1033200001C0220F8A95EAF780916504822B0C94E4
:1033300033198093E8020C94161910927202E4E09B
:10334000F2E086E0DF011D928A95E9F70C941619E8
:103350001F93CF93DF93CDB7DEB7AA970FB6F8943C
:10336000DEBF0FBECDBF8AE594E02091F100DC0105
:103370002D93CD01B4E082369B07B9F780915B04B1
:10338000833009F472C0B8F4813009F449C0823046
:1033900009F4B3C08091E80083FF8BC280915A0486
:1033A00090915B049A3008F084C2E92FF0E0E85273
:1033B000FA4C0C94B8348A3009F48EC08B3009F47E
:1033C00071C0893039F780915A04813219F78091A0
:1033D0005E0490915F04009711F00297D9F68091F6
:1033E000E800877F8093E8008091E80082FF38C082
:1033F0009091F3008091F200029731F48091F100F6
:10340000813011F0863021F48091F10080934D04D9
:103410008091E8008B778093E8000E94C207BACFC2
:1034200080915A04813A09F0B5CF8091E800877FF6
:103430008093E80080915E0490915F04892B61F491
:1034400068E08EE494E070E00E9474088091E800E7
:103450008B778093E8009ECF60E090E080E0F3CF30
:10346000809158048111C0CF95CF80915A04813A40
:1034700009F090CF80915E0490915F04892B09F050
:1034800089CF8091E800877F8093E8008091E800F1
:1034900080FFFCCF809195018093F1008091E8003E
:1034A0008E77B9CF80915A04813209F073CF809121
:1034B0005E0490915F04892B09F06CCF8091E80045
:1034C000877F8093E8000E94C20780915C0480930C
:1034D00095010E949D195ECF80915A04813209F0B6
:1034E00059CF8091E800877F8093E8000E94C2074F
:1034F00080915D0480934C044DCF80915A04813AB1
:1035000009F048CF8091E800877F8093E8008091A0
:10351000E80080FFFCCF80914C04BECF803899F04A
:10352000823809F0C6C180915E048F70873008F040
:10353000C0C18093E9008091EB0085FB882780F96A
:103540001092E90006C080915604909157049111A1
:1035500082609091E800977F9093E8008093F1005B
:103560001092F1008091E8008E779FC1882309F4C2
:103570008DC1823009F09DC180915C04811190C1A0
:1035800080915E048F702FEF280F263008F091C1D4
:103590008093E9002091EB0020FF82C1933031F449
:1035A0008091EB0080628093EB007AC19091EB00F8
:1035B00090619093EB0021E030E001C0220F8A95EA
:1035C000EAF72093EA001092EA008091EB0088600D
:1035D000EACF81116EC110915C041F778091E300E6
:1035E0008078812B8093E3008091E800877F80932F
:1035F000E8000E94C2078091E80080FFFCCF809124
:10360000E30080688093E30082E0111183E08093FF
:1036100058044FC18058823008F04BC120915C049F
:1036200030915D042C3DE3E03E07A1F583E08A8301
:103630008AE289834FB7F894DE01139620E03EE0DA
:1036400051E2E32FF0E050935700E49120FF03C0D4
:10365000E295EF703F5FEF708E2F90E0EA30C0F0A0
:10366000C7968D939D932F5F243159F74FBF80915B
:10367000E800877F8093E8006AE270E0CE0101965F
:103680000E9474088091E8008B778093E80011C154
:10369000C096E7CF80915E0490915F04432F552739
:1036A0004330510509F44AC078F54130510509F419
:1036B0007AC08BE590E0EFEEF7E04230510509F07B
:1036C000F8C02091E800277F2093E8002091600453
:1036D000309161048217930708F49C0140E02115A2
:1036E000310509F065C0411163C08091E80082FD99
:1036F000C9CF80915804882329F2853019F280912E
:10370000E80083FFF2CFBECF4132510509F43CC03F
:103710004232510509F0CDC08330910508F0C9C08F
:10372000FC01EE0FFF1FED50FE4F0190F081E02DE8
:1037300080519E4FDC018C9190E01AC033272130DC
:103740003105D1F02115310561F02230310509F044
:10375000B0C0ECE5F8E0E4918E2F90E0ECE5F8E005
:1037600007C0ECE8F8E0E4918E2F90E0ECE8F8E098
:10377000009709F49EC0A5CFE2E7F8E0E4918E2F10
:1037800090E0E2E7F8E0F4CF8330910508F091C0D3
:10379000880F991FFC01E750FE4F0190F081E02D4A
:1037A00089E090E08ECF82E190E0EAE4F8E089CF12
:1037B00080915804882309F465CF853009F462CFDD
:1037C0008091E80083FD5ECF8091E80082FD8DCF7F
:1037D0008091E80080FF83CF9091F3008091F20008
:1037E0002115310519F08830910550F041E0089716
:1037F00009F040E08091E8008E778093E8006FCF79
:1038000044914093F1003196215031090196E8CF5F
:10381000803809F04EC08091E800877F8093E800EF
:10382000809159048093F1009DCE811142C0109186
:103830005C041230F0F58091E800877F8093E80007
:10384000109359040E94C207112311F084E005C0AF
:103850008091E30087FDFACF81E08093580442E035
:1038600061EC81E00E94E10742E261EC84E00E94A9
:10387000E10742E261EC82E00E94E10742E260EC93
:1038800083E00E94E1078091580413C080915C049A
:10389000813079F481E0933009F080E0809357041F
:1038A0001092E9008091E800877F8093E8000E94F1
:1038B000C2078091E80083FF0AC08091E800877FFB
:1038C0008093E8008091EB0080628093EB00AA96E1
:1038D0000FB6F894DEBF0FBECDBFDF91CF911F9121
:1038E00008951F920F920FB60F9211242F933F93BA
:1038F0004F935F936F937F938F939F93AF93BF93F8
:10390000CF93DF93EF93FF93D091E900DF70809125
:10391000EC00C82FC17080FDC0E81092E9008091D2
:10392000F000877F8093F00078940E94A81910928D
:10393000E9008091F00088608093F000CD2BCF707B
:10394000C093E900FF91EF91DF91CF91BF91AF91CB
:103950009F918F917F916F915F914F913F912F91A7
:103960000F900FBE0F901F901895882309F452C036
:10397000823871F40E94551081FF4CC089E30E9487
:10398000B40C0E947A0C89E30E94A70C0C947A0C68
:10399000833859F40E94551080FF3CC083E50E9493
:1039A000B40C0E947A0C83E5EFCF843859F40E945E
:1039B000551082FF2FC087E40E94B40C0E947A0C3D
:1039C00087E4E2CF9CEF980F913AF0F290E2980FE3
:1039D000983050F4877091E001C0990F8A95EAF70A
:1039E000892F0E94730CD2CF9BE5980F933020F45F
:1039F00090E080E00C94090998E5980F973120F445
:103A000090E080E00C94F308803F20F00E94480989
:103A10000C94FB180895CF93C82F882309F490C005
:103A20008238C1F40E94551081FD8AC089E30E944A
:103A3000B40C0E947A0C2FEF81EE94E0215080406C
:103A40009040E1F700C0000089E30E94A70CCF91ED
:103A50000C947A0C8338A1F40E94551080FD70C03C
:103A600083E50E94B40C0E947A0C2FEF81EE94E063
:103A7000215080409040E1F700C0000083E5E5CF91
:103A80008438A1F40E94551082FD5AC087E40E9438
:103A9000B40C0E947A0C2FEF81EE94E0215080400C
:103AA0009040E1F700C0000087E4CFCF8CEF8C0F8F
:103AB000813A68F4E4E0F2E08191C817D9F122E09C
:103AC000EA30F207C9F78C2F0E94B40CC0CF80E215
:103AD0008C0F883068F4C77021E030E001C0220FFD
:103AE000CA95EAF780917202822B80937202AFCF5F
:103AF000EBE5EC0FE33040F4F0E0EA56FE4F808156
:103B000090E0CF910C940909E8E5EC0FE73150F40F
:103B1000F0E0EE0FFF1FE756FE4F80819181CF91BD
:103B20000C94F308C03F60F08C2F0E94030ACF91E1
:103B30000C94FB188C2F0E94A70C0E947A0CC3CF08
:103B4000CF9108951F93CF93DF93182FD0E0C0E05B
:103B5000893311F4C0E5D0E0812F0E940B1D20971E
:103B600031F4812FDF91CF911F910C94B51C8FE917
:103B70009FE00197F1F700C000002197F0CF0F936D
:103B80001F93CF93DF93C62FD42F022FFC01828186
:103B90008823A1F0609364040E94EF18909363045B
:103BA00080936204C77081E001C0880FCA95EAF76C
:103BB000DF91CF911F910F910C94320D809164048D
:103BC000681335C080916204909163040E94E018EC
:103BD000883C910560F510E21D0FCD17B9F080E229
:103BE0008C0F883040F4C77081E001C0880FCA95FF
:103BF000EAF70E942B0D183048F481E09D2F977052
:103C000001C0880F9A95EAF70E94320D802F0E941A
:103C1000A21D183098F4D77081E001C0880FDA95A2
:103C2000EAF7DF91CF911F910F910C942B0DC77084
:103C300081E001C0880FCA95EAF7F3CFDF91CF91F9
:103C40001F910F9108953F924F925F926F927F92D2
:103C50008F929F92AF92BF92CF92DF92EF92FF929C
:103C60000F931F93CF93DF93CDB7DEB762970FB655
:103C7000F894DEBF0FBECDBF8C01FC01838194811F
:103C8000892B31F08081918189238F3F09F02CC6E7
:103C900062960FB6F894DEBF0FBECDBFDF91CF9115
:103CA0001F910F91FF90EF90DF90CF90BF90AF905A
:103CB0009F908F907F906F905F904F903F9008956E
:103CC0000E94FB12F82E682F89819A810E94FF0CB6
:103CD00069817A818F2D0E94EE127C01F801828128
:103CE000882309F4F4C5970122513F45203131055D
:103CF00008F0D6C58FEF93E00E94E434FEEEEF0E9D
:103D000077E5872E72E0972E8823A9F180916F02C4
:103D1000877009F4BDCFF8018281882309F4B8CFF8
:103D20008091FA0282FDB4CF82E062960FB6F894D9
:103D3000DEBF0FBECDBFDF91CF911F910F91FF90DE
:103D4000EF90DF90CF90BF90AF909F908F907F903B
:103D50006F905F904F903F900C945519811424E020
:103D60009206A1F2C4010E94E434811101C0EA94D8
:103D70003FEF831A930AE110F1CF1C821B82442487
:103D800043946AE0362E74018FEFE81AF80AC401F2
:103D90000E94E43489831A82882309F4B7CF9FEF05
:103DA000980F933000F58A83498292E0890E911C26
:103DB000C7010E94E4348B83882309F4A7CFFE0156
:103DC00031967F01F70120812223E9F2213009F0A9
:103DD00049C091818281913041F4F2E0EF0EF11CF3
:103DE0000E94A21D09C04701EACF923049F422E0A7
:103DF000E20EF11C0E940B1D3FEFE31AF30AE2CF23
:103E0000933031F432E0E30EF11C0E94B51CF4CF84
:103E1000943021F08FEFE81AF80AEECF92E0E90E25
:103E2000F11C30E020E0B7016F5F7F4FF701418167
:103E30008053990B8A30910550F021503109E0F2FE
:103E40008FE99FE00197F1F700C00000F6CF329EA6
:103E5000F001339EF00D11249C012E0F3F1F842F83
:103E60007B01E1CFE22FF0E0E754FE4F5490822F28
:103E700086958695869590E0FC01E755FE4F649007
:103E80002770712C022E02C0759467940A94E2F791
:103E9000E1E06E227724FC01E756FE4FA490B12C9E
:103EA000022E02C0B594A7940A94E2F7F1E0AF2283
:103EB000BB24FC01E757FE4FC490D12C02C0D5941F
:103EC000C7942A95E2F721E0C222DD24611471042F
:103ED00019F081EE0E940B1DA114B10419F086EEB9
:103EE0000E940B1D852D0E94A21DAB2819F086EEA5
:103EF0000E94B51C672819F081EE0E94B51CCD28E0
:103F000009F47ACF8CE26CCF82E00E948E1917C040
:103F1000882309F4FBCE61E083E090E00E94F8344E
:103F200081E00E949919F2CE882311F081E0EDCF53
:103F300081E003C08111E8CF82E00E9449190E940C
:103F40003E19E4CE882321F083E00E948E19DECE54
:103F500083E00E944919DACE882359F00E94231584
:103F60008091310481608093310461E086950E94E4
:103F7000F314F8018281882309F4C7C41092640401
:103F8000F3E0EF16FDE5FF0608F0FAC02AEFE216AF
:103F90002CE5F20630F4C70182509C45449708F0A6
:103FA000F5C00E9476139093FA028093F90280E1A3
:103FB000E8168CE5F80609F4D1C108F03FC1E8E045
:103FC000EE16ECE5FE0609F4B7C108F00BC124E0DB
:103FD000E2162CE5F20609F4A1C108F0EDC082E07A
:103FE000E8168CE5F80609F493C18091F902826025
:103FF00093E0E9169CE5F90609F48DC16091F90298
:10400000F090FA0284E090E00E94F8346F2D82E292
:1040100090E00E94F8340E949D1978CE882309F41C
:1040200075CE8091080390E0019666E070E00E94F2
:1040300076348093080340910803509109036091FE
:104040000A0370910B038FE090E00E940A35E09123
:104050000803F0E0EE0FFF1FE652FE4F8081982F1D
:10406000919590930401809303014091080350912E
:10407000090360910A0370910B0383E190E00E94B1
:104080000A3544CE882309F441CE8091090390E09B
:10409000019666E070E00E947634809309034091B7
:1040A00008035091090360910A0370910B038FE09C
:1040B00090E00E940A35E0910903F0E0EE0FFF1F47
:1040C000E652FE4F8081982F919590930201809344
:1040D0000101CBCF882331F08091140291E0892730
:1040E0008093140210921302109212020FCE8823B2
:1040F000C9F38091110291E0892780931102F2CFD8
:1041000083EFE8168CE5F80661F1A0F4E8EDEE1611
:10411000ECE5FE0611F1F9EDEF16FCE5FF0669F19D
:1041200027EDE2162CE5F20609F023CF26E241EE58
:1041300061EE0FC035EFE3163CE5F306D1F0A8F0D1
:1041400027E245EE66EE96EFE9169CE5F90609F0E2
:1041500010CFC8010E94BF1DD9CD27E245EE65EE04
:10416000F8CF26E241EE60EEF4CF27E245EE64EEB2
:10417000F0CF26E241EE62EEECCF28E241E0EFCF55
:1041800031E6E3163DE5F30609F40BCFE6E1EE1662
:10419000ECE5FE0609F046C4809172028A7A91E04D
:1041A00009F490E0909315028111FDC089E20E940C
:1041B000B40C0E947A0CAACD8091F9028061E6E0ED
:1041C000EE16ECE5FE0609F4A6C08091F9028860BF
:1041D000F7E0EF16FCE5FF0608F49DC08091F902B8
:1041E000806299C08091F9028D7F2CE0E2162CE567
:1041F000F20609F490C060F48AE0E8168CE5F8064F
:1042000009F4A4C008F49CC08091F9028E7F83C099
:104210008091F902877FEEE0EE16ECE5FE0609F4E8
:104220007AC08091F9028B7FFFE0EF16FCE5FF0674
:1042300008F471C08091F9028F7E6DC02CEFE216F8
:104240002CE5F20609F486C0A0F584E1E8168CE5B9
:10425000F80609F497C098F4E2E1EE16ECE5FE06E4
:1042600009F480C08091F9028F7BF3E1EF16FCE541
:10427000FF0608F450C08091F902837F4CC02AEFFA
:10428000E2162CE5F20609F44DC008F051C085E1B4
:10429000E8168CE5F80609F0B1CE8091F90282FBB0
:1042A000992790F921E0922790FB82F990FB83F9FE
:1042B00032C0E1149DE5F90609F45AC0A0F48091DA
:1042C000FA028360FEEFEF16FCE5FF0671F18091C4
:1042D000FA028D7F2FEFE2162CE5F20630F1809185
:1042E000FA028C7F22C032E0E3163DE5F30609F4C2
:1042F00058C008F450C091E6E9169DE5F90609F0AA
:104300007DCE9091F902892F8F7E94FF806103C04A
:104310008091F90281608093F90270CE8091F90258
:104320008460F9CF8091FA0281608093FA0266CEB0
:104330008091FA028260F9CF8091F9028064EBCF1C
:104340000E949D198091F9028068E5CF8091F90261
:104350008C60E1CF8091FA028E7FE7CF8091F902E5
:104360008F7DD9CF0E949D198091F9028F77D3CF8D
:104370008091FA02982F909591708E7F892B90FBF7
:1043800081F9D3CF0E949D199091F902892F97FB53
:1043900087F98058C0CF61E08EE090E00E94F83449
:1043A0002DCE60E0F9CF85E302CF80911502811117
:1043B00004C089E20E94A70CFCCE85E3FBCF81609C
:1043C0008093310461E086950E94F3149FCC46E10E
:1043D00055E16FE175E10E942D0998CC4FE155E15F
:1043E00066E175E1F8CF4FEB54E168EC74E1F3CF8F
:1043F0004FE854E16BE974E1EECF61E081E0E4CF96
:104400000E949D198FEF94E3ECE081509040E040D2
:10441000E1F700C000000E94D60881E029C380E0D7
:1044200027C3C7010E94D70CD82E33C32F2D2F705E
:10443000C22E8F2D807F19F0C29490EFC922DD200B
:10444000B9F0CC2069F080E28E0D883010F0811038
:1044500009C080917202C82AC09272020E947A0C2E
:104460008E2D4DC080917102C82AC0927102F6CF84
:104470008E2D0E94B51CCC2009F443C080E28E0D25
:10448000883010F0811004C08C2D0E94730C06C07F
:10449000C09480917102C822C09271020E947A0C6D
:1044A00030C03F2D3F70C32E8F2D807F803219F09A
:1044B000C29480EFC822882089F081E0881609F430
:1044C0007FC0DD2009F489C0BB2009F47FC0F8015A
:1044D000858180FFC5CF8F70858378C02091FA02D7
:1044E00022FF4BC0DD2009F442C0CC2039F080917E
:1044F0007202C82AC09272020E947A0C80E00E9466
:104500000B1DE92DE850FF0B349710F40E94551055
:10451000AA2009F4BDCB80916F0280FDB9CBF801D0
:1045200012828595859585950E948E19C8010E94F5
:10453000231E80916F0285958595859562960FB6AD
:10454000F894DEBF0FBECDBFDF91CF911F910F91C9
:10455000FF90EF90DF90CF90BF90AF909F908F90A3
:104560007F906F905F904F903F900C94491980E03E
:104570000E94B51CCC2029F287CFDD20A1F09091BC
:1045800073028C2D892BB11003C00E94320DB9CF5C
:10459000E1E0BE12FACF22FDB4CF981709F4B1CFF3
:1045A00080937302AECFB11006C00E946D0C8C2DAB
:1045B0000E942B0DA6CFF1E0BF1609F4A2CFF5CFD4
:1045C000DD2031F025E02B1508F49BCF8C2DDDCFBD
:1045D00034E03B1508F495CFEACFBB2041F3F9E373
:1045E0008F1257C12FEF37EE83E0215030408040CB
:1045F000E1F700C000004DC18F2D86958695837030
:1046000061F0813009F07DCFC7019370D11002C0F5
:1046100090E080E00E94F30874CFC7019370D1103E
:1046200002C090E080E00E9409096BCF8E2DDD2052
:10463000C1F10E94030AEE2DE45FFF0BE530F105A6
:10464000B0F581E090E001C0880FEA95EAF726E036
:10465000E6E1F2E0DE01179601900D922A95E1F76E
:1046600026E0FE013796DE011D9601900D922A95F7
:10467000E1F72885DD20C1F0822B8E8786E0FE01E0
:104680003D96DE01119601900D928A95E1F786E044
:10469000FE013196A6E1B2E001900D928A95E1F714
:1046A00030CF0E944809C7CF80958223E6CF0E9471
:1046B000FB1827CF8F2D837091F5D11022CF4E2D6F
:1046C000429546954770440F440F8E2D8F70042EEF
:1046D00001C0880F0A94EAF72E2D2071E4FE07C06E
:1046E0002FE030E001C0220F4A95EAF720953F2DD8
:1046F000369536953370323069F050F44091E802C7
:10470000313029F0822B84230E949919FACE842B10
:10471000822BFACF282B8091E8028227F5CF86954D
:10472000DD2011F08F2D8170882309F4EACE4E2D03
:10473000429546954770440F440F8E2D8F70042E7E
:1047400001C0880F0A94EAF72E2D2071E4FE07C0FD
:104750002FE030E001C0220F4A95EAF720953F2D67
:10476000369536953370323069F050F440916504D7
:10477000313029F0822B84230E943319C2CE842B3E
:10478000822BFACF282B809165048227F5CFFF2D4D
:10479000FF70FF2EDD2029F08F2F0E948E198E2DA5
:1047A000F4CE8E2D0E942B0D8F2D0E944919A9CE7B
:1047B0008E2D22EF8216B1F1281570F030EF83169E
:1047C000D1F091EF891691F0DD2009F45DC0B110B0
:1047D00047CE8F2D8F712AC0E3EF8E1651F1F4EF83
:1047E0008F12F2CF8091FA0282FF2FC08F2D8F712E
:1047F000DD20D9F21BC0DD2081F024E02B1508F468
:1048000080CE2F2D2F7181E090E001C0880F2A9576
:10481000EAF7909165048927AFCF35E03B1508F49E
:1048200070CEEFCF8F2D8F71D110BFCF0E948E1918
:1048300068CE80E0DD2009F49FCF9F2D9F7181E03D
:1048400001C0880F9A95EAF797CFDD2091F08F2D60
:104850008F71F82E0E948E198091FA0282FD07C096
:10486000E8E0FE9EC0011124836080936F028F2DCB
:10487000DDCF81E00E945519F1E0FB1508F041CE33
:1048800082E00E9455193DCEBB2039F0893309F4EE
:10489000A9CE8E2D0E94B51C34CE8F2D8F7185CF61
:1048A000F0E1EF16FFE5FF0609F440CB21E1E21647
:1048B0002FE5F20609F428CBF701E058FF45E9306F
:1048C000F10508F01DCCEE51FA4C0C94B83430E1EF
:1048D000E3163FE5F30609F42BCB91E1E9169FE5DA
:1048E000F90609F429CBE8CF85E0DE0111960190A5
:1048F0000D928A95E1F7F801228189819A8121112F
:10490000DFC90E94D70CF82EE3C9F6E1EF16FCE5EB
:10491000FF0609F44ACD80917202827229ECE216F8
:104920002CE5F20609F464CD08F050C095ECE916C8
:104930009CE5F90609F457CD80F5F3ECEF16FCE59C
:10494000FF0609F444CD08F049CD32ECE3163CE50E
:10495000F30609F08FC08091310480FF30CD8E7F47
:10496000809331046091310470913204809133045A
:10497000909134040E94841380915E03816080933F
:104980005E03FFEF20E732E0F15020403040E1F7D6
:1049900000C000000E948D0FB9C947EA54E163EBE3
:1049A00074E197ECE9169CE5F90609F414CD48EC9E
:1049B00054E16FEB74E1E8ECEE16ECE5FE0608F46A
:1049C0000ACD43EB54E167EA74E105CDFDECEF1647
:1049D000FCE5FF0609F411CDC8F441ED54E162EEA7
:1049E00074E13BECE3163CE5F30609F4F4CC4BE947
:1049F00054E16FE874E19CECE9169CE5F90608F4D3
:104A0000EACC42EE54E161ED74E1E5CCE6EDEE1660
:104A1000ECE5FE0608F47AC9FDE5EF16FF0609F499
:104A200075C928C02AE5E2162DE5F20609F4F5CC91
:104A300068F4E1148CE5F80609F4E2CC9EEDE91681
:104A40009CE5F906B9F40E94691560C9EBE5EE161C
:104A5000EDE5FE0609F4E3CCFCE5EF16FDE5FF0607
:104A600049F48091FA0282FB882780F991E0892736
:104A70000E947119F8018281E080F180882309F495
:104A8000D0CCC7010E94FB12D82E682FC7010E940C
:104A9000FF0CB7018D2D0E94EE120E94E50A7C01E9
:104AA000882EF801D280B580B2943FE0B322809185
:104AB0006F028770C1F0AD2CDD20B1F08F2D807FAB
:104AC000803421F080E28E0D883068F08091FA0207
:104AD00082FD09C082E00E94551980916F028770A3
:104AE000AA24A3948111A12C9F2C92942FE09222AE
:104AF000FBE0F91508F405CDE92DF0E0E551FA4C9D
:104B00000C94B8341F93CF93DF9380913C02807F45
:104B1000A9F480913902882389F080916E02D091A6
:104B20003D026091370270913802A0913A02B09133
:104B30003B02C62FC72316E0D81304C0DF91CF91E4
:104B40001F91089590E0109711F0CF3F19F401964E
:104B50008770F2CF189F9001199F300D1124F90131
:104B6000E25CFD4F41814713F2CF40814613EFCF06
:104B700042814111ECCF438154814A1B5B0B483C7D
:104B8000510528F780913C028F70806180933C0230
:104B9000F901ED5BFD4F80818F708061808387E339
:104BA00092E00E94231EDF91CF911F910C94CD0CB7
:104BB000AF92BF92CF92DF92EF92FF920F931F932B
:104BC000CF93DF93CDB7DEB761970FB6F894DEBF12
:104BD0000FBECDBF8C0185E0F801DE011D9601906E
:104BE0000D928A95E1F7F801E28087E3A82E82E032
:104BF000B82E60913A0270913B026115710509F47B
:104C000032C19091370240913802892F84238F3F1F
:104C100009F429C120813181C380D480F090390208
:104C2000F601E61BF70BFF2009F4E8C080913C0277
:104C3000582F507FE83CF10508F0ABC0511177C008
:104C4000FE2C431321C092131FC0E1101DC08F70B2
:104C5000806180933C02C5010E94231E80913C022A
:104C6000F80185838F2D61960FB6F894DEBF0FBED5
:104C7000CDBFDF91CF911F910F91FF90EF90DF900B
:104C8000CF90BF90AF900895CD2829F0822F832335
:104C90008F3F09F003C180E0F82FF170DF2E80FF15
:104CA0003CC080916E0240913D0256E0841315C0D5
:104CB0002D873E878D859E850E942A13292F229558
:104CC0002F702230F0F0243018F59F70F1F0F801C9
:104CD0009581907FD1F4D12C1EC090E0589FF001B7
:104CE000599FF00D1124E25CFD4F6181361306C01F
:104CF0006081261303C06281E6120FC0019687709F
:104D0000D5CF9F7011F0882331F3805E883018F37F
:104D1000C8010E94231EFD2CA5CFEE2009F4A2CFCE
:104D200080913C02816080933C02F12C9BCF431325
:104D300006C0921304C0F801EE2009F479C0C8013E
:104D40000E943613882309F1EE20F9F080913C028D
:104D5000803270F0209137023091380238872F83EB
:104D60001986DB86CA868C87CE0107960E94231E91
:104D700086E0F801A7E3B2E001900D928A95E1F791
:104D80000E948225FF24F3946DCFC8010E94231E48
:104D9000F9CF51110AC087E392E00E94231E86E0FA
:104DA000F50111928A95E9F7C0CF43130FC0921312
:104DB0000DC0E1100BC0F8018583C8010E94231EBD
:104DC00086E0F50111928A95E9F74CCFC8010E945F
:104DD00036138823D1F2EE20C1F280913C0280325A
:104DE00038F220913702309138023A8329831B82AE
:104DF000DD82CC828E83CE010196B8CFE83CF105EE
:104E0000F8F6FE2CEE2009F243131FC092131DC0CA
:104E100080913C0280FD10C0982F907F69F0F801CE
:104E20008583903F31F0982F907F905F8F70892B12
:104E30008583C8010E94231E86E0F801A7E3B2E043
:104E400001900D928A95E1F70DCFC8010E943613AB
:104E500081118ECF80913C02816080933C02C80119
:104E60000E94231EFFCEEE2009F48FCFC8010E94BE
:104E70003613F82E882309F488CF86E0F801A7E3DB
:104E8000B2E001900D928A95E1F7809137029091FE
:104E900038020E942A130E948225E4CE81E08E25EA
:104EA000FBCE1F93CF93DF93CDB7DEB767970FB6D7
:104EB000F894DEBF0FBECDBF4B8B5C8B6D8B7E8BB2
:104EC0008F8B6111109271021A8A198A85E0FE0196
:104ED0007396DE011D9601900D928A95E1F786E0AA
:104EE000FE013D96DE01179601900D928A95E1F73D
:104EF000CE0107960E94D825882389F016E080917C
:104F00006E0290913D02891349C067960FB6F894DE
:104F1000DEBF0FBECDBFDF91CF911F91089586E018
:104F2000FE013796DE01119601900D928A95E1F708
:104F30008A859B85892B11F38F81988589238F3FE3
:104F4000E9F220913D0230E0C9010196877099276E
:104F500040916E024817190671F40E949D19109233
:104F60003D0210926E0286E0E7E3F2E0DF011D925F
:104F70008A95E9F7C3CF96E0929FD001939FB00D39
:104F80001124A25CBD4FFE01319601900D929A95BD
:104F9000E1F780933D020E94CD0CB0CF819FC0010C
:104FA0001124825C9D4F0E94D825882309F4ADCF3F
:104FB00080916E0290E001968770992780936E022F
:104FC0009ECF9F92AF92BF92CF92DF92EF92FF92CD
:104FD0000F931F93CF93DF93CDB7DEB72F970FB605
:104FE000F894DEBF0FBECDBF8E010F5F1F4F8AE06A
:104FF000D8011D928A95E9F789ECE82E81E0F82E18
:10500000D12CC12CAA24A394B12CF70181917F014A
:105010008F3F09F444C0F894E82FE295EF70F0E078
:1050200021A18F70A50102C0440F551F8A95E2F798
:10503000CA01922F982B91A392A18095892382A3D4
:105040000E94670A00C0E3EDF1E0912C31E021916C
:105050002F3F09F479C0A22FA295AF70B0E09096CF
:105060008C9190E02F7002C0959587952A95E2F774
:1050700080FD6AC0832F982A330F51E0EA3DF5077F
:1050800031F7F701319780818F3F11F00E948B0A31
:1050900080EA8A95F1F7F801EC0DFD1D9082AFEFE3
:1050A000CA1ADA0AB5E0CB16D10409F0AECF4AE04D
:1050B00050E0B8018BEF92E00E94CE347C01892B46
:1050C00041F08AE0F801ABEFB2E001900D928A95D1
:1050D000E1F710910603E114F104C1F181E080933E
:1050E00076020E94EF18909375028093740280916B
:1050F0007402909175020E94E018059778F0ABEF6A
:10510000B2E0E12FF0E0E45CFC4F80E093E02D9111
:1051100021938A179B07D9F71092760281E090E0DD
:10512000EF28C1F02F960FB6F894DEBF0FBECDBFAB
:10513000DF91CF911F910F91FF90EF90DF90CF9073
:10514000BF90AF909F90089580E095CF80917602B8
:105150008111CDCF0E943110F82EE09106038823F3
:1051600009F482C06E01FBE0CF0ED11C85E0D601B0
:105170001D928A95E9F70E2F10E0045C1C4F809178
:1051800046038A30E8F544E856E1B601C8010E94BA
:10519000ED0F882309F444C04FE156E1B601C80180
:1051A0000E94ED0F8823E1F14FEA57E1B601C801F3
:1051B0000E94ED0F8823A1F14FE857E1B601C80125
:1051C0000E94ED0F882361F144E557E1B601C80163
:1051D0000E94ED0F882321F1109246038091050370
:1051E00090E045E050E0B601845C9C4F0E94CE34D4
:1051F00021E020937D02892B51F5F12C8F2D92CF48
:1052000080917702909178020E94E018843F91404B
:1052100008F0B9CF80917D02811112C080E082CF69
:10522000809146038F3F29F08F5F809346038A3039
:10523000A8F20E94EF189093780280937702EACF49
:1052400085E0F60111928A95E9F710927D02A0910E
:105250000503B0E0A45CBC4F85E0FE013B960190E5
:105260000D928A95E1F7CACFF0E0E45CFC4FF89428
:1052700085E0A0E8B2E001900D928A95E1F780E820
:1052800092E00E94310780937F020E94670AF8949F
:10529000C0908502D0908602E0908702F09088024C
:1052A0008091790290917A02A0917B02B0917C0268
:1052B000C816D906EA06FB06D1F0C0927902D09250
:1052C0007A02E0927B02F0927C020E9431108111FE
:1052D0000EC00E94E708C61AD70AE80AF90AC09267
:1052E000F502D092F602E092F702F092F8020E94E4
:1052F000670AF894809189028093650480918A02FC
:105300008093E8020E94670AF89480918B02809350
:105310003C040E94670AF894809193028823F1F07C
:1053200080FF0DC080918C0280FF1BC090913104E2
:1053300091609093310460E086950E94F31480910F
:10534000930281FF09C020E040918F0260918E029C
:1053500080918D020E949613109293020E94670A18
:105360005DCF0E94D80FEBCF1F921FB61F92112462
:105370008F939F93AF93BF9380914304811113C088
:105380008091440490914504A0914604B091470453
:105390004196A11DB11D8093440490934504A093B0
:1053A0004604B0934704BF91AF919F918F911F9096
:1053B0001FBE1F901895CDB7DEB7E1970FB6F894D2
:1053C000DEBF0FBECDBF84B7877F84BF0FB6F89412
:1053D000A8958091600088618093600010926000C1
:1053E0000FBE80E890E00FB6F89480936100909330
:1053F00061000FBE85B7806885BF85B7806885BFAF
:1054000085E69AE090930102809300020E9448078B
:105410000E9413088091E20084608093E2007894F7
:10542000809158048823A1F01091E9001F70909199
:10543000EC00892F817090FD80E8182B1092E90014
:105440008091E80083FD0E94A8191F701093E90065
:1054500082E084BD93E095BD9AEF97BD80936E0086
:105460001092F5021092F6021092F7021092F802D2
:105470000E945D13811102C00E94B9120E94311076
:105480008093000180910001882309F474C0109278
:10549000900183E2809391010E94311081110E945A
:1054A000AD32809100018091000195E0811190E082
:1054B0009093060385E0891B8093050309EC11E0B6
:1054C0003EECE32E31E0F32ED8018D918D018F3F1C
:1054D00011F00E948B0AE016F106B1F703ED11E01E
:1054E0002AEDE22E21E0F22EF80181918F018F3F0B
:1054F00011F00E948B0AE016F106B1F78AE0ECE3A6
:10550000F3E0DF01282F1D922A95E9F7EBEFF2E097
:10551000DF011D928A95E9F70E94D817811102C018
:105520000E94691582E090E00E94E4348093310388
:105530000E9476139093FA028093F9020E94E12769
:10554000EFE3FCE93197F1F700C000000E94E1278A
:105550000E943110E4E08111E0E0F0E0E45CFC4FF7
:10556000808181FF0CC06FEF7FEF90E080E00E94B0
:1055700016350E94D60883E2809390018BCF83E09A
:1055800090E00E94E4340E9499190E943B150E9409
:105590003110811102C00E94B03210922C0380E8B9
:1055A000809366040E943F316DE070E08CE492E0ED
:1055B0000E949A0E892BE9F580912C0363E070E03C
:1055C00081FDA1C289E492E00E949A0E892B89F59F
:1055D0006DE070E089E392E00E949A0E892B49F514
:1055E0000E94E708605A75418F4F9F4F60933604C1
:1055F000709337048093380490933904E9E6F4E01B
:1056000080E092E0DF019C011D9221503040E1F7E3
:10561000F0937006E0936F068FEF9FEF909368040E
:105620008093670481E080933B0480933A04109256
:105630002D0380910703811136C00E94D817811174
:1056400004C00E9469150E94231588E090E00E9422
:10565000EC3460933104709332048093330490935C
:10566000340480915E03836080935E036E7F71F4E7
:105670000E94231588E090E00E94EC34609331048E
:105680007093320480933304909334040E9432095F
:105690008091310480FF04C060E086950E94F3147D
:1056A00081E0809307031092B90088E98093B800E5
:1056B0003FE74FEA82E0315040408040E1F700C0D0
:1056C0000000809131038360809331038DE59AE07F
:1056D00090938F0180938E0188E190E090938A01EE
:1056E0008093890188E390E090938D0180938C01F1
:1056F00083E190E00E94EC34172F609308037093CD
:10570000090380930A0390930B03E62FF0E0EE0F5A
:10571000FF1FE652FE4FE080F180B70190E080E08D
:105720000E94623590580E942C3560930401E092EB
:105730000301E12FF0E0EE0FFF1FE652FE4F008164
:105740001181B80190E080E00E94623590580E947B
:105750002C35609302010093010185E091E0909364
:10576000400480933F0444244394512C10E4612E60
:105770008091580400E112E1853009F402C20E94D0
:10578000E127D82E81110E94E708BCE32B2EB3E05D
:105790003B2EE2E3F3E0D10110E000E0B02EED900B
:1057A00081918E1509F4FCC18E25C12CFF24F39440
:1057B000982F9F2109F4EFC10E943110882399F09E
:1057C000C9A2BAA2EF2081E009F480E08BA30E9475
:1057D000EF188160782F9DA38CA349A15AA16BA1DA
:1057E0008DA10E945127F801EE5CFC4F8081F826C4
:1057F000F08280913B04882351F180912E03909197
:105800002F030E94E018C29708F0E1C120916704BD
:10581000309168042115310509F067C280913A047E
:105820008823A9F00E94E7080091360410913704FC
:105830002091380430913904601B710B820B930B5B
:105840006F3F7F4F8F4F9F4710F40E94CA0ED110B9
:105850000E94E50E86E0E6E5F3E0DE011196019098
:105860000D928A95E1F7F0905803E090590310915A
:105870005A0300915B03109258031092590310923F
:105880005A0310925B038F2D8E2909F448C0809132
:105890005403909155030E94E0189C01909150038D
:1058A000992309F4E7C423333105C8F19F3F19F068
:1058B0009F5F90935003FF2059F00E94E3099FEFF0
:1058C0001F140CF491E0899F802D112480935803BC
:1058D000EE2059F00E94E3099FEF1E140CF491E0B2
:1058E000899F802D112480935903309158033323CD
:1058F000B1F020915903222391F045EB3403C0010C
:105900001124992309F4C1C29093580345EB240351
:1059100090011124332309F4BCC230935903812F21
:10592000802B09F448C080915203909153030E9448
:10593000E0189C0190914F03992309F496C42536F1
:105940003105C8F19F3F19F09F5F90934F031123DA
:1059500059F00E94C1099FEF11160CF491E0899F44
:10596000802D112480935A03002359F00E94C1090D
:105970009FEF10160CF491E0899F802D11248093E5
:105980005B0330915A033323B1F020915B03222350
:1059900091F045EB3403C0011124992309F47DC231
:1059A00090935A0345EB240390011124332309F407
:1059B00078C230935B038091580390915903892BEF
:1059C00090915A03892B90915B03892B11F00E94CF
:1059D000FB1886E0FE013196A6E5B3E001900D923A
:1059E0008A95E1F70E94CB100E94551090913003E8
:1059F000891721F00E94551080933003809158043C
:105A0000843009F452C20E943110882309F4B0CEC8
:105A100040914B0350914C0360914D0370914E03A4
:105A20002FB7F8948091440490914504A0914604C6
:105A3000B09147042FBF841B950BA60BB70B0B9798
:105A4000A105B10508F494CE1BA61CA68BE08DA77A
:105A5000909146039A3008F089CE89831A8282E0B9
:105A60008B8310926A018093810110E000E030E0A6
:105A700020E043E050E0BE016F5F7F4F87E00E946F
:105A8000CE15882309F472CE30E020E050E040E0EB
:105A900070E060E088E00E94CE15882309F466CEAD
:105AA00030E020E041E050E0BE01635D7F4F89E0DF
:105AB0000E94CE15882309F459CE02E010E09E0121
:105AC000255D3F4F50E040E070E060E08AE00E94DA
:105AD000CE15882309F44ACE0E94E70860934B0351
